:020000043418AE
:1004000050ED19343D3F183445D91834293F18347C
:10041000293F1834293F1834293F1834293F18340C
:10042000000000000000000000000000AD40183493
:10043000293F1834000000004D40183455961834F8
:100440001542183415421834154218341542183420
:100450001542183415421834154218341542183410
:100460001542183415421834154218341542183400
:1004700015421834154218341542183415421834F0
:1007480080F0004002E000BF81F0004142001FBF7E
:100758005FEA410392EA030F7FEA226C7FEA236C87
:100768006AD04FEA1262D2EB1363C1BFD21841407C
:1007780048404140B8BF5B42192B88BF704710F012
:10078800004F40F4000020F07F4018BF404211F0B5
:10079800004F41F4000121F07F4118BF494292EA1D
:1007A800030F3FD0A2F1010241FA03FC10EB0C0049
:1007B800C3F1200301FA03F100F0004302D54942D6
:1007C80060EB4000B0F5000F13D3B0F1807F06D383
:1007D80040084FEA310102F10102FE2A51D2B1F17B
:1007E800004F40EBC25008BF20F0010040EA030070
:1007F8007047490040EB0000013A28BFB0F5000FF0
:10080800EDD2B0FA80FCACF1080CB2EB0C0200FAA5
:100818000CF0AABF00EBC25052421843BCBFD040F4
:100828001843704792F0000F81F4000106BF80F46E
:1008380000000132013BB5E74FEA41037FEA226C31
:1008480018BF7FEA236C21D092EA030F04D092F0FC
:10085800000F08BF0846704790EA010F1CBF002030
:10086800704712F07F4F04D1400028BF40F000408D
:10087800704712F100723CBF00F50000704700F0AD
:10088800004343F0FE4040F4000070477FEA2262D4
:1008980016BF08467FEA23630146420206BF5FEAA5
:1008A800412390EA010F40F4800070474FF00003A5
:1008B80004E000BF10F0004348BF40425FEA000C6C
:1008C80008BF704743F0964301464FF000001CE014
:1008D80050EA010208BF70474FF000030AE000BF6A
:1008E80050EA010208BF704711F0004302D54042A8
:1008F80061EB41015FEA010C02BF8446014600201A
:1009080043F0B64308BFA3F18053A3F50003BCFA34
:100918008CF2083AA3EBC25310DB01FA02FC6344E1
:1009280000FA02FCC2F12002BCF1004F20FA02F2E8
:1009380043EB020008BF20F00100704702F12002DB
:1009480001FA02FCC2F1200250EA4C0021FA02F23C
:1009580043EB020008BF20EADC7070474FF0FF0C41
:100968001CEAD0521EBF1CEAD15392EA0C0F93EA3C
:100978000C0F6FD01A4480EA010C400218BF5FEADE
:1009880041211ED04FF0006343EA501043EA511151
:10099800A0FB01310CF00040B1F5000F3EBF49004B
:1009A80041EAD3715B0040EA010062F17F02FD2A4F
:1009B8001DD8B3F1004F40EBC25008BF20F0010032
:1009C800704790F0000F0CF0004C08BF49024CEA49
:1009D800502040EA51207F3AC2BFD2F1FF0340EADB
:1009E800C250704740F400004FF00003013A5DDC4C
:1009F80012F1190FDCBF00F000407047C2F100028D
:100A0800410021FA02F1C2F1200200FA02FC5FEA79
:100A1800310040F1000053EA4C0308BF20EADC70C3
:100A2800704792F0000F00F0004C02BF400010F435
:100A3800000F013AF9D040EA0C0093F0000F01F0E2
:100A4800004C02BF490011F4000F013BF9D041EA04
:100A58000C018FE70CEAD15392EA0C0F18BF93EA06
:100A68000C0F0AD030F0004C18BF31F0004CD8D130
:100A780080EA010000F00040704790F0000F17BFB7
:100A880090F0004F084691F0000F91F0004F14D0FD
:100A980092EA0C0F01D142020FD193EA0C0F03D155
:100AA8004B0218BF084608D180EA010000F0004058
:100AB80040F0FE4040F40000704740F0FE4040F433
:100AC800400070474FF0FF0C1CEAD0521EBF1CEAD2
:100AD800D15392EA0C0F93EA0C0F69D0A2EB0302F0
:100AE80080EA010C49024FEA402037D04FF080538A
:100AF80043EA111143EA10130CF000408B4238BF4F
:100B08005B0042F17D024FF4000C8B4224BF5B1A5C
:100B180040EA0C00B3EB510F24BFA3EB510340EAAA
:100B28005C00B3EB910F24BFA3EB910340EA9C0058
:100B3800B3EBD10F24BFA3EBD10340EADC001B01C8
:100B480018BF5FEA1C1CE0D1FD2A3FF650AF8B426C
:100B580040EBC25008BF20F0010070470CF0004C79
:100B68004CEA50207F32C2BFD2F1FF0340EAC250A4
:100B7800704740F400004FF00003013A37E792F065
:100B8800000F00F0004C02BF400010F4000F013AC3
:100B9800F9D040EA0C0093F0000F01F0004C02BFBE
:100BA800490011F4000F013BF9D041EA0C0195E727
:100BB8000CEAD15392EA0C0F08D142027FF47DAFC0
:100BC80093EA0C0F7FF470AF084676E793EA0C0FB0
:100BD80004D14B023FF44CAF08466EE730F0004CAE
:100BE80018BF31F0004CCAD130F000427FF45CAF3E
:100BF80031F000437FF43CAF5FE700BF42000ED204
:100C0800B2F1FE4F0BD34FF09E03B3EB126209D43F
:100C18004FEA002343F0004323FA02F070474FF0F5
:100C28000000704712F1610F01D1420202D14FF06A
:100C3800FF3070474FF00000704700BF03685A004C
:100C48004CBF43F0004323F00043184470472DE99C
:100C5800F0470646174641B301394FF00009884668
:100C680009EB080404EBD474641006EBC4054FEADE
:100C7800C40A2846FFF7E2FFA14204D1B84204D8CB
:100C88002846BDE8F087B84204D9A1450DD004F143
:100C9800FF38E5E70AF108003044FFF7CFFF0138D5
:100CA800B842EDD204F10109DAE70025E8E70128A6
:100CB80006D0022806D00028034818BF0020704735
:100CC8000248704702487047D1121834D5121834B8
:100CD800D91218341F4B37B504468D1E4BB101A9E4
:100CE8002846AFF3008048B900230920236103B0E8
:100CF80030BD1948194B1B1ADB10019301992A467C
:100D0800FFF7A5FF01460028EED0FFF797FF4B68D5
:100D1800A064012B1AD0002B01F1040010DBFFF7AF
:100D28008DFF0023C4E913030368002B0ADAC3F319
:100D38000360FFF7BCFF03460028D5D00020D5E7A5
:100D48000123EFE7FFF77AFF0346F7E700230520C3
:100D5800CCE700BF00000000B04D1934784E1934BC
:100D68000368DA0710B5044605D49B0700F148006C
:100D780018D500F0F7FB2368590703D404F1D00015
:100D880000F0F8FB23681A0703D404F5A87000F0F4
:100D9800F9FB2368DB0608D404F5E870BDE81040C9
:100DA80000F034BC00F0D6FBE5E710BD0920704721
:100DB8000346006800B118447047704770B505468F
:100DC8000C46216C2846FFF785FF064608B103F05C
:100DD8003DFC236C2246294601206B612B6998470C
:100DE8000828EED00728F2D13046216CFFF7E5FF3E
:100DF800201D00F0A3FB2DE9F0470C1DADF5727D19
:100E0800D0F80C900746D0F818A0164603AD0DF19F
:100E180008080FCC0FC50FCC0FC50FCC0FC594E831
:100E28000F0085E80F000025C8F800500936D8F8EB
:100E380040103846FFF74EFF0446F6B268BBD8F8B4
:100E480040304FF4F07241467AA87B6113F09CFA67
:100E58003B697AAA394630469847889B0546C8F8C0
:100E680044303A463B4631460120CDE9008AC8471E
:100E7800C0B9C4B94FF4F0727AA94046264613F0B7
:100E880083FA082DD2D0072D0CD12046D8F840106F
:100E9800FFF793FF03A800F051FB46F01006D8F8BF
:100EA8003830DCE7092420460DF5727DBDE8F0876F
:100EB800406C7047F0B5CB6BF9B00D1D06460B645E
:100EC8000F4601AC0FCD0FC40FCD0FC40FCD0FC40B
:100ED80095E80F0084E80F004FF0FF330093109956
:100EE8003046FFF7F7FE78B933696A4631469847C6
:100EF80008280446F3D06846FFF732FF062C03D1D2
:100F080039463046FFF75AFF092079B0F0BD10B4D2
:100F18008261DA6BC16019461A64002210BC6AE764
:100F280070B543690446C6680D460B6426B10122B4
:100F3800FFF761FF03F08AFB03690A4601460220B6
:100F48009847072805D00828F4D129462046FFF7F6
:100F580035FF3046296CFFF730FF281D00F0EEFA08
:100F6800C26802B9A6E7CA6B0A64002243E7704761
:100F7800836801460BB1012018477047012910B555
:100F88000446084605D005D9C81E01288CBF022092
:100F9800012010BD43B90F2A06D804EB8204029A37
:100FA800184661681160F4E70220F2E71FB503AB49
:100FB8000A46009300231946FFF7E0FF039805B09F
:100FC8005DF804FB012910B50446084605D005D98B
:100FD800C81E01288CBF0220012010BD43B90F2A6A
:100FE80006D8029904EB8204184609686160F4E7A0
:100FF8000220F2E71FB503AB03920A4600930023D1
:101008001946FFF7DFFF05B05DF804FBF0B5D36BB9
:10101800ADF50F7D141D064613640F4617AD0FCCB2
:101028000FC50FCC0FC50FCC0FC594E80F0085E88E
:101038000F004FF0FF33169326996846FFF74AFED4
:1010480090B90C2116A86A46FFF7D4FF394616A8AE
:10105800B04748B9049B16AA69460820984705284E
:10106800044602D00928E7D1092416A8FFF778FE1C
:1010780020460DF50F7DF0BD2DE9F04FCD6C87B002
:1010880017460C4655F8042B00F003099A460495B8
:101098003BBB12028DF8153003230392B9F1020FFE
:1010A8008DF81430236D08BFA56B13F0010322D10E
:1010B80000F0080800932B6843BB03A9384600F0EA
:1010C80042FB002840F0FB80009BDBB10F21384633
:1010D800FFF76CFF0E2102463846FFF78BFF794A6F
:1010E80055E0130C12048DF81530DBB2039205EBB2
:1010F80083050223D2E703A9384600F024FB002821
:1011080040F0DD80082007B0BDE8F08FBAF1020F8B
:10111800A26C4FF00F01384607BFD5F804B005F1AF
:101128000806B5F802B02E1D18BF2B882BF0010554
:1011380001931544FFF73AFF019B854229D823F014
:1011480001022A44824294BF002201224FEA4B0046
:1011580003F0010300F0020040EA0305012D1AD054
:10116800022D5ED0002D40F0AA80351DB9F1000F88
:10117800A1D0002A9FD03046FFF760FDA563064640
:101188002046AFF30080002800F0998032460F21F6
:101198003FE00022DAE7B9F1000F26D1002A3DD05E
:1011A80073683268991C4FEAD27200F0888004F1A3
:1011B80058010133029109D0301DFFF7F9FD02AB48
:1011C80001462046AFF30080054638B30D21384666
:1011D800FFF7ECFE022D029B206202D1E36204F1CC
:1011E8002C030620C4E909368DE7256A0D21384607
:1011F800FFF7DCFE854211D1A36A9E420ED130462C
:10120800FFF71CFD0F2102463846FFF7F3FE224682
:1012180000213846FFF7EEFE072074E706F10805BF
:1012280049E7356825F00045B9F1000F2AD1A2B188
:10123800B8F1000F19D085B9CB4617E00BF1010BB7
:10124800019B002206EB8B000293FFF7B1FD02AB76
:1012580001462046AFF3008058B13368002B00DA0E
:101268000436013506EB850525E7C34604F1580326
:101278000193AB45E2D10D213846FFF797FE029B5B
:101288002062AEE7D4F820B00D213846FFF78EFE75
:101298008345E2D1A36A9E42DFD14FF0000B0423BD
:1012A800A562C4E90BB3F318636333685B4503DADB
:1012B800681C06EB8000A3E701230093D1E709200F
:1012C80021E700BF000000000023D5E60123D3E694
:1012D8000223D1E62DE9F0410546C2B014461E4668
:1012E800042925D8DFE811F005001C002400D600E9
:1012F8000301EEB9836B92B20121043001FA06F7BB
:1013080017421CBF53F8047B40F826700136102E94
:10131800F4D1A60400D4AB63002042B0BDE8F0814C
:10132800012E4FEA124794B204D13B19102B41D930
:101338000220F2E7052EFBD107EB0408B8F1200FD5
:10134800F6D80F2F4DD9002CE6D00368A0465807D1
:1013580008D523F00403284640F8D03B00F00EF9E6
:101368000F2F48D9684600F009F9AB6B102F3A46A1
:1013780042A94FEA480838BF10221C4608F1FF3836
:1013880001EBC2024FEA8801A2F5C472101F02EBFA
:10139800880254F804CB40F804CF8242F9D10A1DE0
:1013A800012E134417D00F2FAB636FD9684600F096
:1013B800E1F8B1E7102FBBD00368DA0705D523F0B1
:1013C800030340F8483B00F0C9F820A800F0C6F82D
:1013D800AB6B002C3FD1043320A8AB6300F0BAF804
:1013E8009AE7B8F1100F03682DD9DC07A8F11008A7
:1013F80042D45807ADD420A8C7F1100400F0B6F8BD
:10140800684600F0BBF820AA6400AB6B02EBC70289
:10141800013C101FA10002EB84021C4654F804CBC7
:1014280040F804CF9042F9D10A1D1344B8F1000FD7
:101438009CD1012ECFD00F2FAB633FF66DAF20A804
:1014480000F090F868E7D9070DD420A800F08EF8CE
:10145800AB6B002CF3D0640020AA4FF0000802EB1D
:10146800C702013CD5E723F0010343F0020340F82B
:10147800483B00F07BF8E8E723F0010343F0020360
:1014880040F8483B00F072F82B68B2E720A800F05B
:1014980069F88BE7032E7FF44BAF97B2160C07EB76
:1014A8001244102C3FF644AF0368190706D523F001
:1014B8000803036000F5A87000F086F820A800F083
:1014C80083F820ABAA6BF90003EBC60303EBC7074D
:1014D800D41ABB4203EB040005D10A4420A8AA632E
:1014E80000F050F818E7006843F8040BF1E7002E05
:1014F8007FF41EAF102A3FF61BAF0368DA0606D545
:1015080023F01003036000F5E87000F089F820AEBE
:10151800304600F085F8AB6B0022012101FA02F099
:1015280020421CBF53F8040B46F822000132042A5B
:10153800F4D13046AB6300F069F8EDE600F1340110
:1015480091E838009C46A6464CF8045D90E8FF0FE9
:10155800E54600BD90EC210B704700BF80EC210BE5
:10156800704700BF90EC200B704700BF80EC200B49
:10157800704700BFD0EC200B704700BFC0EC200BB9
:10158800704700BFF0EC0201F0EC0211F0EC022110
:10159800F0EC0231F0EC0241F0EC0251F0EC0261A7
:1015A800F0EC0271F0EC0281F0EC0291F0EC02A197
:1015B800F0EC02B1F0EC02C1F0EC02D1F0EC02E187
:1015C800F0EC02F1704700BFE0EC0201E0EC021120
:1015D800E0EC0221E0EC0231E0EC0241E0EC0251E7
:1015E800E0EC0261E0EC0271E0EC0281E0EC0291D7
:1015F800E0EC02A1E0EC02B1E0EC02C1E0EC02D1C7
:10160800E0EC02E1E0EC02F1704700BFB0FC0181C0
:10161800B0FC0191B0FC01A1B0FC01B1704700BF62
:10162800A0FC0181A0FC0191A0FC01A1A0FC01B1DA
:10163800704700BFEC4600B52DE900502DE9FF1FAB
:101648004FF000032DE90C0001A9FFF733FCDDF88A
:1016580040E012B0704700BFEC4600B52DE90050DD
:101668002DE9FF1F4FF000032DE90C0001A9FFF73A
:1016780057FCDDF840E012B0704700BFEC4600B5FB
:101688002DE900502DE9FF1F4FF000032DE90C0054
:1016980001A9FFF765FCDDF840E012B0704700BF14
:1016A800EC4600B52DE900502DE9FF1F4FF000036F
:1016B8002DE90C0001ABFFF72AFCDDF840E012B081
:1016C800704700BFEC4600B52DE900502DE9FF1F1B
:1016D8004FF000032DE90C0001AAFFF797FCDDF895
:1016E80040E012B0704700BF10F8012B11F8013B21
:1016F800012A28BF9A42F7D0D01A7047027A0346C7
:101708007AB9427A82B1013A42724268111D12686E
:101718000260032241601A721A68100E12021A60DF
:101728007047013AD2B2F6E7B02070471FB503AB55
:101738000C22009300231946FFF720FC039805B0FC
:101748005DF804FBF2E72DE9F043054685B00E4647
:101758004FF000083046FFF7D1FFB028044615D1F6
:10176800B8F1000F0ED103AC43460E22414628467D
:101778000094FFF703FC43460F2241462846009495
:10178800FFF720FC002005B0BDE8F08302061DD459
:101798004FEA8009002303AF0D225FFA89F9194641
:1017A80028460097FFF7EAFB09F10409039B14F0A8
:1017B800400F14BFA3EB09034B4403930023009786
:1017C8000D2219462846FFF7FDFBC3E700F0F0039A
:1017D800802B18D104023046FFF790FF0443B4F57C
:1017E800004F01D10920CEE7240100232846A2B2E8
:1017F8001946FFF76FFD0028F4D114F4004F18BF05
:101808004FF00108A6E7902B0DD100F00D030D2B2A
:10181800E8D003AF002300F00F02284619460097CE
:10182800FFF7ACFBCAE7A02B13D1C3434FF47F6289
:1018380003F007031A41030702F47F6201D542F45B
:101848008042002319462846FFF744FD002881D02E
:10185800C8E7B02B46D1B12808D13046FFF74EFF74
:10186800431E0246DBB20E2BEBD9BBE7B22820D1D0
:10187800002303AC0D222846194600940227FFF7DF
:101888007DFB3046FFF73AFF00F07F0110F0800340
:10189800039A01FA07F105D102F5017200940A448E
:1018A80003928DE70A44304607370392FFF726FF75
:1018B800EAE7B3280BD13046FFF720FF01230203E4
:1018C80000F00F0002F4702201300243BAE700F082
:1018D800FC03B42B86D000F007020123013242F446
:1018E8000022AFE7C02B44D1C6280AD13046FFF703
:1018F80005FF0323020300F00F0002F470220130F9
:10190800E3E7C7280BD13046FFF7F8FE431E02462F
:10191800DBB20E2B3FF666AF0023042193E700F0FD
:10192800F803C02B06D100F00F020323013242F462
:10193800202287E7C8280DD13046FFF7DFFE00F0E8
:10194800F00200F00F0005231032013040EA0232A5
:10195800012178E7C9287FF445AF3046FFF7CEFE6E
:101968000523020300F00F0002F470220130024345
:10197800EEE700F0F803D02B7FF434AF00F0070255
:101988000523013242F40022E2E71FB50346084668
:10199800DA6C53680832190202921B0E0322019175
:1019A80001A98DF80C208DF80D30FFF7CCFE05B09D
:1019B8005DF804FB08B5FFF7C5FE806C08BD08B5E7
:1019C800FFF7C0FEC06CC379023300EB830008BD8B
:1019D80000B587B04FF0FF324FF0FF33CDE9022357
:1019E800144B0093144B154A15490968154803F020
:1019F80049FFA8B100908023134A012113480BF036
:101A08009CFE07B05DF804FB198AD8680FF09BFBB1
:101A1800059900200CF040FA0590059B002BF3D1A6
:101A280044F62062002305A906480CF053FB002861
:101A3800F6DBF2E7F45A1934EC5A1934E45A19343B
:101A4800B8B51934C0AD1934C0591934005919340E
:101A580008B50346024A032102480BF063FE08BD9D
:101A6800E45919340059193410B58CB008F036FA15
:101A7800354B18600EF057F800283AD0324B1868EA
:101A880040F26B33314A09A905F030FB041E38DBFC
:101A98002D4B186809A90CF055FF041E38DB2A4B9A
:101AA80018688368DB68042198470446002836D103
:101AB800254B186883685B6898470446002835D129
:101AC80000220023CDE90623002304930222039277
:101AD8000293019300931E4B4FF480621D491E48E8
:101AE8000EF0D3FA48B31D490EF0BFFA20460CB0E9
:101AF80010BD1B4A01211B480BF00AFE4FF0FF34B2
:101B0800F4E72346184A012116480BF00BFEEDE7CF
:101B18002346164A012113480BF004FEE6E7034664
:101B2800134A01210F480BF0FDFDDFE70346114A78
:101B380001210C480BF0F6FDD8E70F4A01210948AE
:101B48000BF0E6FDD2E700BFB8B5193420A10700B5
:101B5800D919183410CD193498AC1934B45A193429
:101B6800FC591934005919341C5A1934385A193483
:101B7800545A1934745A1934985A193410B584B00F
:101B880002460B46002103910C4902910C49019130
:101B98000C4900910C4909680C480CF0ACFA044651
:101BA80010B9204604B010BD00904FF4C073084A25
:101BB800022108480BF0C1FDF3E700BF591A183499
:101BC800EC5A1934E45A1934B8B5193418AD193423
:101BD800BC5A1934005919343F280CD8074B53F80C
:101BE80020301BB11B880B800020704700230B801E
:101BF8006FF0850070476FF085007047BCB51934E9
:101C08003F2806D8064B53F820302BB11980002006
:101C180070476FF0850070476FF08500704700BF10
:101C2800BCB5193430B583B003F04EFF04460F4AF3
:101C380002F10C0393E803008DE803000ECA204666
:101C480003F058FF48B905462346094A03210948C5
:101C58000BF068FD284603B030BD2346064A012133
:101C680004480BF05FFD4FF0FF35F3E76C5B193468
:101C7800385B193460591934005B19343F2904D88A
:101C8800034B43F82100002070474FF0FF307047A6
:101C9800BCB5193490B583B000AF02285BD00328D7
:101CA80000F0AD80012802D00C37BD4690BD6C46CF
:101CB80000233B7102237B7188B0EC461CF11002B3
:101CC8001DD00E2022B1042802DD774BCCF8143049
:101CD80000233B7002237B70A2B1082801DDCCF8F9
:101CE80018100CF11C03002101290BD801F1080E72
:101CF800BE441EF808EC03F801EB0131F4E76FF07D
:101D08000040DFE70D2823DD0E234AB10321397196
:101D180000217971B9710121F9717868CCF8100046
:101D280000216FF300016FF341016FF382016FF33C
:101D3800C501012060F38811C3F30A0363F353213B
:101D48006FF31F510023594801F02CF9A546ABE762
:101D58006FF01B03D9E76C4600233B7102237B71AC
:101D680088B0EC461CF110021DD00E2022B10428C8
:101D780002DD4D4BCCF8143000233B7002237B70FE
:101D8800A2B1082801DDCCF818100CF11C030021C1
:101D980001290BD801F1080EBE441EF808EC03F81F
:101DA80001EB0131F4E76FF00040DFE70D2823DD98
:101DB8000E234AB10321397100217971B9710121CA
:101DC800F9717868CCF8100000216FF300016FF307
:101DD80041016FF382016FF3C501022060F388119E
:101DE800C3F30A0363F353216FF31F5100232F48F2
:101DF80001F0D8F8A54657E76FF01B03D9E76C4602
:101E080000233B7102237B7188B0EC461CF1100261
:101E18001DD00E2022B1042802DD234BCCF814304B
:101E280000233B7002237B70A2B1082801DDCCF8A7
:101E380018100CF11C03002101290BD801F1080E20
:101E4800BE441EF808EC03F801EB0131F4E76FF02B
:101E58000040DFE70D2823DD0E234AB10321397145
:101E680000217971B9710121F9717868CCF81000F5
:101E780000216FF300016FF341016FF382016FF3EB
:101E8800C501032060F38811C3F30A0363F35321E8
:101E98006FF31F510023054801F084F8A54603E7B6
:101EA8006FF01B03D9E700BF905B193488591934C8
:101EB80038B5836805699C697CB112F4000F06D0B7
:101EC8002D6801238B401D4201D082F0C062044B73
:101ED800134002F01662A04738BD6FF05700FBE7C9
:101EE800400000062DE9F04F91B005920293134689
:101EF80002F004020092C3F3C20210F0030301933C
:101F080040F02B8280468A460132041D00284FD0BB
:101F1800B8F1000F05D0A4EB08030433534500F2D1
:101F28001F82029B5D1E019B049306930393002668
:101F38004FF0FF3B0427B946B8F1000F01D0029BD0
:101F48002360531E0793002A40F35D81059B13F01D
:101F5800020228D00120A4EB08018B081AB1B1F5C0
:101F6800007F80F0038203990F2900F20282B8F102
:101F7800000F00F06081DBB201F140026A4402F810
:101F8800103C02F820BC002800F0518163F07F0368
:101F980001F140026A4402F8103C049B01330493A7
:101FA800039B0133039304340022CC4640463DE0B2
:101FB80001F0070A5444CAF1080AA9E7002634E0E8
:101FC800002632E0002630E00827BC462DE025290F
:101FD8002BD10BF1010B01260427BC4625E047292C
:101FE800EED82A2914D32A39C9B24FF0010E0EFAB5
:101FF80001F14FF6DA7E11EA0E0F16D111F0625F89
:1020080040F0C08011F0010F40F08C8000260CE0F9
:10201800252903D10BF1FF3B002606E001D9002654
:1020280003E0202901D02329CCD11D466B1C6978F7
:10203800002900F01981002EC9D07A29BED84C2970
:10204800CDD34C392E2961D80FF2040E5EF821F059
:102058003320183415211834152118341521183453
:102068001521183415211834152118341521183460
:102078001521183415211834152118341521183450
:102088002521183415211834152118341521183430
:102098001521183415211834152118341521183430
:1020A800152118348D211834152118342521183498
:1020B800252118348D2118348D2118348D21183498
:1020C8003320183425211834D11F18341521183419
:1020D8003320183415211834E921183425211834EF
:1020E800E92118341521183415211834F121183430
:1020F8001F211834252118341521183415211834B6
:1021080025211834152118341921183400268CE794
:102118000427BC4689E70427BC4686E729786C294A
:1021280024D000263C44013CB4FBF7F407FB04F43C
:1021380020B1211A6144514500F21581002A58D175
:10214800BCF1040F00F08880BCF1080F40F0148146
:102158001A99073121F0070101F108051A95D1E90B
:10216800008908B1C4E9008908345EE713F8021C45
:102178006C2903D000260427BC46D3E7002608278D
:10218800BC46CFE729784C291AD01A99073121F093
:10219800070101F108061A96D1E90067073424F00F
:1021A800070440B1211A0831514513D829784C2920
:1021B80013D0C4E90067083400260827BC4634E772
:1021C8001A99073121F0070101F108061A96D1E999
:1021D8000067E3E76FF01B00BCE0C4E90067EAE7CB
:1021E80000260427BC469DE7324600260427BC4645
:1021F80098E7E14680461A9A111D1A9112680292D0
:10220800079A1D4698E6624B029A9A4204D3614B9C
:102218009A420AD3002300E00023002B7FF496AEF5
:10222800059B03F00202002095E60123F5E7069BD3
:1022380001330693B4E610B10AF1010AB0E6009B37
:1022480013B10AF1020AABE6029812F02CF80AEB75
:10225800000303F1020AA3E61A990D1D1A950968ED
:1022680000B121600434E0E68046231AB3F5806F9C
:1022780080F0858090B1002202609B080370009B6B
:1022880083B1069BC370049B88F802301BBB019D79
:10229800DDF80C90DDF810B0029F3DE05344A3F147
:1022A800080057E0069B4370EDE701339842EED9EA
:1022B80003F140026A4412F8101C12F9102C002A8B
:1022C800F3DA01F07F01A4EB08020132524559D834
:1022D80004F8011BE9E7019B0398E7E7009B43B378
:1022E80005F140036B4413F8203C04F8013B019EC0
:1022F800A4EB080333440133534546D805F14003A2
:102308006B4413F8103C04F8013B3246394620462A
:1023180012F03AF834440135A94519D9BBF1000F38
:10232800DCD005F140036B4413F9103C002BD5DADF
:10233800F1E705F140036B4413F8103C58F823709B
:10234800002248F82320384611F0ADFF461CCFE79D
:10235800A4EB080011B0BDE8F08F6FF00D00F9E7AD
:102368006FF01B00F6E76FF01B00F3E76FF0150046
:10237800F0E76FF01500EDE76FF01500EAE76FF092
:102388001500E7E76FF01B00E4E76FF01B00E1E7DB
:10239800784E1934F8A219342DE9F04F97B000AFF0
:1023A8008346BA613B61D7F88030C3F3C0033B6210
:1023B800F96011B90AF04BFDF8609BF80260B1466C
:1023C80036B1D7F8803013F0010F0DD1002300E0AB
:1023D80000239BF803207A6242B1D7F8802012F0DC
:1023E800020F22D1002202E00123F2E7002202B903
:1023F800EBB19BF80050AA00BA60DBF804207A61C0
:102408000BEB8505BA69F2B1002B40F00481B9F1F4
:10241800000F00F00F81D7F8803013F0040F40F060
:102428000D810020F8610646F9E00122DFE7BB696B
:102438001BB13A69F96858469847FC6820465C37EA
:10244800BD46BDE8F08FFC68E3B94D4400233B610D
:1024580023E00444013501364E451AD22A78002378
:102468005BF822201946B8690AF006FDBAF1000F98
:10247800EFD0D7F888309845EBD22AF8180008F141
:102488000108E6E70026C7F81C80B046D7F884A004
:10249800E2E7C7F81080D7F81C80D7F8803003F03F
:1024A8000503FB604FF0000AA146C7F81CB09CE08A
:1024B80000253B6A7BB9002D79D0D7F8803013F01E
:1024C800010F79D1FB68002B6FD10223A9EB030917
:1024D80088E00125EDE7594678690AF013FD0028E0
:1024E800E9D06C46002387F82C30022387F82D307A
:1024F8008AB0694611F1100237D012251AB1042D9D
:1025080001DDB34B4B61002387F82830022387F89D
:1025180029306ABB112D45DD122362B1042087F8EA
:102528002C00002087F82D0087F82E00012087F85E
:102538002F00F86A08616FF300086FF341086FF322
:1025480082086FF3C508022161F38818C3F30A03F0
:1025580063F353286FF31F58002341469D4800F04A
:1025680021FDA546A9F102093CE06FF00045C5E749
:102578002B46082D01DD786988610C2B01DDC1F837
:102588001CB001F12003002009E000F1300C07F134
:10259800280EF4441CF830CC03F801CB0130012894
:1025A800F3D9B7E76FF01B03B7E701238EE7D7F836
:1025B800803013F0020F15D0002322461946B8695F
:1025C8000AF05AFCD7F8843053B13B69D7F8882011
:1025D800934205D2D7F8842022F8130001333B61D7
:1025E800013881440AF1010A35467B6A9A4510D2BE
:1025F8002E4616F802BB6B78FA6952F82340764BE0
:102608009C42FFF455AF754B9C42FFF462AF002526
:102618004FE74C4612E707F144000023FB6118B16D
:102628004A46294611F0B0FE4D444FF00008C7F85D
:1026380004901EE00020F8610646F0E7FE6107F10D
:1026480034000026EBE700253B6A33BB002D3BD066
:10265800D7F8803013F0010F26D0731C06F1300232
:1026680007F12801561806F8149CDEB208F1010893
:1026780025467B6A98454AD22C4614F802AB95F851
:1026880001905BF82930544A9342DCD3534A934271
:1026980001D30025D8E70125D6E7514678690AF025
:1026A80031FC0028D2D0E1E7D7F8803013F0040FCE
:1026B800DCD0FA69531C303207F128010A4402F8C9
:1026C800249CDBB2FB61D1E7D7F8803013F0020F0E
:1026D80009D0731C06F1300207F12801561806F8D4
:1026E800149CDEB2C2E7F869431C00F1300107F11F
:1026F80028028A1802F824AC02460232D2B2FA61E1
:1027080007F1580252FA83F303F8249CAEE7D7F88E
:1027180004909BF8003087F854309BF8013033441C
:1027280087F85530D7F8803013F0020F0ED1FB69C7
:10273800C3F3470387F85730D7F8803013F0010FF9
:1027480006D113F0040F3ED1002302E00023F1E785
:10275800002387F85630DBF800003863786DCBF833
:102768000000D7F810804246B9685846D7F818A034
:10277800D047041EFFF662AE386BCBF80000C7F8EE
:1027880010804246F96907F13400D04700285EDB23
:1027980004EB0008B96849447B6A01EB4301D7F8A8
:1027A80010904A46FB68591A2846D047041EFFF67F
:1027B80045AE08EB04054FF00008C7F824B0B3464F
:1027C8005446CA4621E0FB69C3E74FF0000909E017
:1027D8009C5B193408591934784E1934F8A2193405
:1027E8004FF000095246012107F12C00A0470028AC
:1027F8002FDB05444B463246514620460AF03CFB47
:10280800002828DB054408F10108D84518D208F14A
:10281800300307F12802134413F8143C87F82C30CE
:102828007A6A52F82360D7F88430002BCDD0D7F8D5
:1028380088309845D4D2D7F8843033F81890D1E747
:102848003A6900210846BB6998472C46F6E50446D4
:10285800F4E50446F2E50446F0E500BF014B1860D4
:10286800704700BFD4A5193470B506460D4600243C
:1028780004E0044B1B68305D98470134AC42F8D340
:1028880070BD00BFD4A5193480B505460E4617465D
:10289800984608F021FD034612F074FA0446DFF862
:1028A800189049F80030424639463046A84754F84F
:1028B800090001F0ADFB00BF08000000034A53689F
:1028C80043F0020353600020704700BF001000541B
:1028D80082B0154B154A1A60154B4FF48022C3F885
:1028E8005C2AD3F85C320193019B124B1A6A42F0BE
:1028F80001021A62DA6B42F48072DA63DA6B42F42C
:102908000072DA635A6B42F480725A639A6B42F42B
:1029180080729A63DA6B42F00072DA63DA6B42F023
:102928008062DA6302B070476CAB19340090D00350
:10293800008002560048025638B505460B4C00E0A8
:1029480010340B4B9C420FD263685B79002BF7D095
:10295800294620460AF030FE0028F1D023681B687B
:10296800294620469847EBE738BD00BFB0591934CF
:10297800C059193470B506460D46084C04E02A467D
:102988003146204698471034054B9C4204D22368B0
:102998009B69002BF3D1F6E770BD00BFB05919341D
:1029A800C059193408B50DF056FD0022431819D244
:1029B80013440D4AA2FB03CE2EF0030C0CEB9E0C25
:1029C800A3EB0C03C01A61F100014FF0CC3300FBFC
:1029D80003F302FB0133A0FB02021344400840EA60
:1029E800C37008BD0122E3E7CDCCCCCC2DE9F04182
:1029F800074605460AE007EA0807144B03EB0613E7
:102A08005B680422196820460AF016FED5B195FACB
:102A1800A5F6B6FA86F60D4C04EB06140123B3406E
:102A28006FEA030825EA0305237B002BEED0330168
:102A3800064AD3581B69002BDDD02046984700284A
:102A4800E4D1D8E73846BDE8F08100BFB059193461
:102A58002DE9F04180460F461D4BD3E8EF5F6A1C15
:102A6800C3E8E12F0029F8D16DBB1A4C002607E016
:102A780063680422196820460AF0DEFD0136103426
:102A8800154B9C4211D2237B002BF7D020460AF02D
:102A980087FD23681B69002BEAD020469847002849
:102AA800E6D00123B3401D43E8E7B8F1000F0BD08F
:102AB80055B12846FFF79AFF0546002FF8D00A209F
:102AC8000AF07CFDF4E700252846BDE8F08100BF48
:102AD800D0B61934B0591934C059193408B5064B51
:102AE800186018B1054B1B68092B00DC08BD0448A9
:102AF80007F0D0FDFAE700BFC4B61934CCB61934D4
:102B080020AC193408B5024807F0C4FD08BD00BF61
:102B180020AC193430B589B000220F490F480DF0A8
:102B280009FD0F4D00220023CDE90623002404945B
:102B38000E2303930294019400940A4B4FF44072BD
:102B4800094928460DF0A1FA084928460DF08DFAE2
:102B5800204609B030BD00BF0D2B1834E0B219343F
:102B680058AE1934D52E183410D119346C5C193478
:102B7800014B53F820007047885C193448B108B5F8
:102B8800054A1060054B1960084600F0FFFC00205C
:102B980008BD6FF015007047DCA51934C0B61934AC
:102BA80008B5054B1B781BB1034B01221A7008BDF1
:102BB800024807F06FFDF7E708CD193420AC193447
:102BC80008B50C4BD3E8EF1F0131C3E8E21F002A18
:102BD800F8D130B908480DF0B9FC084807F05AFD9B
:102BE80008BD074BD3E8EF1F0139C3E8E21F002AED
:102BF800F0D0F7E7C8B61934E0B2193420AC19346C
:102C0800CCB61934044B00200146D3E8EF0FC3E8D3
:102C1800E21F002AF9D17047C8B6193438B5FFF752
:102C2800F1FF0546094C00E01034094B9C420BD2D9
:102C380063685B79002BF7D023685B68002BF3D0BF
:102C4800294620469847EFE738BD00BFB0591934E8
:102C5800C0591934034B18680028D4BF002001203C
:102C6800704700BFC8B6193410B5044C0449204653
:102C78000AF0DCFA034B1C6010BD00BFACAB193482
:102C8800745C1934BCB6193408B500230C4A1370A7
:102C98000C4A13600C4A13604FF47A710B48FFF723
:102CA8006DFFFFF7E1FF0A4A06E0094BD31A1B1133
:102CB800013351680B711032064B9A42F5D308BDA7
:102CC80009CD1934C8B61934CCB61934AD2918341D
:102CD800B0591934C059193408B5014601480AF0E9
:102CE8007DFC08BDACAB193408B502480AF081FB7D
:102CF80008BD00BFACAB193408B50146024B1868D3
:102D08000AF072FC08BD00BFBCB6193408B5024809
:102D18000AF06EFC08BD00BFACAB193410B582B028
:102D280000220023CDE900232A4B187808B902B005
:102D380010BD68460AF074FC044660B1FFF7FCFD5C
:102D48002046FFF7D9FF244BD3E8EF1F0139C3E82A
:102D5800E21F002AF8D1FFF77DFF58B91F4A136810
:102D6800516813F57A7341F1000113605160FFF760
:102D7800CDFFDCE70DF06FFB0022431827D2134488
:102D8800174AA2FB034C2CF0030404EB9C041B1B06
:102D9800C01A61F100014FF0CC3300FB03F302FBD2
:102DA8000133A0FB02021344400840EAC3705B08E9
:102DB8000A490A684968801A63EB010340F2E9325C
:102DC800904273F10003C9D3FFF728FFC6E7012239
:102DD800D5E700BF08CD1934CCB61934D8B21934A8
:102DE800CDCCCCCC0F4B1B7803B1704710B500216C
:102DF8000120FFF72DFE0C4C00E010340B4B9C42D9
:102E080008D263685B79002BF7D023689B6820465B
:102E18009847F2E7FFF782FF0028FBD1014B012218
:102E28001A7010BD09CD1934B0591934C059193464
:102E380010B582B0184BD3E8EF2F511CC3E8E01F40
:102E48000028F8D1154B1B7863B9154B1B68B3B133
:102E5800BAB1092A13D113480DF078FB124807F0CC
:102E680019FC0CE0EFF31184102383F31288BFF3ED
:102E78006F8FFFF753FF84F31188BFF36F8F02B092
:102E880010BD00220023CDE9002342F21072002376
:102E9800044808F04FFDF2E7CCB6193409CD1934CF
:102EA800C4B61934E0B2193420AC193410B504464C
:102EB800044B1B689847A060214603480AF0B4FBFE
:102EC80010BD00BFDCA51934ACAB19342DE9F041B5
:102ED80000210846FFF7BCFD804650B14FF4FA7652
:102EE800002711F04FFF154B1858FFF7F7FD002585
:102EF80015E04FF0FF364FF0FF37F2E74046FFF797
:102F080075FD804670B94FF0FF364FF0FF3709E086
:102F18002C4632463B460A4807F002FC2546B8F1E3
:102F2800000FEBD1FFF7FAFE04460028F6D1002D7A
:102F3800EED000210846FFF71DFDEAE70800000073
:102F480020AC19340248034BC01AC008704700BFB0
:102F5800B0591934E858193410B50C46FFF7F2FF88
:102F6800A04203D9024B53F8340010BD0020FCE7FF
:102F7800E858193400B589B00592069300230793E1
:102F880062B1074A0C9B02930B9B01930A9B009327
:102F980005ABFFF701FA09B05DF804FB0022F1E781
:102FA80057D618342DE9F04F8BB004AF05461E46AE
:102FB8008846C1F34A24002C00F0898091460022FB
:102FC800FA603A617A6104230293FB1801930A2399
:102FD800009307F10C0321464846FFF7DDF9B0F5E9
:102FE800006F58D3D9F804106D4600233B730223B1
:102FF8007B738AB004AC14F1100217D012201AB1F6
:10300800042801DD3B4B636100233B7002237B7086
:10301800CAB10346082800DDA1610C2B02DD40F28D
:10302800FF73E36104F1200300210AE06FF0004020
:10303800E5E701F118063E4416F8186C03F8016B31
:1030480001310129F5D9112822DD122342B10421C9
:10305800397300217973B9730121F973F868206114
:1030680000216FF300016FF341016FF382016FF3E9
:10307800C501022060F38811C3F30A0363F35321E7
:103088000023C1F313011C480AF064FBAD462DE090
:103098006FF01B03DAE760F35328C0F30A0A0AEB60
:1030A8001850173020F007008008FFF715FE8346F8
:1030B800B0B104230293FB1801930A2300935346EB
:1030C80000F1100221464846FFF754FF08E004EBE0
:1030D8001154173424F00704A008FFF7FDFD8346B8
:1030E80033464246294658460AF0CAFA1C37BD46B6
:1030F800BDE8F08FA85C1934285919342DE9F04F30
:1031080085B080460D4617461E46DDF838B0DDF816
:103118004090B9F1000F41D0119B039300934B46A7
:103128000F9A10210020FEF7DDFEB0F5006F2DD2BA
:1031380082460BEB0003173323F0070300246FF3D9
:1031480000046FF341046FF3820468F3C50467F366
:10315800881460F353246BF31F549808FFF7BCFDE1
:10316800074650B11030B9F1000F06D0119B0093FB
:103178004B460F9A5146FEF7B5FE3346224629467E
:1031880038460AF07DFA05B0BDE8F08F40F2FF73CB
:10319800034A022103480AF0C5FAF4E70020C7E70A
:1031A800E85C193428591934406820B1034BC01A17
:1031B80040F3CF0070474FF0FF307047E85819349C
:1031C8000EB400B582B0014603AB53F8042B01934B
:1031D800034801F00DFA02B05DF804EB03B0704744
:1031E80093D7183410B584B011F0440F05D01A4B9A
:1031F8001B6833B9002004B010BD1849FFF7E0FF81
:10320800F9E717490968B2FBF1F2B2FBF3FC03FBDB
:103218001C224FF47A7E0EFB02F2B2FBF3F403FB9E
:1032280014210EFB01F1B1FBF3F10E4AA2FB0C32A3
:10323800D20A4FF4616303FB12CC0B4BA3FB0CE3E4
:103248005B0902910194C3EB0311ACEB810100917E
:103258000649FFF7B5FFCEE7D8B61934205D193413
:10326800D4B61934C5B3A291898888882C5D1934DD
:1032780061B108B52AB1064A52F8232012B9054AA5
:1032880000E0044A0449FFF79BFF08BD704700BFF0
:10329800CC5D1934485D1934905B19342DE9F0413F
:1032A80005461746069EDDF81C8081B900242EB11C
:1032B800324611492846FFF783FF0444B8F1000F4E
:1032C80014D06FB1099B042B13D00C4909E00C4BA7
:1032D800099A53F822200B49FFF772FF0446E6E7E4
:1032E800064942462846FFF76BFF04442046BDE8DE
:1032F800F0810549F5E700BF645D1934545D193460
:10330800E05D19345C5D1934505D19342DE9F04FD6
:1033180087B005460C46049205939DF84C7001F061
:10332800020B01F0010AC1F3C00801F480790AF028
:1033380081F918B3024616492846FFF741FF0646A9
:10334800BBF1000F1CD13A46514628460AF044FA10
:10335800B9F1000F01D0002311930397129B029338
:10336800119B0193109B00930023049A4146284621
:10337800FFF794FF304407B0BDE8F08F0026DFE781
:10338800059A21462846FFF72DFF0644DBE700BFD4
:10339800685D193411F0100F0BD108B511F0200F2A
:1033A80003D00449FFF70CFF08BD0349FFF708FFE6
:1033B800FAE77047945A19346C5D19342DE9F041D5
:1033C80005460F46164698460699FFF7E3FF002480
:1033D800444505DA24492846FFF7F2FE0134F7E7A9
:1033E800002409E020492846FFF7EAFE0BE01F49C0
:1033F8002846FFF7E5FE01340F2C0CDC002C02DD1B
:1034080014F0070FEED0B442F1D23A5D18492846BD
:10341800FFF7D6FEEFE717492846FFF7D1FE00244D
:1034280009E011492846FFF7CBFE0BE01249284670
:10343800FFF7C6FE01340F2C13DC002C02DD14F05C
:10344800070FEED0B44207D23A5D0C4B9B5C13F0E9
:10345800970FEBD12E22E9E703492846FFF7B0FE84
:10346800E8E7BDE8F08100BF605D1934785D193484
:10347800705D19347C5D1934805D1934E6A1193406
:103488002DE9F04184B004469DF82C500C9F0E9E07
:1034980095B9012B1ED019484FF0000827B13B46BB
:1034A8002246174909F0FEFCC6B905BB20460AF0BA
:1034B80055F904B0BDE8F08103950A98029001938C
:1034C80000920B4600220F992046FFF71FFF804607
:1034D8000C48E3E70B484FF00008DFE70F9B009329
:1034E800434632460D9920460AF08EF9DDE72A4612
:1034F8000F9920460AF07CF9D8E700BFC3D71834E3
:10350800F945183493D718342DE9F04383B00646AB
:10351800056842F20F738B4228BF0B46184A0521F3
:10352800684608F0BDFD04467368D3F804900B277D
:10353800DFF8508005E04A4639464046A8473F1A1A
:103548008044002FF7D17368D3F804806F4605E0F4
:10355800424621463846A847241A0744002CF7D18A
:1035680073685F681B24084E05E03A4621463046DA
:10357800A847241A0644002CF7D103B0BDE8F0830D
:10358800F85E1934A05D1934845D1934074B0122A3
:103598001A6004E04008054A13685B001360044B96
:1035A8009842F7D8034B1860704700BFD4B6193457
:1035B80040420F00D8B6193470B506460D460024AF
:1035C80005E0315D044883685B6898470134AC4284
:1035D800F7D3284670BD00BFA0511934014B0360D2
:1035E80000207047485E193408B50348034A121A88
:1035F80000210AF099F908BD98AC193410CD193496
:103608002DE9F04182B000AF0446D0F800E0D0F8D0
:1036180004C085686E468AB06B4613F1100200F04C
:10362800888014218AB10846042903DDDFF81C814B
:10363800C3F81480082801DDC3F818E00C2801DD60
:10364800C3F81CC0102800DD1D62132974DD142581
:103658003AB10521397100217971B971F971786828
:10366800186100216FF300016FF341016FF38201CC
:103678006FF3C501012363F38811C5F30A0565F3E8
:1036880053216FF31F5100233148FFF78BFCB546D8
:10369800D4F80CC026696569E8468AB06B4613F110
:1036A80010024CD0142182B10846042903DDDFF84A
:1036B800A4E0C3F814E0082801DDC3F818C00C28FA
:1036C80000DDDE61102800DD1D6213293ADD1425B6
:1036D8003AB10521397100217971B971F9717868A8
:1036E800186100216FF300016FF341016FF382014C
:1036F8006FF3C501012666F38811C5F30A0565F362
:1037080053216FF31F51124D00232846FFF74AFC3F
:10371800C546E369104A314628460AF003F8A3690A
:103728000E4A3146284609F0FDFF0837BD46BDE878
:10373800F0816FF0004175E76FF01B0588E76FF0C7
:103748000041B0E76FF01B05C2E700BF485E1934BF
:1037580080591934785E1934A85E1934B85E193462
:1037680038B504460D4611B10846FFF749FF012C4C
:1037780004D02946204606F015FC38BDEFF3058332
:10378800103B034A0121034809F0CCFFF1E700BFD1
:10379800E85E19348059193430BFFFF7FDBF00BF08
:1037A80038B50446054D2A46054910F0EDFD054A91
:1037B8000021601910F090FE38BD00BF0000000025
:1037C800C05919340800000070B50646054D064B6F
:1037D8001D444C1B2046FFF7E3FF083C746705F1C6
:1037E800080070BD0000000008000000054B5A6981
:1037F8009B689A4204D0044A536843F0805353604C
:10380800704700BF4CBA193400ED00E081690D4BD8
:103818005A6942F480725A61BFF34F8FBFF36F8FBA
:1038280031F8021C5A6922F480725A61BFF34F8F33
:10383800BFF36F8F4DF60273994201D00020704795
:103848000120704700ED00E008B50368054A1A44F6
:10385800012A05D9044A0121044809F063FF08BD7B
:10386800036CF7E7A6ED0501FC5E1934805919349D
:1038780090B583B000AF0F2923DC2F4C10390023FB
:103888003B7102237B718AB0EC461CF110021AD0FE
:10389800122022B1042802DD284BCCF81430002372
:1038A8003B7002237B70E2B10346082801DDCCF8A7
:1038B80018400C2B01DDCCF81C100CF12003002162
:1038C8000DE01F4CDAE76FF00040E2E701F1080471
:1038D80004EB070E1EF808EC03F801EB013101298F
:1038E800F4D9112824DD12234AB1042139710021A9
:1038F8007971B9710121F9717868CCF8100000214B
:103908006FF300016FF341016FF382016FF3C5019B
:10391800012060F38811C3F30A0363F353216FF3A3
:103928001F5100230748FFF73DFB0C37BD4690BDEC
:103938006FF01B03D8E700BF1C5F1934505F1934C0
:10394800345F193480591934F8B505460F461446C2
:10395800394A0121394809F0DBFE394B9B6A13F0DB
:10396800100F31D11026364B9B6A13F0080F32D155
:10397800334B9B6A13F0020F34D1314B9B6A13F01F
:10398800010F4BD12E4B9B6A13F0200F4DD12C4BBE
:103998009B6A13F0100F01D1294B9B6A284B9B6A35
:1039A80013F0200F04D0264A536A23F400535362BD
:1039B800234A936A43F0FF0393620121284609F0E2
:1039C800C3FF20703046F8BD1E4A01211B4809F08C
:1039D8009FFE1126C7E71C4A0121184809F098FEE6
:1039E8001226C5E7194A0121144809F091FE144A24
:1039F800536B926A12F0800F01D11326BDE7144A67
:103A080001210E4809F08EFE37B10D4A936A23F062
:103A1800800393621326B0E71326AEE70D4A01210F
:103A2800064809F075FE1426ACE70B4A0121034845
:103A380009F06EFE1526AAE7645F19348059193417
:103A480000ED00E07C5F1934B05F1934C45F1934AD
:103A5800DC5F1934F45F193414601934F8B505467D
:103A68000F461446374A0121374809F051FE374BB3
:103A78009B6A13F4805F25D11626344B9B6A13F496
:103A8800006F26D1314B9B6A13F4007F28D12F4B4E
:103A98009B6A13F4806F3FD12C4B9B6A13F4807F91
:103AA80041D12A4B9B6A13F4005F43D1274A936A9A
:103AB80043F47F4393620121284609F045FF2070B3
:103AC8003046F8BD224A01211F4809F021FE172679
:103AD800D3E7204A01211C4809F01AFE1826D1E72D
:103AE8001D4A0121184809F013FE184A936B926A7F
:103AF80012F4004F01D11926C9E7184A01211248CA
:103B080009F010FE37B1114A936A23F40043936217
:103B18001926BCE71926BAE7114A01210A4809F013
:103B2800F7FD1A26B8E70F4A0121074809F0F0FD0A
:103B38001B26BBE70C4A0121034809F0E9FD1C26B6
:103B4800B4E700BF446019348059193400ED00E02F
:103B58005C601934B05F1934706019348C601934A2
:103B6800A4601934C06019341460193408B5314A96
:103B78000121314809F0CCFD304B9B6A13F0007FDE
:103B880026D11D202D4B9B6A13F0807F27D12B4B0C
:103B98009B6A13F4801F29D1284B9B6A13F4002FCA
:103BA8002BD1264B9B6A13F4802F2DD1234B9B6A74
:103BB80013F4003F2FD1214B9B6A13F4803F31D17E
:103BC8001E4A936A6FEA03436FEA1343936208BD80
:103BD8001B4A0121184809F09BFD1E20D2E7194A0B
:103BE8000121154809F094FD1F20D0E7164A01214C
:103BF800114809F08DFD0220CEE7144A01210E4834
:103C080009F086FD2120CCE7114A01210A4809F074
:103C18007FFD2220CAE70F4A0121074809F078FDF5
:103C28002320C8E70C4A0121034809F071FD24202C
:103C3800C6E700BFD86019348059193400ED00E098
:103C4800F060193404611934206119344C61193455
:103C58006C61193494611934B061193408B53B4A60
:103C680001213B4809F054FD3A4AD2F8E830D2F82D
:103C7800E42012F0400F2BD1364BD3F8E43013F088
:103C8800010F2BD1334BD3F8E43013F0020F33D1AB
:103C9800304BD3F8E43013F0040F34D12D4BD3F864
:103CA800E43013F0080F35D12A4BD3F8E43013F081
:103CB800100F36D1274BD3F8E43013F0200F37D14B
:103CC800244BD3F8E43013F0800F38D125200BE0D3
:103CD800214A01211E4809F025FDCDE71F4A01218F
:103CE8001B4809F015FD26201A4AD2F8E43043F0A3
:103CF800FF03C2F8E43008BD194A0121144809F04D
:103D080007FD2720F0E7174A0121114809F000FDB7
:103D18002820E9E7144A01210D4809F0F9FC292077
:103D2800E2E7124A01210A4809F0F2FC2A20DBE7FF
:103D38000F4A0121064809F0EBFC2B20D4E70D4A75
:103D48000121034809F0E4FC2C20CDE7DC6119349B
:103D58008059193400ED00E0F8611934086219340B
:103D680020621934406219345C6219347C62193457
:103D780094621934B062193470B506460D46304A5B
:103D88000121304809F0C4FC00232B702E4BDC6A5B
:103D980014F002040AD12C4BDB6A002B0DDB2A4BF2
:103DA800DC6A14F080440ED1204670BD274A0121F8
:103DB800244809F0ADFC0024F6E7254A01212148F2
:103DC80009F0A6FCF0E7234A01211E4809F0A0FCEF
:103DD8003046FFF71BFDC0B91B4B9B6A13F0FF0F62
:103DE8001BD1194B9B6A13F47F4F1DD1164B9B6A4D
:103DF800B3F5803F1FD2144BD3F8E440002CD3D046
:103E08003046FFF72BFF0446CEE73368124A0121FC
:103E18000C4809F087FC3468C6E72A460121304679
:103E2800FFF792FD0446BFE72A4601213046FFF717
:103E380015FE0446B8E73046FFF798FE0446B3E798
:103E4800C46219348059193400ED00E0DC62193479
:103E580000631934106319343063193408B500232A
:103E68000B70034A0121034809F052FC08BD00BF4A
:103E78004C6319348059193430B58BB01F4B5D68C9
:103E8800C5F30805002383F31188BFF36F8F0DF185
:103E9800260309F05BFD04460DF12702294609F0C7
:103EA8008BFD9DF827300BB10BB030BD05460DF1E9
:103EB800040C20686168A268E368ACE80F00206918
:103EC8006169A269E369ACE80F009DF826304BB13F
:103ED800089BC3F308025AB96FEA53236FEA4323D6
:103EE800089305E0089B23F4FF7323F0010308936C
:103EF80001A92846FFF734FCD6E700BF00ED00E033
:103F0800064B5A6942F010025A615A6942F48062BB
:103F18005A615A6922F008025A61704700ED00E0C0
:103F2800EFF30880EFF3098101B57246FFF7A4FFAC
:103F380001BD00BF002080F31488BFF36F8F0020FD
:103F480080F30A8880F30B880F4880F3088809F00B
:103F580013FB00200D490860BFF34F8F00F02EF8C7
:103F6800102080F311880A484FF40061401880F34C
:103F78000988EFF314800221084380F31488BFF303
:103F88006F8F00F0D1F8000050ED193494ED00E087
:103F980010D41934084BD3F89000C0F3072000233D
:103FA80006E0054AC2F898300021C2F8A010013393
:103FB8008342F6DB704700BF00ED00E010B572B633
:103FC800002484F31388FFF7E5FF234608E003F194
:103FD80020010E4A4FF0FF3042F821000133DBB2D6
:103FE8000F2BF4D9002308E003F16001074A4FF0D2
:103FF800FF3042F821000133DBB20F2BF4D962B64F
:10400800BFF34F8FBFF36F8F10BD00BF00E100E01B
:1040180008B50A4B9B68834202D007F063F908BDD4
:10402800EFF30583002BF8D0054B5A6842F0805215
:104038005A605A6A22F400425A62EEE74CBA1934BE
:1040480000ED00E014498A684FF030001044EFF3A7
:10405800098C80E8F01F102080F31288BFF36F8F5F
:104068000E4F4FF000664A698A603E60506F0C4CF4
:104078002060906F0023936780F3118802F130006D
:1040880090E8F01F8CF3098802F1000004B509F0EC
:10409800CCFCBDE8044070474CBA193404ED00E08C
:1040A8000CB719341EF0040F0CBFEFF30880EFF3C0
:1040B8000980816911F8021C0229FFD001B57246F6
:1040C80009F036FC01BD00BF002807DB00F01F0225
:1040D800400901239340024A42F82030704700BF4C
:1040E80000E100E0002808DB0901C9B200F16040E6
:1040F80000F5614080F80013704700F00F000901D7
:10410800C9B2014B1954704714ED00E0044B23F079
:104118007F03044A9360BFF34F8FBFF36F8F7047DD
:104128000004183400ED00E008B5FFF7EFFF064A79
:10413800D2F8883023F47003C2F88830FFF754FAB5
:1041480000F04AF806F028F900ED00E010B4A2F1FA
:1041580020040D4942F8081C21F0010142F8081C0E
:1041680042F8203C019B42F81C3C029B42F8183C58
:10417800039B42F8143C4FF0807342F8043C0465FA
:104188000023836710BC70479128183400B50E4689
:1041980015460C4B9860426F0B4B1A60436E83F3C5
:1041A8000B882C4686F309880020044B9847204644
:1041B800002100220023024C2047000041DA183475
:1041C800912818344CBA19340CB71934014B102201
:1041D8001A61704700ED00E0002206E003F00F03CB
:1041E8000949194410230B760132C12A0ADC13B29B
:1041F800002BF3DB03F1604303F56143102183F8DF
:104208000013F1E7704700BFFCEC00E008B5EFF3DE
:104218000583103B044A02EBC301496852F8330096
:104228008847FFF7E3FA08BDE051193410B584B0A8
:104238000A4C23460A4A01210A4809F019FD0023BD
:104248000093019302930393074B0093E41A01949C
:104258000121684609F010FD04B010BD00002034AB
:1042680000A319347063193498AC1934024B034A0B
:10427800C3F8C020704700BF00ED00E0AAFF44006B
:10428800034BC3F89800C3F89C10C3F8A0207047EC
:1042980000ED00E0114BC3F89800C3F89800D3F87C
:1042A8009C000A7A60F304020A72D3F8A020C2F3D1
:1042B8004202087A62F347100872D3F8A020C2F3CA
:1042C80000120A74D3F89C2022F01F020A60D3F867
:1042D800A03023F01F03CB60704700BF00ED00E063
:1042E80070B505460E46002400E00134A6421CDDE8
:1042F800220105EB041359680029F6D0A85809F0E3
:10430800E4FB04EB44030B4A42F8330010F1160FA8
:104318000CD0094B1B78984209DA04EB440302EBF2
:10432800C3010431FFF7B6FFDFE7002070BD6FF06F
:104338001500FBE710B719340ACD193410B5044637
:104348000A4BD3F89030C3F30723013B984203D8B4
:1043580009F090FB204610BD0346054A0121054897
:1043680009F0E0F96FF01500F5E700BF00ED00E097
:1043780084631934685919342DE9F04F89B081469E
:10438800009101931446002548E02B46634A012119
:10439800634809F0C7F96FF0150407E03346614A2E
:1043A80001215F4809F0BEF96FF01504204609B0F5
:1043B800BDE8F08FD84562D13946C0B209F096FB06
:1043C8002BE0594AC2F89860D2F89C3003F01F03DA
:1043D80021F01F010B43C2F89C303946E0B209F0C6
:1043E80085FB044610F1160FE0D0013415E0013BBF
:1043F8004D49C1F89860D1F8A02002F01F0223F0BF
:104408001F031343C1F8A0303946E0B209F06EFB30
:10441800044610F1160FC9D001340135009B9D42A6
:10442800C4DA4FEA051A09EB05177E68002EF4D0A6
:10443800019B23B1384609F036FB0028A5D0314648
:1044480059F80A0009F041FB064610F1160FA5D0ED
:104458008442A3DD344BC3F89800D3F89C2022F0A3
:104468001F02C3F89800D3F8A03043F01F0859F88A
:104478000A307968194401F1FF3B93429AD093427C
:104488009FD0D845B3D0013B2749C1F89860D1F8EF
:10449800A02002F01F0223F01F031343C1F8A0302D
:1044A8003946E0B209F022FB044610F1160F3FF43A
:1044B8007DAF01301C4BC3F89860D3F89C109DF871
:1044C800142061F304028DF81420D3F8A020C2F35D
:1044D80042029DF8141062F347118DF81410D3F8B6
:1044E800A030C3F300138DF81C3059F80A307A68ED
:1044F8001344039323F01F03A8EB0B084344013B29
:1045080023F01F03069303A9C0B2FFF717FF044661
:1045180010F1160F3FF44AAF01347EE7AC6319344B
:1045280068591934D063193400ED00E010B5034C14
:1045380001232278FFF720FF207010BD0ACD19341F
:10454800044B0522C3F89420BFF34F8FBFF36F8F3E
:10455800704700BF00ED00E0BFF35F8F024B002201
:10456800C3F89420704700BF00ED00E038B51D4B3C
:104578001D681D4BD3F89030C3F307239D422DD8F7
:10458800FFF7EAFFFFF772FE002409E0154B5B68AE
:1045980004EB840103EB8101204609F06BFA013436
:1045A800A542F3D81148057009F0C4FA10F1160FA6
:1045B80013D00E4B1A780C4BD3F89030C3F3072363
:1045C8009A4207DA084BC3F898200021C3F8A010D4
:1045D8000132F0E7FFF7B4FF002038BD4FF0FF309D
:1045E800FBE700BFF463193400ED00E00ACD19348D
:1045F80030B587B00D46114600240094019402940A
:1046080003940494059402228DF80220044A01922E
:10461800049005951A46684607F06CFD07B030BD52
:1046280089DC183408B5024B1B689847002008BD80
:1046380028B71934034B1860034A937843F00203F0
:104648009370704728B71934E8A5193408B5054898
:1046580008F085FC002383F31188BFF36F8F0423D0
:10466800184602DF1864193408B54FF0FF324FF0CE
:10467800FF33024809F00FFB08BD00BFF8A5193445
:1046880008B5064921F00701C1F1505202F50012A0
:10469800034808F050FB002008BD00BFBFFD1934D7
:1046A8002CB7193438B50446FFF7DEFF2246082137
:1046B800084808F0B3FA054620B1074805F05AFF44
:1046C800284638BD002CF8D010F05CFB034B0C22B8
:1046D8001A50F2E72CB71934F8A519340C00000069
:1046E80010B50446FFF7C0FF2146034808F040FA1A
:1046F800024805F03FFF10BD2CB71934F8A519344E
:10470800034BC01A8010034B03FB00F0704700BF37
:1047180038AC1934A38B2EBA2C22024B02FB003082
:10472800704700BF38AC1934FA290FD881F08003DC
:10473800702B0BD9F0290FD88A0F8B005B1842F128
:104748000002DB18524103604260704740F2F642B3
:104758000023C0E90023704700B5F039642303FB48
:1047680001F163312CBF4FF0010C4FF0000CC1F385
:1047780013030A0D42EA0C321A440E4BA3FB02E360
:10478800DB0803EB830303EB8303D31AC91A6CF129
:10479800000C094A094B01FB03F302FB0C33A1FB94
:1047A80002121344890841EA83719B08016043603F
:1047B8005DF804FB1F85EB51295C8FC2F5285C8FDF
:1047C80010B509F016FC054B1C6804E004F10C0058
:1047D80006F008F92468002CF8D110BD38B7193450
:1047E80010B509F006FC054B9C6804E004F10C00C8
:1047F80006F0F8F82468002CF8D110BD38B7193441
:10480800F8B5044600220023104809F013FB0746B8
:10481800C8B13F2C17D93F3C0646A4B1002200235B
:104828000A4809F007FB054648B10146304609F039
:1048380028FB3F2C38BF3F243F3C2E46EDE7384647
:1048480009F0FEFA2F463846F8BD00BF38AC1934D7
:1048580001B9704710B514460B46084A01210848AB
:1048680008F060FF072384F892306FF00803E361D3
:1048780004F1200006F0B6F810BD00BF48641934F2
:104888002059193410B582B0044690F89230013B93
:10489800072B4DD8DFE803F0041B2F3A4C6894A887
:1048A80090F88610C1F3C001806809F0BAFBA061D6
:1048B800A36800229A61A16804F168000BF00DFB5F
:1048C800082384F892302046FFF7DCFF30E0806848
:1048D80009F0B7FBA061A1680B8AC31AA36194F819
:1048E80090200AB9FC2B25D8AABBFF2384F8943062
:1048F800032384F8923004F130000BF027FE2046A1
:1049080000F0F8F8A0B9042384F89230002120467A
:1049180000F09AF804F1300000220023CDE90023CA
:1049280042F21072002307F005F8052384F892304C
:1049380002B010BDFC2200923D4A01213D4808F01A
:10494800FCFE072384F892306FF00703E3612046EA
:10495800FFF798FFECE784F893208B61A16804F1D6
:1049680068000BF0BAFAC0E790F894300133DBB274
:1049780080F89430092B11D8012100F065F804F172
:10498800300000220023CDE9002342F22832002320
:1049980006F0D0FF032384F89230C9E700F1140130
:1049A800254809F0E0FA94F89430244A0121214876
:1049B80008F0B8FE072384F892306FF00703E3612C
:1049C80004F130000BF0C2FDE36913F1080F1BD0AE
:1049D80004F168000BF046FAA06809F031FA0023E8
:1049E800A360082384F8923000220023144809F0B9
:1049F80021FAA06068B104F11401124809F0B3FA71
:104A0800002384F8923093E70221204600F01CF836
:104A1800DEE704F1140300226261074AD2681AB182
:104A28001360054AD36083E7034AD36093607FE746
:104A3800646419342059193438B719349464193412
:104A480064AC193440B7193410B594B00446D0F8A2
:104A58008830C3F31C03029390F88E00C0F38003E0
:104A6800420802F0040C43EA0C0302F00802134364
:104A78008DF80D3010F0010F24D094F88C308DF89B
:104A880010300DF1110341F03001197094F89020A5
:104A98005A70D81C94F891209A7004ABC01AC0B20E
:104AA80009F071FA8DF80C00606801940E4B0093C0
:104AB80042F21072002302A902F09CF9034618B9C9
:104AC80014B010BD04ABDEE7084A0121084808F01D
:104AD80029FE072384F892304FF0FF33E361204624
:104AE800FFF7D0FEECE700BF59481834C06419340A
:104AF8002059193430B583B0044690F8900088B92D
:104B0800A069FFF77DFE0546CDB194F89230032BDE
:104B18003ED094F89030002B47D0A560E560002087
:104B280003B030BD94F88530013B03FB00F0A36966
:104B3800984228BF1846FFF763FE0546E4E704F1EC
:104B4800300000220023CDE9002342F2283200235E
:104B580006F0F0FE94F89430FF2B10D1002284F870
:104B6800942004F114036261124A52681AB1136066
:104B7800104A536009E00F4A5360136005E00623AA
:104B880084F892302046FFF77DFE4FF0FF30C7E7EC
:104B980004F130000BF0DAFCFF2384F8943004F1C0
:104BA8001401044809F0DFF9B3E72946A06809F0C1
:104BB80068F9B3E738B7193410B584B0044690F8EB
:104BC800863013F0020F05D113F0040F19D06FF0DF
:104BD800604100E01149D4F88020C2F31C02019220
:104BE8000291C3F380038DF80C3001AB22460C49C7
:104BF800606802F0C5F92060002805DB002004B0D9
:104C080010BD40F2FF71E6E70346064A0121064857
:104C180008F088FD6FF00900F1E700BF00FFFF030F
:104C2800CD4F1834D46419342059193410B584B0D0
:104C3800044690F89A3013F0040F17D06FF06041D3
:104C4800D4F89420C2F31C0201920291C3F38003AA
:104C58008DF80C3001AB22460A49A06802F090F9A1
:104C68002060002805DB002004B010BD40F2FF7171
:104C7800E6E70346044A0121044808F053FD6FF0B3
:104C88000900F1E7BD541834F06419342059193477
:104C980010B5044690F86230032B12D0052B0BD1C7
:104CA8000A4A01210A4808F033FD072384F86230D4
:104CB8006FF0020344F8143CA4F1100005F092FED2
:104CC80010BD062380F86230F6E700BF0C65193482
:104CD8002059193438B50B790F2B28BF0F23454AB3
:104CE800D45C90F886E01EF0010F06D00A7A90F89E
:104CF80084309A424BD1012200E000221EF0020FBC
:104D080028D00D68D0F8803065F31C03C0F88030D7
:104D18000D68D0F8883023F0604C2CF47F4C6CF38D
:104D28001C03C0F888302D02ADB24CEA050C6CF3B8
:104D38001C03C0F888302CF07C4C6CF31C03C0F8C2
:104D480088300D6805F0E0554CEA050C6CF31C033F
:104D5800C0F888308B181B7A13F0F0051ED0102D80
:104D680042D1072C14D9022380F8923080F885406C
:104D780090F89530012565F3030380F89530806835
:104D880002F10803A21A19440C3009F097F838BD4B
:104D9800194A0321194808F0BBFCF8E703F00F0390
:104DA8001EF0080F10D0082C0ED93BB9531C0B4429
:104DB8001B7A1344DBB20233DBB208E0104A03214A
:104DC8000E4808F0A5FCE2E713440133DBB29C422D
:104DD80004D3012480F892401C46D0E7094A0321F5
:104DE800064808F095FCD2E7074A0321034808F073
:104DF8008FFCCCE7AC6719342C6519342059193469
:104E0800446519345C65193478651934F8B5044675
:104E18000F461646C0680C3009F089F8864210D94A
:104E28000546E0682A4639460C3009F047F8E36839
:104E38005868E06060B1721B79190C3009F03EF8CF
:104E4800F8BDE068324639460C3009F037F8F7E724
:104E5800054A0121054808F05BFC072384F89230D5
:104E68006FF00703E361EBE79865193420591934AB
:104E78002DE9F04182B004460D4687680B790F2B67
:104E880028BF0F234B4A12F8038090F8863013F09E
:104E9800010F06D00A7A90F884309A4212D101267E
:104EA80000E00026AB191B7A03F0F003202B0CD08E
:104EB800072384F892306FF00503E36104F12000C2
:104EC80005F090FD02B0BDE8F08104F13000002249
:104ED8000023CDE9002342F21072002306F02AFDD8
:104EE800711C2E44327A94F8953003F00F00461C5A
:104EF80066F3030384F8953002F00F03834232D13E
:104F080094F88530434504D0A269A8EB01039A427E
:104F180039D8A8EB0108A369984528BF98460831F5
:104F2800424629442046FFF771FFA369A3EB080313
:104F3800A361002B33D094F890100029C2D094F8C4
:104F48009320013AD2B284F89320002ABAD184F887
:104F58009310BB61A16804F168000AF0BEFF032347
:104F680084F89230AEE7144A0121144808F0D0FBC7
:104F7800072384F892306FF00303E36104F1200003
:104F880005F030FD9EE70E4A01210C4808F0C0FBF1
:104F9800072384F892306FF00803E36192E708234F
:104FA80084F892300023BB61A16804F168000AF01C
:104FB80094FF87E7AC671934B86519342059193458
:104FC800D465193410B5144692F89230052B10D0D8
:104FD800082B16D02BB1114A0321114808F098FB71
:104FE80002E01046FFF776FE04F1200005F0FAFC17
:104FF80010BD1046FFF73CFF94F89230052BF3D113
:10500800F6E7084A0121064808F082FB072384F8DE
:1050180092306FF00703E361E6E700BF14661934C6
:1050280020591934E465193410B5044690F8523003
:10503800042B04D1A4F1140005F0D4FC10BD0823FE
:1050480080F852306FF0010340F8243C024A0121F5
:10505800024808F05DFBEDE744661934205919341D
:10506800F0B595B0044608F0AAFF0646D4F89C307F
:10507800C3F31C03029394F8A250C5F380036A0893
:1050880002F004010B4302F0080213438DF80D30BF
:1050980094F8A170384608F076FF8DF80C0015F0EA
:1050A800010F50D094F8A0308DF810300122B6F5D9
:1050B800805F4AD302F150016944102001F8400C86
:1050C80002F151036B44002003F8400C300E02F14A
:1050D8005201694401F8400C300C02F153036B444F
:1050E80003F8400C300A02F15401694401F8400CFD
:1050F800951D02F155036B4403F8406C94F8A630F3
:10510800012262F3030384F8A630204608F067FF03
:105118000646791B204608F0ACFF05F1080094F814
:10512800A120521B314602AB18440FF02DF9A0689C
:1051380001940D4B009342F21072002302A901F072
:1051480059FE15B0F0BD0022B1E7310A41F0100157
:1051580002F15000684400F8401C951C02F151030C
:105168006B4403F8406CC9E79FE018342DE9F0411F
:1051780094B00446D0F89C30C3F31C03029390F813
:10518800A210C1F380034A0802F00400034302F0AE
:10519800080213438DF80D3011F0010F42D094F836
:1051A800A0308DF81030012694F8A63003F00F03D4
:1051B800771C43F0200306F150026A4402F8403C91
:1051C800204608F0FCFE94F8A150ED1B8542A8BFCC
:1051D8000546A0EB0508204608F001FF014606F148
:1051E80009002A4602AB18440FF0CEF894F8A23012
:1051F80013F0080F02D07E19082E15DCE819C0B28A
:1052080008F0C1FE8DF80C00A06801941E4B0093B5
:1052180042F21072002302A901F0ECFDD8B114B0DB
:10522800BDE8F0810026BFE73046082EB8BF082049
:10523800C0B208F0A8FE8DF80C0008360F2828BF69
:105248000F20124B1A5C521BD21BCC2102AB9819AF
:105258000FF042F9D8E794F8A63003F00F020132B4
:1052680062F3030384F8A6302946204608F001FFBC
:1052780094F8A530013B84F8A53094F87B300133CD
:1052880084F87B304046CAE79FE01834AC6719348D
:10529800F0B595B0044608F092FE0546D4F89C3067
:1052A800C3F31C03029394F8A230C3F380025B0893
:1052B80003F004010A4303F0080313438DF80D308B
:1052C800204608F08CFE07462946204608F0D1FE05
:1052D80094F8A22012F0010F05D094F8A0308DF8B0
:1052E8001030012300E0002312F0080F0FD0C3F1A3
:1052F8000702AA420BD203F150016944002001F8C9
:10530800400C9E1C51336B4403F8405C04E05E1C67
:1053180050336B4403F8405C94F8A1309B1BAB42BC
:1053280024D306F108002A46394602AB18440FF088
:105338002BF894F8A23013F0080F02D07719082F31
:105348001CD8A819C0B208F01EFE8DF80C00012365
:1053580084F87A30A0680194144B009342F21072DA
:10536800002302A901F046FD15B0F0BD104A012145
:10537800104808F0CDF96FF01B00F5E73846082F04
:1053880038BF0820C0B208F0FEFD8DF80C000837C1
:105398000F2828BF0F20084B1A5C521B921BCC21E8
:1053A80002ABD8190FF098F8D1E700BF9FE0183486
:1053B8006866193420591934AC67193430B583B08C
:1053C800044601F1080590F89A3013F0010F06D051
:1053D80090F8982001F109050B7A9A421DD12B7893
:1053E80003F0F002302A0DD103F00F03012B2BD06C
:1053F800022B4AD09BB1082384F87A306FF004035B
:1054080063600AE0274A0121274808F081F9082348
:1054180084F87A306FF00503636003B030BD04236D
:1054280084F87A30002384F8A43084F87B3004F1BF
:105438007C0005F09DF96B7884F87830AA7884F8B8
:10544800792084F8A530E8E704F128000022002339
:10545800CDE9002342F21072002306F06BFA94F8AB
:10546800A430092B05D894F8A430013384F8A4306B
:10547800D3E70E4A03210C4808F04AF9082384F8B8
:105488007A306FF006036360EDE7094A01210648A8
:1054980008F03EF9082384F87A306FF00703636058
:1054A800BBE700BF8066193420591934A066193447
:1054B800B866193438B5144692F87A30032B0FD0F1
:1054C8000C4A01210C4808F023F9082384F87A30A3
:1054D8006FF00503636004F1140005F083FA38BD2A
:1054E8000D4602F128000BF031F829462046FFF757
:1054F80065FFF0E7D06619342059193410B5044611
:10550800036893F8A62012F0100F06D1216891F8CD
:10551800A63013F0200F07D110BDD86808F090FC12
:1055280023680022DA60F1E701480AF055FBF3E747
:10553800F0AB19342DE9F04184B001900F461546BF
:105548001E46DDF828809B7913F0080F03D1937964
:1055580013F0080F0AD0BB681B6803A938469847A0
:10556800002845D1039B13F0040F41D0B8F1000F78
:1055780046D0019BC3F860800B9A5A6693F8A62020
:1055880042F0400283F8A62001987C3001220021D5
:105598000AF0BAFC019CA76004F19C0395E803009B
:1055A80083E8030004F1940396E8030083E803000A
:1055B8000026666084F8A460564904F114000AF0D5
:1055C80017FD32465449019828300AF0B3FF019C70
:1055D80094F8A130202B34D8082B1FD24BBB94F859
:1055E800A23013F0080F52D1082384F8A13031E01B
:1055F8004A4A01214A4808F08BF86FF008046AE02B
:1056080001986030012200210AF07EFC019B93F88A
:10561800A6206FF3861283F8A620B5E7A3F1080148
:10562800C9B201228A403F49114071B912F0010FF5
:1056380010D13D4A01213A4808F074F86FF0080487
:1056480049E0302B01D0402BF3D194F8A23013F06D
:10565800080F20D0204608F0B2FC94F8A120AB79BE
:1056680013F0010F1FD00223D31A082A88BF013B69
:10567800984224D92046FFF7D9FA0446A8B90198D8
:10568800022380F87A30143005F0ACF91FE040238B
:1056980084F8A130DEE7254A0121214808F038F8CE
:1056A8006FF0080417E00123DEE70346204A0121D2
:1056B8001B4808F037F801A8FFF720FF0BE04FF070
:1056C800FF3323600198FFF7E3FD044638B9B8F1CA
:1056D800000F10D00024204604B0BDE8F08101A8D6
:1056E800FFF70CFF14F10B0F02D06FF00804F2E77C
:1056F8004FF0FF34EFE7019860304FF0FF324FF082
:10570800FF3305F00DF8019B5C6801A8FFF7F6FE72
:10571800E1E700BFD3E0183431501834E466193497
:105728002059193410110101346719340C671934E0
:105738004867193410B586B0059090F87A30013B67
:10574800072B16D8DFE803F0780415176315787867
:10575800FFF786FC0598283000220023CDE90023B6
:1057680042F21072002306F0E5F8059B032283F845
:105778007A2006B010BD28300AF0E8FE23E0059B29
:10578800062283F87A20F4E73C4A01213C4807F0D6
:10579800BFFF059B14F10B0F06D06FF0080208211C
:1057A80083F87A105A60E4E74FF0FF32F7E790F891
:1057B800793043BB7C304FF0FF324FF0FF3304F0B9
:1057C800AFFF002CD5DD0598FFF7D0FC0446002874
:1057D800D5D00028D8DB059890F87830002BE6D093
:1057E80090F8A530002BE2D1283000220023CDE923
:1057F800002342F21072002306F09CF8059B032256
:1058080083F87A20B5E7052380F87A30B1E700F10C
:10581800280490F8791002A8FEF786FFDDE9022334
:1058280000200021CDE90001204606F083F8059B01
:10583800042283F87A209CE70168002903DB80684A
:105848008368DB699847059828300AF07FFE059839
:1058580090F8A63013F0400F0BD0036E416E4068ED
:10586800984705A8FFF74AFE059B002283F87A208F
:105878007FE7603004F00EFFF6E700BF6067193479
:1058880020591934F0B583B004460E4615461F4614
:10589800416000F18003D2E9000183E8030004F1CC
:1058A800880397E8030083E8030004F168000AF01E
:1058B800CDFA089B1B88A4F89030002384F8923016
:1058C800AB7913F0080F03D1BB7913F0080F09D097
:1058D800B3681B6801A930469847E8B9019B13F0E3
:1058E800040F19D0DDE90A23194808F0A3FAA060CB
:1058F800D0B12046FFF760F90546E8B9154904F12B
:1059080020000AF075FB0022134904F130000AF068
:1059180011FE284603B0F0BD104A0121104807F0D7
:10592800F7FE6FF00805F4E70E4A01210C4807F06E
:10593800EFFE6FF00A05ECE70B4A0121084807F073
:10594800E7FEA06808F07CFA0023A360E1E700BF47
:1059580064AC193471E01834994C1834E46619347D
:1059680020591934746719348C671934F8B504460A
:10597800012828D800EB80061A4800EBC61604EB6D
:105988008403DB0118330021184408F0DAFB10BB4C
:10599800A50004EB8400C0011830124F38440430CD
:1059A8000AF09BF92819C00130303844012200213F
:1059B8000AF0AAFA2819C00148300B4938440AF0FD
:1059C80017FB3046F8BD0346084A0121084807F08E
:1059D800A9FE0026F5E7074A0121054807F098FEC9
:1059E8000026EEE70CA619343D5A1834EC67193432
:1059F800405919340868193408B5037B012B02D9BA
:105A0800022B0AD108BD08F039FD0028FAD0064A51
:105A18000121064807F07CFEF4E7054A0121034806
:105A280007F076FEEEE700BF2068193440591934B4
:105A38004068193470B50446A0F1480510F83C3C9C
:105A4800012B09D9022B10D114F83B3C9BB1A4F1CE
:105A5800180004F01FFE0DE0284608F007FD284650
:105A680000F0E4F9C4F81C02EEE70C4A01210C48E6
:105A780007F04EFE70BD284608F034FD064648B9CA
:105A880014F83C3C012BF5D8002EF3D1284608F039
:105A9800F1FCEFE72846FFF7AFFFF1E7406819345C
:105AA8004059193401460020012808D800EB80022B
:105AB800044B03EBC2138B4203D00130F4E76FF0C1
:105AC800120070470CA6193438B505460024012C7D
:105AD8000AD804EB8403DB01054AD1582846FBF7B2
:105AE80003FE18B10134F2E76FF01204204638BD06
:105AF8000CA6193484B070B582B007AC84E80E00E7
:105B08001AB31646C0B2FFF731FF0446002856D034
:105B1800002343730AAB93E803008DE8030007AB47
:105B28000ECB204608F001FB0546B0B99DF81C30A5
:105B3800012B1AD9022B2CD19DF8243084F87C3201
:105B48006661204608F0C2FC33E01E4A01211E4867
:105B580007F0DEFD6FF015052BE01C4A01211A48FD
:105B680007F0D6FD6FF015051AE00AAB93E80300BD
:105B78008DE8030007AB0ECB204600F075F900282E
:105B8800DAD0134A0121104807F0C2FD6FF015055D
:105B980006E0104A01210C4807F0BAFD6FF08505B0
:105BA8001834D4E8EF3F23F00103C4E8E23F002AA9
:105BB800F7D1284602B0BDE8704004B070476FF0D6
:105BC8001505F6E7546819344059193478681934BA
:105BD800AC6819344068193470B54468B4F850306A
:105BE800043B9BB2FC2B33D8054694F8523080F81E
:105BF8005E3094F8533080F85F30B4F85020043A9F
:105C080092B2A0F85C20B4F85060023EB6B204F13B
:105C1800540160300EF0B8FB06F150032344DA78E3
:105C2800264496F8523043EA0223A5F85C31B4F8CA
:105C38005030023B04F152024FF6FF714AF2010064
:105C480008F0CAFCB5F85C31834209D1002070BD68
:105C5800074A0221074807F05BFD6FF07900F6E775
:105C6800054A0221034807F053FD6FF00400EEE7F0
:105C7800EC681934585919340069193410B582B0D0
:105C88004468002300930193CB680093037B012BA6
:105C980014D003238DF806300A7C9AB1531EDBB268
:105CA800012B1DD88DF8042001238DF80530694695
:105CB800206808F0B9FA58B902B010BD02238DF86F
:105CC8000630E9E78DF8042003238DF80530EEE768
:105CD800054A0121054807F01BFD6FF01500EBE7A9
:105CE8006FF01500E8E700BF2C69193458591934CA
:105CF80008B5406B18B1483004F074FE08BD034A7B
:105D08000121034807F004FDF8E700BF486919348A
:105D180058591934F0B583B0054644680121183044
:105D280008F070FB002844D0B4F85030B3F5807FF9
:105D380043D004F11800626863322CBF01250025A6
:105D4800C2F31303110D41EA053119441E4BA3FB9D
:105D58000163DB0803EB830303EB8303CB1AD21A3B
:105D680065F1000519491A4B02FB03F301FB0533E2
:105D7800A2FB01210B44920842EA83729B08002689
:105D88000027CDE9006705F0D5FD2068A168B4F8C3
:105D98005020C2F5807283689B6993B19847A368C5
:105DA8000344A360B4F850300344A4F8503003B05F
:105DB800F0BD284608F085FAF9E7284608F056FBB2
:105DC800F5E76FF05700EAE71F85EB51295C8FC2B2
:105DD800F5285C8F38B529B104460D4608F04EFA0F
:105DE80030B938BD0F4A01210F4807F091FCF8E798
:105DF800204608F03AFA0028F3D0A3685B6B13B189
:105E08002046984710B12846FFF784FFA3685B6ACD
:105E18001BB1204698470028E3D0284608F090FA9E
:105E2800DFE700BF686919345859193410B5446858
:105E3800037B4BB1012B10D0094A0121094807F017
:105E480067FC6FF085000AE0FFF7C6FE0023A4F8A0
:105E5800503004F15203A36001E06FF0850010BDDB
:105E6800946919345859193484B0F0B583B000AF27
:105E7800044607F1240080E80E00656897F824308E
:105E8800012B00F2A4802373286809F04CFE60B34C
:105E980007F124012046FFF7F1FE002840F09A8020
:105EA8003B6B002B76D0B3F5164F7BD84C4AB2FB30
:105EB800F3F36B60204608F0B0FA002840F08D80BC
:105EC8000023A5F8503005F15203AB60224645493E
:105ED800286808F09BF90646002867D030460C373A
:105EE800BD46BDE8F04004B070472B6819686D46A0
:105EF80000233B7102237B7188B06C4614F11002B9
:105F080011D00E201AB1042801DD374B636100233C
:105F18003B7002237B709AB1082800DDA16104F16F
:105F28001C0300210AE06FF00040EBE701F10806CE
:105F38003E4416F8086C03F8016B01310129F5D9C4
:105F48000D2824DD0E2342B1032139710021797116
:105F5800B9710121F9717868206100216FF300019E
:105F68006FF341016FF382016FF3C501012060F304
:105F78008811C3F30A0363F353216FF31F510023FE
:105F88001A48FDF70FF8AD466FF01206A6E76FF056
:105F98001B03D8E7164A0121144807F0B9FB6FF034
:105FA80015069BE740F2EA336B6083E7002211494C
:105FB80005F118000AF0BEFAEC64204608F0A9F9C9
:105FC8006B680D4A0321094807F0ACFB86E76FF0C0
:105FD800850683E76FF0150680E76FF004067DE716
:105FE800A0764B02DD5D1834AC6919345859193460
:105FF800C8691934F95C1834D869193430B583B0D4
:1060080004460D4690F85F3000910A4A03210A4879
:1060180007F093FB204608F047FA94F8653163F0DF
:106028007F0384F8653184F866510123A4F862314E
:1060380003B030BDFC691934505919342DE9F043C7
:1060480083B0B0F85C30042B2AD1054643691B683D
:106058007BB390F8603090F8614044EA032490F8EC
:10606800623090F8639049EA032909F1FF339BB243
:10607800B3F5FA6F22D2B9F101032AD4C3F3CF03DF
:106088005A1C0233A5F8623185F8662105F26718B3
:1060980092B2002140460EF01FFA0026012727E0A1
:1060A800234A0121234807F033FB002003B0BDE851
:1060B800F0830121FFF7A2FF0120F7E71E4A012123
:1060C8001C4807F025FB03212846FFF797FF01200E
:1060D800ECE70733D2E7194A0321164807F018FB03
:1060E80002212846FFF78AFF0120DFE77F00FFB281
:1060F8004E451AD26B691B680DF107012046984777
:106108000028E8D19DF8073023B198F800303B43C8
:1061180088F800300134A4B2731C9EB213F0070F44
:10612800E4D108F101080127E2E70120BEE700BF3A
:10613800146A1934505919342C6A19344C6A1934B0
:106148002DE9F04383B0B0F85C30042B24D1054628
:1061580043699B684BB390F8603090F8614044EA1B
:10616800032490F8623090F8637047EA03277B1E97
:106178009BB2B3F5FA6F1DD27B1E26D4C3F3CF03AF
:106188005A1C90B20233A5F8623185F8662105F2EF
:106198006716334600221FE02A4A01212A4807F0E1
