:020000043418AE
:10040000608B1934353D18346BAC1834213D1834E9
:10041000213D1834213D1834213D1834213D183434
:10042000000000000000000000000000A53E18349D
:10043000213D183400000000453E1834616B18342B
:100440000D4018340D4018340D4018340D40183448
:100450000D4018340D4018340D4018340D40183438
:100460000D4018340D4018340D4018340D40183428
:100470000D4018340D4018340D4018340D40183418
:1007480080F0004002E000BF81F0004142001FBF7E
:100758005FEA410392EA030F7FEA226C7FEA236C87
:100768006AD04FEA1262D2EB1363C1BFD21841407C
:1007780048404140B8BF5B42192B88BF704710F012
:10078800004F40F4000020F07F4018BF404211F0B5
:10079800004F41F4000121F07F4118BF494292EA1D
:1007A800030F3FD0A2F1010241FA03FC10EB0C0049
:1007B800C3F1200301FA03F100F0004302D54942D6
:1007C80060EB4000B0F5000F13D3B0F1807F06D383
:1007D80040084FEA310102F10102FE2A51D2B1F17B
:1007E800004F40EBC25008BF20F0010040EA030070
:1007F8007047490040EB0000013A28BFB0F5000FF0
:10080800EDD2B0FA80FCACF1080CB2EB0C0200FAA5
:100818000CF0AABF00EBC25052421843BCBFD040F4
:100828001843704792F0000F81F4000106BF80F46E
:1008380000000132013BB5E74FEA41037FEA226C31
:1008480018BF7FEA236C21D092EA030F04D092F0FC
:10085800000F08BF0846704790EA010F1CBF002030
:10086800704712F07F4F04D1400028BF40F000408D
:10087800704712F100723CBF00F50000704700F0AD
:10088800004343F0FE4040F4000070477FEA2262D4
:1008980016BF08467FEA23630146420206BF5FEAA5
:1008A800412390EA010F40F4800070474FF00003A5
:1008B80004E000BF10F0004348BF40425FEA000C6C
:1008C80008BF704743F0964301464FF000001CE014
:1008D80050EA010208BF70474FF000030AE000BF6A
:1008E80050EA010208BF704711F0004302D54042A8
:1008F80061EB41015FEA010C02BF8446014600201A
:1009080043F0B64308BFA3F18053A3F50003BCFA34
:100918008CF2083AA3EBC25310DB01FA02FC6344E1
:1009280000FA02FCC2F12002BCF1004F20FA02F2E8
:1009380043EB020008BF20F00100704702F12002DB
:1009480001FA02FCC2F1200250EA4C0021FA02F23C
:1009580043EB020008BF20EADC7070474FF0FF0C41
:100968001CEAD0521EBF1CEAD15392EA0C0F93EA3C
:100978000C0F6FD01A4480EA010C400218BF5FEADE
:1009880041211ED04FF0006343EA501043EA511151
:10099800A0FB01310CF00040B1F5000F3EBF49004B
:1009A80041EAD3715B0040EA010062F17F02FD2A4F
:1009B8001DD8B3F1004F40EBC25008BF20F0010032
:1009C800704790F0000F0CF0004C08BF49024CEA49
:1009D800502040EA51207F3AC2BFD2F1FF0340EADB
:1009E800C250704740F400004FF00003013A5DDC4C
:1009F80012F1190FDCBF00F000407047C2F100028D
:100A0800410021FA02F1C2F1200200FA02FC5FEA79
:100A1800310040F1000053EA4C0308BF20EADC70C3
:100A2800704792F0000F00F0004C02BF400010F435
:100A3800000F013AF9D040EA0C0093F0000F01F0E2
:100A4800004C02BF490011F4000F013BF9D041EA04
:100A58000C018FE70CEAD15392EA0C0F18BF93EA06
:100A68000C0F0AD030F0004C18BF31F0004CD8D130
:100A780080EA010000F00040704790F0000F17BFB7
:100A880090F0004F084691F0000F91F0004F14D0FD
:100A980092EA0C0F01D142020FD193EA0C0F03D155
:100AA8004B0218BF084608D180EA010000F0004058
:100AB80040F0FE4040F40000704740F0FE4040F433
:100AC800400070474FF0FF0C1CEAD0521EBF1CEAD2
:100AD800D15392EA0C0F93EA0C0F69D0A2EB0302F0
:100AE80080EA010C49024FEA402037D04FF080538A
:100AF80043EA111143EA10130CF000408B4238BF4F
:100B08005B0042F17D024FF4000C8B4224BF5B1A5C
:100B180040EA0C00B3EB510F24BFA3EB510340EAAA
:100B28005C00B3EB910F24BFA3EB910340EA9C0058
:100B3800B3EBD10F24BFA3EBD10340EADC001B01C8
:100B480018BF5FEA1C1CE0D1FD2A3FF650AF8B426C
:100B580040EBC25008BF20F0010070470CF0004C79
:100B68004CEA50207F32C2BFD2F1FF0340EAC250A4
:100B7800704740F400004FF00003013A37E792F065
:100B8800000F00F0004C02BF400010F4000F013AC3
:100B9800F9D040EA0C0093F0000F01F0004C02BFBE
:100BA800490011F4000F013BF9D041EA0C0195E727
:100BB8000CEAD15392EA0C0F08D142027FF47DAFC0
:100BC80093EA0C0F7FF470AF084676E793EA0C0FB0
:100BD80004D14B023FF44CAF08466EE730F0004CAE
:100BE80018BF31F0004CCAD130F000427FF45CAF3E
:100BF80031F000437FF43CAF5FE700BF42000ED204
:100C0800B2F1FE4F0BD34FF09E03B3EB126209D43F
:100C18004FEA002343F0004323FA02F070474FF0F5
:100C28000000704712F1610F01D1420202D14FF06A
:100C3800FF3070474FF00000704700BF03685A004C
:100C48004CBF43F0004323F00043184470472DE99C
:100C5800F0470646174641B301394FF00009884668
:100C680009EB080404EBD474641006EBC4054FEADE
:100C7800C40A2846FFF7E2FFA14204D1B84204D8CB
:100C88002846BDE8F087B84204D9A1450DD004F143
:100C9800FF38E5E70AF108003044FFF7CFFF0138D5
:100CA800B842EDD204F10109DAE70025E8E70128A6
:100CB80006D0022806D00028034818BF0020704735
:100CC8000248704702487047D1121834D5121834B8
:100CD800D91218341F4B37B504468D1E4BB101A9E4
:100CE8002846AFF3008048B900230920236103B0E8
:100CF80030BD1948194B1B1ADB10019301992A467C
:100D0800FFF7A5FF01460028EED0FFF797FF4B68D5
:100D1800A064012B1AD0002B01F1040010DBFFF7AF
:100D28008DFF0023C4E913030368002B0ADAC3F319
:100D38000360FFF7BCFF03460028D5D00020D5E7A5
:100D48000123EFE7FFF77AFF0346F7E700230520C3
:100D5800CCE700BF00000000B0041934780519344E
:100D68000368DA0710B5044605D49B0700F148006C
:100D780018D500F0F7FB2368590703D404F1D00015
:100D880000F0F8FB23681A0703D404F5A87000F0F4
:100D9800F9FB2368DB0608D404F5E870BDE81040C9
:100DA80000F034BC00F0D6FBE5E710BD0920704721
:100DB8000346006800B118447047704770B505468F
:100DC8000C46216C2846FFF785FF064608B103F05C
:100DD80039FB236C2246294601206B612B69984711
:100DE8000828EED00728F2D13046216CFFF7E5FF3E
:100DF800201D00F0A3FB2DE9F0470C1DADF5727D19
:100E0800D0F80C900746D0F818A0164603AD0DF19F
:100E180008080FCC0FC50FCC0FC50FCC0FC594E831
:100E28000F0085E80F000025C8F800500936D8F8EB
:100E380040103846FFF74EFF0446F6B268BBD8F8B4
:100E480040304FF4F07241467AA87B610EF01CFEE8
:100E58003B697AAA394630469847889B0546C8F8C0
:100E680044303A463B4631460120CDE9008AC8471E
:100E7800C0B9C4B94FF4F0727AA9404626460EF0BC
:100E880003FE082DD2D0072D0CD12046D8F84010EB
:100E9800FFF793FF03A800F051FB46F01006D8F8BF
:100EA8003830DCE7092420460DF5727DBDE8F0876F
:100EB800406C7047F0B5CB6BF9B00D1D06460B645E
:100EC8000F4601AC0FCD0FC40FCD0FC40FCD0FC40B
:100ED80095E80F0084E80F004FF0FF330093109956
:100EE8003046FFF7F7FE78B933696A4631469847C6
:100EF80008280446F3D06846FFF732FF062C03D1D2
:100F080039463046FFF75AFF092079B0F0BD10B4D2
:100F18008261DA6BC16019461A64002210BC6AE764
:100F280070B543690446C6680D460B6426B10122B4
:100F3800FFF761FF03F086FA03690A4601460220BB
:100F48009847072805D00828F4D129462046FFF7F6
:100F580035FF3046296CFFF730FF281D00F0EEFA08
:100F6800C26802B9A6E7CA6B0A64002243E7704761
:100F7800836801460BB1012018477047012910B555
:100F88000446084605D005D9C81E01288CBF022092
:100F9800012010BD43B90F2A06D804EB8204029A37
:100FA800184661681160F4E70220F2E71FB503AB49
:100FB8000A46009300231946FFF7E0FF039805B09F
:100FC8005DF804FB012910B50446084605D005D98B
:100FD800C81E01288CBF0220012010BD43B90F2A6A
:100FE80006D8029904EB8204184609686160F4E7A0
:100FF8000220F2E71FB503AB03920A4600930023D1
:101008001946FFF7DFFF05B05DF804FBF0B5D36BB9
:10101800ADF50F7D141D064613640F4617AD0FCCB2
:101028000FC50FCC0FC50FCC0FC594E80F0085E88E
:101038000F004FF0FF33169326996846FFF74AFED4
:1010480090B90C2116A86A46FFF7D4FF394616A8AE
:10105800B04748B9049B16AA69460820984705284E
:10106800044602D00928E7D1092416A8FFF778FE1C
:1010780020460DF50F7DF0BD2DE9F04FCD6C87B002
:1010880017460C4655F8042B00F003099A460495B8
:101098003BBB12028DF8153003230392B9F1020FFE
:1010A8008DF81430236D08BFA56B13F0010322D10E
:1010B80000F0080800932B6843BB03A9384600F0EA
:1010C80042FB002840F0FB80009BDBB10F21384633
:1010D800FFF76CFF0E2102463846FFF78BFF794A6F
:1010E80055E0130C12048DF81530DBB2039205EBB2
:1010F80083050223D2E703A9384600F024FB002821
:1011080040F0DD80082007B0BDE8F08FBAF1020F8B
:10111800A26C4FF00F01384607BFD5F804B005F1AF
:101128000806B5F802B02E1D18BF2B882BF0010554
:1011380001931544FFF73AFF019B854229D823F014
:1011480001022A44824294BF002201224FEA4B0046
:1011580003F0010300F0020040EA0305012D1AD054
:10116800022D5ED0002D40F0AA80351DB9F1000F88
:10117800A1D0002A9FD03046FFF760FDA563064640
:101188002046AFF30080002800F0998032460F21F6
:101198003FE00022DAE7B9F1000F26D1002A3DD05E
:1011A80073683268991C4FEAD27200F0888004F1A3
:1011B80058010133029109D0301DFFF7F9FD02AB48
:1011C80001462046AFF30080054638B30D21384666
:1011D800FFF7ECFE022D029B206202D1E36204F1CC
:1011E8002C030620C4E909368DE7256A0D21384607
:1011F800FFF7DCFE854211D1A36A9E420ED130462C
:10120800FFF71CFD0F2102463846FFF7F3FE224682
:1012180000213846FFF7EEFE072074E706F10805BF
:1012280049E7356825F00045B9F1000F2AD1A2B188
:10123800B8F1000F19D085B9CB4617E00BF1010BB7
:10124800019B002206EB8B000293FFF7B1FD02AB76
:1012580001462046AFF3008058B13368002B00DA0E
:101268000436013506EB850525E7C34604F1580326
:101278000193AB45E2D10D213846FFF797FE029B5B
:101288002062AEE7D4F820B00D213846FFF78EFE75
:101298008345E2D1A36A9E42DFD14FF0000B0423BD
:1012A800A562C4E90BB3F318636333685B4503DADB
:1012B800681C06EB8000A3E701230093D1E709200F
:1012C80021E700BF000000000023D5E60123D3E694
:1012D8000223D1E62DE9F0410546C2B014461E4668
:1012E800042925D8DFE811F005001C002400D600E9
:1012F8000301EEB9836B92B20121043001FA06F7BB
:1013080017421CBF53F8047B40F826700136102E94
:10131800F4D1A60400D4AB63002042B0BDE8F0814C
:10132800012E4FEA124794B204D13B19102B41D930
:101338000220F2E7052EFBD107EB0408B8F1200FD5
:10134800F6D80F2F4DD9002CE6D00368A0465807D1
:1013580008D523F00403284640F8D03B00F00EF9E6
:101368000F2F48D9684600F009F9AB6B102F3A46A1
:1013780042A94FEA480838BF10221C4608F1FF3836
:1013880001EBC2024FEA8801A2F5C472101F02EBFA
:10139800880254F804CB40F804CF8242F9D10A1DE0
:1013A800012E134417D00F2FAB636FD9684600F096
:1013B800E1F8B1E7102FBBD00368DA0705D523F0B1
:1013C800030340F8483B00F0C9F820A800F0C6F82D
:1013D800AB6B002C3FD1043320A8AB6300F0BAF804
:1013E8009AE7B8F1100F03682DD9DC07A8F11008A7
:1013F80042D45807ADD420A8C7F1100400F0B6F8BD
:10140800684600F0BBF820AA6400AB6B02EBC70289
:10141800013C101FA10002EB84021C4654F804CBC7
:1014280040F804CF9042F9D10A1D1344B8F1000FD7
:101438009CD1012ECFD00F2FAB633FF66DAF20A804
:1014480000F090F868E7D9070DD420A800F08EF8CE
:10145800AB6B002CF3D0640020AA4FF0000802EB1D
:10146800C702013CD5E723F0010343F0020340F82B
:10147800483B00F07BF8E8E723F0010343F0020360
:1014880040F8483B00F072F82B68B2E720A800F05B
:1014980069F88BE7032E7FF44BAF97B2160C07EB76
:1014A8001244102C3FF644AF0368190706D523F001
:1014B8000803036000F5A87000F086F820A800F083
:1014C80083F820ABAA6BF90003EBC60303EBC7074D
:1014D800D41ABB4203EB040005D10A4420A8AA632E
:1014E80000F050F818E7006843F8040BF1E7002E05
:1014F8007FF41EAF102A3FF61BAF0368DA0606D545
:1015080023F01003036000F5E87000F089F820AEBE
:10151800304600F085F8AB6B0022012101FA02F099
:1015280020421CBF53F8040B46F822000132042A5B
:10153800F4D13046AB6300F069F8EDE600F1340110
:1015480091E838009C46A6464CF8045D90E8FF0FE9
:10155800E54600BD90EC210B704700BF80EC210BE5
:10156800704700BF90EC200B704700BF80EC200B49
:10157800704700BFD0EC200B704700BFC0EC200BB9
:10158800704700BFF0EC0201F0EC0211F0EC022110
:10159800F0EC0231F0EC0241F0EC0251F0EC0261A7
:1015A800F0EC0271F0EC0281F0EC0291F0EC02A197
:1015B800F0EC02B1F0EC02C1F0EC02D1F0EC02E187
:1015C800F0EC02F1704700BFE0EC0201E0EC021120
:1015D800E0EC0221E0EC0231E0EC0241E0EC0251E7
:1015E800E0EC0261E0EC0271E0EC0281E0EC0291D7
:1015F800E0EC02A1E0EC02B1E0EC02C1E0EC02D1C7
:10160800E0EC02E1E0EC02F1704700BFB0FC0181C0
:10161800B0FC0191B0FC01A1B0FC01B1704700BF62
:10162800A0FC0181A0FC0191A0FC01A1A0FC01B1DA
:10163800704700BFEC4600B52DE900502DE9FF1FAB
:101648004FF000032DE90C0001A9FFF733FCDDF88A
:1016580040E012B0704700BFEC4600B52DE90050DD
:101668002DE9FF1F4FF000032DE90C0001A9FFF73A
:1016780057FCDDF840E012B0704700BFEC4600B5FB
:101688002DE900502DE9FF1F4FF000032DE90C0054
:1016980001A9FFF765FCDDF840E012B0704700BF14
:1016A800EC4600B52DE900502DE9FF1F4FF000036F
:1016B8002DE90C0001ABFFF72AFCDDF840E012B081
:1016C800704700BFEC4600B52DE900502DE9FF1F1B
:1016D8004FF000032DE90C0001AAFFF797FCDDF895
:1016E80040E012B0704700BF10F8012B11F8013B21
:1016F800012A28BF9A42F7D0D01A7047027A0346C7
:101708007AB9427A82B1013A42724268111D12686E
:101718000260032241601A721A68100E12021A60DF
:101728007047013AD2B2F6E7B02070471FB503AB55
:101738000C22009300231946FFF720FC039805B0FC
:101748005DF804FBF2E72DE9F043054685B00E4647
:101758004FF000083046FFF7D1FFB028044615D1F6
:10176800B8F1000F0ED103AC43460E22414628467D
:101778000094FFF703FC43460F2241462846009495
:10178800FFF720FC002005B0BDE8F08302061DD459
:101798004FEA8009002303AF0D225FFA89F9194641
:1017A80028460097FFF7EAFB09F10409039B14F0A8
:1017B800400F14BFA3EB09034B4403930023009786
:1017C8000D2219462846FFF7FDFBC3E700F0F0039A
:1017D800802B18D104023046FFF790FF0443B4F57C
:1017E800004F01D10920CEE7240100232846A2B2E8
:1017F8001946FFF76FFD0028F4D114F4004F18BF05
:101808004FF00108A6E7902B0DD100F00D030D2B2A
:10181800E8D003AF002300F00F02284619460097CE
:10182800FFF7ACFBCAE7A02B13D1C3434FF47F6289
:1018380003F007031A41030702F47F6201D542F45B
:101848008042002319462846FFF744FD002881D02E
:10185800C8E7B02B46D1B12808D13046FFF74EFF74
:10186800431E0246DBB20E2BEBD9BBE7B22820D1D0
:10187800002303AC0D222846194600940227FFF7DF
:101888007DFB3046FFF73AFF00F07F0110F0800340
:10189800039A01FA07F105D102F5017200940A448E
:1018A80003928DE70A44304607370392FFF726FF75
:1018B800EAE7B3280BD13046FFF720FF01230203E4
:1018C80000F00F0002F4702201300243BAE700F082
:1018D800FC03B42B86D000F007020123013242F446
:1018E8000022AFE7C02B44D1C6280AD13046FFF703
:1018F80005FF0323020300F00F0002F470220130F9
:10190800E3E7C7280BD13046FFF7F8FE431E02462F
:10191800DBB20E2B3FF666AF0023042193E700F0FD
:10192800F803C02B06D100F00F020323013242F462
:10193800202287E7C8280DD13046FFF7DFFE00F0E8
:10194800F00200F00F0005231032013040EA0232A5
:10195800012178E7C9287FF445AF3046FFF7CEFE6E
:101968000523020300F00F0002F470220130024345
:10197800EEE700F0F803D02B7FF434AF00F0070255
:101988000523013242F40022E2E71FB50346084668
:10199800DA6C53680832190202921B0E0322019175
:1019A80001A98DF80C208DF80D30FFF7CCFE05B09D
:1019B8005DF804FB08B5FFF7C5FE806C08BD08B5E7
:1019C800FFF7C0FEC06CC379023300EB830008BD8B
:1019D8003F280CD8074B53F820301BB11B880B80CD
:1019E8000020704700230B806FF0850070476FF070
:1019F80085007047805919343F2806D8064B53F89C
:101A080020302BB11980002070476FF08500704797
:101A18006FF08500704700BF8059193430B583B026
:101A280002F014FE04460F4A02F10C0393E8030087
:101A38008DE803000ECA204602F020FE48B905468C
:101A48002346094A0321094808F0FFFF284603B046
:101A580030BD2346064A0121044808F0F6FF4FF03E
:101A6800FF35F3E76810193434101934AC0F193402
:101A7800FC0F19343F2904D8034B43F821000020F8
:101A880070474FF0FF3070478059193490B583B0D4
:101A980000AF02285BD0032800F0AD80012802D0F7
:101AA8000C37BD4690BD6C4600233B7102237B7109
:101AB80088B0EC461CF110021DD00E2022B104287B
:101AC80002DD774BCCF8143000233B7002237B7087
:101AD800A2B1082801DDCCF818100CF11C03002174
:101AE80001290BD801F1080EBE441EF808EC03F8D2
:101AF80001EB0131F4E76FF00040DFE70D2823DD4B
:101B08000E234AB10321397100217971B97101217C
:101B1800F9717868CCF8100000216FF300016FF3B9
:101B280041016FF382016FF3C501012060F3881151
:101B3800C3F30A0363F353216FF31F51002359487A
:101B480001F02CF9A546ABE76FF01B03D9E76C460B
:101B580000233B7102237B7188B0EC461CF1100214
:101B68001DD00E2022B1042802DD4D4BCCF81430D4
:101B780000233B7002237B70A2B1082801DDCCF85A
:101B880018100CF11C03002101290BD801F1080ED3
:101B9800BE441EF808EC03F801EB0131F4E76FF0DE
:101BA8000040DFE70D2823DD0E234AB103213971F8
:101BB80000217971B9710121F9717868CCF81000A8
:101BC80000216FF300016FF341016FF382016FF39E
:101BD800C501022060F38811C3F30A0363F353219C
:101BE8006FF31F5100232F4801F0D8F8A54657E797
:101BF8006FF01B03D9E76C4600233B7102237B710E
:101C080088B0EC461CF110021DD00E2022B1042829
:101C180002DD234BCCF8143000233B7002237B7089
:101C2800A2B1082801DDCCF818100CF11C03002122
:101C380001290BD801F1080EBE441EF808EC03F880
:101C480001EB0131F4E76FF00040DFE70D2823DDF9
:101C58000E234AB10321397100217971B97101212B
:101C6800F9717868CCF8100000216FF300016FF368
:101C780041016FF382016FF3C501032060F38811FE
:101C8800C3F30A0363F353216FF31F51002305487D
:101C980001F084F8A54603E76FF01B03D9E700BFFE
:101CA8008C101934C40F193438B5836805699C69D8
:101CB8007CB112F4000F06D02D6801238B401D4221
:101CC80001D082F0C062044B134002F01662A047B4
:101CD80038BD6FF05700FBE7400000062DE9F04FD4
:101CE80091B005920293134602F004020092C3F3E6
:101CF800C20210F00303019340F02B8280468A460B
:101D08000132041D00284FD0B8F1000F05D0A4EB14
:101D180008030433534500F21F82029B5D1E019B9A
:101D280004930693039300264FF0FF3B0427B9461C
:101D3800B8F1000F01D0029B2360531E0793002ABD
:101D480040F35D81059B13F0020228D00120A4EB2B
:101D580008018B081AB1B1F5007F80F0038203995E
:101D68000F2900F20282B8F1000F00F06081DBB2A7
:101D780001F140026A4402F8103C02F820BC002835
:101D880000F0518163F07F0301F140026A4402F8D8
:101D9800103C049B01330493039B013303930434E5
:101DA8000022CC4640463DE001F0070A5444CAF1FF
:101DB800080AA9E7002634E0002632E0002630E0D1
:101DC8000827BC462DE025292BD10BF1010B012654
:101DD8000427BC4625E04729EED82A2914D32A39F6
:101DE800C9B24FF0010E0EFA01F14FF6DA7E11EA90
:101DF8000E0F16D111F0625F40F0C08011F0010F94
:101E080040F08C8000260CE0252903D10BF1FF3B24
:101E1800002606E001D9002603E0202901D0232965
:101E2800CCD11D466B1C6978002900F01981002E61
:101E3800C9D07A29BED84C29CDD34C392E2961D89E
:101E48000FF2040E5EF821F02B1E18340D1F183403
:101E58000D1F18340D1F18340D1F18340D1F18349A
:101E68000D1F18340D1F18340D1F18340D1F18348A
:101E78000D1F18340D1F18341D1F18340D1F18346A
:101E88000D1F18340D1F18340D1F18340D1F18346A
:101E98000D1F18340D1F18340D1F1834851F1834E2
:101EA8000D1F18341D1F18341D1F1834851F1834B2
:101EB800851F1834851F18342B1E18341D1F18341D
:101EC800C91D18340D1F18342B1E18340D1F183453
:101ED800E11F18341D1F1834E11F18340D1F183462
:101EE8000D1F1834E91F1834171F18341D1F183414
:101EF8000D1F18340D1F18341D1F18340D1F1834EA
:101F0800111F183400268CE70427BC4689E70427EC
:101F1800BC4686E729786C2924D000263C44013C3D
:101F2800B4FBF7F407FB04F420B1211A61445145CE
:101F380000F21581002A58D1BCF1040F00F0888006
:101F4800BCF1080F40F014811A99073121F00701FC
:101F580001F108051A95D1E9008908B1C4E9008999
:101F680008345EE713F8021C6C2903D00026042706
:101F7800BC46D3E700260827BC46CFE729784C297A
:101F88001AD01A99073121F0070101F108061A96AB
:101F9800D1E90067073424F0070440B1211A083159
:101FA800514513D829784C2913D0C4E9006708345F
:101FB80000260827BC4634E71A99073121F00701A3
:101FC80001F108061A96D1E90067E3E76FF01B00F4
:101FD800BCE0C4E90067EAE700260427BC469DE7A1
:101FE800324600260427BC4698E7E14680461A9AFE
:101FF800111D1A9112680292079A1D4698E6624BC3
:10200800029A9A4204D3614B9A420AD3002300E011
:102018000023002B7FF496AE059B03F002020020FC
:1020280095E60123F5E7069B01330693B4E610B164
:102038000AF1010AB0E6009B13B10AF1020AABE605
:1020480002980DF0B0FC0AEB000303F1020AA3E6C4
:102058001A990D1D1A95096800B121600434E0E64B
:102068008046231AB3F5806F80F0858090B10022F6
:1020780002609B080370009B83B1069BC370049B9E
:1020880088F802301BBB019DDDF80C90DDF810B01C
:10209800029F3DE05344A3F1080057E0069B4370BC
:1020A800EDE701339842EED903F140026A4412F891
:1020B800101C12F9102C002AF3DA01F07F01A4EBAE
:1020C80008020132524559D804F8011BE9E7019B7F
:1020D8000398E7E7009B43B305F140036B4413F80B
:1020E800203C04F8013B019EA4EB08033344013370
:1020F800534546D805F140036B4413F8103C04F8E7
:10210800013B3246394620460DF0BEFC34440135C9
:10211800A94519D9BBF1000FDCD005F140036B4488
:1021280013F9103C002BD5DAF1E705F140036B44B5
:1021380013F8103C58F82370002248F8232038463A
:102148000DF031FC461CCFE7A4EB080011B0BDE848
:10215800F08F6FF00D00F9E76FF01B00F6E76FF0F6
:102168001B00F3E76FF01500F0E76FF01500EDE7DF
:102178006FF01500EAE76FF01500E7E76FF01B0056
:10218800E4E76FF01B00E1E77805193418491934C2
:102198002DE9F04F97B000AF8346BA613B61D7F89D
:1021A8008030C3F3C0033B62F96011B907F0E2FF66
:1021B800F8609BF80260B14636B1D7F8803013F06A
:1021C800010F0DD1002300E000239BF803207A6261
:1021D80042B1D7F8802012F0020F22D1002202E08B
:1021E8000123F2E7002202B9EBB19BF80050AA00E4
:1021F800BA60DBF804207A610BEB8505BA69F2B1A5
:10220800002B40F00481B9F1000F00F00F81D7F8DE
:10221800803013F0040F40F00D810020F86106466D
:10222800F9E00122DFE7BB691BB13A69F968584652
:102238009847FC6820465C37BD46BDE8F08FFC68CF
:10224800E3B94D4400233B6123E0044401350136E2
:102258004E451AD22A7800235BF822201946B8691D
:1022680007F09DFFBAF1000FEFD0D7F888309845F6
:10227800EBD22AF8180008F10108E6E70026C7F8AB
:102288001C80B046D7F884A0E2E7C7F81080D7F8DA
:102298001C80D7F8803003F00503FB604FF0000A7C
:1022A800A146C7F81CB09CE000253B6A7BB9002D0D
:1022B80079D0D7F8803013F0010F79D1FB68002B63
:1022C8006FD10223A9EB030988E00125EDE7594600
:1022D800786907F0AAFF0028E9D06C46002387F840
:1022E8002C30022387F82D308AB0694611F110028C
:1022F80037D012251AB1042D01DDB34B4B610023F1
:1023080087F82830022387F829306ABB112D45DD6C
:10231800122362B1042087F82C00002087F82D00D2
:1023280087F82E00012087F82F00F86A08616FF3FC
:1023380000086FF341086FF382086FF3C5080221A4
:1023480061F38818C3F30A0363F353286FF31F5824
:10235800002341469D4800F021FDA546A9F1020948
:102368003CE06FF00045C5E72B46082D01DD786994
:1023780088610C2B01DDC1F81CB001F1200300209D
:1023880009E000F1300C07F1280EF4441CF830CCB9
:1023980003F801CB01300128F3D9B7E76FF01B032D
:1023A800B7E701238EE7D7F8803013F0020F15D076
:1023B800002322461946B86907F0F1FED7F88430A1
:1023C80053B13B69D7F88820934205D2D7F88420C7
:1023D80022F8130001333B61013881440AF1010AF4
:1023E80035467B6A9A4510D22E4616F802BB6B78A2
:1023F800FA6952F82340764B9C42FFF455AF754B6F
:102408009C42FFF462AF00254FE74C4612E707F104
:1024180044000023FB6118B14A4629460DF034FBFD
:102428004D444FF00008C7F804901EE00020F86102
:102438000646F0E7FE6107F134000026EBE70025C9
:102448003B6A33BB002D3BD0D7F8803013F0010F27
:1024580026D0731C06F1300207F12801561806F839
:10246800149CDEB208F1010825467B6A98454AD2D9
:102478002C4614F802AB95F801905BF82930544AC1
:102488009342DCD3534A934201D30025D8E7012570
:10249800D6E75146786907F0C8FE0028D2D0E1E7B0
:1024A800D7F8803013F0040FDCD0FA69531C3032AF
:1024B80007F128010A4402F8249CDBB2FB61D1E74A
:1024C800D7F8803013F0020F09D0731C06F13002E0
:1024D80007F12801561806F8149CDEB2C2E7F8691D
:1024E800431C00F1300107F128028A1802F824ACD5
:1024F80002460232D2B2FA6107F1580252FA83F365
:1025080003F8249CAEE7D7F804909BF8003087F8CE
:1025180054309BF80130334487F85530D7F8803071
:1025280013F0020F0ED1FB69C3F3470387F8573046
:10253800D7F8803013F0010F06D113F0040F3ED105
:10254800002302E00023F1E7002387F85630DBF888
:1025580000003863786DCBF80000D7F81080424649
:10256800B9685846D7F818A0D047041EFFF662AEDF
:10257800386BCBF80000C7F810804246F96907F1BC
:102588003400D04700285EDB04EB0008B9684944F2
:102598007B6A01EB4301D7F810904A46FB68591A49
:1025A8002846D047041EFFF645AE08EB04054FF059
:1025B8000008C7F824B0B3465446CA4621E0FB6970
:1025C800C3E74FF0000909E0981019345C0F19347B
:1025D80078051934184919344FF000095246012179
:1025E80007F12C00A04700282FDB05444B46324654
:1025F8005146204607F0D3FD002828DB054408F1A2
:102608000108D84518D208F1300307F1280213440D
:1026180013F8143C87F82C307A6A52F82360D7F8FC
:102628008430002BCDD0D7F888309845D4D2D7F84D
:10263800843033F81890D1E73A6900210846BB691D
:1026480098472C46F6E50446F4E50446F2E50446C8
:10265800F0E500BF014B1860704700BFF44B193418
:1026680070B506460D46002404E0044B1B68305D37
:1026780098470134AC42F8D370BD00BFF44B19340D
:1026880080B505460E461746984605F0CDFF034629
:102698000DF0F8FE0446DFF8189049F8003042467D
:1026A80039463046A84754F8090001F0ADFB00BF91
:1026B80008000000034A536843F0020353600020F7
:1026C800704700BF0010005482B0154B154A1A60BD
:1026D800154B4FF48022C3F85C2AD3F85C3201937F
:1026E800019B124B1A6A42F001021A62DA6B42F439
:1026F8008072DA63DA6B42F40072DA635A6B42F47E
:1027080080725A639A6B42F480729A63DA6B42F071
:102718000072DA63DA6B42F08062DA6302B0704703
:102728007C5119340090D0030080025600480256AC
:1027380038B505460B4C00E010340B4B9C420FD2C9
:1027480063685B79002BF7D02946204608F0C7F864
:102758000028F1D023681B68294620469847EBE7F4
:1027680038BD00BFEC0F1934FC0F193470B506469C
:102778000D46084C04E02A46314620469847103456
:10278800054B9C4204D223689B69002BF3D1F6E7E2
:1027980070BD00BFEC0F1934FC0F193408B50AF0EE
:1027A800BBF80022431819D213440D4AA2FB03CEEA
:1027B8002EF0030C0CEB9E0CA3EB0C03C01A61F17A
:1027C80000014FF0CC3300FB03F302FB0133A0FB05
:1027D80002021344400840EAC37008BD0122E3E73F
:1027E800CDCCCCCC2DE9F041074605460AE007EAF6
:1027F8000807144B03EB06135B680422196820468C
:1028080008F0ADF8D5B195FAA5F6B6FA86F60D4CEE
:1028180004EB06140123B3406FEA030825EA030515
:10282800237B002BEED03301064AD3581B69002BBB
:10283800DDD0204698470028E4D1D8E73846BDE8DF
:10284800F08100BFEC0F19342DE9F04180460F46A6
:102858001D4BD3E8EF5F6A1CC3E8E12F0029F8D1CC
:102868006DBB1A4C002607E06368042219682046ED
:1028780008F075F801361034154B9C4211D2237BB1
:10288800002BF7D0204608F01EF823681B69002BA0
:10289800EAD0204698470028E6D00123B3401D43DC
:1028A800E8E7B8F1000F0BD055B12846FFF79AFFBB
:1028B8000546002FF8D00A2008F013F8F4E70025A1
:1028C8002846BDE8F08100BF945A1934EC0F19343A
:1028D800FC0F193408B5064B186018B1054B1B6876
:1028E800092B00DC08BD044805F0C4F8FAE700BF6E
:1028F800885A1934905A19340C52193408B50248B8
:1029080005F0B8F808BD00BF0C52193430B589B0CD
:1029180000220F490F480AF00EF80F4D002200233D
:10292800CDE90623002404940E2303930294019412
:1029380000940A4B4FF440720949284609F026FED4
:102948000849284609F012FE204609B030BD00BFEC
:1029580005291834A856193420521934CD2C1834A6
:10296800206F193468111934014B53F8200070474F
:102978008411193448B108B5054A1060054B19602F
:10298800084600F0FFFC002008BD6FF015007047F6
:10299800FC4B1934845A193408B5054B1B781BB104
:1029A800034B01221A7008BD024805F063F8F7E7E7
:1029B800186F19340C52193408B50C4BD3E8EF1FB3
:1029C8000131C3E8E21F002AF8D130B9084809F0FC
:1029D800BEFF084805F04EF808BD074BD3E8EF1FC7
:1029E8000139C3E8E21F002AF0D0F7E78C5A1934FE
:1029F800A85619340C521934905A1934044B002033
:102A08000146D3E8EF0FC3E8E21F002AF9D1704767
:102A18008C5A193438B5FFF7F1FF0546094C00E028
:102A28001034094B9C420BD263685B79002BF7D0BA
:102A380023685B68002BF3D0294620469847EFE7C8
:102A480038BD00BFEC0F1934FC0F1934034B18685C
:102A58000028D4BF00200120704700BF8C5A1934C9
:102A680010B5044C0449204607F073FD034B1C6065
:102A780010BD00BFBC51193470111934805A193473
:102A880008B500230C4A13700C4A13600C4A1360F3
:102A98004FF47A710B48FFF76DFFFFF7E1FF0A4A21
:102AA80006E0094BD31A1B11013351680B71103220
:102AB800064B9A42F5D308BD196F19348C5A19344C
:102AC800905A1934A5271834EC0F1934FC0F19340F
:102AD80008B50146014807F014FF08BDBC51193478
:102AE80008B5024807F018FE08BD00BFBC511934EC
:102AF80008B50146024B186807F009FF08BD00BF7A
:102B0800805A193408B5024807F005FF08BD00BF10
:102B1800BC51193410B582B000220023CDE900233E
:102B28002A4B187808B902B010BD684607F00BFFA9
:102B3800044660B1FFF7FCFD2046FFF7D9FF244BA0
:102B4800D3E8EF1F0139C3E8E21F002AF8D1FFF7E5
:102B58007DFF58B91F4A1368516813F57A7341F11C
:102B6800000113605160FFF7CDFFDCE709F0D4FEE8
:102B78000022431827D21344174AA2FB034C2CF017
:102B8800030404EB9C041B1BC01A61F100014FF005
:102B9800CC3300FB03F302FB0133A0FB0202134416
:102BA800400840EAC3705B080A490A684968801A05
:102BB80063EB010340F2E932904273F10003C9D399
:102BC800FFF728FFC6E70122D5E700BF186F1934C1
:102BD800905A1934A0561934CDCCCCCC0F4B1B7855
:102BE80003B1704710B500210120FFF72DFE0C4CF2
:102BF80000E010340B4B9C4208D263685B79002BD1
:102C0800F7D023689B6820469847F2E7FFF782FFD2
:102C18000028FBD1014B01221A7010BD196F19341D
:102C2800EC0F1934FC0F193410B582B0184BD3E8E7
:102C3800EF2F511CC3E8E01F0028F8D1154B1B7873
:102C480063B9154B1B68B3B1BAB1092A13D113483C
:102C580009F07DFE124804F00DFF0CE0EFF311843B
:102C6800102383F31288BFF36F8FFFF753FF84F3AA
:102C78001188BFF36F8F02B010BD00220023CDE989
:102C8800002342F210720023044805F0FBFFF2E72C
:102C9800905A1934196F1934885A1934A8561934A6
:102CA8000C52193410B50446044B1B689847A060B1
:102CB8002146034807F04BFE10BD00BFFC4B1934FA
:102CC800BC5119342DE9F04100210846FFF7BCFD3D
:102CD800804650B14FF4FA7600270DF0D3FB154B20
:102CE8001858FFF7F7FD002515E04FF0FF364FF0B5
:102CF800FF37F2E74046FFF775FD804670B94FF0A1
:102D0800FF364FF0FF3709E02C4632463B460A486B
:102D180004F0F2FE2546B8F1000FEBD1FFF7FAFEFA
:102D280004460028F6D1002DEED000210846FFF712
:102D38001DFDEAE7080000000C5219340248034B55
:102D4800C01AC008704700BFEC0F19345C0F193463
:102D580010B50C46FFF7F2FFA04203D9024B53F817
:102D6800340010BD0020FCE75C0F193400B589B0B1
:102D7800059206930023079362B1074A0C9B0293BE
:102D88000B9B01930A9B009305ABFFF701FA09B06F
:102D98005DF804FB0022F1E77DA918342DE9F04F16
:102DA8008BB004AF05461E468846C1F34A24002C62
:102DB80000F0898091460022FA603A617A61042322
:102DC8000293FB1801930A23009307F10C03214691
:102DD8004846FFF7DDF9B0F5006F58D3D9F804106D
:102DE8006D4600233B7302237B738AB004AC14F155
:102DF800100217D012201AB1042801DD3B4B636181
:102E080000233B7002237B70CAB10346082800DD0B
:102E1800A1610C2B02DD40F2FF73E36104F1200392
:102E280000210AE06FF00040E5E701F118063E4492
:102E380016F8186C03F8016B01310129F5D911282E
:102E480022DD122342B10421397300217973B97349
:102E58000121F973F868206100216FF300016FF315
:102E680041016FF382016FF3C501022060F38811FD
:102E7800C3F30A0363F353210023C1F313011C486E
:102E880007F0FBFDAD462DE06FF01B03DAE760F3BA
:102E98005328C0F30A0A0AEB1850173020F007002D
:102EA8008008FFF715FE8346B0B104230293FB1890
:102EB80001930A230093534600F110022146484625
:102EC800FFF754FF08E004EB1154173424F007040B
:102ED800A008FFF7FDFD834633464246294658467B
:102EE80007F061FD1C37BD46BDE8F08FA411193409
:102EF800740F19342DE9F04F85B080460D461746FA
:102F08001E46DDF838B0DDF84090B9F1000F41D029
:102F1800119B039300934B460F9A10210020FEF754
:102F2800DDFEB0F5006F2DD282460BEB00031733A0
:102F380023F0070300246FF300046FF341046FF3D9
:102F4800820468F3C50467F3881460F353246BF3B1
:102F58001F549808FFF7BCFD074650B11030B9F16F
:102F6800000F06D0119B00934B460F9A5146FEF76F
:102F7800B5FE334622462946384607F014FD05B00B
:102F8800BDE8F08F40F2FF73034A0221034807F0BF
:102F98005CFDF4E70020C7E7E4111934740F193415
:102FA800406820B1034BC01A40F3CF0070474FF080
:102FB800FF3070475C0F19340EB400B582B001467B
:102FC80003AB53F8042B0193034801F00DFA02B048
:102FD8005DF804EB03B07047B9AA183410B584B093
:102FE80011F0440F05D01A4B1B6833B9002004B008
:102FF80010BD1849FFF7E0FFF9E717490968B2FB68
:10300800F1F2B2FBF3FC03FB1C224FF47A7E0EFBB9
:1030180002F2B2FBF3F403FB14210EFB01F1B1FB46
:10302800F3F10E4AA2FB0C32D20A4FF4616303FBA0
:1030380012CC0B4BA3FB0CE35B0902910194C3EB8D
:103048000311ACEB810100910649FFF7B5FFCEE70C
:103058009C5A19341C121934985A1934C5B3A291C0
:10306800898888882812193461B108B52AB1064AB6
:1030780052F8232012B9054A00E0044A0449FFF730
:103088009BFF08BD704700BFC81219344412193499
:103098008C1019342DE9F04105461746069EDDF8D7
:1030A8001C8081B900242EB1324611492846FFF709
:1030B80083FF0444B8F1000F14D06FB1099B042BAF
:1030C80013D00C4909E00C4B099A53F822200B49FC
:1030D800FFF772FF0446E6E7064942462846FFF72F
:1030E8006BFF04442046BDE8F0810549F5E700BFC1
:1030F8006012193450121934DC1219345812193468
:103108004C1219342DE9F04F87B005460C4604924D
:1031180005939DF84C7001F0020B01F0010AC1F310
:10312800C00801F4807907F018FC18B30246164964
:103138002846FFF741FF0646BBF1000F1CD13A466F
:103148005146284607F0DBFCB9F1000F01D00023F7
:1031580011930397129B0293119B0193109B009369
:103168000023049A41462846FFF794FF304407B0ED
:10317800BDE8F08F0026DFE7059A21462846FFF7CD
:103188002DFF0644DBE700BF6412193411F0100F5D
:103198000BD108B511F0200F03D00449FFF70CFF3D
:1031A80008BD0349FFF708FFFAE77047A418193468
:1031B800681219342DE9F04105460F46164698461F
:1031C8000699FFF7E3FF0024444505DA2449284619
:1031D800FFF7F2FE0134F7E7002409E0204928460A
:1031E800FFF7EAFE0BE01F492846FFF7E5FE01342A
:1031F8000F2C0CDC002C02DD14F0070FEED0B442CB
:10320800F1D23A5D18492846FFF7D6FEEFE717498D
:103218002846FFF7D1FE002409E011492846FFF7A8
:10322800CBFE0BE012492846FFF7C6FE01340F2CEF
:1032380013DC002C02DD14F0070FEED0B44207D2E5
:103248003A5D0C4B9B5C13F0970FEBD12E22E9E70C
:1032580003492846FFF7B0FEE8E7BDE8F08100BF64
:103268005C121934741219346C1219347812193426
:103278007C121934084819342DE9F04184B0044609
:103288009DF82C500C9F0E9E95B9012B1ED0194805
:103298004FF0000827B13B462246174906F095FF34
:1032A800C6B905BB204607F0ECFB04B0BDE8F081C9
:1032B80003950A980290019300920B4600220F99F9
:1032C8002046FFF71FFF80460C48E3E70B484FF006
:1032D8000008DFE70F9B0093434632460D992046CE
:1032E80007F025FCDDE72A460F99204607F013FC76
:1032F800D8E700BFE9AA1834F1431834B9AA18343A
:103308002DE9F04383B00646056842F20F738B42FD
:1033180028BF0B46184A0521684606F059F80446A6
:103328007368D3F804900B27DFF8508005E04A460D
:1033380039464046A8473F1A8044002FF7D17368A2
:10334800D3F804806F4605E0424621463846A84730
:10335800241A0744002CF7D173685F681B24084EB1
:1033680005E03A4621463046A847241A0644002C70
:10337800F7D103B0BDE8F083F41319349C12193463
:1033880080121934074B01221A6004E04008054AEC
:1033980013685B001360044B9842F7D8034B18601E
:1033A800704700BF985A193440420F009C5A19348C
:1033B80070B506460D46002405E0315D0448836873
:1033C8005B6898470134AC42F7D3284670BD00BF0C
:1033D80090081934014B03600020704744131934D6
:1033E80008B50348034A121A002107F030FC08BD4B
:1033F80020521934206F19342DE9F04182B000AF02
:103408000446D0F800E0D0F804C085686E468AB05B
:103418006B4613F1100200F0888014218AB1084627
:10342800042903DDDFF81C81C3F81480082801DDB6
:10343800C3F818E00C2801DDC3F81CC0102800DD13
:103448001D62132974DD14253AB105213971002153
:103458007971B971F9717868186100216FF3000109
:103468006FF341016FF382016FF3C501012363F329
:103478008811C5F30A0565F353216FF31F51002323
:103488003148FFF78BFCB546D4F80CC0266965694E
:10349800E8468AB06B4613F110024CD0142182B171
:1034A8000846042903DDDFF8A4E0C3F814E008287F
:1034B80001DDC3F818C00C2800DDDE61102800DD2E
:1034C8001D6213293ADD14253AB10521397100210D
:1034D8007971B971F9717868186100216FF3000189
:1034E8006FF341016FF382016FF3C501012666F3A3
:1034F8008811C5F30A0565F353216FF31F51124D67
:1035080000232846FFF74AFCC546E369104A3146BE
:10351800284607F09AFAA3690E4A3146284607F06A
:1035280094FA0837BD46BDE8F0816FF0004175E7B1
:103538006FF01B0588E76FF00041B0E76FF01B05DF
:10354800C2E700BF44131934BC0F1934741319347B
:10355800A4131934B413193438B504460D4611B1FF
:103568000846FFF749FF012C04D02946204603F0FE
:1035780067FF38BDEFF30583103B034A0121034879
:1035880007F063FAF1E700BFE4131934BC0F1934EC
:1035980030BFFFF7FDBF00BF38B50446054D2A46CA
:1035A80005490CF071FA054A002160190CF014FB6A
:1035B80038BD00BF00000000FC0F193408000000EF
:1035C80070B50646054D064B1D444C1B2046FFF7BB
:1035D800E3FF083C346705F1080070BD00000000F7
:1035E80008000000054B5A699B689A4204D0044AB7
:1035F800536843F080535360704700BF6C5C1934C4
:1036080000ED00E081690D4B5A6942F480725A61FD
:10361800BFF34F8FBFF36F8F31F8021C5A6922F442
:1036280080725A61BFF34F8FBFF36F8F4DF60273ED
:10363800994201D0002070470120704700ED00E05A
:1036480008B50368054A1A44012A05D9044A012124
:10365800044807F0FAF908BD036CF7E7A6ED050181
:10366800F8131934BC0F193490B583B000AF0F2983
:1036780023DC2F4C103900233B7102237B718AB065
:10368800EC461CF110021AD0122022B1042802DDE7
:10369800284BCCF8143000233B7002237B70E2B136
:1036A8000346082801DDCCF818400C2B01DDCCF8C6
:1036B8001C100CF1200300210DE01F4CDAE76FF01D
:1036C8000040E2E701F1080404EB070E1EF808ECDD
:1036D80003F801EB01310129F4D9112824DD122363
:1036E8004AB10421397100217971B9710121F97147
:1036F8007868CCF8100000216FF300016FF34101E6
:103708006FF382016FF3C501012060F38811C3F3E1
:103718000A0363F353216FF31F5100230748FFF790
:103728003DFB0C37BD4690BD6FF01B03D8E700BFCB
:10373800181419344C14193430141934BC0F1934B2
:10374800F8B505460F461446394A0121394807F0AD
:1037580072F9394B9B6A13F0100F31D11026364B92
:103768009B6A13F0080F32D1334B9B6A13F0020F98
:1037780034D1314B9B6A13F0010F4BD12E4B9B6A0E
:1037880013F0200F4DD12C4B9B6A13F0100F01D171
:10379800294B9B6A284B9B6A13F0200F04D0264ABA
:1037A800536A23F400535362234A936A43F0FF0396
:1037B80093620121284607F05AFA20703046F8BD76
:1037C8001E4A01211B4807F036F91126C7E71C4A93
:1037D8000121184807F02FF91226C5E7194A0121D7
:1037E800144807F028F9144A536B926A12F0800FB4
:1037F80001D11326BDE7144A01210E4807F025F927
:1038080037B10D4A936A23F0800393621326B0E719
:103818001326AEE70D4A0121064807F00CF91426D5
:10382800ACE70B4A0121034807F005F91526AAE77A
:1038380060141934BC0F193400ED00E07814193401
:10384800AC141934C0141934D8141934F0141934B8
:1038580010151934F8B505460F461446374A0121A4
:10386800374807F0E8F8374B9B6A13F4805F25D197
:103878001626344B9B6A13F4006F26D1314B9B6A92
:1038880013F4007F28D12F4B9B6A13F4806F3FD12C
:103898002C4B9B6A13F4807F41D12A4B9B6A13F40B
:1038A800005F43D1274A936A43F47F43936201211F
:1038B800284607F0DCF920703046F8BD224A01217D
:1038C8001F4807F0B8F81726D3E7204A01211C48FB
:1038D80007F0B1F81826D1E71D4A0121184807F06A
:1038E800AAF8184A936B926A12F4004F01D119266C
:1038F800C9E7184A0121124807F0A7F837B1114A59
:10390800936A23F4004393621926BCE71926BAE7A1
:10391800114A01210A4807F08EF81A26B8E70F4A1B
:103928000121074807F087F81B26BBE70C4A01214D
:10393800034807F080F81C26B4E700BF4015193487
:10394800BC0F193400ED00E058151934AC141934C3
:103958006C15193488151934A0151934BC15193487
:103968001015193408B5314A0121314807F063F8B8
:10397800304B9B6A13F0007F26D11D202D4B9B6A8C
:1039880013F0807F27D12B4B9B6A13F4801F29D11A
:10399800284B9B6A13F4002F2BD1264B9B6A13F4F8
:1039A800802F2DD1234B9B6A13F4003F2FD1214B3D
:1039B8009B6A13F4803F31D11E4A936A6FEA03432E
:1039C8006FEA1343936208BD1B4A0121184807F0A8
:1039D80032F81E20D2E7194A0121154807F02BF8C2
:1039E8001F20D0E7164A0121114807F024F80220C9
:1039F800CEE7144A01210E4807F01DF82120CCE734
:103A0800114A01210A4807F016F82220CAE70F4A8E
:103A18000121074807F00FF82320C8E70C4A0121C5
:103A2800034807F008F82420C6E700BFD415193466
:103A3800BC0F193400ED00E0EC15193400161934E8
:103A48001C16193448161934681619349016193486
:103A5800AC16193408B53B4A01213B4806F0EBFF88
:103A68003A4AD2F8E830D2F8E42012F0400F2BD1CD
:103A7800364BD3F8E43013F0010F2BD1334BD3F886
:103A8800E43013F0020F33D1304BD3F8E43013F0A5
:103A9800040F34D12D4BD3F8E43013F0080F35D18F
:103AA8002A4BD3F8E43013F0100F36D1274BD3F854
:103AB800E43013F0200F37D1244BD3F8E43013F05F
:103AC800800F38D125200BE0214A01211E4806F03D
:103AD800BCFFCDE71F4A01211B4806F0ACFF26209A
:103AE8001A4AD2F8E43043F0FF03C2F8E43008BDC4
:103AF800194A0121144806F09EFF2720F0E7174ACB
:103B08000121114806F097FF2820E9E7144A01210E
:103B18000D4806F090FF2920E2E7124A01210A48E1
:103B280006F089FF2A20DBE70F4A0121064806F044
:103B380082FF2B20D4E70D4A0121034806F07BFFC2
:103B48002C20CDE7D8161934BC0F193400ED00E04D
:103B5800F4161934041719341C1719343C1719347E
:103B6800581719347817193490171934AC171934B1
:103B780070B506460D46304A0121304806F05BFF15
:103B880000232B702E4BDC6A14F002040AD12C4B54
:103B9800DB6A002B0DDB2A4BDC6A14F080440ED163
:103BA800204670BD274A0121244806F044FF00241E
:103BB800F6E7254A0121214806F03DFFF0E7234AB0
:103BC80001211E4806F037FF3046FFF71BFDC0B93C
:103BD8001B4B9B6A13F0FF0F1BD1194B9B6A13F405
:103BE8007F4F1DD1164B9B6AB3F5803F1FD2144BF4
:103BF800D3F8E440002CD3D03046FFF72BFF04461F
:103C0800CEE73368124A01210C4806F01EFF3468DB
:103C1800C6E72A4601213046FFF792FD0446BFE772
:103C28002A4601213046FFF715FE0446B8E730461C
:103C3800FFF798FE0446B3E7C0171934BC0F1934D0
:103C480000ED00E0D8171934FC1719340C18193492
:103C58002C18193408B500230B70034A01210348B6
:103C680006F0E9FE08BD00BF48181934BC0F193426
:103C780030B58BB01F4B5D68C5F30805002383F38F
:103C88001188BFF36F8F0DF1260306F0F2FF04468B
:103C98000DF12702294607F022F89DF827300BB1CD
:103CA8000BB030BD05460DF1040C20686168A268B0
:103CB800E368ACE80F0020696169A269E369ACE8D0
:103CC8000F009DF826304BB1089BC3F308025AB980
:103CD8006FEA53236FEA4323089305E0089B23F414
:103CE800FF7323F00103089301A92846FFF734FC6A
:103CF800D6E700BF00ED00E0064B5A6942F010021B
:103D08005A615A6942F480625A615A6922F008027B
:103D18005A61704700ED00E0EFF30880EFF3098186
:103D280001B57246FFF7A4FF01BD00BF002080F374
:103D38001488BFF36F8F002080F30A8880F30B8804
:103D48000F4880F3088806F0AAFD00200D49086096
:103D5800BFF34F8F00F02EF8102080F311880A4827
:103D68004FF40061401880F30988EFF314800221B2
:103D7800084380F31488BFF36F8F00F0D1F8000078
:103D8800608B193494ED00E020721934084BD3F895
:103D98009000C0F30720002306E0054AC2F89830D7
:103DA8000021C2F8A01001338342F6DB704700BF40
:103DB80000ED00E010B572B6002484F31388FFF715
:103DC800E5FF234608E003F120010E4A4FF0FF30DB
:103DD80042F821000133DBB20F2BF4D9002308E0AD
:103DE80003F16001074A4FF0FF3042F82100013328
:103DF800DBB20F2BF4D962B6BFF34F8FBFF36F8FCF
:103E080010BD00BF00E100E008B50A4B9B68834283
:103E180002D004F00FFC08BDEFF30583002BF8D0A7
:103E2800054B5A6842F080525A605A6A22F400429E
:103E38005A62EEE76C5C193400ED00E014498A68B8
:103E48004FF030001044EFF3098C80E8F01F102089
:103E580080F31288BFF36F8F0E4F4FF000664A69E8
:103E68008A603E60106F0C4C2060506F00235367CF
:103E780080F3118802F1300090E8F01F8CF3098874
:103E880002F1000004B506F063FFBDE80440704786
:103E98006C5C193404ED00E0C85A19341EF0040FA4
:103EA8000CBFEFF30880EFF30980816911F8021C59
:103EB8000229FFD001B5724606F0CDFE01BD00BF54
:103EC800002807DB00F01F02400901239340024A43
:103ED80042F82030704700BF00E100E0002808DB0E
:103EE8000901C9B200F1604000F5614080F8001393
:103EF800704700F00F000901C9B2014B195470470F
:103F080014ED00E0044B23F07F03044A9360BFF3F1
:103F18004F8FBFF36F8F70470004183400ED00E037
:103F280008B5FFF7EFFF064AD2F8883023F470038C
:103F3800C2F88830FFF754FA00F04AF803F07AFC28
:103F480000ED00E010B4A2F120040D4942F8081C6D
:103F580021F0010142F8081C42F8203C019B42F87C
:103F68001C3C029B42F8183C039B42F8143C4FF05F
:103F7800807342F8043C04650023436710BC704713
:103F88008926183400B50E4615460C4B9860026F0A
:103F98000B4B1A60036E83F30B882C4686F3098853
:103FA8000020044B98472046002100220023024CA1
:103FB8002047000067AD1834892618346C5C193422
:103FC800C85A1934014B10221A61704700ED00E0FD
:103FD800002206E003F00F030949194410230B7669
:103FE8000132C12A0ADC13B2002BF3DB03F1604370
:103FF80003F56143102183F80013F1E7704700BF10
:10400800FCEC00E008B5EFF30583103B044A02EB33
:10401800C301496852F833008847FFF7E3FA08BD3F
:10402800B008193410B584B00A4C23460A4A012155
:104038000A4806F0B0FF002300930193029303930C
:10404800074B0093E41A01940121684606F0A7FF84
:1040580004B010BD00002034204919346C181934FC
:1040680020521934024B034AC3F8C020704700BFDE
:1040780000ED00E0AAFF4400034BC3F89800C3F822
:104088009C10C3F8A020704700ED00E0114BC3F866
:104098009800C3F89800D3F89C000A7A60F30402E9
:1040A8000A72D3F8A020C2F34202087A62F34710DA
:1040B8000872D3F8A020C2F300120A74D3F89C2027
:1040C80022F01F020A60D3F8A03023F01F03CB6050
:1040D800704700BF00ED00E070B505460E460024AD
:1040E80000E00134A6421CDD220105EB04135968E7
:1040F8000029F6D0A85806F07BFE04EB44030B4ACF
:1041080042F8330010F1160F0CD0094B1B78984277
:1041180009DA04EB440302EBC3010431FFF7B6FFED
:10412800DFE7002070BD6FF01500FBE7CC5A1934AB
:104138001A6F193410B504460A4BD3F89030C3F3FC
:104148000723013B984203D806F027FE204610BDFE
:104158000346054A0121054806F077FC6FF0150073
:10416800F5E700BF00ED00E080181934B40F1934EA
:104178002DE9F04F89B0814600910193144600253E
:1041880048E02B46634A0121634806F05EFC6FF065
:10419800150407E03346614A01215F4806F055FCE3
:1041A8006FF01504204609B0BDE8F08FD84562D1FC
:1041B8003946C0B206F02DFE2BE0594AC2F8986085
:1041C800D2F89C3003F01F0321F01F010B43C2F803
:1041D8009C303946E0B206F01CFE044610F1160F7A
:1041E800E0D0013415E0013B4D49C1F89860D1F8A1
:1041F800A02002F01F0223F01F031343C1F8A030D0
:104208003946E0B206F005FE044610F1160FC9D093
:1042180001340135009B9D42C4DA4FEA051A09EBC7
:1042280005177E68002EF4D0019B23B1384606F0AE
:10423800CDFD0028A5D0314659F80A0006F0D8FD72
:10424800064610F1160FA5D08442A3DD344BC3F8FF
:104258009800D3F89C2022F01F02C3F89800D3F8E6
:10426800A03043F01F0859F80A307968194401F161
:10427800FF3B93429AD093429FD0D845B3D0013B9D
:104288002749C1F89860D1F8A02002F01F0223F056
:104298001F031343C1F8A0303946E0B206F0B9FD58
:1042A800044610F1160F3FF47DAF01301C4BC3F8E4
:1042B8009860D3F89C109DF8142061F304028DF8DF
:1042C8001420D3F8A020C2F342029DF8141062F320
:1042D80047118DF81410D3F8A030C3F300138DF8EC
:1042E8001C3059F80A307A681344039323F01F03EB
:1042F800A8EB0B084344013B23F01F03069303A9D3
:10430800C0B2FFF717FF044610F1160F3FF44AAF8B
:1043180001347EE7A8181934B40F1934CC181934AD
:1043280000ED00E010B5034C01232278FFF720FFD1
:10433800207010BD1A6F1934044B0522C3F894205D
:10434800BFF34F8FBFF36F8F704700BF00ED00E0E2
:10435800BFF35F8F024B0022C3F89420704700BF61
:1043680000ED00E038B51D4B1D681D4BD3F89030AB
:10437800C3F307239D422DD8FFF7EAFFFFF772FE2C
:10438800002409E0154B5B6804EB840103EB810111
:10439800204606F002FD0134A542F3D81148057005
:1043A80006F05BFD10F1160F13D00E4B1A780C4B6C
:1043B800D3F89030C3F307239A4207DA084BC3F8BF
:1043C80098200021C3F8A0100132F0E7FFF7B4FFEE
:1043D800002038BD4FF0FF30FBE700BFF01819345C
:1043E80000ED00E01A6F193430B587B00D4611465C
:1043F80000240094019402940394049405940222E6
:104408008DF80220044A0192049005951A466846E0
:1044180005F008F807B030BDAFAF183408B5024B47
:104428001B689847002008BDE45A1934034B1860EC
:10443800034A937843F0020393707047E45A19349F
:10444800084C193408B5054805F01CFF002383F310
:104458001188BFF36F8F0423184602DF141919342B
:1044680008B54FF0FF324FF0FF33024806F0A6FDC3
:1044780008BD00BF184C193408B5064921F00701DA
:10448800C1F1505202F50012034805F0E7FD002083
:1044980008BD00BF67971934E85A193438B504467F
:1044A800FFF7DEFF22460821084805F04AFD0546C9
:1044B80020B1074803F088FA284638BD002CF8D008
:1044C8000BF0E0FF034B0C221A50F2E7E85A1934BC
:1044D800184C19340C00000010B50446FFF7C0FF53
:1044E8002146034805F0DCFC024803F06DFA10BDD4
:1044F800E85A1934184C193470B50446012824D8E0
:104508004FF41E7300FB03F317481D1818330021DE
:10451800184406F063FD00BB4FF41E7303FB04F45C
:1045280004F11800104E3044043007F06BFF04F11A
:10453800300030440122002107F06BFF40340B4962
:10454800301907F0D6FF284670BD0346084A0121F6
:10455800084806F07AFA0025F5E7074A01210548D8
:1045680006F069FA0025EEE72C4C1934C1451834D9
:10457800201919348C0F19343C19193408B5037BE8
:10458800012B02D9022B0AD108BD06F0C4FE00286F
:10459800FAD0064A0121064806F04DFAF4E7054A22
:1045A8000121034806F047FAEEE700BF5419193411
:1045B8008C0F19347419193470B50446A0F14005EC
:1045C80010F8343C012B09D9022B10D114F8333CD4
:1045D8009BB1A4F1100003F04DFA0DE0284606F057
:1045E80092FE284600F0E6F9C4F81C02EEE70C4AF1
:1045F80001210C4806F01FFA70BD284606F0BFFEE0
:10460800064648B914F8343C012BF5D8002EF3D1EE
:10461800284606F07CFEEFE72846FFF7AFFFF1E7F4
:10462800741919348C0F193402460020012808D84F
:104638004FF41E71044B01FB0033934203D0013049
:10464800F4E76FF0120070472C4C193438B5054662
:104658000024012C0BD84FF41E7304FB03F3064A05
:10466800D1582846FDF740F818B10134F1E76FF04A
:104678001204204638BD00BF2C4C193484B070B5E4
:1046880082B007AC84E80E001AB31646C0B2FFF732
:1046980033FF0446002856D0002343730AAB93E83F
:1046A80003008DE8030007AB0ECB204606F08AFC1A
:1046B8000546B0B99DF81C30012B1AD9022B2CD114
:1046C8009DF8243084F874326661204606F04BFE6B
:1046D80033E01E4A01211E4806F0ADF96FF01505BA
:1046E8002BE01C4A01211A4806F0A5F96FF01505C0
:1046F8001AE00AAB93E803008DE8030007AB0ECB82
:10470800204600F075F90028DAD0134A0121104834
:1047180006F091F96FF0150506E0104A01210C48E2
:1047280006F089F96FF085051834D4E8EF3F23F0D7
:104738000103C4E8E23F002AF7D1284602B0BDE8E9
:10474800704004B070476FF01505F6E78819193402
:104758008C0F1934AC191934E01919347419193437
:1047680070B54468B4F85030043B9BB2FC2B33D886
:10477800054694F8523080F8563094F8533080F853
:104788005730B4F85020043A92B2A0F85420B4F844
:104798005060023EB6B204F1540158300BF074F97F
:1047A80006F150032344DA78264496F8523043EA57
:1047B8000223A5F85431B4F85030023B04F15202F8
:1047C8004FF6FF714AF2010006F053FEB5F8543176
:1047D800834209D1002070BD074A0221074806F02C
:1047E8002AF96FF07900F6E7054A0221034806F036
:1047F80022F96FF00400EEE7201A1934A40F1934D7
:10480800341A193410B582B0446800230093019318
:10481800CB680093037B012B14D003238DF806305B
:104828000A7C9AB1531EDBB2012B1DD88DF80420E7
:1048380001238DF805306946206806F042FC58B916
:1048480002B010BD02238DF80630E9E78DF8042088
:1048580003238DF80530EEE7054A0121054806F0E7
:10486800EAF86FF01500EBE76FF01500E8E700BF16
:10487800601A1934A40F193408B5406B18B14030C8
:1048880003F058FA08BD034A0121034806F0D3F89B
:10489800F8E700BF7C1A1934A40F1934F0B583B0B7
:1048A800054644680121183006F0F9FC002844D078
:1048B800B4F85030B3F5807F43D004F11800626833
:1048C80063322CBF01250025C2F31303110D41EA01
:1048D800053119441E4BA3FB0163DB0803EB83037B
:1048E80003EB8303CB1AD21A65F1000519491A4B59
:1048F80002FB03F301FB0533A2FB01210B449208E1
:1049080042EA83729B0800260027CDE9006704F07D
:10491800B9F92068A168B4F85020C2F5807283689C
:104928009B6993B19847A3680344A360B4F85030D7
:104938000344A4F8503003B0F0BD284606F00EFC3E
:10494800F9E7284606F0DFFCF5E76FF05700EAE7DD
:104958001F85EB51295C8FC2F5285C8F38B529B1CA
:1049680004460D4606F0D7FB30B938BD0F4A012181
:104978000F4806F060F8F8E7204606F0C3FB002869
:10498800F3D0A3685B6B13B12046984710B1284653
:10499800FFF784FFA3685B6A1BB12046984700288D
:1049A800E3D0284606F019FCDFE700BF9C1A19344B
:1049B800A40F193410B54468037B4BB1012B10D0F8
:1049C800094A0121094806F036F86FF085000AE027
:1049D800FFF7C6FE0023A4F8503004F15203A36089
:1049E80001E06FF0850010BDC81A1934A40F1934FE
:1049F80084B0F0B583B000AF044607F1240080E826
:104A08000E00656897F82430012B00F2A480237308
:104A1800286807F0BCFC60B307F124012046FFF7C3
:104A2800F1FE002840F09A803B6B002B76D0B3F55E
:104A3800164F7BD84C4AB2FBF3F36B60204606F066
:104A480039FC002840F08D800023A5F8503005F18E
:104A58005203AB6022464549286806F024FB064607
:104A6800002867D030460C37BD46BDE8F04004B09A
:104A780070472B6819686D4600233B7102237B71D0
:104A880088B06C4614F1100211D00E201AB1042817
:104A980001DD374B636100233B7002237B709AB1C1
:104AA800082800DDA16104F11C0300210AE06FF071
:104AB8000040EBE701F108063E4416F8086C03F8DD
:104AC800016B01310129F5D90D2824DD0E2342B1EE
:104AD8000321397100217971B9710121F97178685F
:104AE800206100216FF300016FF341016FF3820130
:104AF8006FF3C501012060F38811C3F30A0363F360
:104B080053216FF31F5100231A48FEF747F9AD46AA
:104B18006FF01206A6E76FF01B03D8E7164A0121CB
:104B2800144805F088FF6FF015069BE740F2EA335A
:104B38006B6083E70022114905F1180007F0FBFEBE
:104B4800EC64204606F032FB6B680D4A03210948E5
:104B580005F07BFF86E76FF0850683E76FF01506A3
:104B680080E76FF004067DE7A0764B0265491834AC
:104B7800E01A1934A40F1934FC1A1934814818346E
:104B88000C1B193430B583B004460D4690F85730E5
:104B980000910A4A03210A4805F062FF204606F000
:104BA800D0FB94F85D3163F07F0384F85D3184F8BD
:104BB8005E510123A4F85A3103B030BD301B1934BB
:104BC8009C0F19342DE9F04383B0B0F85430042B0E
:104BD8002AD1054643691B687BB390F8583090F892
:104BE800594044EA032490F85A3090F85B9049EA17
:104BF800032909F1FF339BB2B3F5FA6F22D2B9F159
:104C080001032AD4C3F3CF035A1C0233A5F85A313F
:104C180085F85E2105F25F1892B2002140460AF03D
:104C2800DBFF0026012727E0234A0121234805F05E
:104C380002FF002003B0BDE8F0830121FFF7A2FFC7
:104C48000120F7E71E4A01211C4805F0F4FE032164
:104C58002846FFF797FF0120ECE70733D2E7194A08
:104C68000321164805F0E7FE02212846FFF78AFFD0
:104C78000120DFE77F00FFB24E451AD26B691B683F
:104C88000DF10701204698470028E8D19DF8073024
:104C980023B198F800303B4388F800300134A4B2BF
:104CA800731C9EB213F0070FE4D108F10108012725
:104CB800E2E70120BEE700BF481B19349C0F1934F6
:104CC800601B1934801B19342DE9F04383B0B0F808
:104CD8005430042B24D1054643699B684BB390F8A4
:104CE800583090F8594044EA032490F85A3090F824
:104CF8005B7047EA03277B1E9BB2B3F5FA6F1DD2A0
:104D08007B1E26D4C3F3CF035A1C90B20233A5F8F6
:104D18005A3185F85E2105F25F16334600221FE0FE
:104D28002A4A01212A4805F086FE002003B0BDE882
:104D3800F0830121FFF726FF0120F7E7254A01212B
:104D4800234805F078FE03212846FFF71BFF0120C2
:104D5800ECE70733D6E7002103F8011B013292B2D2
:104D68008242F8D34FF000084FF001090EE01A4ACA
:104D78000321174805F05FFE02212846FFF702FFCE
:104D88000120D3E74FEA49095FFA89F9B8451BD2F0
:104D98006B699B680DF10701204698470028E6D10A
:104DA8009DF807301BB1337849EA030333700134A7
:104DB800A4B208F101031FFA83F813F0070FE1D139
:104DC80001364FF00109E1E70120AFE7481B19342C
:104DD8009C0F19349C1B1934BC1B1934F0B585B0D1
:104DE800B0F85430042B22D1064690F8583090F889
:104DF800594044EA032490F85A3090F85B5045EA49
:104E080003252BB26A1E92B27C2A18D85B00DBB24B
:104E180041F28732944225D842695269EAB15A1C54
:104E2800A6F85A2186F85E3106F25F172FE0344A59
:104E38000121344805F0FFFD002005B0F0BD7D23B9
:104E480000932B46304A01212E4805F009FE032124
:104E58003046FFF797FE0120EFE70121FFF792FEAA
:104E68000120EAE74269D2693AB113F0020FD6D0BD
:104E78000121FFF787FE0120DFE70121FFF782FE0E
:104E88000120DAE70134A4B2013DADB253BB002DD5
:104E980033D041F287339C420ED873695B6903A90A
:104EA8002046984783B2002BECD1BDF80C20110A9C
:104EB80039707A700237E5E77369DB6903A9204620
:104EC800984783B24BB9039A110C100E3870797059
:104ED800C2F30721B970FA7004370234A4B2023D54
:104EE800ADB2D3E7094A0321064805F0A4FD022123
:104EF8003046FFF747FE01209FE701209DE700BFEE
:104F0800481B19349C0F1934E41B1934101C19342C
:104F1800F0B585B0B0F85430042B22D1064690F88D
:104F2800583090F8594044EA032490F85A3090F8E1
:104F38005B5045EA03252BB26A1E92B27C2A18D828
:104F48005B00DBB241F28732944225D84269D268CD
:104F5800EAB15A1CA6F85A2186F85E3106F25F17A4
:104F68002FE0344A0121344805F065FD002005B0E2
:104F7800F0BD7D2300932B46304A01212E4805F0D1
:104F88006FFD03213046FFF7FDFD0120EFE701210A
:104F9800FFF7F8FD0120EAE7426912693AB113F018
:104FA800020FD6D00121FFF7EDFD0120DFE7012137
:104FB800FFF7E8FD0120DAE70134A4B2013DADB204
:104FC80053BB002D33D041F287339C420ED873690E
:104FD800DB6803A92046984703460028ECD1BDF8B2
:104FE8000C20110A39707A700237E5E773691B697A
:104FF80003A920469847034648B9039A110C100E96
:1050080038707970C2F30721B970FA700437023426
:10501800A4B2023DADB2D3E7094A0321064805F020
:105028000AFD02213046FFF7ADFD01209FE7012070
:105038009DE700BF481B19349C0F1934E41B193431
:10504800381C19342DE9F041B0F85430042B29D11B
:10505800044643695A6862B390F8583090F859008A
:1050680040EA032007B2054694F85A1094F85B30DA
:1050780043EA01230FFA83F81E46FBB900212846AC
:105088009047E8B90423A4F85A31280A84F85E0145
:1050980084F85F71360A84F8606184F861810120C0
:1050A800BDE8F0810C4A01210C4805F0CEFC002037
:1050B800F6E70121FFF766FD0120F1E70121DEE7B0
:1050C800074A0321054805F0B6FC02212046FFF7F0
:1050D80059FD0120E4E700BF601C19349C0F193406
:1050E800801B19342DE9F041B0F85430042B26D137
:1050F800044643699B694BB390F8582090F85900CF
:1051080040EA022007B2064694F85A2094F85B1049
:1051180041EA02210FFA81F80D469847D8B90423CD
:10512800A4F85A31300A84F85E0184F85F71290ABC
:1051380084F8601184F861810120BDE8F0810B4A90
:1051480001210B4805F081FC0020F6E70121FFF75B
:1051580019FD0120F1E7074A0321054805F06BFC1A
:1051680002212046FFF70EFD0120E6E7601C1934F6
:105178009C0F1934781C19342DE9F84FB0F85430C5
:10518800052B2FD904464269526892B390F85820EB
:1051980090F8597047EA02270FFA87FB90F85A20CF
:1051A80090F85B6046EA02260FFA86FA90F85C10DF
:1051B800721E92B2B2F5FA6F20D2721E29D4D210A2
:1051C80001328A4202D105318B424CD0304A01214A
:1051D800304805F030FC03212046FFF7D3FC0120BE
:1051E800BDE8F88F2C4A01212A4805F02EFC002042
:1051F800F6E70121FFF7C6FC0120F1E7274A012164
:10520800244805F018FC03212046FFF7BBFC0120C9
:10521800E6E70732D3E718F0010F17D001216369D9
:105228005B68E81980B2984790B94FEA5808013589
:10523800ADB2B5421CD215F0070FECD109F101034C
:10524800A14499F858805FFA83F9E4E70021E6E77A
:10525800134A03210F4805F0EEFB02212046FFF711
:1052680091FC0120BCE74FF005090025A846E0E7BE
:105278000423A4F85A313F0A84F85E7184F85FB1B8
:10528800360A84F8606184F861A10120A8E700BFAC
:10529800981C19349C0F1934601C1934601B19347C
:1052A800801B19342DE9F047B0F85430052B29D963
:1052B800054690F8582090F8597047EA02270FFAE7
:1052C80087FA90F85A2090F85B8048EA02280FFA8B
:1052D80088F990F85C1008F1FF3292B27C2A19D84C
:1052E80041F28732974225D842699269EAB1053B73
:1052F8008B422FD1B1FBF8F1022936D105F15D06B9
:1053080000244EE03E4A01213E4805F09EFB002065
:10531800BDE8F0873C4A01213A4805F08CFB03219F
:105328002846FFF72FFC0120F2E70121FFF72AFCAE
:105338000120EDE74269126A3AB111F0030FD6D0A5
:105348000121FFF71FFC0120E2E70121FFF71AFC0A
:105358000120DDE72D4A01212A4805F06CFB0321D5
:105368002846FFF70FFC0120D2E7294A01212548EA
:1053780005F061FB03212846FFF704FC0120C7E77D
:105388003378717841EA0321B278F37843EA02234B
:1053980004366A69126A43EA014190470234A4B2AA
:1053A80090B944451BD2E01980B241F287339F423D
:1053B800E6D83178727802366B699B6942EA012136
:1053C80098470134A4B2EBE7124A03210D4805F0CF
:1053D80032FB02212846FFF7D5FB012098E704237A
:1053E800A5F85A313F0A85F85E7185F85FA14FEA42
:1053F800182885F8608185F86191012088E700BF49
:10540800601C19349C0F1934B81C1934DC1C19346D
:10541800FC1C1934781C193470B582B005460B464B
:10542800D0F86C4214B3227B9A4203D0002CF9D0F6
:105438002468F7E72846FFF7F7F8002363736668E0
:10544800A368009304F10D0305F5AB7205F1500153
:10545800B0470646637B9BB10B4A03210B4805F016
:10546800F4FA617B2846FFF78DFB09E0084A012121
:10547800064805F0EAFA01212846FFF783FB0126D2
:10548800304602B070BD00BF201D19349C0F19347E
:10549800441D1934F8B5B0F85430042B1AD1044619
:1054A80090F8582090F8593043EA02231FB21D465D
:1054B80090F85A3090F85B6046EA03260F2F30D8F0
:1054C800DFE807F0112F2F2F2F2F2F2F2F2F0F202F
:1054D8002326292C184A0121184805F0B6FA00207D
:1054E8000FE005F040FF0423A4F85A312B0A84F892
:1054F8005E3184F85F71330A84F8603184F8616141
:105508000120F8BDB0F86062EDE7B0F86262EAE742
:10551800B0F86462E7E7B0F86662E4E7B0F868629A
:10552800E1E7074A0321054805F085FA01212046ED
:10553800FFF728FB0120E4E7601C19349C0F19349D
:105548006C1D193410B401F00302084C183254F8D9
:105558002230090C4FF0FF0C0CFA01FC23EA0C0373
:105568008840034344F8223010BC7047005002566C
:10557800002399420ADD10B400EB030C044C24F814
:105588001C2001339942F7DC10BC7047704700BFFC
:105598002C511934F8B50746002401E00134E4B26F
:1055A8007B78A34217D93D786619304600F0DEF8BB
:1055B8000028F3D0304600F023F9074B53F8362083
:1055C800002AEBD006F01F0503EBC603596801203B
:1055D800A8409047E2E7F8BDF45A193408B50346E5
:1055E80080B1B0FA80F2C2F11F02D2B2064931F995
:1055F8001200064AD2F880100B43C2F8803005F03A
:1056080096FB08BDFF22F1E72C51193400500256D1
:10561800034AD2F8803023EA0003C2F8803070478A
:1056280000500256032926D8DFE801F0020C151EA7
:10563800114B1A6822EA00021A605A6822EA00022C
:105648005A6070470C4B1A6802431A605A6822EA7B
:1056580000025A607047084B5A6802435A601A6839
:1056680022EA00021A607047034B1A6802431A6064
:105678005A681043586070470050025610B498B1E9
:10568800B0FA80F3C3F11F03DBB29C460D4850F813
:10569800330088420AD088B90A4B43F83C1003EB20
:1056A800CC035A6010BC7047FF23EEE7054C04EBAF
:1056B800C3035B689342EED10020F3E76FF00F005D
:1056C800F0E700BFF45A193460B1B0FA80F3C3F1BF
:1056D8001F03DBB2044A002142F8331002EBC30275
:1056E80051607047FF23F5E7F45A1934C30403F4F3
:1056F800C013C0F381001830044A52F820001B0C74
:10570800FF229A401040D840704700BF0050025610
:1057180000B583B0124806F03AFEB0B100230093FA
:105728000193BDF800304FF41E7262F30B03ADF81D
:105738000030012301930A4B9B681B686BB16946D3
:105748000748984703B05DF804FB064A012106485C
:1057580005F071F96FF01200F4E76FF05700F1E708
:1057680050061934F81D19346C0F193408B500F0B7
:105778001F02012393405F280DD81F2817D81D4A00
:10578800D26833EA02020ED01A4A126933EA0202D8
:105798000BD0002006E00346174A0121174805F000
:1057A80054F9002008BD0120FCE70120FAE73F2852
:1057B8000FD8104AD26A33EA020206D00D4A126B99
:1057C80033EA020203D00020ECE70120EAE70120D7
:1057D800E8E7084AD26C33EA020206D0054A126D9D
:1057E80033EA020203D00020DCE70120DAE70120D7
:1057F800D8E700BF00500256E01D19346C0F193469
:1058080008B500F01F02012393405F2806D81F281F
:105818000DD80D4AD3601361002008BD03460B4A1A
:1058280001210B4805F011F96FF01500F5E73F2845
:1058380004D8054AD36213630020EEE7024AD36412
:1058480013650020E9E700BF00500256E01D193437
:105858006C0F193408B54168084B9B689B6923B1E4
:1058680000220648984700B908BD054A01210548A5
:1058780005F0E1F86FF00400F6E700BF50061934B0
:10588800441E1934640F1934012803D0032803D0A7
:10589800002070470148704700487047006CDC02E0
:1058A80010B50446FFF7F0FF012C09D0032C09D1ED
:1058B8007D23054AA2FB0020400803FB00F010BD31
:1058C8009623F6E70020FAE7ABAAAAAA0D280BD878
:1058D80038B143F6B223C34013F0010F16D00020AD
:1058E80070476FF0850070472A2812D8112807D30F
:1058F8001138094BC34013F0010F04D00020704742
:105908006FF0850070476FF0850070476FF0850075
:1059180070476FF0850070472180FF030B88C3F341
:105928000B0303F6B452C2F30B02302A11D803F169
:10593800AC4303F520334A68186802431A600B88A1
:10594800C3F30B0304484A6819580A431A50002045
:1059580070476FF085007047408002560B88C3F38C
:105968000B0303F6B452C2F30B02302A13D803F127
:10597800AC4303F5203348681A6822EA00021A602B
:105988000B88C3F30B03054849681A5822EA010239
:105998001A50002070476FF085007047408002560B
:1059A800134B5B6813F0080F0DD1114B0822C3F895
:1059B800002801E0012B06D00D4B5B6813F00803AB
:1059C800F8D00123F6E70A4A136A23F040731362FA
:1059D800074B1B6A13F0405FFAD1054A136A23F498
:1059E80040331362024B1B6A13F4401FFAD170470D
:1059F80000800256244BD3F8C42022F04052C3F84A
:105A0800C420D3F8C42022F47F0242F40032C3F841
:105A1800C4200122C3F8402AD3F8C82022F04052FB
:105A2800C3F8C820D3F8C82022F47F0242F4A02289
:105A3800C3F8C8200222C3F8402AD3F8D82022F09D
:105A4800405242F00052C3F8D820D3F8D82022F4AC
:105A58007F0242F48032C3F8D8202022C3F8402ABB
:105A6800D3F8EC2022F04052C3F8EC20D3F8EC2015
:105A780022F47F0242F40032C3F8EC204FF4806233
:105A8800C3F8402A002070470080025608B5FFF787
:105A980087FF714B03F580524FF480711160D3F882
:105AA800802022F0E04242F00052C3F88020D3F870
:105AB800882042F00402C3F88820D3F8803013F01D
:105AC800006F06D0644AD2F8803023F00063C2F831
:105AD8008030614BD3F8802022F07C7242F440126F
:105AE800C3F88020D3F8802022F47F2222F4706249
:105AF80042F41642C3F88020D3F8882022F060527E
:105B080042F00062C3F88820D3F8882022F0E062CF
:105B180042F08072C3F88820D3F8842002F07F42D4
:105B2800C3F88420D3F8882022F00802C3F888201C
:105B3800D3F8882042F00102C3F88820D3F88830CF
:105B480013F0804F06D1444AD2F8883043F080439E
:105B5800C2F88830404B4FF48072C3F8002801E047
:105B6800012B06D03C4B5B6813F48073F8D00123FB
:105B7800F6E7394A02F580514FF480600860D2F8A0
:105B8800A01021F0E04141F00051C2F8A010D2F875
:105B9800A81041F00401C2F8A810D2F8A02012F011
:105BA800006F06D02C49D1F8A02022F00062C1F87D
:105BB800A020294AD2F8A01021F07C7141F44011AC
:105BC800C2F8A010D2F8A01021F47F2121F470614E
:105BD80041F4FA41C2F8A010D2F8A81021F060519F
:105BE80041F00061C2F8A810D2F8A81021F0E061D5
:105BF80041F08071C2F8A810D2F8A41001F07F41DA
:105C0800C2F8A410D2F8A81021F00801C2F8A81010
:105C1800D2F8A81041F00101C2F8A810D2F8A820C3
:105C280012F0804F06D10C49D1F8A82042F08042EA
:105C3800C1F8A820084A4FF48061C2F8001801E0B2
:105C4800012A06D0044A526812F48062F8D01A4633
:105C5800F6E7002008BD00BF00800256144B5A6DBD
:105C680022F400425A655A6D42F040025A651022E9
:105C7800C3F8002801E0012B06D00D4B5B6813F038
:105C88001003F8D00123F6E7094A0821C2F80018E2
:105C980001E0012A06D0064A526812F00802F8D03C
:105CA8001A46F6E7024A936C23F4C073936470476C
:105CB8000080025600B585B02F4B4FF47F62C3F8C1
:105CC8004C2AD3F84C1201910199C3F88C2AD3F8C5
:105CD8008C320093009BFFF7C1FFFFF7D7FE002827
:105CE80047DB254B5A6A22F4E00242F480125A62DA
:105CF8005A6A22F007025A625A6A22F070025A62FD
:105D08005A6A22F4E0425A625A6A22F4E0225A623B
:105D18005A6A22F0407242F080725A624022C3F8F6
:105D2800482AD3F8481203910399C3F8882AD3F86C
:105D380088320293029B01E0012B07D00E4BD3F867
:105D4800483213F04003F7D00123F5E7FFF752FE7E
:105D580000280EDB084A136A43F040731362064BAF
:105D68001B6A03F04053B3F1405FF8D1034B044A78
:105D78001A6005B05DF804FB008002567C511934A6
:105D88000008AF2F08B5044BD3F8C800062100F06F
:105D9800405005F08BFC08BD0080025670B50C46DB
:105DA8001546FFF7EFFF0646022105F034FC23886D
:105DB800C3F30B0213462A2A2FD812B2D2B1013BE1
:105DC800292B00F2C680DFE803F04B71C47477C456
:105DD8007D82878C9196A0C4C4C4AAC4C4C4C4B428
:105DE800C4C4C4C4C4C4C4C4C47ABE5B5B5B5B5BC8
:105DF8005D62676C6FF085000EE003F55B63C3F3CB
:105E08000B03012202FA03F3564A134238D113F066
:105E1800887F37D16FF0850070BDB2F51A7F16D92B
:105E2800B2F51F7F00F29880B2F51B7F15D3A3F55A
:105E38001B73102B00F28A80DFE803F0298888881A
:105E4800888888882E8888882E8888883300B2F5C4
:105E5800147FD2D26FF08500DEE76FF08500DBE7B4
:105E6800FFF790FF28602368B3F5805F77D32A682F
:105E7800C3F313330133B2FBF3F22A600020CBE7FC
:105E88002860F0E7012105F0C6FB2860EBE7012157
:105E980005F0C1FB2860E6E7012105F0BCFB28609E
:105EA800E1E7012105F0B7FB2860DCE700232B6060
:105EB800D9E72D4B2B60D6E72C4B2B60D3E72B4B28
:105EC8002B60D0E70120FFF7EBFC2860CBE702202E
:105ED800FFF7E6FC2860C6E70320FFF7E1FC28602F
:105EE800C1E70420FFF7DCFC2860BCE7072001F0CD
:105EF80037F92860B7E71E4BD3F8C400032100F038
:105F0800405005F0D3FB2860ADE7194BD3F8C80023
:105F1800062100F0405005F0C9FB2860A3E7144BA8
:105F2800D3F8D800022100F0405005F0BFFB2860EC
:105F380099E70F4BD3F8EC00032100F0405005F02F
:105F4800B5FB28608FE776082E608CE76FF0850038
:105F580062E76FF085005FE76FF085005CE700207F
:105F68005AE700BF11110100006CDC020090D00359
:105F78000080025610B504460A2806D0E1B2064849
:105F880083685B689847204610BD034883685B6850
:105F98000D219847F2E700BF9008193410B5044C5A
:105FA8002046FEF743FA2046FCF754FB10BD00BF1D
:105FB8007D5F183408B5054806F0E9F918B1FFF710
:105FC800EDFF002008BD6FF01200FBE790081934C0
:105FD80008B5436841B103F10C010B4B9B681B6882
:105FE8005BB10948984708BD03F10C01064B9B6853
:105FF8005B682BB104489847F5E76FF05700F2E764
:106008006FF05700EFE700BF500619342DE9F84349
:106018000F4614461D46D0F80480D0F81090D8F8E2
:10602800080005F0E4FA0646B4F1026F14D0B4F1A2
:10603800046F15D0B4F5001F16D0B4F5800F35D015
:10604800B5F1806F2ED0B5F1C06F2DD0B5F1007FBE
:1060580011D06FF0150422E0FFF7DAFA00241EE0F1
:10606800FFF7BCFA00241AE03946D8F8080005F012
:1060780068FD002413E002254A460F493046FFF721
:10608800FDFA0446A8B9D8F80810384605F0B4FA5D
:1060980029463046FFF7C6FA3046FFF79FFA2046F2
:1060A800BDE8F8830125E7E70325E5E76FF08504F8
:1060B800F5E76FF00F04F2E7E9B7183410B50446B6
:1060C80003695860054806F062F920B10449204682
:1060D80005F035FB10BD6FF01200FBE750061934D0
:1060E800EDB81834B0F5D07F17D2F8B504460D4690
:1060F800164603090A4A52F823705FB1384606F07B
:1061080046F938B133462A4604F00F01384605F0FF
:1061180030FDF8BD6FF01200FBE76FF01500704717
:106128005420193419282DD8F8B50D461446174BA4
:1061380053F82060C6B1304606F029F9A0B173685B
:106148005E68C4F30347C4F303320124AC40072D4F
:106158000DD82146304605F03FFD3A4621463046E7
:1061680005F078FD0020F8BD6FF01200FBE721462E
:10617800304605F04EFD3A462146304605F087FD8B
:106188000020F0E76FF01500704700BF5420193465
:1061980008B5024A05F08BFE08BD00BF17BF1834CA
