:020000043418AE
:1004000018CB1934693E183439CF1834553E183496
:10041000553E1834553E1834553E1834553E183460
:10042000000000000000000000000000D93F183468
:10043000553E183400000000793F1834BD8C183444
:100440004141183441411834414118344141183474
:100450004141183441411834414118344141183464
:100460004141183441411834414118344141183454
:100470004141183441411834414118344141183444
:1007480080F0004002E000BF81F0004142001FBF7E
:100758005FEA410392EA030F7FEA226C7FEA236C87
:100768006AD04FEA1262D2EB1363C1BFD21841407C
:1007780048404140B8BF5B42192B88BF704710F012
:10078800004F40F4000020F07F4018BF404211F0B5
:10079800004F41F4000121F07F4118BF494292EA1D
:1007A800030F3FD0A2F1010241FA03FC10EB0C0049
:1007B800C3F1200301FA03F100F0004302D54942D6
:1007C80060EB4000B0F5000F13D3B0F1807F06D383
:1007D80040084FEA310102F10102FE2A51D2B1F17B
:1007E800004F40EBC25008BF20F0010040EA030070
:1007F8007047490040EB0000013A28BFB0F5000FF0
:10080800EDD2B0FA80FCACF1080CB2EB0C0200FAA5
:100818000CF0AABF00EBC25052421843BCBFD040F4
:100828001843704792F0000F81F4000106BF80F46E
:1008380000000132013BB5E74FEA41037FEA226C31
:1008480018BF7FEA236C21D092EA030F04D092F0FC
:10085800000F08BF0846704790EA010F1CBF002030
:10086800704712F07F4F04D1400028BF40F000408D
:10087800704712F100723CBF00F50000704700F0AD
:10088800004343F0FE4040F4000070477FEA2262D4
:1008980016BF08467FEA23630146420206BF5FEAA5
:1008A800412390EA010F40F4800070474FF00003A5
:1008B80004E000BF10F0004348BF40425FEA000C6C
:1008C80008BF704743F0964301464FF000001CE014
:1008D80050EA010208BF70474FF000030AE000BF6A
:1008E80050EA010208BF704711F0004302D54042A8
:1008F80061EB41015FEA010C02BF8446014600201A
:1009080043F0B64308BFA3F18053A3F50003BCFA34
:100918008CF2083AA3EBC25310DB01FA02FC6344E1
:1009280000FA02FCC2F12002BCF1004F20FA02F2E8
:1009380043EB020008BF20F00100704702F12002DB
:1009480001FA02FCC2F1200250EA4C0021FA02F23C
:1009580043EB020008BF20EADC7070474FF0FF0C41
:100968001CEAD0521EBF1CEAD15392EA0C0F93EA3C
:100978000C0F6FD01A4480EA010C400218BF5FEADE
:1009880041211ED04FF0006343EA501043EA511151
:10099800A0FB01310CF00040B1F5000F3EBF49004B
:1009A80041EAD3715B0040EA010062F17F02FD2A4F
:1009B8001DD8B3F1004F40EBC25008BF20F0010032
:1009C800704790F0000F0CF0004C08BF49024CEA49
:1009D800502040EA51207F3AC2BFD2F1FF0340EADB
:1009E800C250704740F400004FF00003013A5DDC4C
:1009F80012F1190FDCBF00F000407047C2F100028D
:100A0800410021FA02F1C2F1200200FA02FC5FEA79
:100A1800310040F1000053EA4C0308BF20EADC70C3
:100A2800704792F0000F00F0004C02BF400010F435
:100A3800000F013AF9D040EA0C0093F0000F01F0E2
:100A4800004C02BF490011F4000F013BF9D041EA04
:100A58000C018FE70CEAD15392EA0C0F18BF93EA06
:100A68000C0F0AD030F0004C18BF31F0004CD8D130
:100A780080EA010000F00040704790F0000F17BFB7
:100A880090F0004F084691F0000F91F0004F14D0FD
:100A980092EA0C0F01D142020FD193EA0C0F03D155
:100AA8004B0218BF084608D180EA010000F0004058
:100AB80040F0FE4040F40000704740F0FE4040F433
:100AC800400070474FF0FF0C1CEAD0521EBF1CEAD2
:100AD800D15392EA0C0F93EA0C0F69D0A2EB0302F0
:100AE80080EA010C49024FEA402037D04FF080538A
:100AF80043EA111143EA10130CF000408B4238BF4F
:100B08005B0042F17D024FF4000C8B4224BF5B1A5C
:100B180040EA0C00B3EB510F24BFA3EB510340EAAA
:100B28005C00B3EB910F24BFA3EB910340EA9C0058
:100B3800B3EBD10F24BFA3EBD10340EADC001B01C8
:100B480018BF5FEA1C1CE0D1FD2A3FF650AF8B426C
:100B580040EBC25008BF20F0010070470CF0004C79
:100B68004CEA50207F32C2BFD2F1FF0340EAC250A4
:100B7800704740F400004FF00003013A37E792F065
:100B8800000F00F0004C02BF400010F4000F013AC3
:100B9800F9D040EA0C0093F0000F01F0004C02BFBE
:100BA800490011F4000F013BF9D041EA0C0195E727
:100BB8000CEAD15392EA0C0F08D142027FF47DAFC0
:100BC80093EA0C0F7FF470AF084676E793EA0C0FB0
:100BD80004D14B023FF44CAF08466EE730F0004CAE
:100BE80018BF31F0004CCAD130F000427FF45CAF3E
:100BF80031F000437FF43CAF5FE700BF42000ED204
:100C0800B2F1FE4F0BD34FF09E03B3EB126209D43F
:100C18004FEA002343F0004323FA02F070474FF0F5
:100C28000000704712F1610F01D1420202D14FF06A
:100C3800FF3070474FF00000704700BF03685A004C
:100C48004CBF43F0004323F00043184470472DE99C
:100C5800F0470646174641B301394FF00009884668
:100C680009EB080404EBD474641006EBC4054FEADE
:100C7800C40A2846FFF7E2FFA14204D1B84204D8CB
:100C88002846BDE8F087B84204D9A1450DD004F143
:100C9800FF38E5E70AF108003044FFF7CFFF0138D5
:100CA800B842EDD204F10109DAE70025E8E70128A6
:100CB80006D0022806D00028034818BF0020704735
:100CC8000248704702487047D1121834D5121834B8
:100CD800D91218341F4B37B504468D1E4BB101A9E4
:100CE8002846AFF3008048B900230920236103B0E8
:100CF80030BD1948194B1B1ADB10019301992A467C
:100D0800FFF7A5FF01460028EED0FFF797FF4B68D5
:100D1800A064012B1AD0002B01F1040010DBFFF7AF
:100D28008DFF0023C4E913030368002B0ADAC3F319
:100D38000360FFF7BCFF03460028D5D00020D5E7A5
:100D48000123EFE7FFF77AFF0346F7E700230520C3
:100D5800CCE700BF00000000B835193480361934DC
:100D68000368DA0710B5044605D49B0700F148006C
:100D780018D500F0F7FB2368590703D404F1D00015
:100D880000F0F8FB23681A0703D404F5A87000F0F4
:100D9800F9FB2368DB0608D404F5E870BDE81040C9
:100DA80000F034BC00F0D6FBE5E710BD0920704721
:100DB8000346006800B118447047704770B505468F
:100DC8000C46216C2846FFF785FF064608B103F05C
:100DD800D3FB236C2246294601206B612B69984777
:100DE8000828EED00728F2D13046216CFFF7E5FF3E
:100DF800201D00F0A3FB2DE9F0470C1DADF5727D19
:100E0800D0F80C900746D0F818A0164603AD0DF19F
:100E180008080FCC0FC50FCC0FC50FCC0FC594E831
:100E28000F0085E80F000025C8F800500936D8F8EB
:100E380040103846FFF74EFF0446F6B268BBD8F8B4
:100E480040304FF4F07241467AA87B6111F0A0FE61
:100E58003B697AAA394630469847889B0546C8F8C0
:100E680044303A463B4631460120CDE9008AC8471E
:100E7800C0B9C4B94FF4F0727AA94046264611F0B9
:100E880087FE082DD2D0072D0CD12046D8F8401067
:100E9800FFF793FF03A800F051FB46F01006D8F8BF
:100EA8003830DCE7092420460DF5727DBDE8F0876F
:100EB800406C7047F0B5CB6BF9B00D1D06460B645E
:100EC8000F4601AC0FCD0FC40FCD0FC40FCD0FC40B
:100ED80095E80F0084E80F004FF0FF330093109956
:100EE8003046FFF7F7FE78B933696A4631469847C6
:100EF80008280446F3D06846FFF732FF062C03D1D2
:100F080039463046FFF75AFF092079B0F0BD10B4D2
:100F18008261DA6BC16019461A64002210BC6AE764
:100F280070B543690446C6680D460B6426B10122B4
:100F3800FFF761FF03F020FB03690A460146022020
:100F48009847072805D00828F4D129462046FFF7F6
:100F580035FF3046296CFFF730FF281D00F0EEFA08
:100F6800C26802B9A6E7CA6B0A64002243E7704761
:100F7800836801460BB1012018477047012910B555
:100F88000446084605D005D9C81E01288CBF022092
:100F9800012010BD43B90F2A06D804EB8204029A37
:100FA800184661681160F4E70220F2E71FB503AB49
:100FB8000A46009300231946FFF7E0FF039805B09F
:100FC8005DF804FB012910B50446084605D005D98B
:100FD800C81E01288CBF0220012010BD43B90F2A6A
:100FE80006D8029904EB8204184609686160F4E7A0
:100FF8000220F2E71FB503AB03920A4600930023D1
:101008001946FFF7DFFF05B05DF804FBF0B5D36BB9
:10101800ADF50F7D141D064613640F4617AD0FCCB2
:101028000FC50FCC0FC50FCC0FC594E80F0085E88E
:101038000F004FF0FF33169326996846FFF74AFED4
:1010480090B90C2116A86A46FFF7D4FF394616A8AE
:10105800B04748B9049B16AA69460820984705284E
:10106800044602D00928E7D1092416A8FFF778FE1C
:1010780020460DF50F7DF0BD2DE9F04FCD6C87B002
:1010880017460C4655F8042B00F003099A460495B8
:101098003BBB12028DF8153003230392B9F1020FFE
:1010A8008DF81430236D08BFA56B13F0010322D10E
:1010B80000F0080800932B6843BB03A9384600F0EA
:1010C80042FB002840F0FB80009BDBB10F21384633
:1010D800FFF76CFF0E2102463846FFF78BFF794A6F
:1010E80055E0130C12048DF81530DBB2039205EBB2
:1010F80083050223D2E703A9384600F024FB002821
:1011080040F0DD80082007B0BDE8F08FBAF1020F8B
:10111800A26C4FF00F01384607BFD5F804B005F1AF
:101128000806B5F802B02E1D18BF2B882BF0010554
:1011380001931544FFF73AFF019B854229D823F014
:1011480001022A44824294BF002201224FEA4B0046
:1011580003F0010300F0020040EA0305012D1AD054
:10116800022D5ED0002D40F0AA80351DB9F1000F88
:10117800A1D0002A9FD03046FFF760FDA563064640
:101188002046AFF30080002800F0998032460F21F6
:101198003FE00022DAE7B9F1000F26D1002A3DD05E
:1011A80073683268991C4FEAD27200F0888004F1A3
:1011B80058010133029109D0301DFFF7F9FD02AB48
:1011C80001462046AFF30080054638B30D21384666
:1011D800FFF7ECFE022D029B206202D1E36204F1CC
:1011E8002C030620C4E909368DE7256A0D21384607
:1011F800FFF7DCFE854211D1A36A9E420ED130462C
:10120800FFF71CFD0F2102463846FFF7F3FE224682
:1012180000213846FFF7EEFE072074E706F10805BF
:1012280049E7356825F00045B9F1000F2AD1A2B188
:10123800B8F1000F19D085B9CB4617E00BF1010BB7
:10124800019B002206EB8B000293FFF7B1FD02AB76
:1012580001462046AFF3008058B13368002B00DA0E
:101268000436013506EB850525E7C34604F1580326
:101278000193AB45E2D10D213846FFF797FE029B5B
:101288002062AEE7D4F820B00D213846FFF78EFE75
:101298008345E2D1A36A9E42DFD14FF0000B0423BD
:1012A800A562C4E90BB3F318636333685B4503DADB
:1012B800681C06EB8000A3E701230093D1E709200F
:1012C80021E700BF000000000023D5E60123D3E694
:1012D8000223D1E62DE9F0410546C2B014461E4668
:1012E800042925D8DFE811F005001C002400D600E9
:1012F8000301EEB9836B92B20121043001FA06F7BB
:1013080017421CBF53F8047B40F826700136102E94
:10131800F4D1A60400D4AB63002042B0BDE8F0814C
:10132800012E4FEA124794B204D13B19102B41D930
:101338000220F2E7052EFBD107EB0408B8F1200FD5
:10134800F6D80F2F4DD9002CE6D00368A0465807D1
:1013580008D523F00403284640F8D03B00F00EF9E6
:101368000F2F48D9684600F009F9AB6B102F3A46A1
:1013780042A94FEA480838BF10221C4608F1FF3836
:1013880001EBC2024FEA8801A2F5C472101F02EBFA
:10139800880254F804CB40F804CF8242F9D10A1DE0
:1013A800012E134417D00F2FAB636FD9684600F096
:1013B800E1F8B1E7102FBBD00368DA0705D523F0B1
:1013C800030340F8483B00F0C9F820A800F0C6F82D
:1013D800AB6B002C3FD1043320A8AB6300F0BAF804
:1013E8009AE7B8F1100F03682DD9DC07A8F11008A7
:1013F80042D45807ADD420A8C7F1100400F0B6F8BD
:10140800684600F0BBF820AA6400AB6B02EBC70289
:10141800013C101FA10002EB84021C4654F804CBC7
:1014280040F804CF9042F9D10A1D1344B8F1000FD7
:101438009CD1012ECFD00F2FAB633FF66DAF20A804
:1014480000F090F868E7D9070DD420A800F08EF8CE
:10145800AB6B002CF3D0640020AA4FF0000802EB1D
:10146800C702013CD5E723F0010343F0020340F82B
:10147800483B00F07BF8E8E723F0010343F0020360
:1014880040F8483B00F072F82B68B2E720A800F05B
:1014980069F88BE7032E7FF44BAF97B2160C07EB76
:1014A8001244102C3FF644AF0368190706D523F001
:1014B8000803036000F5A87000F086F820A800F083
:1014C80083F820ABAA6BF90003EBC60303EBC7074D
:1014D800D41ABB4203EB040005D10A4420A8AA632E
:1014E80000F050F818E7006843F8040BF1E7002E05
:1014F8007FF41EAF102A3FF61BAF0368DA0606D545
:1015080023F01003036000F5E87000F089F820AEBE
:10151800304600F085F8AB6B0022012101FA02F099
:1015280020421CBF53F8040B46F822000132042A5B
:10153800F4D13046AB6300F069F8EDE600F1340110
:1015480091E838009C46A6464CF8045D90E8FF0FE9
:10155800E54600BD90EC210B704700BF80EC210BE5
:10156800704700BF90EC200B704700BF80EC200B49
:10157800704700BFD0EC200B704700BFC0EC200BB9
:10158800704700BFF0EC0201F0EC0211F0EC022110
:10159800F0EC0231F0EC0241F0EC0251F0EC0261A7
:1015A800F0EC0271F0EC0281F0EC0291F0EC02A197
:1015B800F0EC02B1F0EC02C1F0EC02D1F0EC02E187
:1015C800F0EC02F1704700BFE0EC0201E0EC021120
:1015D800E0EC0221E0EC0231E0EC0241E0EC0251E7
:1015E800E0EC0261E0EC0271E0EC0281E0EC0291D7
:1015F800E0EC02A1E0EC02B1E0EC02C1E0EC02D1C7
:10160800E0EC02E1E0EC02F1704700BFB0FC0181C0
:10161800B0FC0191B0FC01A1B0FC01B1704700BF62
:10162800A0FC0181A0FC0191A0FC01A1A0FC01B1DA
:10163800704700BFEC4600B52DE900502DE9FF1FAB
:101648004FF000032DE90C0001A9FFF733FCDDF88A
:1016580040E012B0704700BFEC4600B52DE90050DD
:101668002DE9FF1F4FF000032DE90C0001A9FFF73A
:1016780057FCDDF840E012B0704700BFEC4600B5FB
:101688002DE900502DE9FF1F4FF000032DE90C0054
:1016980001A9FFF765FCDDF840E012B0704700BF14
:1016A800EC4600B52DE900502DE9FF1F4FF000036F
:1016B8002DE90C0001ABFFF72AFCDDF840E012B081
:1016C800704700BFEC4600B52DE900502DE9FF1F1B
:1016D8004FF000032DE90C0001AAFFF797FCDDF895
:1016E80040E012B0704700BF10F8012B11F8013B21
:1016F800012A28BF9A42F7D0D01A7047027A0346C7
:101708007AB9427A82B1013A42724268111D12686E
:101718000260032241601A721A68100E12021A60DF
:101728007047013AD2B2F6E7B02070471FB503AB55
:101738000C22009300231946FFF720FC039805B0FC
:101748005DF804FBF2E72DE9F043054685B00E4647
:101758004FF000083046FFF7D1FFB028044615D1F6
:10176800B8F1000F0ED103AC43460E22414628467D
:101778000094FFF703FC43460F2241462846009495
:10178800FFF720FC002005B0BDE8F08302061DD459
:101798004FEA8009002303AF0D225FFA89F9194641
:1017A80028460097FFF7EAFB09F10409039B14F0A8
:1017B800400F14BFA3EB09034B4403930023009786
:1017C8000D2219462846FFF7FDFBC3E700F0F0039A
:1017D800802B18D104023046FFF790FF0443B4F57C
:1017E800004F01D10920CEE7240100232846A2B2E8
:1017F8001946FFF76FFD0028F4D114F4004F18BF05
:101808004FF00108A6E7902B0DD100F00D030D2B2A
:10181800E8D003AF002300F00F02284619460097CE
:10182800FFF7ACFBCAE7A02B13D1C3434FF47F6289
:1018380003F007031A41030702F47F6201D542F45B
:101848008042002319462846FFF744FD002881D02E
:10185800C8E7B02B46D1B12808D13046FFF74EFF74
:10186800431E0246DBB20E2BEBD9BBE7B22820D1D0
:10187800002303AC0D222846194600940227FFF7DF
:101888007DFB3046FFF73AFF00F07F0110F0800340
:10189800039A01FA07F105D102F5017200940A448E
:1018A80003928DE70A44304607370392FFF726FF75
:1018B800EAE7B3280BD13046FFF720FF01230203E4
:1018C80000F00F0002F4702201300243BAE700F082
:1018D800FC03B42B86D000F007020123013242F446
:1018E8000022AFE7C02B44D1C6280AD13046FFF703
:1018F80005FF0323020300F00F0002F470220130F9
:10190800E3E7C7280BD13046FFF7F8FE431E02462F
:10191800DBB20E2B3FF666AF0023042193E700F0FD
:10192800F803C02B06D100F00F020323013242F462
:10193800202287E7C8280DD13046FFF7DFFE00F0E8
:10194800F00200F00F0005231032013040EA0232A5
:10195800012178E7C9287FF445AF3046FFF7CEFE6E
:101968000523020300F00F0002F470220130024345
:10197800EEE700F0F803D02B7FF434AF00F0070255
:101988000523013242F40022E2E71FB50346084668
:10199800DA6C53680832190202921B0E0322019175
:1019A80001A98DF80C208DF80D30FFF7CCFE05B09D
:1019B8005DF804FB08B5FFF7C5FE806C08BD08B5E7
:1019C800FFF7C0FEC06CC379023300EB830008BD8B
:1019D80008B50346024A032102480BF09DF908BDE9
:1019E800C84119340841193410B584B007F0AAFD6C
:1019F800254B18600DF03FFA10B3234B186840F2DE
:101A08006B33224A01A904F0A5FE041E20DB1E4BFD
:101A1800186801A90CF03EF9041E20DB1A4B18685F
:101A28008368DB68042198470446F8B9164B1868A0
:101A380083685B6898470446F8B9204604B010BD2F
:101A4800134A012113480BF05DF94FF0FF34F4E716
:101A58002346114A01210F480BF05EF9EDE72346B2
:101A68000E4A01210B480BF057F9E6E703460C4AEA
:101A7800012108480BF050F9DFE70346094A012124
:101A880004480BF049F9D8E78097193420A10700DA
:101A9800E041193408411934004219341C42193400
:101AA800384219345842193410B584B002460B46EE
:101AB800002103910C4902910C4901910C490091B4
:101AC8000C4909680C480BF0BEFC044610B92046C6
:101AD80004B010BD00904FF4C073084A01210848B3
:101AE8000BF025F9F3E700BFD9191834AC421934C3
:101AF800A442193480971934788F19347C421934E8
:101B0800084119343F280CD8074B53F820301BB133
:101B18001B880B800020704700230B806FF0850026
:101B280070476FF085007047849719343F2806D8AE
:101B3800064B53F820302BB11980002070476FF006
:101B4800850070476FF08500704700BF849719348F
:101B580030B583B003F0ECFA04460F4A02F10C03E7
:101B680093E803008DE803000ECA204603F0F6FA56
:101B780048B905462346094A032109480BF0CCF821
:101B8800284603B030BD2346064A012104480BF01D
:101B9800C3F84FF0FF35F3E728431934F4421934FA
:101BA80068411934BC4219343F2904D8034B43F81F
:101BB8002100002070474FF0FF3070478497193498
:101BC80090B583B000AF02285BD0032800F0AD8049
:101BD800012802D00C37BD4690BD6C4600233B71EE
:101BE80002237B7188B0EC461CF110021DD00E2038
:101BF80022B1042802DD774BCCF8143000233B7067
:101C080002237B70A2B1082801DDCCF818100CF172
:101C18001C03002101290BD801F1080EBE441EF84F
:101C280008EC03F801EB0131F4E76FF00040DFE75F
:101C38000D2823DD0E234AB1032139710021797162
:101C4800B9710121F9717868CCF8100000216FF39F
:101C580000016FF341016FF382016FF3C5010120A9
:101C680060F38811C3F30A0363F353216FF31F5121
:101C78000023594801F02CF9A546ABE76FF01B0388
:101C8800D9E76C4600233B7102237B7188B0EC4690
:101C98001CF110021DD00E2022B1042802DD4D4B8C
:101CA800CCF8143000233B7002237B70A2B10828C3
:101CB80001DDCCF818100CF11C03002101290BD808
:101CC80001F1080EBE441EF808EC03F801EB0131DF
:101CD800F4E76FF00040DFE70D2823DD0E234AB15B
:101CE8000321397100217971B9710121F97178687D
:101CF800CCF8100000216FF300016FF341016FF37E
:101D080082016FF3C501022060F38811C3F30A034F
:101D180063F353216FF31F5100232F4801F0D8F8C4
:101D2800A54657E76FF01B03D9E76C4600233B71C4
:101D380002237B7188B0EC461CF110021DD00E20E6
:101D480022B1042802DD234BCCF8143000233B7069
:101D580002237B70A2B1082801DDCCF818100CF121
:101D68001C03002101290BD801F1080EBE441EF8FE
:101D780008EC03F801EB0131F4E76FF00040DFE70E
:101D88000D2823DD0E234AB1032139710021797111
:101D9800B9710121F9717868CCF8100000216FF34E
:101DA80000016FF341016FF382016FF3C501032056
:101DB80060F38811C3F30A0363F353216FF31F51D0
:101DC8000023054801F084F8A54603E76FF01B03DC
:101DD800D9E700BF4C4319349041193438B58368AA
:101DE80005699C697CB112F4000F06D02D680123A7
:101DF8008B401D4201D082F0C062044B134002F0B8
:101E08001662A04738BD6FF05700FBE74000000698
:101E18002DE9F04F91B005920293134602F00402A7
:101E28000092C3F3C20210F00303019340F02B8227
:101E380080468A460132041D00284FD0B8F1000FB1
:101E480005D0A4EB08030433534500F21F82029B1C
:101E58005D1E019B04930693039300264FF0FF3BFE
:101E68000427B946B8F1000F01D0029B2360531E26
:101E78000793002A40F35D81059B13F0020228D0E6
:101E88000120A4EB08018B081AB1B1F5007F80F09E
:101E9800038203990F2900F20282B8F1000F00F0C3
:101EA8006081DBB201F140026A4402F8103C02F89A
:101EB80020BC002800F0518163F07F0301F140024B
:101EC8006A4402F8103C049B01330493039B0133DA
:101ED800039304340022CC4640463DE001F0070A53
:101EE8005444CAF1080AA9E7002634E0002632E083
:101EF800002630E00827BC462DE025292BD10BF120
:101F0800010B01260427BC4625E04729EED82A29DB
:101F180014D32A39C9B24FF0010E0EFA01F14FF667
:101F2800DA7E11EA0E0F16D111F0625F40F0C08020
:101F380011F0010F40F08C8000260CE0252903D118
:101F48000BF1FF3B002606E001D9002603E020291B
:101F580001D02329CCD11D466B1C6978002900F0DB
:101F68001981002EC9D07A29BED84C29CDD34C3935
:101F78002E2961D80FF2040E5EF821F05F1F183485
:101F88004120183441201834412018344120183495
:101F98004120183441201834412018344120183485
:101FA8004120183441201834412018345120183465
:101FB8004120183441201834412018344120183465
:101FC8004120183441201834412018344120183455
:101FD800B9201834412018345120183451201834AD
:101FE800B9201834B9201834B92018345F1F1834B0
:101FF80051201834FD1E1834412018345F1F18343E
:10200800412018341521183451201834152118345A
:1020180041201834412018341D2118344B2018341D
:1020280051201834412018344120183451201834D4
:10203800412018344520183400268CE70427BC4674
:1020480089E70427BC4686E729786C2924D000262E
:102058003C44013CB4FBF7F407FB04F420B1211A1B
:102068006144514500F21581002A58D1BCF1040F92
:1020780000F08880BCF1080F40F014811A990731EC
:1020880021F0070101F108051A95D1E9008908B185
:10209800C4E9008908345EE713F8021C6C2903D0F0
:1020A80000260427BC46D3E700260827BC46CFE70E
:1020B80029784C291AD01A99073121F0070101F122
:1020C80008061A96D1E90067073424F0070440B1DE
:1020D800211A0831514513D829784C2913D0C4E95D
:1020E8000067083400260827BC4634E71A990731E8
:1020F80021F0070101F108061A96D1E90067E3E724
:102108006FF01B00BCE0C4E90067EAE7002604277B
:10211800BC469DE7324600260427BC4698E7E146C0
:1021280080461A9A111D1A9112680292079A1D4642
:1021380098E6624B029A9A4204D3614B9A420AD3B8
:10214800002300E00023002B7FF496AE059B03F0EC
:102158000202002095E60123F5E7069B013306936A
:10216800B4E610B10AF1010AB0E6009B13B10AF116
:10217800020AABE6029810F09AFC0AEB000303F19E
:10218800020AA3E61A990D1D1A95096800B1216083
:102198000434E0E68046231AB3F5806F80F085802A
:1021A80090B1002202609B080370009B83B1069BDC
:1021B800C370049B88F802301BBB019DDDF80C90AE
:1021C800DDF810B0029F3DE05344A3F1080057E04A
:1021D800069B4370EDE701339842EED903F14002C4
:1021E8006A4412F8101C12F9102C002AF3DA01F0D4
:1021F8007F01A4EB08020132524559D804F8011BAB
:10220800E9E7019B0398E7E7009B43B305F1400327
:102218006B4413F8203C04F8013B019EA4EB08032F
:1022280033440133534546D805F140036B4413F852
:10223800103C04F8013B32463946204610F0A8FC11
:1022480034440135A94519D9BBF1000FDCD005F19B
:1022580040036B4413F9103C002BD5DAF1E705F184
:1022680040036B4413F8103C58F82370002248F8D8
:102278002320384610F01BFC461CCFE7A4EB0800CF
:1022880011B0BDE8F08F6FF00D00F9E76FF01B009B
:10229800F6E76FF01B00F3E76FF01500F0E76FF05B
:1022A8001500EDE76FF01500EAE76FF01500E7E7B6
:1022B8006FF01B00E4E76FF01B00E1E7803619348C
:1022C800DC8519342DE9F04F97B000AF8346BA6129
:1022D8003B61D7F88030C3F3C0033B62F96011B9A2
:1022E8000AF0AFF8F8609BF80260B14636B1D7F84B
:1022F800803013F0010F0DD1002300E000239BF87C
:1023080003207A6242B1D7F8802012F0020F22D15E
:10231800002202E00123F2E7002202B9EBB19BF8A8
:102328000050AA00BA60DBF804207A610BEB85053F
:10233800BA69F2B1002B40F00481B9F1000F00F046
:102348000F81D7F8803013F0040F40F00D81002082
:10235800F8610646F9E00122DFE7BB691BB13A697B
:10236800F96858469847FC6820465C37BD46BDE882
:10237800F08FFC68E3B94D4400233B6123E004443B
:10238800013501364E451AD22A7800235BF82220FF
:102398001946B8690AF06AF8BAF1000FEFD0D7F811
:1023A80088309845EBD22AF8180008F10108E6E7CA
:1023B8000026C7F81C80B046D7F884A0E2E7C7F823
:1023C8001080D7F81C80D7F8803003F00503FB6035
:1023D8004FF0000AA146C7F81CB09CE000253B6AF4
:1023E8007BB9002D79D0D7F8803013F0010F79D15F
:1023F800FB68002B6FD10223A9EB030988E00125B4
:10240800EDE7594678690AF077F80028E9D06C4674
:10241800002387F82C30022387F82D308AB06946CC
:1024280011F1100237D012251AB1042D01DDB34B7A
:102438004B61002387F82830022387F829306ABBCC
:10244800112D45DD122362B1042087F82C000020ED
:1024580087F82D0087F82E00012087F82F00F86AEA
:1024680008616FF300086FF341086FF382086FF398
:10247800C508022161F38818C3F30A0363F35328DC
:102488006FF31F58002341469D4800F021FDA546E3
:10249800A9F102093CE06FF00045C5E72B46082D7D
:1024A80001DD786988610C2B01DDC1F81CB001F1F0
:1024B8002003002009E000F1300C07F1280EF44455
:1024C8001CF830CC03F801CB01300128F3D9B7E769
:1024D8006FF01B03B7E701238EE7D7F8803013F0BE
:1024E800020F15D0002322461946B86909F0BEFF2D
:1024F800D7F8843053B13B69D7F88820934205D286
:10250800D7F8842022F8130001333B610138814455
:102518000AF1010A35467B6A9A4510D22E4616F80A
:1025280002BB6B78FA6952F82340764B9C42FFF461
:1025380055AF754B9C42FFF462AF00254FE74C4600
:1025480012E707F144000023FB6118B14A46294607
:1025580010F01EFB4D444FF00008C7F804901EE031
:102568000020F8610646F0E7FE6107F13400002616
:10257800EBE700253B6A33BB002D3BD0D7F8803012
:1025880013F0010F26D0731C06F1300207F1280161
:10259800561806F8149CDEB208F1010825467B6A35
:1025A80098454AD22C4614F802AB95F801905BF88E
:1025B8002930544A9342DCD3534A934201D300252D
:1025C800D8E70125D6E75146786909F095FF002834
:1025D800D2D0E1E7D7F8803013F0040FDCD0FA69E5
:1025E800531C303207F128010A4402F8249CDBB25C
:1025F800FB61D1E7D7F8803013F0020F09D0731CC4
:1026080006F1300207F12801561806F8149CDEB2CC
:10261800C2E7F869431C00F1300107F128028A1863
:1026280002F824AC02460232D2B2FA6107F158022B
:1026380052FA83F303F8249CAEE7D7F804909BF88A
:10264800003087F854309BF80130334487F8553010
:10265800D7F8803013F0020F0ED1FB69C3F347039C
:1026680087F85730D7F8803013F0010F06D113F0F0
:10267800040F3ED1002302E00023F1E7002387F88E
:102688005630DBF800003863786DCBF80000D7F8D7
:1026980010804246B9685846D7F818A0D047041E9B
:1026A800FFF662AE386BCBF80000C7F810804246E0
:1026B800F96907F13400D04700285EDB04EB000815
:1026C800B96849447B6A01EB4301D7F810904A4640
:1026D800FB68591A2846D047041EFFF645AE08EB9A
:1026E80004054FF00008C7F824B0B3465446CA465C
:1026F80021E0FB69C3E74FF0000909E058431934AA
:102708001041193480361934DC8519344FF000092A
:102718005246012107F12C00A04700282FDB054471
:102728004B4632465146204609F0A0FE002828DBD9
:10273800054408F10108D84518D208F1300307F11B
:102748002802134413F8143C87F82C307A6A52F89C
:102758002360D7F88430002BCDD0D7F8883098453F
:10276800D4D2D7F8843033F81890D1E73A690021E9
:102778000846BB6998472C46F6E50446F4E5044646
:10278800F2E50446F0E500BF014B1860704700BF52
:10279800B488193470B506460D46002404E0044B8D
:1027A8001B68305D98470134AC42F8D370BD00BF58
:1027B800B488193480B505460E461746984608F081
:1027C80085F8034610F0E2FE0446DFF8189049F851
:1027D8000030424639463046A84754F8090001F00F
:1027E800ADFB00BF08000000034A536843F0020332
:1027F80053600020704700BF0010005482B0154B92
:10280800154A1A60154B4FF48022C3F85C2AD3F896
:102818005C320193019B124B1A6A42F001021A6260
:10282800DA6B42F48072DA63DA6B42F40072DA63CC
:102838005A6B42F480725A639A6B42F480729A63BC
:10284800DA6B42F00072DA63DA6B42F08062DA63C4
:1028580002B070474C8E19340090D00300800256A5
:102868000048025638B505460B4C00E010340B4BB7
:102878009C420FD263685B79002BF7D0294620462B
:102888000AF094F90028F1D023681B6829462046ED
:102898009847EBE738BD00BFB8411934C84119342F
:1028A80070B506460D46084C04E02A4631462046D7
:1028B80098471034054B9C4204D223689B69002B2F
:1028C800F3D1F6E770BD00BFB8411934C8411934D7
:1028D80008B50CF0D3FE0022431819D213440D4A50
:1028E800A2FB03CE2EF0030C0CEB9E0CA3EB0C0307
:1028F800C01A61F100014FF0CC3300FB03F302FB77
:102908000133A0FB02021344400840EAC37008BD2B
:102918000122E3E7CDCCCCCC2DE9F04107460546B2
:102928000AE007EA0807144B03EB06135B68042266
:10293800196820460AF07AF9D5B195FAA5F6B6FADB
:1029480086F60D4C04EB06140123B3406FEA030826
:1029580025EA0305237B002BEED03301064AD35822
:102968001B69002BDDD0204698470028E4D1D8E722
:102978003846BDE8F08100BFB84119342DE9F0416F
:1029880080460F461D4BD3E8EF5F6A1CC3E8E12F72
:102998000029F8D16DBB1A4C002607E063680422B1
:1029A800196820460AF042F901361034154B9C424A
:1029B80011D2237B002BF7D020460AF0EBF82368CE
:1029C8001B69002BEAD0204698470028E6D001234F
:1029D800B3401D43E8E7B8F1000F0BD055B12846C6
:1029E800FFF79AFF0546002FF8D00A200AF0E0F812
:1029F800F4E700252846BDE8F08100BF989819340F
:102A0800B8411934C841193408B5064B186018B1D3
:102A1800054B1B68092B00DC08BD044807F034F996
:102A2800FAE700BF8C98193494981934008F193438
:102A380008B5024807F028F908BD00BF008F19340F
:102A480030B589B000220F490F480CF026FE0F4D13
:102A580000220023CDE90623002404940E230393C7
:102A68000294019400940A4B4FF440720949284695
:102A78000CF035FC084928460CF021FC204609B02A
:102A880030BD00BF392A1834A8941934209019345D
:102A9800012E1834D8AE193428441934014B53F890
:102AA800200070474444193448B108B5054A1060FD
:102AB800054B1960084600F0FFFC002008BD6FF0C8
:102AC80015007047BC8819348898193408B5054B27
:102AD8001B781BB1034B01221A7008BD024807F08E
:102AE800D3F8F7E7CCAE1934008F193408B50C4B7E
:102AF800D3E8EF1F0131C3E8E21F002AF8D130B94B
:102B080008480CF0D6FD084807F0BEF808BD074B8A
:102B1800D3E8EF1F0139C3E8E21F002AF0D0F7E736
:102B280090981934A8941934008F1934949819344A
:102B3800044B00200146D3E8EF0FC3E8E21F002A48
:102B4800F9D170479098193438B5FFF7F1FF054669
:102B5800094C00E01034094B9C420BD263685B7946
:102B6800002BF7D023685B68002BF3D0294620465A
:102B78009847EFE738BD00BFB8411934C841193448
:102B8800034B18680028D4BF00200120704700BFFD
:102B98009098193410B5044C0449204609F040FEB9
:102BA800034B1C6010BD00BF8C8E1934304419349F
:102BB8008498193408B500230C4A13700C4A136022
:102BC8000C4A13604FF47A710B48FFF76DFFFFF75B
:102BD800E1FF0A4A06E0094BD31A1B110133516879
:102BE8000B711032064B9A42F5D308BDCDAE19349D
:102BF8009098193494981934D9281834B84119344C
:102C0800C841193408B50146014809F0E1FF08BD7B
:102C18008C8E193408B5024809F0E5FE08BD00BFDE
:102C28008C8E193408B50146024B186809F0D6FF96
:102C380008BD00BF8498193408B5024809F0D2FFCE
:102C480008BD00BF8C8E193410B582B00022002355
:102C5800CDE900232A4B187808B902B010BD6846A0
:102C680009F0D8FF044660B1FFF7FCFD2046FFF7E6
:102C7800D9FF244BD3E8EF1F0139C3E8E21F002A2C
:102C8800F8D1FFF77DFF58B91F4A1368516813F54B
:102C98007A7341F1000113605160FFF7CDFFDCE763
:102CA8000CF0ECFC0022431827D21344174AA2FB6D
:102CB800034C2CF0030404EB9C041B1BC01A61F1A9
:102CC80000014FF0CC3300FB03F302FB0133A0FB00
:102CD80002021344400840EAC3705B080A490A68C4
:102CE8004968801A63EB010340F2E932904273F1BC
:102CF8000003C9D3FFF728FFC6E70122D5E700BFC5
:102D0800CCAE193494981934A0941934CDCCCCCCC9
:102D18000F4B1B7803B1704710B500210120FFF756
:102D28002DFE0C4C00E010340B4B9C4208D263681B
:102D38005B79002BF7D023689B6820469847F2E719
:102D4800FFF782FF0028FBD1014B01221A7010BD4A
:102D5800CDAE1934B8411934C841193410B582B010
:102D6800184BD3E8EF2F511CC3E8E01F0028F8D117
:102D7800154B1B7863B9154B1B68B3B1BAB1092A57
:102D880013D113480CF095FC124806F07DFF0CE0B7
:102D9800EFF31184102383F31288BFF36F8FFFF7CB
:102DA80053FF84F31188BFF36F8F02B010BD002268
:102DB8000023CDE9002342F210720023044808F0F2
:102DC800B3F8F2E794981934CDAE19348C981934C5
:102DD800A8941934008F193410B50446044B1B68A5
:102DE8009847A0602146034809F018FF10BD00BFAE
:102DF800BC8819348C8E19342DE9F041002108461D
:102E0800FFF7BCFD804650B14FF4FA76002710F06A
:102E1800BDFB154B1858FFF7F7FD002515E04FF0DF
:102E2800FF364FF0FF37F2E74046FFF775FD804663
:102E380070B94FF0FF364FF0FF3709E02C463246A5
:102E48003B460A4806F066FF2546B8F1000FEBD16D
:102E5800FFF7FAFE04460028F6D1002DEED0002137
:102E68000846FFF71DFDEAE708000000008F193447
:102E78000248034BC01AC008704700BFB841193454
:102E8800F040193410B50C46FFF7F2FFA04203D901
:102E9800024B53F8340010BD0020FCE7F040193411
:102EA80000B589B0059206930023079362B1074ADB
:102EB8000C9B02930B9B01930A9B009305ABFFF7B6
:102EC80001FA09B05DF804FB0022F1E74BCC183495
:102ED8002DE9F04F8BB004AF05461E468846C1F376
:102EE8004A24002C00F0898091460022FA603A6159
:102EF8007A6104230293FB1801930A23009307F1D4
:102F08000C0321464846FFF7DDF9B0F5006F58D3AA
:102F1800D9F804106D4600233B7302237B738AB0F3
:102F280004AC14F1100217D012201AB1042801DDE4
:102F38003B4B636100233B7002237B70CAB103469D
:102F4800082800DDA1610C2B02DD40F2FF73E3616C
:102F580004F1200300210AE06FF00040E5E701F1E9
:102F680018063E4416F8186C03F8016B0131012964
:102F7800F5D9112822DD122342B104213973002129
:102F88007973B9730121F973F868206100216FF32F
:102F980000016FF341016FF382016FF3C501022055
:102FA80060F38811C3F30A0363F353210023C1F3C9
:102FB80013011C4809F0C8FEAD462DE06FF01B0355
:102FC800DAE760F35328C0F30A0A0AEB18501730FF
:102FD80020F007008008FFF715FE8346B0B10423F0
:102FE8000293FB1801930A230093534600F1100241
:102FF80021464846FFF754FF08E004EB1154173404
:1030080024F00704A008FFF7FDFD83463346424637
:103018002946584609F02EFE1C37BD46BDE8F08FFC
:1030280064441934304119342DE9F04F85B0804695
:103038000D4617461E46DDF838B0DDF84090B9F168
:10304800000F41D0119B039300934B460F9A102118
:103058000020FEF7DDFEB0F5006F2DD282460BEBA7
:103068000003173323F0070300246FF300046FF302
:1030780041046FF3820468F3C50467F3881460F3AE
:1030880053246BF31F549808FFF7BCFD074650B153
:103098001030B9F1000F06D0119B00934B460F9AE0
:1030A8005146FEF7B5FE334622462946384609F012
:1030B800E1FD05B0BDE8F08F40F2FF73034A02213D
:1030C800034809F029FEF4E70020C7E7A4441934AF
:1030D80030411934406820B1034BC01A40F3CF0087
:1030E80070474FF0FF307047F04019340EB400B508
:1030F80082B0014603AB53F8042B0193034801F057
:103108000DFA02B05DF804EB03B0704787CD1834B0
:1031180010B584B011F0440F05D01A4B1B6833B9B1
:10312800002004B010BD1849FFF7E0FFF9E7174980
:103138000968B2FBF1F2B2FBF3FC03FB1C224FF46B
:103148007A7E0EFB02F2B2FBF3F403FB14210EFBB2
:1031580001F1B1FBF3F10E4AA2FB0C32D20A4FF493
:10316800616303FB12CC0B4BA3FB0CE35B090291DD
:103178000194C3EB0311ACEB810100910649FFF701
:10318800B5FFCEE7A0981934DC4419349C9819345B
:10319800C5B3A29189888888E844193461B108B513
:1031A8002AB1064A52F8232012B9054A00E0044A17
:1031B8000449FFF79BFF08BD704700BF88451934D5
:1031C800044519344C4319342DE9F0410546174696
:1031D800069EDDF81C8081B900242EB132461149C3
:1031E8002846FFF783FF0444B8F1000F14D06FB1ED
:1031F800099B042B13D00C4909E00C4B099A53F88E
:1032080022200B49FFF772FF0446E6E706494246CB
:103218002846FFF76BFF04442046BDE8F0810549C6
:10322800F5E700BF20451934104519349C45193479
:10323800184519340C4519342DE9F04F87B0054667
:103248000C46049205939DF84C7001F0020B01F0B6
:10325800010AC1F3C00801F4807909F0E5FC18B34C
:10326800024616492846FFF741FF0646BBF1000F04
:103278001CD13A465146284609F0A8FDB9F1000F7D
:1032880001D0002311930397129B0293119B019382
:10329800109B00930023049A41462846FFF794FFA9
:1032A800304407B0BDE8F08F0026DFE7059A2146D5
:1032B8002846FFF72DFF0644DBE700BF24451934F5
:1032C80011F0100F0BD108B511F0200F03D00449ED
:1032D800FFF70CFF08BD0349FFF708FFFAE770473F
:1032E80078421934284519342DE9F04105460F462E
:1032F800164698460699FFF7E3FF0024444505DA89
:1033080024492846FFF7F2FE0134F7E7002409E0D4
:1033180020492846FFF7EAFE0BE01F492846FFF739
:10332800E5FE01340F2C0CDC002C02DD14F0070F35
:10333800EED0B442F1D23A5D18492846FFF7D6FEDE
:10334800EFE717492846FFF7D1FE002409E01149A5
:103358002846FFF7CBFE0BE012492846FFF7C6FECA
:1033680001340F2C13DC002C02DD14F0070FEED013
:10337800B44207D23A5D0C4B9B5C13F0970FEBD12C
:103388002E22E9E703492846FFF7B0FEE8E7BDE843
:10339800F08100BF1C451934344519342C451934C3
:1033A800384519343C451934CC8419342DE9F04199
:1033B80084B004469DF82C500C9F0E9E95B9012BA5
:1033C8001ED019484FF0000827B13B46224617493E
:1033D80009F062F8C6B905BB204609F0B9FC04B08B
:1033E800BDE8F08103950A980290019300920B467C
:1033F80000220F992046FFF71FFF80460C48E3E79D
:103408000B484FF00008DFE70F9B00934346324616
:103418000D99204609F0F2FCDDE72A460F9920466F
:1034280009F0E0FCD8E700BFB7CD183425451834BB
:1034380087CD18342DE9F04383B00646056842F27B
:103448000F738B4228BF0B46184A0521684608F0BF
:1034580021F904467368D3F804900B27DFF85080ED
:1034680005E04A4639464046A8473F1A8044002F9F
:10347800F7D17368D3F804806F4605E042462146C9
:103488003846A847241A0744002CF7D173685F68A8
:103498001B24084E05E03A4621463046A847241A20
:1034A8000644002CF7D103B0BDE8F083B4461934C4
:1034B8005C45193440451934074B01221A6004E071
:1034C8004008054A13685B001360044B9842F7D81C
:1034D800034B1860704700BF9C98193440420F0096
:1034E800A098193470B506460D46002405E0315DF4
:1034F800044883685B6898470134AC42F7D3284690
:1035080070BD00BFA8391934014B03600020704713
:103518000446193408B50348034A121A002109F071
:10352800FDFC08BD788F1934D4AE19342DE9F0416B
:1035380082B000AF0446D0F800E0D0F804C0856837
:103548006E468AB06B4613F1100200F08880142191
:103558008AB10846042903DDDFF81C81C3F814800A
:10356800082801DDC3F818E00C2801DDC3F81CC0E9
:10357800102800DD1D62132974DD14253AB10521D8
:10358800397100217971B971F97178681861002170
:103598006FF300016FF341016FF382016FF3C5010F
:1035A800012363F38811C5F30A0565F353216FF30B
:1035B8001F5100233148FFF78BFCB546D4F80CC0E7
:1035C80026696569E8468AB06B4613F110024CD04B
:1035D800142182B10846042903DDDFF8A4E0C3F80A
:1035E80014E0082801DDC3F818C00C2800DDDE61EE
:1035F800102800DD1D6213293ADD14253AB1052192
:10360800397100217971B971F971786818610021EF
:103618006FF300016FF341016FF382016FF3C5018E
:10362800012666F38811C5F30A0565F353216FF384
:103638001F51124D00232846FFF74AFCC546E3698F
:10364800104A3146284609F067FBA3690E4A3146FD
:10365800284609F061FB0837BD46BDE8F0816FF0E8
:10366800004175E76FF01B0588E76FF00041B0E790
:103678006FF01B05C2E700BF0446193488411934AE
:1036880034461934644619347446193438B5044636
:103698000D4611B10846FFF749FF012C04D0294611
:1036A800204605F0B3FF38BDEFF30583103B034A0E
:1036B8000121034809F030FBF1E700BFA4461934A3
:1036C8008841193430BFFFF7FDBF00BF38B5044645
:1036D800054D2A4605490FF05BFA054A0021601995
:1036E8000FF0FEFA38BD00BF00000000C8411934D1
:1036F8000800000070B50646054D064B1D444C1BDE
:103708002046FFF7E3FF083C746705F1080070BD29
:103718000000000008000000054B5A699B689A42A7
:1037280004D0044A536843F080535360704700BF85
:10373800149C193400ED00E081690D4B5A6942F47C
:1037480080725A61BFF34F8FBFF36F8F31F8021C3D
:103758005A6922F480725A61BFF34F8FBFF36F8F9B
:103768004DF60273994201D000207047012070473E
:1037780000ED00E008B50368054A1A44012A05D996
:10378800044A0121044809F0C7FA08BD036CF7E7A9
:10379800A6ED0501B84619348841193490B583B0AF
:1037A80000AF0F2923DC2F4C103900233B71022373
:1037B8007B718AB0EC461CF110021AD0122022B19B
:1037C800042802DD284BCCF8143000233B70022378
:1037D8007B70E2B10346082801DDCCF818400C2BB9
:1037E80001DDCCF81C100CF1200300210DE01F4C6A
:1037F800DAE76FF00040E2E701F1080404EB070E96
:103808001EF808EC03F801EB01310129F4D911285D
:1038180024DD12234AB10421397100217971B9716B
:103828000121F9717868CCF8100000216FF30001CC
:103838006FF341016FF382016FF3C501012060F35B
:103848008811C3F30A0363F353216FF31F51002355
:103858000748FFF73DFB0C37BD4690BD6FF01B03D3
:10386800D8E700BFD84619340C471934F046193444
:1038780088411934F8B505460F461446394A0121DE
:10388800394809F03FFA394B9B6A13F0100F31D1D0
:103898001026364B9B6A13F0080F32D1334B9B6AC4
:1038A80013F0020F34D1314B9B6A13F0010F4BD147
:1038B8002E4B9B6A13F0200F4DD12C4B9B6A13F0B3
:1038C800100F01D1294B9B6A284B9B6A13F0200FDC
:1038D80004D0264A536A23F400535362234A936A56
:1038E80043F0FF0393620121284609F027FB20706B
:1038F8003046F8BD1E4A01211B4809F003FA11267B
:10390800C7E71C4A0121184809F0FCF91226C5E747
:10391800194A0121144809F0F5F9144A536B926ABF
:1039280012F0800F01D11326BDE7144A01210E4879
:1039380009F0F2F937B10D4A936A23F080039362D4
:103948001326B0E71326AEE70D4A0121064809F011
:10395800D9F91426ACE70B4A0121034809F0D2F93A
:103968001526AAE7204719348841193400ED00E0EC
:10397800384719346C471934804719349847193433
:10398800B0471934D0471934F8B505460F461446E0
:10399800374A0121374809F0B5F9374B9B6A13F4C8
:1039A800805F25D11626344B9B6A13F4006F26D10D
:1039B800314B9B6A13F4007F28D12F4B9B6A13F479
:1039C800806F3FD12C4B9B6A13F4807F41D12A4BE7
:1039D8009B6A13F4005F43D1274A936A43F47F43F9
:1039E80093620121284609F0A9FA20703046F8BDF3
:1039F800224A01211F4809F085F91726D3E7204AF2
:103A080001211C4809F07EF91826D1E71D4A012139
:103A1800184809F077F9184A936B926A12F4004F24
:103A280001D11926C9E7184A0121124809F074F989
:103A380037B1114A936A23F4004393621926BCE70D
:103A48001926BAE7114A01210A4809F05BF91A2632
:103A5800B8E70F4A0121074809F054F91B26BBE7CC
:103A68000C4A0121034809F04DF91C26B4E700BFB0
:103A7800004819348841193400ED00E01848193419
:103A88006C4719342C48193448481934604819349B
:103A98007C481934D047193408B5314A01213148D6
:103AA80009F030F9304B9B6A13F0007F26D11D20B6
:103AB8002D4B9B6A13F0807F27D12B4B9B6A13F405
:103AC800801F29D1284B9B6A13F4002F2BD1264B3A
:103AD8009B6A13F4802F2DD1234B9B6A13F4003F6C
:103AE8002FD1214B9B6A13F4803F31D11E4A936A30
:103AF8006FEA03436FEA1343936208BD1B4A01212F
:103B0800184809F0FFF81E20D2E7194A0121154884
:103B180009F0F8F81F20D0E7164A0121114809F0EA
:103B2800F1F80220CEE7144A01210E4809F0EAF81C
:103B38002120CCE7114A01210A4809F0E3F82220A4
:103B4800CAE70F4A0121074809F0DCF82320C8E733
:103B58000C4A0121034809F0D5F82420C6E700BF24
:103B6800944819348841193400ED00E0AC48193400
:103B7800C0481934DC48193408491934284919341B
:103B8800504919346C49193408B53B4A01213B485E
:103B980009F0B8F83A4AD2F8E830D2F8E42012F03E
:103BA800400F2BD1364BD3F8E43013F0010F2BD153
:103BB800334BD3F8E43013F0020F33D1304BD3F842
:103BC800E43013F0040F34D12D4BD3F8E43013F064
:103BD800080F35D12A4BD3F8E43013F0100F36D143
:103BE800274BD3F8E43013F0200F37D1244BD3F808
:103BF800E43013F0800F38D125200BE0214A012151
:103C08001E4809F089F8CDE71F4A01211B4809F031
:103C180079F826201A4AD2F8E43043F0FF03C2F8B4
:103C2800E43008BD194A0121144809F06BF827202F
:103C3800F0E7174A0121114809F064F82820E9E75C
:103C4800144A01210D4809F05DF82920E2E7124ADB
:103C580001210A4809F056F82A20DBE70F4A01211A
:103C6800064809F04FF82B20D4E70D4A01210348F4
:103C780009F048F82C20CDE79849193488411934BF
:103C880000ED00E0B4491934C4491934DC49193449
:103C9800FC491934184A1934384A1934504A193425
:103CA8006C4A193470B506460D46304A0121304831
:103CB80009F028F800232B702E4BDC6A14F002045C
:103CC8000AD12C4BDB6A002B0DDB2A4BDC6A14F083
:103CD80080440ED1204670BD274A0121244809F0AE
:103CE80011F80024F6E7254A0121214809F00AF8CD
:103CF800F0E7234A01211E4809F004F83046FFF78F
:103D08001BFDC0B91B4B9B6A13F0FF0F1BD1194B4E
:103D18009B6A13F47F4F1DD1164B9B6AB3F5803F06
:103D28001FD2144BD3F8E440002CD3D03046FFF711
:103D38002BFF0446CEE73368124A01210C4808F0ED
:103D4800EBFF3468C6E72A4601213046FFF792FDAB
:103D58000446BFE72A4601213046FFF715FE044610
:103D6800B8E73046FFF798FE0446B3E7804A1934AF
:103D78008841193400ED00E0984A1934BC4A1934D6
:103D8800CC4A1934EC4A193408B500230B70034A9D
:103D98000121034808F0B6FF08BD00BF084B1934DD
:103DA8008841193430B58BB01F4B5D68C5F30805E1
:103DB800002383F31188BFF36F8F0DF1260309F0F9
:103DC800BFF804460DF12702294609F0EFF89DF8DF
:103DD80027300BB10BB030BD05460DF1040C20683F
:103DE8006168A268E368ACE80F0020696169A269AC
:103DF800E369ACE80F009DF826304BB1089BC3F38C
:103E080008025AB96FEA53236FEA4323089305E07F
:103E1800089B23F4FF7323F00103089301A92846A4
:103E2800FFF734FCD6E700BF00ED00E0064B5A6907
:103E380042F010025A615A6942F480625A615A6922
:103E480022F008025A61704700ED00E0EFF30880A5
:103E5800EFF3098101B57246FFF7A4FF01BD00BF6A
:103E6800002080F31488BFF36F8F002080F30A8846
:103E780080F30B880F4880F3088808F077FE00204D
:103E88000D490860BFF34F8F00F02EF8102080F323
:103E980011880A484FF40061401880F30988EFF34D
:103EA80014800221084380F31488BFF36F8F00F059
:103EB800D1F8000018CB193494ED00E0D8B11934CA
:103EC800084BD3F89000C0F30720002306E0054A0A
:103ED800C2F898300021C2F8A01001338342F6DB03
:103EE800704700BF00ED00E010B572B6002484F3FF
:103EF8001388FFF7E5FF234608E003F120010E4A87
:103F08004FF0FF3042F821000133DBB20F2BF4D918
:103F1800002308E003F16001074A4FF0FF3042F840
:103F280021000133DBB20F2BF4D962B6BFF34F8FF8
:103F3800BFF36F8F10BD00BF00E100E008B50A4B6A
:103F48009B68834202D006F0C7FC08BDEFF30583E7
:103F5800002BF8D0054B5A6842F080525A605A6AD2
:103F680022F400425A62EEE7149C193400ED00E096
:103F780014498A684FF030001044EFF3098C80E848
:103F8800F01F102080F31288BFF36F8F0E4F4FF091
:103F980000664A698A603E60506F0C4C2060906FE2
:103FA8000023936780F3118802F1300090E8F01F36
:103FB8008CF3098802F1000004B509F030F8BDE877
:103FC80004407047149C193404ED00E0D498193467
:103FD8001EF0040F0CBFEFF30880EFF3098081692E
:103FE80011F8021C0229FFD001B5724608F09AFFA9
:103FF80001BD00BF002807DB00F01F0240090123B4
:104008009340024A42F82030704700BF00E100E0C8
:10401800002808DB0901C9B200F1604000F56140E1
:1040280080F80013704700F00F000901C9B2014B76
:104038001954704714ED00E0044B23F07F03044A41
:104048009360BFF34F8FBFF36F8F7047000418342E
:1040580000ED00E008B5FFF7EFFF064AD2F8883018
:1040680023F47003C2F88830FFF754FA00F04AF8D6
:1040780005F0C6FC00ED00E010B4A2F120040D49E3
:1040880042F8081C21F0010142F8081C42F8203CC3
:10409800019B42F81C3C029B42F8183C039B42F8E7
:1040A800143C4FF0807342F8043C04650023836796
:1040B80010BC7047BD27183400B50E4615460C4B8A
:1040C8009860426F0B4B1A60436E83F30B882C4643
:1040D80086F309880020044B9847204600210022D7
:1040E8000023024C2047000035D01834BD2718346F
:1040F800149C1934D4981934014B10221A61704752
:1041080000ED00E0002206E003F00F03094919441E
:1041180010230B760132C12A0ADC13B2002BF3DB21
:1041280003F1604303F56143102183F80013F1E7BD
:10413800704700BFFCEC00E008B5EFF30583103BC7
:10414800044A02EBC301496852F833008847FFF775
:10415800E3FA08BDE839193410B584B00A4C23468F
:104168000A4A01210A4809F07DF8002300930193C7
:1041780002930393074B0093E41A019401216846C4
:1041880009F074F804B010BD00002034E08519343B
:104198002C4B1934788F1934024B034AC3F8C020CA
:1041A800704700BF00ED00E0AAFF4400034BC3F8CE
:1041B8009800C3F89C10C3F8A020704700ED00E0F9
:1041C800114BC3F89800C3F89800D3F89C000A7AFA
:1041D80060F304020A72D3F8A020C2F34202087AFC
:1041E80062F347100872D3F8A020C2F300120A74D1
:1041F800D3F89C2022F01F020A60D3F8A03023F0E5
:104208001F03CB60704700BF00ED00E070B50546A6
:104218000E46002400E00134A6421CDD220105EB15
:10422800041359680029F6D0A85808F048FF04EB91
:1042380044030B4A42F8330010F1160F0CD0094B17
:104248001B78984209DA04EB440302EBC3010431FA
:10425800FFF7B6FFDFE7002070BD6FF01500FBE742
:10426800D8981934CEAE193410B504460A4BD3F891
:104278009030C3F30723013B984203D808F0F4FEBB
:10428800204610BD0346054A0121054808F044FDB3
:104298006FF01500F5E700BF00ED00E0404B193462
:1042A800704119342DE9F04F89B08146009101938E
:1042B8001446002548E02B46634A0121634808F06C
:1042C8002BFD6FF0150407E03346614A01215F4872
:1042D80008F022FD6FF01504204609B0BDE8F08F04
:1042E800D84562D13946C0B208F0FAFE2BE0594AE7
:1042F800C2F89860D2F89C3003F01F0321F01F0128
:104308000B43C2F89C303946E0B208F0E9FE044697
:1043180010F1160FE0D0013415E0013B4D49C1F80A
:104328009860D1F8A02002F01F0223F01F03134366
:10433800C1F8A0303946E0B208F0D2FE044610F1C8
:10434800160FC9D001340135009B9D42C4DA4FEAEB
:10435800051A09EB05177E68002EF4D0019B23B1DE
:10436800384608F09AFE0028A5D0314659F80A00C8
:1043780008F0A5FE064610F1160FA5D08442A3DD6D
:10438800344BC3F89800D3F89C2022F01F02C3F8DE
:104398009800D3F8A03043F01F0859F80A3079681C
:1043A800194401F1FF3B93429AD093429FD0D845DC
:1043B800B3D0013B2749C1F89860D1F8A02002F09A
:1043C8001F0223F01F031343C1F8A0303946E0B29F
:1043D80008F086FE044610F1160F3FF47DAF013059
:1043E8001C4BC3F89860D3F89C109DF8142061F317
:1043F80004028DF81420D3F8A020C2F342029DF8DD
:10440800141062F347118DF81410D3F8A030C3F3D9
:1044180000138DF81C3059F80A307A681344039356
:1044280023F01F03A8EB0B084344013B23F01F03B1
:10443800069303A9C0B2FFF717FF044610F1160F41
:104448003FF44AAF01347EE7684B193470411934A0
:104458008C4B193400ED00E010B5034C0123227891
:10446800FFF720FF207010BDCEAE1934044B052293
:10447800C3F89420BFF34F8FBFF36F8F704700BF0F
:1044880000ED00E0BFF35F8F024B0022C3F89420D9
:10449800704700BF00ED00E038B51D4B1D681D4B8F
:1044A800D3F89030C3F307239D422DD8FFF7EAFFD6
:1044B800FFF772FE002409E0154B5B6804EB8401EA
:1044C80003EB8101204608F0CFFD0134A542F3D863
:1044D8001148057008F028FE10F1160F13D00E4B86
:1044E8001A780C4BD3F89030C3F307239A4207DAB3
:1044F800084BC3F898200021C3F8A0100132F0E758
:10450800FFF7B4FF002038BD4FF0FF30FBE700BFD6
:10451800B04B193400ED00E0CEAE193430B587B099
:104528000D461146002400940194029403940494C7
:10453800059402228DF80220044A01920490059500
:104548001A46684607F0D0F807B030BD7DD2183457
:1045580008B5024B1B689847002008BDF09819342D
:10456800034B1860034A937843F002039370704733
:10457800F0981934C888193408B5054807F0E9FFD8
:10458800002383F31188BFF36F8F0423184602DFDB
:10459800D44B193408B54FF0FF324FF0FF330248BF
:1045A80008F073FE08BD00BFD888193408B506495D
:1045B80021F00701C1F1505202F50012034807F03B
:1045C800B4FE002008BD00BFE3DB1934F4981934A9
:1045D80038B50446FFF7DEFF22460821084807F0F1
:1045E80017FE054620B1074805F0F8FA284638BDF9
:1045F800002CF8D00EF0CAFF034B0C221A50F2E739
:10460800F4981934D88819340C00000010B5044601
:10461800FFF7C0FF2146034807F0A4FD024805F054
:10462800DDFA10BDF4981934D88819342C22024BBD
:1046380002FB0030704700BF188F1934FA290FD8D1
:1046480081F08003702B0BD9F0290FD88A0F8B00CB
:104658005B1842F10002DB18524103604260704768
:1046680040F2F6420023C0E90023704700B5F03954
:10467800642303FB01F163312CBF4FF0010C4FF0B1
:10468800000CC1F313030A0D42EA0C321A440E4B14
:10469800A3FB02E3DB0803EB830303EB8303D31AD7
:1046A800C91A6CF1000C094A094B01FB03F302FB20
:1046B8000C33A1FB02121344890841EA83719B0859
:1046C800016043605DF804FB1F85EB51295C8FC2D4
:1046D800F5285C8F10B508F06DFE054B1C6804E0EA
:1046E80004F10C0005F078FC2468002CF8D110BD0A
:1046F8000099193410B508F05DFE054B9C6804E07C
:1047080004F10C0005F068FC2468002CF8D110BDF9
:104718000099193410B584B0044690F89A3013F013
:10472800040F17D06FF06041D4F89420C2F31C0234
:1047380001920291C3F380038DF80C3001AB22463D
:104748000A49A06801F050FF2060002805DB00201E
:1047580004B010BD40F2FF71E6E70346044A0121A8
:10476800044808F0D9FA6FF00900F1E70D4C183445
:10477800044C19342841193410B5044690F85230C5
:10478800042B04D1A4F1140005F026FC10BD082365
:1047980080F852306FF0010340F8243C024A0121AE
:1047A800024808F0AFFAEDE7204C193428411934D3
:1047B800F0B595B0044608F0E3FD0646D4F89C3001
:1047C800C3F31C03029394F8A250C5F380036A084C
:1047D80002F004010B4302F0080213438DF80D3078
:1047E80094F8A170384608F0AFFD8DF80C0015F06C
:1047F800010F50D094F8A0308DF810300122B6F592
:10480800805F4AD302F150016944102001F8400C3E
:1048180002F151036B44002003F8400C300E02F102
:104828005201694401F8400C300C02F153036B4407
:1048380003F8400C300A02F15401694401F8400CB5
:10484800951D02F155036B4403F8406C94F8A630AB
:10485800012262F3030384F8A630204608F0A0FD85
:104868000646791B204608F0BDFD05F1080094F8BE
:10487800A120521B314602AB18440EF089F9A068FA
:1048880001940D4B009342F21072002302A901F02B
:10489800E5FD15B0F0BD0022B1E7310A41F0100185
:1048A80002F15000684400F8401C951C02F15103C5
:1048B8006B4403F8406CC9E711D418342DE9F04172
:1048C80094B00446D0F89C30C3F31C03029390F8CC
:1048D800A210C1F380034A0802F00400034302F067
:1048E800080213438DF80D3011F0010F42D094F8EF
:1048F800A0308DF81030012694F8A63003F00F038D
:10490800771C43F0200306F150026A4402F8403C49
:10491800204608F035FD94F8A150ED1B8542A8BF4C
:104928000546A0EB0508204608F03AFD014606F1C9
:1049380009002A4602AB18440EF02AF994F8A2306E
:1049480013F0080F02D07E19082E15DCE819C0B242
:1049580008F0FAFC8DF80C00A06801941E4B009337
:1049680042F21072002302A901F078FDD8B114B008
:10497800BDE8F0810026BFE73046082EB8BF082002
:10498800C0B208F0E1FC8DF80C0008360F2828BFEB
:104998000F20124B1A5C521BD21BCC2102AB981968
:1049A8000EF09EF9D8E794F8A63003F00F02013212
:1049B80062F3030384F8A6302946204608F012FD66
:1049C80094F8A530013B84F8A53094F87B30013386
:1049D80084F87B304046CAE711D41834504D193456
:1049E800F0B595B0044608F0CBFC0546D4F89C30E9
:1049F800C3F31C03029394F8A230C3F380025B084C
:104A080003F004010A4303F0080313438DF80D3043
:104A1800204608F0C5FC07462946204608F0E2FC77
:104A280094F8A22012F0010F05D094F8A0308DF868
:104A38001030012300E0002312F0080F0FD0C3F15B
:104A48000702AA420BD203F150016944002001F881
:104A5800400C9E1C51336B4403F8405C04E05E1C20
:104A680050336B4403F8405C94F8A1309B1BAB4275
:104A780024D306F108002A46394602AB18440EF042
:104A880087F894F8A23013F0080F02D07719082F8E
:104A98001CD8A819C0B208F057FC8DF80C000123E7
:104AA80084F87A30A0680194144B009342F2107293
:104AB800002302A901F0D2FC15B0F0BD104A012173
:104AC800104808F01FF96FF01B00F5E73846082F6B
:104AD80038BF0820C0B208F037FC8DF80C00083742
:104AE8000F2828BF0F20084B1A5C521B921BCC21A1
:104AF80002ABD8190EF0F4F8D1E700BF11D418347E
:104B0800444C193428411934504D193430B583B008
:104B1800044601F1080590F89A3013F0010F06D009
:104B280090F8982001F109050B7A9A421DD12B784B
:104B380003F0F002302A0DD103F00F03012B2BD024
:104B4800022B4AD09BB1082384F87A306FF0040313
:104B580063600AE0274A0121274808F0D3F80823B0
:104B680084F87A306FF00503636003B030BD042326
:104B780084F87A30002384F8A43084F87B3004F178
:104B88007C0005F0EFF86B7884F87830AA7884F820
:104B9800792084F8A530E8E704F1280000220023F2
:104BA800CDE9002342F21072002306F0BDF994F813
:104BB800A430092B05D894F8A430013384F8A43024
:104BC800D3E70E4A03210C4808F09CF8082384F820
:104BD8007A306FF006036360EDE7094A0121064861
:104BE80008F090F8082384F87A306FF007036360C0
:104BF800BBE700BF5C4C1934284119347C4C19348C
:104C0800944C193438B5144692F87A30032B0FD0E7
:104C18000C4A01210C4808F075F8082384F87A300A
:104C28006FF00503636004F1140005F0D5F938BD91
:104C38000D4602F128000AF03CFD29462046FFF700
:104C480065FFF0E7AC4C19342841193410B5044617
:104C5800036893F8A62012F0100F06D1216891F886
:104C6800A63013F0200F07D110BDD86808F049FB13
:104C780023680022DA60F1E701480AF039F9F3E71E
:104C8800D08E19342DE9F04184B001900F461546B5
:104C98001E46DDF828809B7913F0080F03D193791D
:104CA80013F0080F0AD0BB681B6803A93846984759
:104CB800002845D1039B13F0040F41D0B8F1000F31
:104CC80046D0019BC3F860800B9A5A6693F8A620D9
:104CD80042F0400283F8A62001987C30012200218E
:104CE8000AF03CFA019CA76004F19C0395E80300D4
:104CF80083E8030004F1940396E8030083E80300C3
:104D08000026666084F8A460564904F114000AF08D
:104D180099FA32465449019828300AF0BEFC019CA1
:104D280094F8A130202B34D8082B1FD24BBB94F811
:104D3800A23013F0080F52D1082384F8A13031E0D3
:104D48004A4A01214A4807F0DDFF6FF008046AE08B
:104D580001986030012200210AF000FA019B93F8C3
:104D6800A6206FF3861283F8A620B5E7A3F1080101
:104D7800C9B201228A403F49114071B912F0010FAE
:104D880010D13D4A01213A4807F0C6FF6FF00804E8
:104D980049E0302B01D0402BF3D194F8A23013F026
:104DA800080F20D0204608F0EBFA94F8A120AB7940
:104DB80013F0010F1FD00223D31A082A88BF013B22
:104DC800984224D92046FFF7A5FC0446A8B90198C3
:104DD800022380F87A30143005F0FEF81FE04023F3
:104DE80084F8A130DEE7254A0121214807F08AFF2F
:104DF8006FF0080417E00123DEE70346204A01218B
:104E08001B4807F089FF01A8FFF720FF0BE04FF0D0
:104E1800FF3323600198FFF7E3FD044638B9B8F182
:104E2800000F10D00024204604B0BDE8F08101A88E
:104E3800FFF70CFF14F10B0F02D06FF00804F2E734
:104E48004FF0FF34EFE7019860304FF0FF324FF03A
:104E5800FF3304F05FFF019B5C6801A8FFF7F6FED3
:104E6800E1E700BF45D4183481471834C04C1934E1
:104E78002841193410110101104D1934E84C193426
:104E8800244D193410B586B0059090F87A30013B5E
:104E9800072B16D8DFE803F0780415176315787820
:104EA800FFF786FC0598283000220023CDE900236F
:104EB80042F21072002306F037F8059B032283F8AC
:104EC8007A2006B010BD28300AF0F3FB23E0059BDA
:104ED800062283F87A20F4E73C4A01213C4807F08F
:104EE80011FF059B14F10B0F06D06FF00802082183
:104EF80083F87A105A60E4E74FF0FF32F7E790F84A
:104F0800793043BB7C304FF0FF324FF0FF3304F071
:104F180001FF002CD5DD0598FFF7D0FC04460028DA
:104F2800D5D00028D8DB059890F87830002BE6D04B
:104F380090F8A530002BE2D1283000220023CDE9DB
:104F4800002342F21072002305F0EEFF059B0322B6
:104F580083F87A20B5E7052380F87A30B1E700F1C5
:104F6800280490F8791002A8FFF768FBDDE902230E
:104F780000200021CDE90001204605F0D5FF059B62
:104F8800042283F87A209CE70168002903DB806803
:104F98008368DB699847059828300AF08AFB0598EA
:104FA80090F8A63013F0400F0BD0036E416E4068A6
:104FB800984705A8FFF74AFE059B002283F87A2048
:104FC8007FE7603004F060FEF6E700BF3C4D19341F
:104FD80028411934F8B50446012828D800EB800682
:104FE8001A4800EBC61604EB8403DB0118330021D2
:104FF800184408F04EFA10BBA50004EB8400C00169
:105008001830124F3844043009F0F3FF2819C00152
:1050180030303844012200210AF0A0F82819C001D4
:1050280048300B4938440AF00DF93046F8BD0346BC
:10503800084A0121084807F06FFE0026F5E7074AED
:105048000121054807F05EFE0026EEE7EC881934DA
:10505800A5501834904D193448411934AC4D1934C1
:1050680008B5037B012B02D9022B0AD108BD08F031
:10507800ADFB0028FAD0064A0121064807F042FE97
:10508800F4E7054A0121034807F03CFEEEE700BFBC
:10509800C44D193448411934E44D193470B50446E7
:1050A800A0F1480510F83C3C012B09D9022B10D17E
:1050B80014F83B3C9BB1A4F1180004F0E5FD0DE0A9
:1050C800284608F07BFB284600F0E4F9C4F81C02E7
:1050D800EEE70C4A01210C4807F014FE70BD284683
:1050E80008F0A8FB064648B914F83C3C012BF5D853
:1050F800002EF3D1284608F065FBEFE72846FFF7B6
:10510800AFFFF1E7E44D1934484119340146002056
:10511800012808D800EB8002044B03EBC2138B4232
:1051280003D00130F4E76FF012007047EC881934AF
:1051380038B505460024012C0AD804EB8403DB01AA
:10514800054AD1582846FCF7CFFA18B10134F2E7DE
:105158006FF01204204638BDEC88193484B070B55D
:1051680082B007AC84E80E001AB31646C0B2FFF747
:1051780031FF0446002856D0002343730AAB93E856
:1051880003008DE8030007AB0ECB204608F075F945
:105198000546B0B99DF81C30012B1AD9022B2CD129
:1051A8009DF8243084F87C326661204608F036FB8E
:1051B80033E01E4A01211E4807F0A4FD6FF01505D3
:1051C8002BE01C4A01211A4807F09CFD6FF01505D9
:1051D8001AE00AAB93E803008DE8030007AB0ECB97
:1051E800204600F075F90028DAD0134A012110484A
:1051F80007F088FD6FF0150506E0104A01210C48FC
:1052080007F080FD6FF085051834D4E8EF3F23F0F0
:105218000103C4E8E23F002AF7D1284602B0BDE8FE
:10522800704004B070476FF01505F6E7F84D193473
:10523800484119341C4E1934504E1934E44D193470
:1052480070B54468B4F85030043B9BB2FC2B33D89B
:10525800054694F8523080F85E3094F8533080F860
:105268005F30B4F85020043A92B2A0F85C20B4F849
:105278005060023EB6B204F1540160300DF088FC73
:1052880006F150032344DA78264496F8523043EA6C
:105298000223A5F85C31B4F85030023B04F1520205
:1052A8004FF6FF714AF2010008F03EFBB5F85C3199
:1052B800834209D1002070BD074A0221074807F040
:1052C80021FD6FF07900F6E7054A0221034807F04F
:1052D80019FD6FF00400EEE7904E1934604119345F
:1052E800A44E193410B582B044680023009301938A
:1052F800CB680093037B012B14D003238DF8063071
:105308000A7C9AB1531EDBB2012B1DD88DF80420FC
:1053180001238DF805306946206808F02DF958B941
:1053280002B010BD02238DF80630E9E78DF804209D
:1053380003238DF80530EEE7054A0121054807F0FB
:10534800E1FC6FF01500EBE76FF01500E8E700BF30
:10535800D04E19346041193408B5406B18B1483043
:1053680004F03AFE08BD034A0121034807F0CAFCCD
:10537800F8E700BFEC4E193460411934F0B583B03A
:10538800054644680121183008F0E4F9002844D0A3
:10539800B4F85030B3F5807F43D004F11800626848
:1053A80063322CBF01250025C2F31303110D41EA16
:1053B800053119441E4BA3FB0163DB0803EB830390
:1053C80003EB8303CB1AD21A65F1000519491A4B6E
:1053D80002FB03F301FB0533A2FB01210B449208F6
:1053E80042EA83729B0800260027CDE9006705F092
:1053F8009BFD2068A168B4F85020C2F580728368CC
:105408009B6993B19847A3680344A360B4F85030EC
:105418000344A4F8503003B0F0BD284608F0F9F86A
:10542800F9E7284608F0CAF9F5E76FF05700EAE708
:105438001F85EB51295C8FC2F5285C8F38B529B1DF
:1054480004460D4608F0C2F830B938BD0F4A0121AC
:105458000F4807F057FCF8E7204608F0AEF8002898
:10546800F3D0A3685B6B13B12046984710B1284668
:10547800FFF784FFA3685B6A1BB1204698470028A2
:10548800E3D0284608F004F9DFE700BF0C4F1934D1
:105498006041193410B54468037B4BB1012B10D01F
:1054A800094A0121094807F02DFC6FF085000AE040
:1054B800FFF7C6FE0023A4F8503004F15203A3609E
:1054C80001E06FF0850010BD384F19346041193480
:1054D80084B0F0B583B000AF044607F1240080E83B
:1054E8000E00656897F82430012B00F2A48023731E
:1054F800286809F0C0FC60B307F124012046FFF7D3
:10550800F1FE002840F09A803B6B002B76D0B3F573
:10551800164F7BD84C4AB2FBF3F36B60204608F079
:1055280024F9002840F08D800023A5F8503005F1BB
:105538005203AB6022464549286808F00FF8064632
:10554800002867D030460C37BD46BDE8F04004B0AF
:1055580070472B6819686D4600233B7102237B71E5
:1055680088B06C4614F1100211D00E201AB104282C
:1055780001DD374B636100233B7002237B709AB1D6
:10558800082800DDA16104F11C0300210AE06FF086
:105598000040EBE701F108063E4416F8086C03F8F2
:1055A800016B01310129F5D90D2824DD0E2342B103
:1055B8000321397100217971B9710121F971786874
:1055C800206100216FF300016FF341016FF3820145
:1055D8006FF3C501012060F38811C3F30A0363F375
:1055E80053216FF31F5100231A48FDF771FCAD4694
:1055F8006FF01206A6E76FF01B03D8E7164A0121E1
:10560800144807F07FFB6FF015069BE740F2EA337A
:105618006B6083E70022114905F118000AF03DF894
:10562800EC64204608F01DF86B680D4A0321094810
:1056380007F072FB86E76FF0850683E76FF01506C3
:1056480080E76FF004067DE7A0764B0245541834D6
:10565800504F1934604119346C4F19346153183460
:105668007C4F193430B583B004460D4690F85F304E
:1056780000910A4A03210A4807F059FB204608F01E
:10568800BBF894F8653163F07F0384F8653184F8DA
:1056980066510123A4F8623103B030BDA04F19341C
:1056A800584119342DE9F04383B0B0F85C30042B2D
:1056B8002AD1054643691B687BB390F8603090F89F
:1056C800614044EA032490F8623090F8639049EA14
:1056D800032909F1FF339BB2B3F5FA6F22D2B9F16E
:1056E80001032AD4C3F3CF035A1C0233A5F862314D
:1056F80085F8662105F2671892B2002140460DF040
:10570800EFFA0026012727E0234A0121234807F062
:10571800F9FA002003B0BDE8F0830121FFF7A2FFEA
:105728000120F7E71E4A01211C4807F0EBFA032184
:105738002846FFF797FF0120ECE70733D2E7194A1D
:105748000321164807F0DEFA02212846FFF78AFFF0
:105758000120DFE77F00FFB24E451AD26B691B6854
:105768000DF10701204698470028E8D19DF8073039
:1057780023B198F800303B4388F800300134A4B2D4
:10578800731C9EB213F0070FE4D108F1010801273A
:10579800E2E70120BEE700BFB84F19345841193479
:1057A800D04F1934F04F19342DE9F04383B0B0F8D5
:1057B8005C30042B24D1054643699B684BB390F8B1
:1057C800603090F8614044EA032490F8623090F821
:1057D800637047EA03277B1E9BB2B3F5FA6F1DD2AD
:1057E8007B1E26D4C3F3CF035A1C90B20233A5F80C
:1057F800623185F8662105F26716334600221FE0FC
:105808002A4A01212A4807F07DFA002003B0BDE8A2
:10581800F0830121FFF726FF0120F7E7254A012140
:10582800234807F06FFA03212846FFF71BFF0120E2
:10583800ECE70733D6E7002103F8011B013292B2E7
:105848008242F8D34FF000084FF001090EE01A4ADF
:105858000321174807F056FA02212846FFF702FFEE
:105868000120D3E74FEA49095FFA89F9B8451BD205
:105878006B699B680DF10701204698470028E6D11F
:105888009DF807301BB1337849EA030333700134BC
:10589800A4B208F101031FFA83F813F0070FE1D14E
:1058A80001364FF00109E1E70120AFE7B84F19349D
:1058B800584119340C5019342C501934F0B585B0AE
:1058C800B0F85C30042B22D1064690F8603090F88E
:1058D800614044EA032490F8623090F8635045EA46
:1058E80003252BB26A1E92B27C2A18D85B00DBB261
:1058F80041F28732944225D842695269EAB15A1C6A
:10590800A6F8622186F8663106F267172FE0344A56
:105918000121344807F0F6F9002005B0F0BD7D23D9
:1059280000932B46304A01212E4807F000FA032144
:105938003046FFF797FE0120EFE70121FFF792FEBF
:105948000120EAE74269D2693AB113F0020FD6D0D2
:105958000121FFF787FE0120DFE70121FFF782FE23
:105968000120DAE70134A4B2013DADB253BB002DEA
:1059780033D041F287339C420ED873695B6903A91F
:105988002046984783B2002BECD1BDF80C20110AB1
:1059980039707A700237E5E77369DB6903A9204635
:1059A800984783B24BB9039A110C100E387079706E
:1059B800C2F30721B970FA7004370234A4B2023D69
:1059C800ADB2D3E7094A0321064807F09BF9022143
:1059D8003046FFF747FE01209FE701209DE700BF03
:1059E800B84F193458411934545019348050193467
:1059F800F0B585B0B0F85C30042B22D1064690F89B
:105A0800603090F8614044EA032490F8623090F8DE
:105A1800635045EA03252BB26A1E92B27C2A18D835
:105A28005B00DBB241F28732944225D84269D268E2
:105A3800EAB15A1CA6F8622186F8663106F26717A1
:105A48002FE0344A0121344807F05CF9002005B002
:105A5800F0BD7D2300932B46304A01212E4807F0E4
:105A680066F903213046FFF7FDFD0120EFE701212C
:105A7800FFF7F8FD0120EAE7426912693AB113F02D
:105A8800020FD6D00121FFF7EDFD0120DFE701214C
:105A9800FFF7E8FD0120DAE70134A4B2013DADB219
:105AA80053BB002D33D041F287339C420ED8736923
:105AB800DB6803A92046984703460028ECD1BDF8C7
:105AC8000C20110A39707A700237E5E773691B698F
:105AD80003A920469847034648B9039A110C100EAB
:105AE80038707970C2F30721B970FA70043702343C
:105AF800A4B2023DADB2D3E7094A0321064807F034
:105B080001F902213046FFF7ADFD01209FE7012092
:105B18009DE700BFB84F193458411934545019340F
:105B2800A85019342DE9F041B0F85C30042B29D184
:105B3800044643695A6862B390F8603090F861008F
:105B480040EA032007B2054694F8621094F86330DF
:105B580043EA01230FFA83F81E46FBB900212846C1
:105B68009047E8B90423A4F86231280A84F866014A
:105B780084F86771360A84F8686184F869810120BD
:105B8800BDE8F0810C4A01210C4807F0C5F8002057
:105B9800F6E70121FFF766FD0120F1E70121DEE7C5
:105BA800074A0321054807F0ADF802212046FFF710
:105BB80059FD0120E4E700BFD05019345841193489
:105BC800F04F19342DE9F041B0F85C30042B26D1A0
:105BD800044643699B694BB390F8602090F86100D4
:105BE80040EA022007B2064694F8622094F863104F
:105BF80041EA02210FFA81F80D469847D8B90423E3
:105C0800A4F86231300A84F8660184F86771290AB9
:105C180084F8681184F869810120BDE8F0810B4A95
:105C280001210B4807F078F80020F6E70121FFF77B
:105C380019FD0120F1E7074A0321054807F062F83A
:105C480002212046FFF70EFD0120E6E7D050193467
:105C580058411934E85019342DE9F84FB0F85C3040
:105C6800052B2FD904464269526892B390F86020F8
:105C780090F8617047EA02270FFA87FB90F86220D4
:105C880090F8636046EA02260FFA86FA90F86410E4
:105C9800721E92B2B2F5FA6F20D2721E29D4D210B7
:105CA80001328A4202D105318B424CD0304A01215F
:105CB800304807F027F803212046FFF7D3FC0120DE
:105CC800BDE8F88F2C4A01212A4807F025F8002062
:105CD800F6E70121FFF7C6FC0120F1E7274A012179
:105CE800244807F00FF803212046FFF7BBFC0120EA
:105CF800E6E70732D3E718F0010F17D001216369EF
:105D08005B68E81980B2984790B94FEA580801359E
:105D1800ADB2B5421CD215F0070FECD109F1010361
:105D2800A14499F860805FFA83F9E4E70021E6E787
:105D3800134A03210F4806F0E5FF02212046FFF72A
:105D480091FC0120BCE74FF005090025A846E0E7D3
:105D58000423A4F862313F0A84F8667184F867B1B5
:105D6800360A84F8686184F869A10120A8E700BFB1
:105D78000851193458411934D0501934D04F1934B6
:105D8800F04F19342DE9F047B0F85C30052B29D9CC
:105D9800054690F8602090F8617047EA02270FFAEC
:105DA80087FA90F8622090F8638048EA02280FFA90
:105DB80088F990F8641008F1FF3292B27C2A19D859
:105DC80041F28732974225D842699269EAB1053B88
:105DD8008B422FD1B1FBF8F1022936D105F16506C6
:105DE80000244EE03E4A01213E4806F095FF00207F
:105DF800BDE8F0873C4A01213A4806F083FF0321B9
:105E08002846FFF72FFC0120F2E70121FFF72AFCC3
:105E18000120EDE74269126A3AB111F0030FD6D0BA
:105E28000121FFF71FFC0120E2E70121FFF71AFC1F
:105E38000120DDE72D4A01212A4806F063FF0321EE
:105E48002846FFF70FFC0120D2E7294A01212548FF
:105E580006F058FF03212846FFF704FC0120C7E796
:105E68003378717841EA0321B278F37843EA022360
:105E780004366A69126A43EA014190470234A4B2BF
:105E880090B944451BD2E01980B241F287339F4252
:105E9800E6D83178727802366B699B6942EA01214B
:105EA80098470134A4B2EBE7124A03210D4806F0E3
:105EB80029FF02212846FFF7D5FB012098E7042394
:105EC800A5F862313F0A85F8667185F867A14FEA3F
:105ED800182885F8688185F86991012088E700BF4E
:105EE800D050193458411934285119344C511934A7
:105EF8006C511934E850193470B582B005460B4618
:105F0800D0F8744214B3227B9A4203D0002CF9D003
:105F18002468F7E72846FFF7F9F8002363736668F3
:105F2800A368009304F10D0305F5AF7205F158015C
:105F3800B0470646637B9BB10B4A03210B4806F02A
:105F4800EBFE617B2846FFF78DFB09E0084A01213B
:105F5800064806F0E1FE01212846FFF783FB0126EB
:105F6800304602B070BD00BF905119345841193401
:105F7800B4511934F8B5B0F85C30042B1AD1044682
:105F880090F8602090F8613043EA02231FB21D4662
:105F980090F8623090F8636046EA03260F2F30D8F5
:105FA800DFE807F0112F2F2F2F2F2F2F2F2F0F2044
:105FB8002326292C184A0121184806F0ADFE002096
:105FC8000FE007F02BFC0423A4F862312B0A84F8B5
:105FD800663184F86771330A84F8683184F8696136
:105FE8000120F8BDB0F86862EDE7B0F86A62EAE748
:105FF800B0F86C62E7E7B0F86E62E4E7B0F8706298
:10600800E1E7074A0321054806F07CFE0121204606
:10601800FFF728FB0120E4E7D05019345841193420
:10602800DC51193410B401F00302084C183254F84A
:106038002230090C4FF0FF0C0CFA01FC23EA0C0388
:106048008840034344F8223010BC70470050025681
:10605800002399420ADD10B400EB030C044C24F829
:106068001C2001339942F7DC10BC7047704700BF11
:10607800FC8D1934F8B50746002401E00134E4B278
:106088007B78A34217D93D786619304600F0DEF8D0
:106098000028F3D0304600F023F9074B53F8362098
:1060A800002AEBD006F01F0503EBC6035968012050
:1060B800A8409047E2E7F8BD1099193408B503469F
:1060C80080B1B0FA80F2C2F11F02D2B2064931F9AA
:1060D8001200064AD2F880100B43C2F8803006F04E
:1060E8008DFF08BDFF22F1E7FC8D193400500256E0
:1060F800034AD2F8803023EA0003C2F880307047A0
:1061080000500256032926D8DFE801F0020C151EBC
:10611800114B1A6822EA00021A605A6822EA000241
:106128005A6070470C4B1A6802431A605A6822EA90
:1061380000025A607047084B5A6802435A601A684E
:1061480022EA00021A607047034B1A6802431A6079
:106158005A681043586070470050025610B498B1FE
:10616800B0FA80F3C3F11F03DBB29C460D4850F828
:10617800330088420AD088B90A4B43F83C1003EB35
:10618800CC035A6010BC7047FF23EEE7054C04EBC4
:10619800C3035B689342EED10020F3E76FF00F0072
