:020000043418AE
:1004000060101934D5211834736C1834C121183494
:10041000C1211834C1211834C1211834C121183424
:100420000000000000000000000000004523183418
:10043000C121183400000000E5221834653A183450
:10044000AD241834AD241834AD241834AD24183438
:10045000AD241834AD241834AD241834AD24183428
:10046000AD241834AD241834AD241834AD24183418
:10047000AD241834AD241834AD241834AD24183408
:1007480080F0004002E000BF81F0004142001FBF7E
:100758005FEA410392EA030F7FEA226C7FEA236C87
:100768006AD04FEA1262D2EB1363C1BFD21841407C
:1007780048404140B8BF5B42192B88BF704710F012
:10078800004F40F4000020F07F4018BF404211F0B5
:10079800004F41F4000121F07F4118BF494292EA1D
:1007A800030F3FD0A2F1010241FA03FC10EB0C0049
:1007B800C3F1200301FA03F100F0004302D54942D6
:1007C80060EB4000B0F5000F13D3B0F1807F06D383
:1007D80040084FEA310102F10102FE2A51D2B1F17B
:1007E800004F40EBC25008BF20F0010040EA030070
:1007F8007047490040EB0000013A28BFB0F5000FF0
:10080800EDD2B0FA80FCACF1080CB2EB0C0200FAA5
:100818000CF0AABF00EBC25052421843BCBFD040F4
:100828001843704792F0000F81F4000106BF80F46E
:1008380000000132013BB5E74FEA41037FEA226C31
:1008480018BF7FEA236C21D092EA030F04D092F0FC
:10085800000F08BF0846704790EA010F1CBF002030
:10086800704712F07F4F04D1400028BF40F000408D
:10087800704712F100723CBF00F50000704700F0AD
:10088800004343F0FE4040F4000070477FEA2262D4
:1008980016BF08467FEA23630146420206BF5FEAA5
:1008A800412390EA010F40F4800070474FF00003A5
:1008B80004E000BF10F0004348BF40425FEA000C6C
:1008C80008BF704743F0964301464FF000001CE014
:1008D80050EA010208BF70474FF000030AE000BF6A
:1008E80050EA010208BF704711F0004302D54042A8
:1008F80061EB41015FEA010C02BF8446014600201A
:1009080043F0B64308BFA3F18053A3F50003BCFA34
:100918008CF2083AA3EBC25310DB01FA02FC6344E1
:1009280000FA02FCC2F12002BCF1004F20FA02F2E8
:1009380043EB020008BF20F00100704702F12002DB
:1009480001FA02FCC2F1200250EA4C0021FA02F23C
:1009580043EB020008BF20EADC7070474FF0FF0C41
:100968001CEAD0521EBF1CEAD15392EA0C0F93EA3C
:100978000C0F6FD01A4480EA010C400218BF5FEADE
:1009880041211ED04FF0006343EA501043EA511151
:10099800A0FB01310CF00040B1F5000F3EBF49004B
:1009A80041EAD3715B0040EA010062F17F02FD2A4F
:1009B8001DD8B3F1004F40EBC25008BF20F0010032
:1009C800704790F0000F0CF0004C08BF49024CEA49
:1009D800502040EA51207F3AC2BFD2F1FF0340EADB
:1009E800C250704740F400004FF00003013A5DDC4C
:1009F80012F1190FDCBF00F000407047C2F100028D
:100A0800410021FA02F1C2F1200200FA02FC5FEA79
:100A1800310040F1000053EA4C0308BF20EADC70C3
:100A2800704792F0000F00F0004C02BF400010F435
:100A3800000F013AF9D040EA0C0093F0000F01F0E2
:100A4800004C02BF490011F4000F013BF9D041EA04
:100A58000C018FE70CEAD15392EA0C0F18BF93EA06
:100A68000C0F0AD030F0004C18BF31F0004CD8D130
:100A780080EA010000F00040704790F0000F17BFB7
:100A880090F0004F084691F0000F91F0004F14D0FD
:100A980092EA0C0F01D142020FD193EA0C0F03D155
:100AA8004B0218BF084608D180EA010000F0004058
:100AB80040F0FE4040F40000704740F0FE4040F433
:100AC800400070474FF0FF0C1CEAD0521EBF1CEAD2
:100AD800D15392EA0C0F93EA0C0F69D0A2EB0302F0
:100AE80080EA010C49024FEA402037D04FF080538A
:100AF80043EA111143EA10130CF000408B4238BF4F
:100B08005B0042F17D024FF4000C8B4224BF5B1A5C
:100B180040EA0C00B3EB510F24BFA3EB510340EAAA
:100B28005C00B3EB910F24BFA3EB910340EA9C0058
:100B3800B3EBD10F24BFA3EBD10340EADC001B01C8
:100B480018BF5FEA1C1CE0D1FD2A3FF650AF8B426C
:100B580040EBC25008BF20F0010070470CF0004C79
:100B68004CEA50207F32C2BFD2F1FF0340EAC250A4
:100B7800704740F400004FF00003013A37E792F065
:100B8800000F00F0004C02BF400010F4000F013AC3
:100B9800F9D040EA0C0093F0000F01F0004C02BFBE
:100BA800490011F4000F013BF9D041EA0C0195E727
:100BB8000CEAD15392EA0C0F08D142027FF47DAFC0
:100BC80093EA0C0F7FF470AF084676E793EA0C0FB0
:100BD80004D14B023FF44CAF08466EE730F0004CAE
:100BE80018BF31F0004CCAD130F000427FF45CAF3E
:100BF80031F000437FF43CAF5FE700BF42000ED204
:100C0800B2F1FE4F0BD34FF09E03B3EB126209D43F
:100C18004FEA002343F0004323FA02F070474FF0F5
:100C28000000704712F1610F01D1420202D14FF06A
:100C3800FF3070474FF00000704700BF03685A004C
:100C48004CBF43F0004323F00043184470472DE99C
:100C5800F0470646174641B301394FF00009884668
:100C680009EB080404EBD474641006EBC4054FEADE
:100C7800C40A2846FFF7E2FFA14204D1B84204D8CB
:100C88002846BDE8F087B84204D9A1450DD004F143
:100C9800FF38E5E70AF108003044FFF7CFFF0138D5
:100CA800B842EDD204F10109DAE70025E8E70128A6
:100CB80006D0022806D00028034818BF0020704735
:100CC8000248704702487047D1121834D5121834B8
:100CD800D91218341F4B37B504468D1E4BB101A9E4
:100CE8002846AFF3008048B900230920236103B0E8
:100CF80030BD1948194B1B1ADB10019301992A467C
:100D0800FFF7A5FF01460028EED0FFF797FF4B68D5
:100D1800A064012B1AD0002B01F1040010DBFFF7AF
:100D28008DFF0023C4E913030368002B0ADAC3F319
:100D38000360FFF7BCFF03460028D5D00020D5E7A5
:100D48000123EFE7FFF77AFF0346F7E700230520C3
:100D5800CCE700BF00000000E0B11834A8B2183496
:100D68000368DA0710B5044605D49B0700F148006C
:100D780018D500F0F7FB2368590703D404F1D00015
:100D880000F0F8FB23681A0703D404F5A87000F0F4
:100D9800F9FB2368DB0608D404F5E870BDE81040C9
:100DA80000F034BC00F0D6FBE5E710BD0920704721
:100DB8000346006800B118447047704770B505468F
:100DC8000C46216C2846FFF785FF064608B101F05E
:100DD80055FD236C2246294601206B612B699847F3
:100DE8000828EED00728F2D13046216CFFF7E5FF3E
:100DF800201D00F0A3FB2DE9F0470C1DADF5727D19
:100E0800D0F80C900746D0F818A0164603AD0DF19F
:100E180008080FCC0FC50FCC0FC50FCC0FC594E831
:100E28000F0085E80F000025C8F800500936D8F8EB
:100E380040103846FFF74EFF0446F6B268BBD8F8B4
:100E480040304FF4F07241467AA87B6109F025FDE5
:100E58003B697AAA394630469847889B0546C8F8C0
:100E680044303A463B4631460120CDE9008AC8471E
:100E7800C0B9C4B94FF4F0727AA94046264609F0C1
:100E88000CFD082DD2D0072D0CD12046D8F84010E3
:100E9800FFF793FF03A800F051FB46F01006D8F8BF
:100EA8003830DCE7092420460DF5727DBDE8F0876F
:100EB800406C7047F0B5CB6BF9B00D1D06460B645E
:100EC8000F4601AC0FCD0FC40FCD0FC40FCD0FC40B
:100ED80095E80F0084E80F004FF0FF330093109956
:100EE8003046FFF7F7FE78B933696A4631469847C6
:100EF80008280446F3D06846FFF732FF062C03D1D2
:100F080039463046FFF75AFF092079B0F0BD10B4D2
:100F18008261DA6BC16019461A64002210BC6AE764
:100F280070B543690446C6680D460B6426B10122B4
:100F3800FFF761FF01F0A2FC03690A46014602209F
:100F48009847072805D00828F4D129462046FFF7F6
:100F580035FF3046296CFFF730FF281D00F0EEFA08
:100F6800C26802B9A6E7CA6B0A64002243E7704761
:100F7800836801460BB1012018477047012910B555
:100F88000446084605D005D9C81E01288CBF022092
:100F9800012010BD43B90F2A06D804EB8204029A37
:100FA800184661681160F4E70220F2E71FB503AB49
:100FB8000A46009300231946FFF7E0FF039805B09F
:100FC8005DF804FB012910B50446084605D005D98B
:100FD800C81E01288CBF0220012010BD43B90F2A6A
:100FE80006D8029904EB8204184609686160F4E7A0
:100FF8000220F2E71FB503AB03920A4600930023D1
:101008001946FFF7DFFF05B05DF804FBF0B5D36BB9
:10101800ADF50F7D141D064613640F4617AD0FCCB2
:101028000FC50FCC0FC50FCC0FC594E80F0085E88E
:101038000F004FF0FF33169326996846FFF74AFED4
:1010480090B90C2116A86A46FFF7D4FF394616A8AE
:10105800B04748B9049B16AA69460820984705284E
:10106800044602D00928E7D1092416A8FFF778FE1C
:1010780020460DF50F7DF0BD2DE9F04FCD6C87B002
:1010880017460C4655F8042B00F003099A460495B8
:101098003BBB12028DF8153003230392B9F1020FFE
:1010A8008DF81430236D08BFA56B13F0010322D10E
:1010B80000F0080800932B6843BB03A9384600F0EA
:1010C80038FB002840F0FB80009BDBB10F2138463D
:1010D800FFF76CFF0E2102463846FFF78BFF794A6F
:1010E80055E0130C12048DF81530DBB2039205EBB2
:1010F80083050223D2E703A9384600F01AFB00282B
:1011080040F0DD80082007B0BDE8F08FBAF1020F8B
:10111800A26C4FF00F01384607BFD5F804B005F1AF
:101128000806B5F802B02E1D18BF2B882BF0010554
:1011380001931544FFF73AFF019B854229D823F014
:1011480001022A44824294BF002201224FEA4B0046
:1011580003F0010300F0020040EA0305012D1AD054
:10116800022D5ED0002D40F0AA80351DB9F1000F88
:10117800A1D0002A9FD03046FFF760FDA563064640
:101188002046AFF30080002800F0998032460F21F6
:101198003FE00022DAE7B9F1000F26D1002A3DD05E
:1011A80073683268991C4FEAD27200F0888004F1A3
:1011B80058010133029109D0301DFFF7F9FD02AB48
:1011C80001462046AFF30080054638B30D21384666
:1011D800FFF7ECFE022D029B206202D1E36204F1CC
:1011E8002C030620C4E909368DE7256A0D21384607
:1011F800FFF7DCFE854211D1A36A9E420ED130462C
:10120800FFF71CFD0F2102463846FFF7F3FE224682
:1012180000213846FFF7EEFE072074E706F10805BF
:1012280049E7356825F00045B9F1000F2AD1A2B188
:10123800B8F1000F19D085B9CB4617E00BF1010BB7
:10124800019B002206EB8B000293FFF7B1FD02AB76
:1012580001462046AFF3008058B13368002B00DA0E
:101268000436013506EB850525E7C34604F1580326
:101278000193AB45E2D10D213846FFF797FE029B5B
:101288002062AEE7D4F820B00D213846FFF78EFE75
:101298008345E2D1A36A9E42DFD14FF0000B0423BD
:1012A800A562C4E90BB3F318636333685B4503DADB
:1012B800681C06EB8000A3E701230093D1E709200F
:1012C80021E700BF000000000023D5E60123D3E694
:1012D8000223D1E62DE9F0410546C2B014461E4668
:1012E800042925D8DFE811F005001C002400D600E9
:1012F8000301EEB9836B92B20121043001FA06F7BB
:1013080017421CBF53F8047B40F826700136102E94
:10131800F4D1A60400D4AB63002042B0BDE8F0814C
:10132800012E4FEA124794B204D13B19102B41D930
:101338000220F2E7052EFBD107EB0408B8F1200FD5
:10134800F6D80F2F4DD9002CE6D00368A0465807D1
:1013580008D523F00403284640F8D03B00F00EF9E6
:101368000F2F48D9684600F009F9AB6B102F3A46A1
:1013780042A94FEA480838BF10221C4608F1FF3836
:1013880001EBC2024FEA8801A2F5C472101F02EBFA
:10139800880254F804CB40F804CF8242F9D10A1DE0
:1013A800012E134417D00F2FAB636FD9684600F096
:1013B800E1F8B1E7102FBBD00368DA0705D523F0B1
:1013C800030340F8483B00F0C9F820A800F0C6F82D
:1013D800AB6B002C3FD1043320A8AB6300F0BAF804
:1013E8009AE7B8F1100F03682DD9DC07A8F11008A7
:1013F80042D45807ADD420A8C7F1100400F0B6F8BD
:10140800684600F0BBF820AA6400AB6B02EBC70289
:10141800013C101FA10002EB84021C4654F804CBC7
:1014280040F804CF9042F9D10A1D1344B8F1000FD7
:101438009CD1012ECFD00F2FAB633FF66DAF20A804
:1014480000F090F868E7D9070DD420A800F08EF8CE
:10145800AB6B002CF3D0640020AA4FF0000802EB1D
:10146800C702013CD5E723F0010343F0020340F82B
:10147800483B00F07BF8E8E723F0010343F0020360
:1014880040F8483B00F072F82B68B2E720A800F05B
:1014980069F88BE7032E7FF44BAF97B2160C07EB76
:1014A8001244102C3FF644AF0368190706D523F001
:1014B8000803036000F5A87000F086F820A800F083
:1014C80083F820ABAA6BF90003EBC60303EBC7074D
:1014D800D41ABB4203EB040005D10A4420A8AA632E
:1014E80000F050F818E7006843F8040BF1E7002E05
:1014F8007FF41EAF102A3FF61BAF0368DA0606D545
:1015080023F01003036000F5E87000F089F820AEBE
:10151800304600F085F8AB6B0022012101FA02F099
:1015280020421CBF53F8040B46F822000132042A5B
:10153800F4D13046AB6300F069F8EDE600F1340110
:1015480091E838009C46A6464CF8045D90E8FF0FE9
:10155800E54600BD90EC210B704700BF80EC210BE5
:10156800704700BF90EC200B704700BF80EC200B49
:10157800704700BFD0EC200B704700BFC0EC200BB9
:10158800704700BFF0EC0201F0EC0211F0EC022110
:10159800F0EC0231F0EC0241F0EC0251F0EC0261A7
:1015A800F0EC0271F0EC0281F0EC0291F0EC02A197
:1015B800F0EC02B1F0EC02C1F0EC02D1F0EC02E187
:1015C800F0EC02F1704700BFE0EC0201E0EC021120
:1015D800E0EC0221E0EC0231E0EC0241E0EC0251E7
:1015E800E0EC0261E0EC0271E0EC0281E0EC0291D7
:1015F800E0EC02A1E0EC02B1E0EC02C1E0EC02D1C7
:10160800E0EC02E1E0EC02F1704700BFB0FC0181C0
:10161800B0FC0191B0FC01A1B0FC01B1704700BF62
:10162800A0FC0181A0FC0191A0FC01A1A0FC01B1DA
:10163800704700BFEC4600B52DE900502DE9FF1FAB
:101648004FF000032DE90C0001A9FFF733FCDDF88A
:1016580040E012B0704700BFEC4600B52DE90050DD
:101668002DE9FF1F4FF000032DE90C0001A9FFF73A
:1016780057FCDDF840E012B0704700BFEC4600B5FB
:101688002DE900502DE9FF1F4FF000032DE90C0054
:1016980001A9FFF765FCDDF840E012B0704700BF14
:1016A800EC4600B52DE900502DE9FF1F4FF000036F
:1016B8002DE90C0001ABFFF72AFCDDF840E012B081
:1016C800704700BFEC4600B52DE900502DE9FF1F1B
:1016D8004FF000032DE90C0001AAFFF797FCDDF895
:1016E80040E012B0704700BF027A03467AB9427AE6
:1016F80082B1013A42724268111D126802600322E7
:1017080041601A721A68100E12021A607047013A84
:10171800D2B2F6E7B02070471FB503AB0C22009396
:1017280000231946FFF72AFC039805B05DF804FB6F
:10173800F2E72DE9F043054685B00E464FF0000864
:101748003046FFF7D1FFB028044615D1B8F1000F95
:101758000ED103AC43460E22414628460094FFF7BB
:101768000DFC43460F22414628460094FFF72AFC09
:10177800002005B0BDE8F08302061DD44FEA8009B9
:10178800002303AF0D225FFA89F91946284600970E
:10179800FFF7F4FB09F10409039B14F0400F14BF91
:1017A800A3EB09034B440393002300970D2219462A
:1017B8002846FFF707FCC3E700F0F003802B18D199
:1017C80004023046FFF790FF0443B4F5004F01D1FF
:1017D8000920CEE7240100232846A2B21946FFF7C4
:1017E80079FD0028F4D114F4004F18BF4FF0010818
:1017F800A6E7902B0DD100F00D030D2BE8D003AF19
:10180800002300F00F02284619460097FFF7B6FBA1
:10181800CAE7A02B13D1C3434FF47F6203F0070339
:101828001A41030702F47F6201D542F48042002383
:1018380019462846FFF74EFD002881D0C8E7B02B8F
:1018480046D1B12808D13046FFF74EFF431E024665
:10185800DBB20E2BEBD9BBE7B22820D1002303ACB7
:101868000D222846194600940227FFF787FB3046C9
:10187800FFF73AFF00F07F0110F08003039A01FAA6
:1018880007F105D102F5017200940A4403928DE72D
:101898000A44304607370392FFF726FFEAE7B328E2
:1018A8000BD13046FFF720FF0123020300F00F00A1
:1018B80002F4702201300243BAE700F0FC03B42BB3
:1018C80086D000F007020123013242F40022AFE77C
:1018D800C02B44D1C6280AD13046FFF705FF0323A1
:1018E800020300F00F0002F470220130E3E7C7287A
:1018F8000BD13046FFF7F8FE431E0246DBB20E2B33
:101908003FF666AF0023042193E700F0F803C02BED
:1019180006D100F00F020323013242F4202287E7A8
:10192800C8280DD13046FFF7DFFE00F0F00200F0C6
:101938000F0005231032013040EA0232012178E716
:10194800C9287FF445AF3046FFF7CEFE05230203D2
:1019580000F00F0002F4702201300243EEE700F0BD
:10196800F803D02B7FF434AF00F0070205230132CF
:1019780042F40022E2E71FB503460846DA6C5368D2
:101988000832190202921B0E0322019101A98DF857
:101998000C208DF80D30FFF7CCFE05B05DF804FB88
:1019A80008B5FFF7C5FE806C08BD08B5FFF7C0FE97
:1019B800C06CC379023300EB830008BD38B5836877
:1019C80005699C697CB112F4000F06D02D680123CB
:1019D8008B401D4201D082F0C062044B134002F0DC
:1019E8001662A04738BD6FF05700FBE740000006BD
:1019F80008B5024B1B68984708BD00BF60DF183464
:101A0800014B1860704700BF60DF183400B585B01F
:101A18000A460023009301930293039302238DF84F
:101A28000230044B01930146684604F065FA05B09C
:101A38005DF804FBF919183470B506460D46002404
:101A480004E0044B1B68305D98470134AC42F8D37E
:101A580070BD00BF60DF183480B505460E461746D6
:101A6800984603F075FB034609F0A4FB0446DFF82B
:101A7800189049F80030424639463046A84754F88D
:101A8800090000F011FC00BF08000000034A536879
:101A980043F0020353600020704700BF0010005459
:101AA80082B0154B154A1A60154B4FF48022C3F8C3
:101AB8005C2AD3F85C320193019B124B1A6A42F0FC
:101AC80001021A62DA6B42F48072DA63DA6B42F46A
:101AD8000072DA635A6B42F480725A639A6B42F46A
:101AE80080729A63DA6B42F00072DA63DA6B42F062
:101AF8008062DA6302B07047CCDF18340090D003FC
:101B08000080025600480256014B036000207047CF
:101B18004CBC183408B50348034A121A002105F0D2
:101B28009AF808BD28E018341CF7183410B5044694
:101B3800836842680168094805F07AF86369226990
:101B4800E168074805F074F8E169064805F070F89F
:101B5800A169054805F06CF810BD00BF4CBC1834ED
:101B68007CBC1834ACBC1834BCBC183438B504463A
:101B78000D4611B10846FFF7D9FF012C04D02946BC
:101B8800204602F09FFB38BDEFF30581103902486B
:101B980005F04EF8F3E700BFECBC183430BFFFF790
:101BA800FDBF00BF38B50446054D2A46054908F073
:101BB80074FE054A0021601908F017FF38BD00BF00
:101BC800000000004CBC18340800000070B5064640
:101BD800054D064B1D444C1B2046FFF7E3FF083C10
:101BE800346705F1080070BD00000000080000001F
:101BF800054B5A699B689A4204D0044A536843F0DB
:101C080080535360704700BF6CE4183400ED00E067
:101C180081690D4B5A6942F480725A61BFF34F8F44
:101C2800BFF36F8F31F8021C5A6922F480725A612F
:101C3800BFF34F8FBFF36F8F4DF60273994201D0F8
:101C4800002070470120704700ED00E008B50168EA
:101C5800044B0B44012B03D9034804F0E9FF08BDEA
:101C6800016CF9E7A6ED050100BD1834F8B5054685
:101C78000F461446324804F0DBFF324B9B6A13F0E0
:101C8800100F31D110262F4B9B6A13F0080F30D15B
:101C98002C4B9B6A13F0020F30D12A4B9B6A13F02E
:101CA800010F43D1274B9B6A13F0200F43D1254BDB
:101CB8009B6A13F0100F01D1224B9B6A214B9B6A40
:101CC80013F0200F04D01F4A536A23F400535362C1
:101CD8001C4A936A43F0FF0393620121284604F0EB
:101CE800CAFF20703046F8BD174804F0A1FF11263E
:101CF800C9E7164804F09CFF1226C9E7144804F007
:101D080097FF104B596B9B6A13F0800F01D1132674
:101D1800C3E7104804F08CFF37B10A4A936A23F0EE
:101D2800800393621326B8E71326B6E70A4804F03F
:101D38007FFF1426B6E7094804F07AFF1526B6E7B0
:101D480020BD183400ED00E038BD18346CBD1834DF
:101D580080BD18349CBD1834B4BD1834D4BD1834B3
:101D6800F8B505460F4614462F4804F061FF2F4B7F
:101D78009B6A13F4805F25D116262C4B9B6A13F4BB
:101D8800006F24D1294B9B6A13F4007F24D1274B81
:101D98009B6A13F4806F37D1244B9B6A13F4807FBE
:101DA80037D1224B9B6A13F4005F37D11F4A936ADD
:101DB80043F47F4393620121284604F05CFF2070BE
:101DC8003046F8BD1A4804F033FF1726D5E71948FE
:101DD80004F02EFF1826D5E7174804F029FF134B07
:101DE800996B9B6A13F4004F01D11926CFE713486A
:101DF80004F01EFF37B10D4A936A23F4004393623F
:101E08001926C4E71926C2E70D4804F011FF1A265F
:101E1800C2E70C4804F00CFF1B26C7E70A4804F089
:101E280007FF1C26C2E700BF04BE183400ED00E01F
:101E38001CBE18346CBD183430BE18344CBE18346F
:101E480064BE183480BE1834D4BD183408B5294887
:101E580004F0EEFE284B9B6A13F0007F26D11D206C
:101E6800254B9B6A13F0807F25D1234B9B6A13F483
:101E7800801F25D1204B9B6A13F4002F25D11E4BC0
:101E88009B6A13F4802F25D11B4B9B6A13F4003FE8
:101E980025D1194B9B6A13F4803F25D1164A936AC2
:101EA8006FEA03436FEA1343936208BD134804F0D3
:101EB800BFFE1E20D4E7124804F0BAFE1F20D4E764
:101EC800104804F0B5FE0220D4E70F4804F0B0FE35
:101ED8002120D4E70D4804F0ABFE2220D4E70C48BB
:101EE80004F0A6FE2320D4E70A4804F0A1FE24202B
:101EF800D4E700BF9CBE183400ED00E0B8BE18342B
:101F0800CCBE1834E8BE183414BF183434BF1834A3
:101F18005CBF183478BF183408B5324804F088FE1E
:101F2800314BD3F8E810D3F8E43013F0400F2BD13D
:101F38002D4BD3F8E43013F0010F29D12A4BD3F8F5
:101F4800E43013F0020F2FD1274BD3F8E43013F00D
:101F5800040F2ED1244BD3F8E43013F0080F2DD101
:101F6800214BD3F8E43013F0100F2CD11E4BD3F8CB
:101F7800E43013F0200F2BD11B4BD3F8E43013F0CF
:101F8800800F2AD1252007E0184804F051FECFE73A
:101F9800174804F04DFE2620134AD2F8E43043F0E7
:101FA800FF03C2F8E43008BD124804F041FE2720C0
:101FB800F2E7114804F03CFE2820EDE70F4804F052
:101FC80037FE2920E8E70E4804F032FE2A20E3E72E
:101FD8000C4804F02DFE2B20DEE70B4804F028FE09
:101FE8002C20D9E7A4BF183400ED00E0C0BF183496
:101FF800D4BF1834ECBF18340CC0183428C01834B7
:1020080048C0183460C018347CC0183470B506460F
:102018000D462B4804F00CFE00232B70294BDC6A7C
:1020280014F002040AD1274BDB6A002B0BDB254B8B
:10203800DC6A14F080440AD1204670BD224804F0BE
:10204800F7FD0024F8E7214804F0F2FDF4E7204802
:1020580004F0EEFD3046FFF7DBFDC0B9194B9B6A73
:1020680013F0FF0F19D1174B9B6A13F47F4F1BD145
:10207800144B9B6AB3F5803F1DD2124BD3F8E44052
:10208800002CD9D03046FFF747FF0446D4E7316823
:10209800104804F0CDFD3468CEE72A4601213046C9
:1020A800FFF7E4FD0446C7E72A4601213046FFF75B
:1020B80057FE0446C0E73046FFF7C8FE0446BBE7B4
:1020C80090C0183400ED00E0A8C01834CCC0183413
:1020D800DCC01834FCC0183408B500230B70024863
:1020E80004F0A6FD08BD00BF1CC1183408B50A4697
:1020F8000F2905DC0349103A034804F099FD08BD8F
:102108000249F8E744C1183478C118345CC118345E
:1021180030B58BB01F4B5D68C5F30805002383F30A
:102128001188BFF36F8F0DF1260304F0A6FD044656
:102138000DF12702294604F0D6FD9DF827300BB192
:102148000BB030BD05460DF1040C20686168A2682B
:10215800E368ACE80F0020696169A269E369ACE84B
:102168000F009DF826304BB1089BC3F308025AB9FB
:102178006FEA53236FEA4323089305E0089B23F48F
:10218800FF7323F00103089301A92846FFF7EEFC2B
:10219800D6E700BF00ED00E0064B5A6942F0100296
:1021A8005A615A6942F480625A615A6922F00802F7
:1021B8005A61704700ED00E0EFF30880EFF3098102
:1021C80001B57246FFF7A4FF01BD00BF002080F3F0
:1021D8001488BFF36F8F002080F30A8880F30B8880
:1021E8000F4880F3088804F032FD00200D4908608C
:1021F800BFF34F8F00F02EF8102080F311880A48A3
:102208004FF40061401880F30988EFF3148002212D
:10221800084380F31488BFF36F8F00F0D1F80000F3
:102228006010193494ED00E020F71834084BD3F807
:102238009000C0F30720002306E0054AC2F8983052
:102248000021C2F8A01001338342F6DB704700BFBB
:1022580000ED00E010B572B6002484F31388FFF790
:10226800E5FF234608E003F120010E4A4FF0FF3056
:1022780042F821000133DBB20F2BF4D9002308E028
:1022880003F16001074A4FF0FF3042F821000133A3
:10229800DBB20F2BF4D962B6BFF34F8FBFF36F8F4A
:1022A80010BD00BF00E100E008B50A4B9B688342FF
:1022B80002D002F053FF08BDEFF30583002BF8D0DE
:1022C800054B5A6842F080525A605A6A22F400421A
:1022D8005A62EEE76CE4183400ED00E014498A68AD
:1022E8004FF030001044EFF3098C80E8F01F102005
:1022F80080F31288BFF36F8F0E4F4FF000664A6964
:102308008A603E60106F0C4C2060506F002353674A
:1023180080F3118802F1300090E8F01F8CF30988EF
:1023280002F1000004B504F017FDBDE80440704751
:102338006CE4183404ED00E0C8E218341EF0040F11
:102348000CBFEFF30880EFF30980816911F8021CD4
:102358000229FFD001B5724604F081FC01BD00BF1F
:10236800002807DB00F01F02400901239340024ABE
:1023780042F82030704700BF00E100E0002808DB89
:102388000901C9B200F1604000F5614080F800130E
:10239800704700F00F000901C9B2014B195470478A
:1023A80014ED00E0044B23F07F03044A9360BFF36D
:1023B8004F8FBFF36F8F70470004183400ED00E0B3
:1023C80008B5FFF7EFFF064AD2F8883023F4700308
:1023D800C2F88830FFF79EFB00F04AF802F088F850
:1023E80000ED00E010B4A2F120040D4942F8081CE9
:1023F80021F0010142F8081C42F8203C019B42F8F8
:102408001C3C029B42F8183C039B42F8143C4FF0DA
:10241800807342F8043C04650023436710BC70478E
:10242800611A183400B50E4615460C4B9860026FB9
:102438000B4B1A60036E83F30B882C4686F30988CE
:102448000020044B98472046002100220023024C1C
:10245800204700006F6D1834611A18346CE4183482
:10246800C8E21834014B10221A61704700ED00E0F1
:10247800002206E003F00F030949194410230B76E4
:102488000132C12A0ADC13B2002BF3DB03F16043EB
:1024980003F56143102183F80013F1E7704700BF8B
:1024A800FCEC00E008B5EFF30583103B044A02EBAF
:1024B800C301496852F833008847FFF799FB08BD04
:1024C800D8B5183410B584B00A4C23460A4A0121FD
:1024D8000A4804F065FD00230093019302930393D7
:1024E800074B0093E41A01940121684604F05CFD4F
:1024F80004B010BD0000203460DF18348CC11834DB
:1025080028E01834024B034AC3F8C020704700BFC4
:1025180000ED00E0AAFF4400034BC3F89800C3F89D
:102528009C10C3F8A020704700ED00E0114BC3F8E1
:102538009800C3F89800D3F89C000A7A60F3040264
:102548000A72D3F8A020C2F34202087A62F3471055
:102558000872D3F8A020C2F300120A74D3F89C20A2
:1025680022F01F020A60D3F8A03023F01F03CB60CB
:10257800704700BF00ED00E0084BD3F89030C3F37C
:102588000723013B984205D810B5044604F009FC1E
:10259800204610BD6FF01500704700BF00ED00E049
:1025A8002DE9F04F89B08146009101931446002629
:1025B80035E0C34564D13946C0B204F01DFC2DE0B6
:1025C8005B4AC2F89850D2F89C3003F01F0321F000
:1025D8001F010B43C2F89C303946E0B204F00CFCF2
:1025E800044610F1160F00F09C80013416E0013B00
:1025F8004F49C1F89850D1F8A02002F01F0223F0EB
:102608001F031343C1F8A0303946E0B204F0F4FBCD
:10261800044610F1160F00F0848001340136009B47
:102628009E427EDA4FEA061A09EB06177D68002DEE
:10263800F4D0019B23B1384604F0CCFB00286CD0C1
:10264800294659F80A0004F0FCFB054610F1160F5C
:1026580066D0844269DD364BC3F89800D3F89C20D5
:1026680022F01F02C3F89800D3F8A03043F01F08E7
:1026780059F80A307968194401F1FF3B934298D020
:1026880093429DD0C345B2D0013B2949C1F8985027
:10269800D1F8A02002F01F0223F01F031343C1F852
:1026A800A0303946E0B204F0A7FB044610F1160F3B
:1026B80037D001301E4BC3F89850D3F89C109DF8C2
:1026C800142061F304028DF81420D3F8A020C2F37B
:1026D80042029DF8141062F347118DF81410D3F8D4
:1026E800A030C3F300138DF81C3059F80A307A680B
:1026F8001344039323F01F03A8EB0B084344013B47
:1027080023F01F03069303A9C0B2FFF735FF044661
:1027180010F1160F05D0013480E76FF0150400E0C2
:102728000446204609B0BDE8F08F6FF01504F8E7BD
:1027380000ED00E010B5034C01232278FFF730FFCD
:10274800207010BD14F7183470B505460E460024E5
:1027580000E00134A6421CDD220105EB0413596890
:102768000029F6D0A85804F06CFB04EB44030B4A8C
:1027780042F8330010F1160F0CD0094B1B78984221
:1027880009DA04EB440302EBC3010431FFF7CEFE80
:10279800DFE7002070BD6FF01500FBE7CCE21834CE
:1027A80014F71834044B0522C3F89420BFF34F8F55
:1027B800BFF36F8F704700BF00ED00E0BFF35F8F7E
:1027C800024B0022C3F89420704700BF00ED00E0E0
:1027D80038B51D4B1D681D4BD3F89030C3F3072344
:1027E8009D422DD8FFF7EAFFFFF78CFE002409E091
:1027F800154B5B6804EB840103EB8101204604F070
:10280800D0FA0134A542F3D81148057004F02AFB28
:1028180010F1160F13D00E4B1A780C4BD3F89030DA
:10282800C3F307239A4207DA084BC3F8982000211C
:10283800C3F8A0100132F0E7FFF7B4FF002038BD5D
:102848004FF0FF30FBE700BF9CC1183400ED00E0FB
:1028580014F7183408B5024B1B689847002008BDC8
:10286800E4E21834034B1860034A937843F00203F8
:1028780093707047E4E2183468DF183408B50548E7
:1028880004F0D6F9002383F31188BFF36F8F042374
:10289800184602DFC0C1183408B54FF0FF324FF0B8
:1028A800FF33024804F089FB08BD00BF78DF183405
:1028B80008B5064921F00701C1F1505202F500128E
:1028C800034804F035F9002008BD00BF671C19341F
:1028D800E8E2183438B50446FFF7DEFF224608213F
:1028E800084804F098F8054620B1074801F0C8FEEA
:1028F800284638BD002CF8D008F05CFC034B0C22AD
:102908001A50F2E7E8E2183478DF18340C000000B7
:1029180010B50446FFF7C0FF2146034804F02AF823
:10292800024801F0ADFE10BDE8E2183478DF183433
:1029380010B401F00302084C183254F82230090C84
:102948004FF0FF0C0CFA01FC23EA0C038840034308
:1029580044F8223010BC70470050025600239942B8
:102968000ADD10B400EB030C044C24F81C200133DE
:102978009942F7DC10BC7047704700BF8CDF1834F1
:10298800F8B50746002401E00134E4B27B78A3429D
:1029980017D93D786619304600F0D6F80028F3D0EC
:1029A800304600F00FF9074B53F83620002AEBD0D9
:1029B80006F01F0503EBC60359680120A84090479D
:1029C800E2E7F8BDF4E2183408B5034680B1B0FA7E
:1029D80080F2C2F11F02D2B2064931F91200064A4A
:1029E800D2F880100B43C2F8803004F0A4F908BD77
:1029F800FF22F1E78CDF183400500256034AD2F860
:102A0800803023EA0003C2F8803070470050025635
:102A1800032926D8DFE801F0020C151E114B1A68AD
:102A280022EA00021A605A6822EA00025A607047D5
:102A38000C4B1A6802431A605A6822EA00025A606C
:102A48007047084B5A6802435A601A6822EA000223
:102A58001A607047034B1A6802431A605A68104399
:102A6800586070470050025610B498B1B0FA80F31D
:102A7800C3F11F03DBB29C460D4850F8330088426F
:102A88000AD088B90A4B43F83C1003EBCC035A60D0
:102A980010BC7047FF23EEE7054C04EBC3035B68EB
:102AA8009342EED10020F3E76FF00F00F0E700BF8C
:102AB800F4E2183460B1B0FA80F3C3F11F03DBB25B
:102AC800044A002142F8331002EBC30251607047F8
:102AD800FF23F5E7F4E21834C30403F4C013C0F38A
:102AE80081001830044A52F820001B0CFF229A403B
:102AF8001040D840704700BF0050025600B583B060
:102B0800104805F035F9B0B1002300930193BDF8E2
:102B180000304FF41E7262F30B03ADF8003001234E
:102B28000193084B9B681B6843B169460548984761
:102B380003B05DF804FB6FF01200F9E76FF057007F
:102B4800F6E700BF78B3183400F01F020123934062
:102B58005F2833D81F280FD8194AD26833EA0202EF
:102B680006D0174A126933EA020203D000207047E0
:102B780001207047012070473F280FD8104AD26AB9
:102B880033EA020206D00E4A126B33EA020203D07D
:102B9800002070470120704701207047084AD26C16
:102BA80033EA020206D0064A126D33EA020203D063
:102BB80000207047012070470120704700207047AF
:102BC8000050025600F01F02012393405F2812D8DC
:102BD8001F2804D8094AD3601361002070473F2892
:102BE80004D8064AD362136300207047034AD364AB
:102BF8001365002070476FF01500704700500256AB
:102C080008B54168054B9B689B6923B100220348BE
:102C1800984700B908BD6FF00400FBE778B3183493
:102C2800012803D0032803D00020704701487047CB
:102C380000487047006CDC0210B50446FFF7F0FF4F
:102C4800012C09D0032C09D17D23054AA2FB0020C1
:102C5800400803FB00F010BD9623F6E70020FAE7D2
:102C6800ABAAAAAA0D280BD838B143F6B223C340A1
:102C780013F0010F16D0002070476FF085007047E1
:102C88002A2812D8112807D31138094BC34013F04A
:102C9800010F04D0002070476FF0850070476FF077
:102CA800850070476FF0850070476FF085007047AA
:102CB8002180FF030B88C3F30B0303F6B452C2F35E
:102CC8000B02302A11D803F1AC4303F520334A68CC
:102CD800186802431A600B88C3F30B0304484A6858
:102CE80019580A431A50002070476FF08500704742
:102CF800408002560B88C3F30B0303F6B452C2F3A9
:102D08000B02302A13D803F1AC4303F5203348688B
:102D18001A6822EA00021A600B88C3F30B030548FD
:102D280049681A5822EA01021A50002070476FF0C9
:102D38008500704740800256134B5B6813F0080FFC
:102D48000DD1114B0822C3F8002801E0012B06D051
:102D58000D4B5B6813F00803F8D00123F6E70A4A25
:102D6800136A23F040731362074B1B6A13F0405F2A
:102D7800FAD1054A136A23F440331362024B1B6AE3
:102D880013F4401FFAD1704700800256244BD3F841
:102D9800C42022F04052C3F8C420D3F8C42022F43F
:102DA8007F0242F40032C3F8C4200122C3F8402A4B
:102DB800D3F8C82022F04052C3F8C820D3F8C8205E
:102DC80022F47F0242F4A022C3F8C8200222C3F8EA
:102DD800402AD3F8D82022F0405242F00052C3F8DB
:102DE800D820D3F8D82022F47F0242F48032C3F8E6
:102DF800D8202022C3F8402AD3F8EC2022F04052F1
:102E0800C3F8EC20D3F8EC2022F47F0242F400321D
:102E1800C3F8EC204FF48062C3F8402A00207047C2
:102E28000080025608B5FFF787FF714B03F5805203
:102E38004FF480711160D3F8802022F0E04242F014
:102E48000052C3F88020D3F8882042F00402C3F867
:102E58008820D3F8803013F0006F06D0644AD2F887
:102E6800803023F00063C2F88030614BD3F88020B3
:102E780022F07C7242F44012C3F88020D3F88020FC
:102E880022F47F2222F4706242F41642C3F88020B2
:102E9800D3F8882022F0605242F00062C3F88820FC
:102EA800D3F8882022F0E06242F08072C3F88820CC
:102EB800D3F8842002F07F42C3F88420D3F8882016
:102EC80022F00802C3F88820D3F8882042F00102D3
:102ED800C3F88820D3F8883013F0804F06D1444ACD
:102EE800D2F8883043F08043C2F88830404B4FF422
:102EF8008072C3F8002801E0012B06D03C4B5B68C8
:102F080013F48073F8D00123F6E7394A02F58051AB
:102F18004FF480600860D2F8A01021F0E04141F041
:102F28000051C2F8A010D2F8A81041F00401C2F86C
:102F3800A810D2F8A02012F0006F06D02C49D1F8C2
:102F4800A02022F00062C1F8A020294AD2F8A010DF
:102F580021F07C7141F44011C2F8A010D2F8A01001
:102F680021F47F2121F4706141F4FA41C2F8A010E4
:102F7800D2F8A81021F0605141F00061C2F8A81001
:102F8800D2F8A81021F0E06141F08071C2F8A810D1
:102F9800D2F8A41001F07F41C2F8A410D2F8A8100A
:102FA80021F00801C2F8A810D2F8A81041F00101D8
:102FB800C2F8A810D2F8A82012F0804F06D10C4908
:102FC800D1F8A82042F08042C1F8A820084A4FF45E
:102FD8008061C2F8001801E0012A06D0044A52684C
:102FE80012F48062F8D01A46F6E7002008BD00BF48
:102FF80000800256144B5A6D22F400425A655A6DED
:1030080042F040025A651022C3F8002801E0012B63
:1030180006D00D4B5B6813F01003F8D00123F6E7D8
:10302800094A0821C2F8001801E0012A06D0064A18
:10303800526812F00802F8D01A46F6E7024A936C72
:1030480023F4C073936470470080025600B585B0BE
:103058002F4B4FF47F62C3F84C2AD3F84C120191DE
:103068000199C3F88C2AD3F88C320093009BFFF7A0
:10307800C1FFFFF7D7FE002847DB254B5A6A22F429
:10308800E00242F480125A625A6A22F007025A6237
:103098005A6A22F070025A625A6A22F4E0425A626C
:1030A8005A6A22F4E0225A625A6A22F0407242F0C6
:1030B80080725A624022C3F8482AD3F84812039112
:1030C8000399C3F8882AD3F888320293029B01E057
:1030D800012B07D00E4BD3F8483213F04003F7D03A
:1030E8000123F5E7FFF752FE00280EDB084A136AB2
:1030F80043F040731362064B1B6A03F04053B3F16D
:10310800405FF8D1034B044A1A6005B05DF804FB30
:1031180000800256CCDF18340008AF2F08B5044BE6
:10312800D3F8C800062100F0405004F04CF808BD60
:103138000080025670B50C461546FFF7EFFF0646AD
:10314800022103F0F5FF2388C3F30B0213462A2A52
:103158002FD812B2D2B1013B292B00F2C680DFE88A
:1031680003F04B71C47477C47D82878C9196A0C498
:10317800C4C4AAC4C4C4C4B4C4C4C4C4C4C4C4C431
:10318800C47ABE5B5B5B5B5B5D62676C6FF08500FE
:103198000EE003F55B63C3F30B03012202FA03F3AA
:1031A800564A134238D113F0887F37D16FF0850023
:1031B80070BDB2F51A7F16D9B2F51F7F00F298805C
:1031C800B2F51B7F15D3A3F51B73102B00F28A8071
:1031D800DFE803F029888888888888882E88888886
:1031E8002E8888883300B2F5147FD2D26FF085001C
:1031F800DEE76FF08500DBE7FFF790FF28602368C4
:10320800B3F5805F77D32A68C3F313330133B2FB76
:10321800F3F22A600020CBE72860F0E7012103F0F1
:1032280087FF2860EBE7012103F082FF2860E6E7CB
:10323800012103F07DFF2860E1E7012103F078FF19
:103248002860DCE700232B60D9E72D4B2B60D6E7FD
:103258002C4B2B60D3E72B4B2B60D0E70120FFF7DB
:10326800EBFC2860CBE70220FFF7E6FC2860C6E706
:103278000320FFF7E1FC2860C1E70420FFF7DCFC2E
:103288002860BCE7072000F0EDFE2860B7E71E4B7A
:10329800D3F8C400032100F0405003F094FF2860E5
:1032A800ADE7194BD3F8C800062100F0405003F0F1
:1032B8008AFF2860A3E7144BD3F8D800022100F056
:1032C800405003F080FF286099E70F4BD3F8EC00DB
:1032D800032100F0405003F076FF28608FE776085E
:1032E8002E608CE76FF0850062E76FF085005FE77E
:1032F8006FF085005CE700205AE700BF111101005C
:10330800006CDC020090D0030080025610B5044621
:103318000A2806D0E1B2064883685B6898472046C9
:1033280010BD034883685B680D219847F2E700BF2A
:10333800B8B5183410B5044C2046FFF793FA204668
:10334800FEF75EFB10BD00BF1533183408B50548FD
:1033580004F00EFD18B1FFF7EDFF002008BD6FF077
:103368001200FBE7B8B5183408B5436841B103F15A
:103378000C010B4B9B681B685BB10948984708BD5B
:1033880003F10C01064B9B685B682BB10448984716
:10339800F5E76FF05700F2E76FF05700EFE700BF6F
:1033A80078B318342DE9F8430F4614461D46D0F873
:1033B8000480D0F81090D8F8080003F0A5FE06465F
:1033C800B4F1026F14D0B4F1046F15D0B4F5001F36
:1033D80016D0B4F5800F35D0B5F1806F2ED0B5F189
:1033E800C06F2DD0B5F1007F11D06FF0150422E029
:1033F800FFF704FB00241EE0FFF7E6FA00241AE0BA
:103408003946D8F8080004F029F9002413E0022509
:103418004A460F493046FFF727FB0446A8B9D8F8B3
:103428000810384603F075FE29463046FFF7F0FAD3
:103438003046FFF7C9FA2046BDE8F8830125E7E7DB
:103448000325E5E76FF08504F5E76FF00F04F2E771
:103458000373183410B5044603695860054804F02E
:1034680087FC20B10449204603F0F6FE10BD6FF03A
:103478001200FBE778B3183407741834B0F5D07F1E
:1034880017D2F8B504460D46164603090A4A52F8FB
:1034980023705FB1384604F06BFC38B133462A46D6
:1034A80004F00F01384604F0F1F8F8BD6FF012008F
:1034B800FBE76FF0150070470CC4183419282DD895
:1034C800F8B50D461446174B53F82060C6B1304680
:1034D80004F04EFCA0B173685E68C4F30347C4F3FC
:1034E80003320124AC40072D0DD82146304604F0A4
:1034F80000F93A462146304604F039F90020F8BD73
:103508006FF01200FBE72146304604F00FF93A4607
:103518002146304604F048F90020F0E76FF0150026
:10352800704700BF0CC418342DE9F84306460C4612
:1035380043681D680369D3F804900B79012B18D0F0
:10354800022B19D14FF480616279012A19D0022A1D
:1035580019D09AB14FF4005794F80680B8F1020FC9
:1035680014D0B8F1040F17D0002B40F09F80002032
:1035780014E04FF4C061E7E70021E5E74FF4805716
:10358800EAE70027E8E74FF44057E5E70BB10020EA
:1035980004E04FF0805001E04FF48050A3F1030C99
:1035A8005FFA8CFCBCF1010F40F2D8801BB1B8F176
:1035B800040F00F0D680B7F5805F7CD0B7F5405F88
:1035C8007BD0002F75D003239A4240F0CD8004F0C1
:1035D800D4F9804540F0CB80E379002B51D0012B02
:1035E8006DD0032B40F0C680674B9D4249D003F154
:1035F80070439D4245D0654B9D4242D003F17043D4
:103608009D423ED0624B9D423BD003F170439D42A8
:1036180037D0604B9D4234D003F170439D4230D087
:10362800B5F1502F2DD003F580639D4229D05A4B18
:103638009D4226D003F170439D4222D0574B9D42B4
:103648001FD003F170439D421BD0554B9D4218D0AB
:1036580003F170439D4214D0524B9D4211D003F1A7
:1036680070439D420DD0504B9D420AD003F17043E8
:103678009D4206D04D4B9D4203D003F170439D42BD
:103688007BD12B6823F001032B602146304604F0E0
:1036980089F9002874DB2B6843F001032B6094E858
:1036A800030089E803000020BDE8F8834FF4805048
:1036B80074E7012388E7002386E7022384E7324A78
:1036C8009542DED002F170429542DAD02F4A9542F7
:1036D800D7D002F170429542D3D02D4A9542D0D02E
:1036E80002F170429542CCD02A4A9542C9D002F1E3
:1036F80070429542C5D0B5F1502FC2D002F5806214
:103708009542BED0244A9542BBD002F17042954200
:10371800B7D0224A9542B4D002F170429542B0D057
:103728001F4A9542ADD002F170429542A9D01D4A78
:103738009542A6D002F170429542A2D01A4A95420B
:103748009FD002F1704295429BD0184A954298D07A
:1037580002F1704295427FF444AF92E76FF0850022
:10376800A2E76FF085009FE76FF085009CE76FF098
:10377800850099E76FF0850096E76FF0850093E77D
:103788006FF0850090E700BF001000520044005021
:1037980000480050004C00500014005200780050BF
:1037A800007C005000180052001C0052000C00560B
:1037B80008B5024A04F0FAF908BD00BF157C1834B0
:1037C80008B5024A04F005FA08BD00BF1B7C18348E
:1037D80038B5446805691148286004F0C9FAC8B1C9
:1037E8002868E16883681B6873B1984758B92369EA
:1037F800012B08D9E1680831084B9B689B6933B1F4
:1038080000220648984738BD6FF05700FBE76FF075
:103818005700F8E76FF01200F5E700BF78B31834E7
:10382800F8B5064645682C6803695F68236823F085
:1038380001032360686804F09BFA002800F0B08058
:10384800A968686804F047F854E8003F43F00C039F
:1038580044E80032002AF7D13946304604F0A2F88D
:103868000028C0F2A0802B7D1BB1A36843F0080399
:10387800A3606B7D1BB1636843F400436360AB7D59
:103888001BB1636843F480336360EB7D1BB16368ED
:1038980043F4003363602B7E002B66D0454B9C427B
:1038A80049D003F170439C4245D0434B9C4242D0DF
:1038B80003F170439C423ED0404B9C423BD003F105
:1038C80070439C4237D03E4B9C4234D003F1704346
:1038D8009C4230D0B4F1502F2DD003F580639C4228
:1038E80029D0384B9C4226D003F170439C4222D009
:1038F800354B9C421FD003F170439C421BD0334B85
:103908009C4218D003F170439C4214D0304B9C4227
:1039180011D003F170439C420DD02E4B9C420AD02B
:1039280003F170439C4206D02B4B9C4203D003F119
:1039380070439C423AD173681A68936843F4804391
:1039480093606A7E236823F0787343EA42532360C6
:10395800AA7E236823F4F81343EA02432360EB7E2C
:103968001BB1A36843F40043A3602B7F1BB12368FA
:1039780043F000532360236843F00103236000E011
:1039880033B9E36913F40013FAD00123F8E72AB92D
:10399800E26912F48002FAD01A46F8E70020F8BD6E
:1039A8006FF01200FBE76FF01500F8E76FF01500F5
:1039B800F5E700BF001000520044005000480050D6
:1039C800004C00500014005200780050007C005059
:1039D80000180052001C0052000C00564FF0E02363
:1039E800996918699A6909B90C4B19680AB90B4B96
:1039F8001A6810F4803F01D1914208D208490B6837
:103A08000648006803440B604FF0E0231B69034B32
:103A18001B689B1A024A10681844704768E41834F7
:103A280064E41834094B102283F82320084B094A10
:103A38001A600020084B18604FF0E023013A5A61E1
:103A480098611A6942F007021A61704700ED00E0B8
:103A580068E418348038010064E41834684620F0BB
:103A680007018D4619B5FFF7B9FF12480368124AD6
:103A7800516814681B1941F100011360516000225C
:103A880002600E490A68981A0D4BA3FB0030000C1F
:103A98000C4B00FB03F3D2184B6843F100030A6098
:103AA8004B6001F073FDFEF7A3F8BDE819408546A9
:103AB800704700BF64E4183430E0183428E0183444
:103AC8005917B7D180380100F8B5002948D0B0F1AE
:103AD800FF3F3AD03C4B1C68012848DDD128A8BFDD
:103AE800D120461EEFF31185102383F31288BFF30C
:103AF8006F8FFFF773FF4FF0E0239F69334A136816
:103B08005168C31841F10001136051600021304A27
:103B18001160304A11685A1A2BD42F4800FB06222C
:103B280002F59C327F322D4EA6FB0262120CC91A96
:103B380000FB021141F288338B4238BF0B46284AFA
:103B4800914234D9204B1A6017E04FF0E0221369F4
:103B580023F0010313611C4B4FF07F421A6025E0EC
:103B6800194B1C68B0F1FF3FB6D1D020B6E700264C
:103B7800B8E7154B41F288321A604FF0E023996993
:103B8800114A1268013A5A6100229A618F4211D291
:103B9800641A3C440D4A136851681B1941F100012D
:103BA8001360516085F31188BFF36F8FF8BD064A23
:103BB8001360E2E77F1A054A13685168DB1941F17F
:103BC800000113605160EDE768E4183430E0183400
:103BD80064E4183428E01834803801005917B7D144
:103BE80000E8FD0038B5EFF31185102383F3128840
:103BF800BFF36F8F084B1C68084B1B68E41AFFF76C
:103C0800EDFE204485F31188BFF36F8F044BA3FBAF
:103C18000030000C38BD00BF30E0183428E01834FC
:103C28005917B7D110B43E4B3E4A9A603E4901201D
:103C3800C1F8180A01F5805CCCF81802CCF85802D3
:103C48000022C3F8D820C3F8DC20C3F8E020C3F86A
:103C5800D800C3F8DC20C3F8E0200224C3F8D84019
:103C6800C3F8DC20C3F8E0200324C3F8D840C3F825
:103C7800DC20C3F8E0200424C3F8D840C3F8DC20D3
:103C8800C3F8E0200524C3F8D840C3F8DC20C3F803
:103C9800E0200624C3F8D840C3F8DC20C3F8E020AD
:103CA8000724C3F8D840C3F8DC20C3F8E020C1F8E3
:103CB800780AD1F878229B681C4C23611C4BDA6B7C
:103CC80042F48052DA63DA6B42F01002DA63DB6B9B
:103CD800D1F8743243F40043C1F87432D1F8783221
:103CE80043F01003C1F87832D1F87832D1F878323D
:103CF80023F01003C1F878324FF44053C1F8203A4A
:103D0800CCF82032C1F8240ACCF82402CCF864029A
:103D18004023CCF85C322369CCF8780210BC704799
:103D280000ED00E064DF1834008002560080005681
:103D3800004802562D4B586810F4807054D0D3F8C0
:103D4800880010F080404FD030B583B0D3F8803071
:103D580003F0E043B3F1005F3FD00CD893B3B3F165
:103D6800805F06D1214B586810F0040028D0204C01
:103D780005E0002024E0B3F1405F20D11D4C1B4B2F
:103D8800D3F88030C3F3055013F07C7F18D017495F
:103D9800D1F88020D1F88450D1F88830C3F3C263B9
:103DA800D1F88810C1F302610191009325F07F4397
:103DB800C2F30B220146204603F08CFF00E00020EE
:103DC80003B030BD094B586810F00800F8D09B6C60
:103DD800C3F3C113084CDC40D1E7044B586810F01A
:103DE8001000EDD0054CCAE7704700BF00800256AE
:103DF80000093D000080BB000090D003006CDC028D
:103E08002D4B586810F4007054D0D3F8980010F077
:103E180080404FD030B583B0D3F8903003F0E04302
:103E2800B3F1005F3FD00CD893B3B3F1805F06D1F4
:103E3800214B586810F0040028D0204C05E00020E1
:103E480024E0B3F1405F20D11D4C1B4BD3F89030D8
:103E5800C3F3055013F07C7F18D01749D1F8902090
:103E6800D1F89450D1F89830C3F3C263D1F89810C0
:103E7800C1F302610191009325F07F43C2F30B2245
:103E88000146204603F026FF00E0002003B030BDC5
:103E9800094B586810F00800F8D09B6CC3F3C113A5
:103EA800084CDC40D1E7044B586810F01000EDD006
:103EB800054CCAE7704700BF0080025600093D0064
:103EC8000080BB000090D003006CDC022D4B5868CA
:103ED80010F4806054D0D3F8A80010F080404FD080
:103EE80030B583B0D3F8A03003F0E043B3F1005FFE
:103EF8003FD00CD893B3B3F1805F06D1214B5868FB
:103F080010F0040028D0204C05E0002024E0B3F194
:103F1800405F20D11D4C1B4BD3F8A030C3F3055094
:103F280013F07C7F18D01749D1F8A020D1F8A450FD
:103F3800D1F8A830C3F3C263D1F8A810C1F3026165
:103F48000191009325F07F43C2F30B2201462046DE
:103F580003F0C0FE00E0002003B030BD094B5868F4
:103F680010F00800F8D09B6CC3F3C113084CDC4078
:103F7800D1E7044B586810F01000EDD0054CCAE7A3
:103F8800704700BF0080025600093D000080BB005A
:103F98000090D003006CDC022D4B586810F40060D0
:103FA80054D0D3F8B80010F080404FD030B583B06B
:103FB800D3F8B03003F0E043B3F1005F3FD00CD842
:103FC80093B3B3F1805F06D1214B586810F0040019
:103FD80028D0204C05E0002024E0B3F1405F20D138
:103FE8001D4C1B4BD3F8B030C3F3055013F07C7F46
:103FF80018D01749D1F8B020D1F8B450D1F8B8305A
:10400800C3F3C263D1F8B810C1F302610191009300
:1040180025F07F43C2F30B220146204603F05AFEE7
:1040280000E0002003B030BD094B586810F00800CC
:10403800F8D09B6CC3F3C113084CDC40D1E7044BA8
:10404800586810F01000EDD0054CCAE7704700BF63
:104058000080025600093D000080BB000090D0039C
:10406800006CDC0210B5934BD3F85C3103F0070306
:10407800072B00F21B81DFE803F0040F16B31D4F76
:1040880081E68C4B586810F008000BD09B6CC3F38A
:10409800C1138948D84005E0864B586810F00400E1
:1040A80040F0068110BD834B586810F01000F9D01D
:1040B8008248F7E77F4BD3F8400210F01000F1D0A8
:1040C800D3F8D400C0F30740441CD3F8D43003F02D
:1040D8004053B3F1005F1AD00AD89BB1B3F1805FA7
:1040E80004D1FFF78DFEB0FBF4F0DBE70020D9E741
:1040F800B3F1405F04D1FFF74FFFB0FBF4F0D1E715
:104108000020CFE7FFF716FEB0FBF4F0CAE7FFF791
:10411800DDFEB0FBF4F0C5E7664BD3F8400210F4BF
:104128000070BFD0D3F8E800C0F30740441CD3F8B0
:10413800E83003F04053B3F1005F1AD00AD89BB1BE
:10414800B3F1805F04D1FFF75BFEB0FBF4F0A9E7A1
:104158000020A7E7B3F1405F04D1FFF71DFFB0FBD4
:10416800F4F09FE700209DE7FFF7E4FDB0FBF4F0D3
:1041780098E7FFF7ABFEB0FBF4F093E74D4BD3F8AD
:10418800400210F480408DD0D3F8FC00C0F3074003
:10419800441CD3F8FC3003F04053B3F1005F1AD04D
:1041A8000AD89BB1B3F1805F04D1FFF729FEB0FBB9
:1041B800F4F077E7002075E7B3F1405F04D1FFF72B
:1041C800EBFEB0FBF4F06DE700206BE7FFF7B2FD04
:1041D800B0FBF4F066E7FFF779FEB0FBF4F061E7B7
:1041E800344BD3F8400210F480203FF45BAFD3F88F
:1041F8000C01C0F30740441CD3F80C3103F04053C2
:10420800B3F1005F1AD00AD89BB1B3F1805F04D133
:10421800FFF7F6FDB0FBF4F044E7002042E7B3F106
:10422800405F04D1FFF7B8FEB0FBF4F03AE7002096
:1042380038E7FFF77FFDB0FBF4F033E7FFF746FE02
:10424800B0FBF4F02EE71B4BD3F8400210F400202B
:104258003FF428AFD3F81001C0F30740441CD3F84B
:10426800103103F04053B3F1005F1AD00AD89BB164
:10427800B3F1805F04D1FFF7C3FDB0FBF4F011E7A1
:1042880000200FE7B3F1405F04D1FFF785FEB0FBD4
:10429800F4F007E7002005E7FFF74CFDB0FBF4F06A
:1042A80000E7FFF713FEB0FBF4F0FBE60020F9E6A9
:1042B8000348F7E6008002560090D003006CDC0249
:1042C80000093D0038B5EFF31185102383F31288F8
:1042D800BFF36F8F054B9C6803F062FD85F311886F
:1042E800BFF36F8F2046FDF7DFFF38BD6CE418344D
:1042F80010B586B00F4C04EBC01400EB800C0E4BCD
:1043080003EB8C0300220592012104910F210391F4
:10431800029201920093094B4FF4A072084901EBF5
:104328008C11204600F076FB637B23F00403637353
:1043380006B010BD38E018346CE41834AF7D18347A
:1043480020FF183438B505460B4B53F8204002E0DF
:104358002368984708346B1C074A52F82330A34255
:1043680009D960680028F3D0037F13F0010FF1D159
:1043780003F0E5FCEEE738BD5CC5183408B553EA30
:10438800020102D100F0C0FE08BD0249183001F058
:1043980063F8F9E76D80183410B586B0184C14E04E
:1043A800636A0593236A0493E3690393A3690293F9
:1043B8006369019323690093E368A26861682068D0
:1043C80000F028FB23685C6530340E4B9C42E7D331
:1043D80000F0F2FD0A4C00E030340A4B9C420BD24C
:1043E800A26AE36AB3F1FF3F08BFB2F1FF3FF3D01F
:1043F8002068FFF7C3FFEFE700F0F6FD06B010BD39
:10440800E8BB1834E8BB183408B50A4B01221A7007
:104418000320FFF797FF01F007FA0420FFF792FF48
:10442800FFF7BAFF01F0C3FF034A137B23F0010330
:10443800137308BD15F71834B8E0183408B50146E9
:10444800014A0248FDF7EEFF11441834B8E0183469
:1044580010B50446FFF74CFF0A4901EBC4110A4A9C
:1044680004EB840302EB8303D9601C74074B03EB52
:10447800C42303F5006304EB840402EB8402536055
:1044880010BD00BF38E018346CE4183420F7183435
:1044980070B586B000F0E0FD104D114B5D61114B19
:1044A8000593012304930024039402940194009437
:1044B8000D4B4FF480520D49284600F0ABFA0646E2
:1044C8006B7B23F004036B73284603F063FD2046DF
:1044D800FFF7BEFF304606B070BD00BFB8E0183425
:1044E8006CE4183454C51834114418346000193475
:1044F80008B50020FFF726FF1E4B03F5006282F384
:10450800088883F30A881C4CF02384F8223000239F
:10451800E37723766376A37684F82030E376626ABD
:1045280042F4E0226262626A42F400226262A36399
:10453800E3689BB243F0BF6343F40833E360FDF7DD
:104548002BFEFDF78FFF4FF0FF33A362E362FEF708
:104558003FF9FDF7B7FF094800F08CFAFDF7A0FA1C
:104568000120FFF7EFFE0220FFF7ECFEFFF790FFB8
:10457800FFF764FF20F7183400ED00E038E1183445
:104588002DE9F04182B00446EFF31187102181F341
:104598001288BFF36F8FC16899B9002950D1364B83
:1045A8009B6893F90E3023610131E160324B9B68BF
:1045B800A36087F31188BFF36F8F002002B0BDE8B6
:1045C800F08116461D4682682B4B9B689A42E4D0C0
:1045D80055EA060136D092F90E80414693F90E004D
:1045E80003F0EEFB804534DC4FF00008009601959F
:1045F80022463946214800F0F1FB0028DED0EFF3CF
:104608001185102383F31288BFF36F8FA36843B318
:1046180023689C4223D013B3216993F90E0003F059
:10462800CFFB0146204603F0D6FBE8B9B8F1000FEE
:104638001AD185F31188BFF36F8F6FF00A00BDE7B9
:104648002369B0E787F31188BFF36F8F6FF00F000E
:10465800B4E70146204603F0BEFB8046C6E7216961
:10466800E0E7B8F1000FE4D02946044800F078FCF0
:104678006FF00A00A2E700BF6CE418348CE4183429
:10468800F8B58368002B46D00446264A92689342C0
:1046980044D1C368012B04D9013BC36000252846D7
:1046A800F8BDEFF31186102383F31288BFF36F8FE1
:1046B800016903F090FB2768BC420CD03D1E18BF6F
:1046C800012557B9A760CDB90023E36086F31188A7
:1046D800BFF36F8FE3E70027F0E77A683B68136062
:1046E8005A6000233B607B607A7B22F002027A7377
:1046F800BB6007F1180003F032FDE3E797F90E30CD
:1047080023610025BD67384603F044FC314606485E
:1047180000F026FCC3E76FF01505C0E74FF0FF3542
:10472800BDE700BF6CE418348CE41834F8B50446CF
:10473800EFF31187102383F31288BFF36F8F056897
:10474800A84212D02E1E18BF012685B906BBA36841
:10475800E268934223D001221344A360002303BBE1
:1047680087F31188BFF36F8FF8BD0025EAE76A6801
:104778002B6813605A6000232B606B606A7B22F001
:1047880002026A73AB6005F1180003F0E8FCDDE78C
:104798000023AB67284603F0FDFB0123DFE7002277
:1047A800DAE73946014800F0DBFBDDE78CE4183432
:1047B80010B582B0EFF31181102484F31288BFF38F
:1047C8006F8F846844B1013C846081F31188BFF322
:1047D8006F8F002002B010BD53EA020406D0009289
:1047E80001930246054800F0F9FAF3E781F31188CE
:1047F800BFF36F8F6FF00F00ECE700BF8CE4183445
:1048080010B5C36823F00203C360134B1C687CB166
:10481800236803B10CB100210FE02346FBE72246D1
:104828000D4803F0F2FA04F10800FFF77FFF10BD0E
:104838002346F0E71A461C461346002CF7D0626858
:104848008242ECD02146002BF4D01A68002AF2D01C
:10485800002BF0D11A46EEE78CE4183470B584B01A
:104868000546EFF31186102383F31288BFF36F8F89
:10487800D5F88440002C3FD02368C5F88430D5F89B
:10488800882094424DD0D5F89C3043F00203C5F8F7
:104898009C30E36843F00102E26023F0040343F034
:1048A8000103E360636886F31188BFF36F8F2046C6
:1048B8009847EFF31186102383F31288BFF36F8FA5
:1048C800E36823F00103E36013F0100F44D1E368B9
:1048D80013F0020F44D1D5F89C3023F00203C5F839
:1048E8009C30C3F3002386F31188BFF36F8F002B2E
:1048F800B7D100F0B9FBB4E7D5F89C3023F0040237
:10490800C5F89C2013F0040F0ED112F0100F14D02C
:104918000023C5F89C3086F31188BFF36F8F04B06D
:1049280070BDC5F88830AEE705F194040022012176
:10493800204603F0ACFB0028F8D1002302934FF087
:10494800FF324FF0FF33CDE9002305F18C023146E9
:10495800054800F0B5FC84E7204603F069FAB6E79D
:104968002046FFF74DFFB6E794E41834F0B589B058
:1049780004460E9D0020C4F88400C4F8880004F1A1
:104988008C00C4F88C00C4F8900004F19400C4F8BA
:104998009400C4F898003DB3287938BB0120C4F8C6
:1049A8009C004FF0FF364FF0FF37CDE90667002037
:1049B800049003930290019000940E4B204603F05C
:1049C80060FA55B1296811B1204603F04CFA6B79A9
:1049D8001BB1237B43F001032373204600F094FBB3
:1049E800C4F8804009B0F0BD0120D8E740F20110BA
:1049F800D5E700BF6548183408B553EA020102D16B
:104A080000F082FB08BD0249183000F025FDF9E7E7
:104A18006D801834F0B585B004460E4615461F461D
:104A280000F158038365C3650E9B04220D9903F0BA
:104A38001DFA2A463146204603F003FA05460C9B28
:104A480002930B9B01930A9B00933B460246314617
:104A58002046FDF7C7FC00236365054B9B6823B11F
:104A6800DB6EE366284605B0F0BDE366FAE700BFF3
:104A78006CE4183410B50446012343730373002310
:104A88000366436600F0CAFE014B9C6010BD00BF80
:104A98006CE41834094A936858676FF00A019967FB
:104AA80007494B6843F080534B60002383F3118818
:104AB800BFF36F8F9368986F704700BF6CE418342A
:104AC80000ED00E0437B90F90D20002A51DB13F044
:104AD8001F0F4ED110B563F07F034373254A52F878
:104AE800183F93420ED100230CE05A6842600360DD
:104AF800106058601EE01A461E49C9698A420FD0E4
:104B08001B687BB173B190F90E1093F90E20914296
:104B1800F1D0521A002AE8DC1A46002BECD1F0E753
:104B28000023EEE7134BDA6903F1180101604260D4
:104B38001060D8610F4B53F8184F9C420ED06CB1DF
:104B48000C4B9B685A7B12F01F0F0AD1DA897F2A17
:104B580007D9A2692AB9074A536109E0054BDC68FD
:104B6800EEE7A34202D0204600F0F4FB014B5C6163
:104B780010BD70476CE4183410B5437B90F90D20D4
:104B8800002A14DB154B9A6853F8184F9C4219D029
:104B9800C4B1824219D0537B13F01F0F15D1D389AA
:104BA8007F2B12D9A36983B90C4B5A6114E003F027
:104BB8007F0343734268036813605A6000230360ED
:104BC8004360DFE7054BDC68E3E7A24202D02046FA
:104BD80000F0C0FB014B5C6110BD00BF6CE41834F1
:104BE8002DE9F84305460C46404B9E68737B13F04D
:104BF800600F28D013F0200F2AD008271F4222D197
:104C08003B43737313F0800F24D1082F2DD04FF03E
:104C18000009364B53F8188F98454BD0B8F1000F60
:104C280048D0324B9B68434502D0404600F092FB87
:104C38002E4BC3F81480102F05D0304602F090F8A0
:104C4800B9F1000F3AD184F31188BFF36F8F46E0B2
:104C58001027D3E703F07F03737372683368136018
:104C68005A60002333607360CFE7B3685BB1726842
:104C7800336813605A60002333607360727B22F0DC
:104C880002027273B360304603F051F906F158001E
:104C980003F052F9154B9B689E4202D04FF0000971
:104CA800B7E7EFF3058313B94FF00009B1E74FF009
:104CB8000109AEE70D4BD3F80C80B2E70C48FFF7BB
:104CC800D9FEC0E7EFF31184102383F31288BFF3F2
:104CD8006F8F03F073F884F31188BFF36F8F6B7BCA
:104CE80013F0600FEED1BDE8F88300BF6CE4183410
:104CF80038E11834B3F1FF3F08BFB2F1FF3F00D1EC
:104D0800704708B50249183000F0A6FB08BD00BF7F
:104D18006D80183410B5437B90F90D20002A0ADB0A
:104D2800437B63F07F0343732B4A52F8183F934247
:104D380019D1002317E003F07F0343734268036827
:104D480013605A60002303604360E9E75A684260D1
:104D58000360106058601EE01A461F49C9698A42FC
:104D68000FD01B687BB173B190F90E1093F90E2028
:104D78009142F1D0521A002AE8DC1A46002BECD1F5
:104D8800F0E70023EEE7144BDA6903F1180101603C
:104D980042601060D861104B9A6853F8184F9C42D3
:104DA8000ED06CB182420ED0537B13F01F0F0AD184
:104DB800D3897F2B07D9A3692BB9074B5A6109E01F
:104DC800054BDC68EEE7A24202D0204600F0C2FAAA
:104DD800014B5C6110BD00BF6CE4183410B50C4683
:104DE80011460A4882680A4B1A60EFF311831023B0
:104DF80083F31288BFF36F8FDDE90223806803F025
:104E0800BDF82046FFF746FE10BD00BF6CE418341D
:104E180094E418342DE9F04104460E460023EFF3DC
:104E28001185102282F31288BFF36F8F1F4650E05E
:104E380003F07F0363736268236813605A6000237A
:104E48002360636071B2A173637B63F07F03637354
:104E5800424A52F8183F93420ED100230CE05A6898
:104E68006260236014605C601CE01A463B48C069BD
:104E780082420DD01B686BB163B193F90E20914249
:104E8800F3D0521A002AEADC1A46002BEED1F2E7D8
:104E98000023F0E7314BDA6903F118012160626001
:104EA8001460DC612D4B53F8188F984520D0B8F169
:104EB800000F1DD0294B9B68984502D0404600F052
:104EC80049FA264BC3F8148085F31188BFF36F8F16
:104ED8000123002B3FD1637B03F01F02002A0CBF84
:104EE80001270027A4D013F0020F05D1A673EBE722
:104EF8001A4BD3F80C80DDE7A16862682368136059
:104F08005A6000232360636070B2A0730B689942F3
:104F18000DD100230BE05A686260236014605C6066
:104F2800D2E79C464A6894450DD01B686BB163B1C3
:104F380093F90E209042F4D0121A002AEBDC9C461A
:104F4800002BEFD1F2E70023F0E74B6821606360A4
:104F58001C604C60B8E73846BDE8F0816CE4183452
:104F680008B50B4659B9EFF3058242B9064A5069AC
:104F78009268904203D00846FFF78CFD03E083F364
:104F88001188BFF36F8F08BD6CE4183408B5034669
:104F980050B9EFF305823AB9064A516992689142CD
:104FA80002D0FFF777FD03E083F31188BFF36F8F1B
:104FB80008BD00BF6CE418340023EFF31181102200
:104FC80082F31288BFF36F8F09E0064B9A68D37B90
:104FD800013BD37381F31188BFF36F8F0123002B3B
:104FE800F3D070476CE4183438B50023EFF311851B
:104FF800102282F31288BFF36F8F0EE0154BDC6826
:1050080017E0A24202D0204600F0A4F9114B5C61DF
:1050180085F31188BFF36F8F0123BBB90D4B9A68D5
:10502800D17B0131D17353F8184F9C42E6D0002C44
:10503800E4D0537B13F01F0FE3D1D3897F2BE0D942
:10504800A369002BDDD1034B5A61E1E703F010F8A7
:1050580038BD00BF6CE4183408B5024803F013F8F3
:1050680008BD00BF80E4183438B5EFF3118410236D
:1050780083F31288BFF36F8F224B9A68DB699A42D9
:1050880005D01368516812680A60516006E0002371
:10509800F8E71C4AD269934212D01B6893B1194AA7
:1050A800906890F90E1093F90E209142F1D0521A9F
:1050B800002AEEDD5A6842600360106058600AE01A
:1050C8000023EBE70F4B9A68D96903F118001060C9
:1050D80051600A60DA610B4B53F8185F9D420DD09E
:1050E80065B1084B9B689D4202D0284600F032F912
:1050F800044B5D612046FFF7CDFC38BD014BDD68F0
:10510800EFE700BF6CE4183438B5EFF311851023CE
:1051180083F31288BFF36F8F437B13F0040F04D11E
:1051280085F31188BFF36F8F38BD0446183003F03C
:1051380016F8637B23F0040363732046FFF7C2FC71
:1051480029460248FFF70CFFEEE700BF94E4183445
:10515800014B9868704700BF6CE418342DE9F84398
:10516800037B03F00107EFF31186102383F3128802
:10517800BFF36F8F457B15F0080F1AD10446B1466F
:1051880000F1580802F09FFE10B345F02005657342
:10519800EFF305839BB131462046FFF721FD67B148
:1051A800002383F31188BFF36F8F0423184602DFAF
:1051B80003E086F31188BFF36F8FBDE8F88341469B
:1051C8003D4B986802F081FE3046FFF763FCE6E746
:1051D80045F00803637313F0800F33D1A3685BB104
:1051E8006268236813605A60002323606360627BEF
:1051F80022F002026273A36004F1180002F0AFFF0C
:10520800404602F099FE2C4B9A68944227D000261B
:10521800294B53F8185F9D4228D03DB3AA4202D0CB
:10522800284600F097F8244B5D61204601F098FD70
:10523800FEB9214B9B689C421FD089F31188BFF3AC
:105248006F8FACE705F07F0545F008056573626868
:10525800236813605A60002323606360BEE7EFF39E
:1052680005830BB90026D3E70126D1E7124BDD6889
:10527800D4E71248FFF7FEFBDBE7EFF30583002BCB
:10528800DBD1237B13F0010F12D089F31188BFF310
:105298006F8F002383F31188BFF36F8F04231846A1
:1052A80002DFEFF31189102383F31288BFF36F8FA6
:1052B8004846FFF7EFFB72E76CE4183438E118341E
:1052C8002DE9104883B0089CDDE906BCCDE900BC97
:1052D800FFF784FD1CB1034B9B681B69236003B077
:1052E800BDE810886CE41834044BC01AC010044B95
:1052F80003FB00F0034B01221A547047B8E118343D
:10530800ABAAAAAA98E41834C3897F2B11D80E4BEC
:105318001B687BB190F90E200C4B1B689A420CDB82
:10532800437B13F01F0F0AD1094B984209D0012380
:1053380000E0002303F0010070470023FAE7002390
:10534800F8E70023F6E700BFD0DF18349CE41834F0
:1053580038E0183470B505460D4B1E7C06EB460345
:105368000C4C04EBC304204602F0F9FE0A4B002261
:105378009A552846FFF7C8FF00B970BD074B1A6851
:10538800013AD3170649204600F066F8F5E700BF52
:105398006CE41834B8E1183498E41834D0DF1834C1
:1053A800F152183438B5EFF31185102383F31288BE
:1053B800BFF36F8F144B9C68144B1B68A34217D024
:1053C800124B00221A60104B1B7C114AD35C53B15C
:1053D8002046FFF799FF30B1637B13F01F0F0FD002
:1053E8002046FFF7B7FF85F31188BFF36F8F38BDED
:1053F8002046FFF7AFFF85F31188BFF36F8FF6E7FD
:105408002046FFF787FCEBE76CE4183494E4183483
:1054180098E41834034B1868984200D0704700206D
:10542800FCE700BFD4DF183430B1044A5268904218
:1054380001D0006870470020704700BFD4DF1834DF
:1054480008B5044B1B680BB1002008BDFEF7CAFB6A
:10545800FBE700BFA0E418342DE9F04F83B0B3F1A7
:10546800FF3F08BFB2F1FF3F0ED0044691461F46EA
:1054780081600023EFF3118A102282F31288BFF3B0
:105488006F8F1D46019335E0002501952846019947
:1054980003B0BDE8F08FFFF7D3FF8046013547F131
:1054A8000006451946EBE07625616661344A1368C3
:1054B8005268ED1846EB020301934FF0010B38E0F8
:1054C800C91A66EB020201614261436863602060A9
:1054D8001C60446005E02B4B5A68236062601460CE
:1054E8005C60FFF797FF844237D08AF31188BFF3D7
:1054F8006F8F0123002BC9D14D460197002FCADABF
:105508001F4B19685B68691843EB07036FF00102CA
:10551800521A4FF0FF3161EB030310461946012A76
:1055280073F1000301DA01200021206161614FF06D
:10553800000BFFF76FFF0028CDD00169466923698A
:1055480062698B4272EB060EBADB5B1A62EB0602EB
:1055580023616261FFF768FFEDE70B4B1B68002BC7
:10556800C3D1BBF1000F06D0404602F0DDFD00219B
:10557800FEF7AAFAB9E7FFF763FF8046F4E700BF32
:10558800D0E11834D4DF1834A0E4183470B5EFF340
:105598001186102383F31288BFF36F8F2A4B18608C
:1055A800FFF738FF044623E0284A136851685B195F
:1055B80041EBE5711360516000220023C4E9042324
:1055C800204602F09AFD86F31188BFF36F8FA36817
:1055D80020469847EFF31186102383F31288BFF310
:1055E8006F8F194A13685B1B1360FFF713FF04469C
:1055F8003CB125696169144B1A68D317AA428B41DB
:10560800D2DA44B1236962690F4909685B1A62EB0F
:10561800E172236162610D4A0B4D28681368516875
:105628001B1841EBE0711360516000242C60204688
:1056380002F07AFD2146FEF747FA86F31188BFF398
:105648006F8FFFF7AFFE70BDA0E41834D0E11834B7
:1056580010B50022EFF31184102383F31288BFF3EF
:105668006F8F134611460CE0FFF7EAFE074A1368EE
:105678005168C31841EBE07184F31188BFF36F8F51
:105688000122002AF0D0184610BD00BFD0E118341E
:10569800F8B5EFF31183102282F31288BFF36F8FEE
:1056A800026822B183F31188BFF36F8FF8BD0446F7
:1056B8001D46826AC36A52EA030105D0B3F1FF3F6F
:1056C80008BFB2F1FF3F26D1236B01332363236A5E
:1056D8006BB185F31188BFF36F8F236A2046984713
:1056E800EFF31185102383F31288BFF36F8F04F152
:1056F8001803A469A34251D0002C4FD0204602F0D1
:1057080064FC0023A36785F31188BFF36F8F2046DD
:1057180002F040FCCAE716461F46012A73F100034F
:1057280001DA01260027013E47F1FF3702F046FD66
:10573800013041F10001801947EB0101012871F1A5
:10574800000108DA6FF001024FF0FF3316492046D6
:10575800FFF782FEB8E702F031FD013041F10001A8
:10576800801947EB01016FF0020383426FF0004399
:105778008B4103DA00224FF00043E7E702F01EFDF9
:10578800431C41F10002991947EB02036FF0010233
:10579800521A4FF0FF3161EB0303D7E785F3118805
:1057A800BFF36F8F82E700BF99561834F8B51D46CE
:1057B800EFF31187102383F31288BFF36F8FB5F1CE
:1057C800FF3F08BFB2F1FF3F21D0064614462B46E3
:1057D800002D08DB012A73F1000301DA01240025FA
:1057E800013C45F1FF35304602F0B9FCDDE90623FE
:1057F800C6E90A230023336322462B46064930466E
:10580800FFF72AFE87F31188BFF36F8FF8BD87F380
:105818001188BFF36F8FF9E799561834014BC366A7
:10582800704700BF0CE0183408B5024801F000FAD0
:1058380008BD00BF74C5183410B5064C05E0A26851
:105848006168204602F0CAFC1434034B9C42F6D32C
:10585800002010BD0CE0183420E0183400B583B0E7
:10586800064B00934FF0FF334FF48062044905481C
:10587800FFF77CF8002003B05DF804FBBCC51834C2
:1058880060181934D8E11834F0B503AF4DF804BDE9
:1058980098B004466946CDE902114CF6801094F898
:1058A8008010C3F218404FF0000CCDE90004CDF889
:1058B80010C051B1032957D194F86800DFE800F00F
:1058C800130404617A879B00FEDE04F1200104F1D1
:1058D800400E65C9734665C391E8650065C384F8E1
:1058E80068C0C4F860E0206E6066103003F065FBA5
:1058F80030B1606E4FF48031103003F065FB39E051
:105908004EF2F850C3F21840006802282BD34CF22C
:105918008060C3F2184003F0BDFED0E900120426EF
:10592800013A806813960126CDE90C124CF666629E
:105938000F21C3F218420A914CF27865CDE90F2184
:1059480002210E9106A9CDE90660A7F111000023F6
:10595800C3F218450992CDE91433129611950B93A9
:10596800089303F078FEFEE74CF2D060C3F21840CB
:1059780004F04CFE606E103003F017FB84F87010D2
:10598800E06604F16C0002A903F047FCE0BB606E1E
:10599800D0E9000149698847606ED0E9022306A86A
:1059A80004F0CFF8DDE906129DF82000C4E91C12C6
:1059B80084F8780004F1700002A904F0E8F828BB24
:1059C800606E103003F0F5FA84F87010E06604F1A8
:1059D8006C0002A903F021FCD0B9606ED0E9022363
:1059E80006A804F0AEF8DDE906129DF82000C4E927
:1059F8001C1284F8780004F1700002A904F0C7F8BA
:105A08000028B7D0062004E0032002E0042000E0CC
:105A18000520032184F8680084F8801018B05DF828
:105A280004BBF0BD80B56F468CB0CDE90001002005
:105A3800069002200849029169460390059008A83B
:105A480004900648CDE9090111460B9001A8089079
:105A580002A804F0BBF900BF98CA1834E9A61834A4
:105A680080B56F468CB0CDE9000102200949069146
:105A78000949079003900291059008A804900748E7
:105A88000B9001A9CDE909016846089002A80021F8
:105A980004F0A7F9B8CA1834A8CA18343BA61834B1
:105AA800FEB506AF02460020012104900191044989
:105AB80003900420009100210290684604F091F9B7
:105AC800E8CA1834F0B503AF2DE9000F87B0FE68B7
:105AD8009A461546814659B1D9F808B01BF400100A
:105AE80006EB50584FF02B0008BF4FF4881004E025
:105AF800D9F808B006F101082D200590B86804907F
:105B08005FEA0B20CDF818A016D40025B9F80CA030
:105B1800D04579D306982B46D9E900450090294607
:105B2800059A204604F067FA00283ED00124204652
:105B380007B0BDE8000FF0BDBAF1100F3FD2BAF1BF
:105B4800000F41D00AF003015FEA9A024FF000000B
:105B58003CD002F003026B1CB446AE46A0EB8202B6
:105B68006FF003041E19043496F9035015F1410F20
:105B7800C8BF013096F9045015F1410FC8BF013074
:105B880096F9055015F1410FC8BF013096F9066026
:105B980016F1410F02EB0406C8BF01300436E1D10B
:105BA800221D6646754699B928E0EB682046049997
:105BB800324607B0BDE8000FBDE8F0401847284658
:105BC800514604F04DFA19E0002017E00022A9B16F
:105BD800AB5613F1410FC8BF013001290ED02A443A
:105BE80092F9013013F1410FC8BF0130022905D0E5
:105BF80092F9021011F1410FC8BF01308044B9F881
:105C08000CA0D045BFF486AF5FEACB100ED4CBF31F
:105C180041700396AAEB08026FF35F5B0024AA4663
:105C2800DFE800F040023E0214463BE0D9E90210EA
:105C38002B46D9E900B401900020C9F6E070029122
:105C48000840214640F0005040F03000C9F80800F4
:105C5800069800905846059A04F0CDF9002842D1DC
:105C6800AAEB08000396002586B2A8B2B04207D274
:105C7800226958463021904701350028F5D032E096
:105C8800E3685846DDE90321984760BBDDE9011068
:105C98000024C9E90201204607B0BDE8000FF0BDA5
:105CA80090B24408D9E9005800260292A0B2B1B2D5
:105CB800814208D2D8F81020284659469047013624
:105CC8000028F3D00FE00698414600902846059A30
:105CD800534604F090F930B9D8F80C302846DDE97D
:105CE8000321984728B10124204607B0BDE8000FDA
:105CF800F0BD02980026001B1FFA80F9B0B2484593
:105D08004FF0000438BF0124BFF411AFD8F81020B9
:105D180028465946904701360028EFD007E700008B
:105D2800F0B503AF2DE9000F81B0D0F80890934685
:105D3800884619F0C05F00F077805FEAC9013AD45D
:105D4800BBF1100F55D2BBF1000F00F0B2800BF081
:105D5800030C5FEA9B034FF0000100F0AE8003F0F4
:105D6800030308F101066FF00305A1EB830374191F
:105D7800043594F9032012F1410FC8BF013194F999
:105D8800042012F1410FC8BF013194F9052012F126
:105D9800410FC8BF013194F9062012F1410F03EBFE
:105DA8000502C8BF01310432E1D12B1DBCF1000F3F
:105DB80040F0878029E0C18919B308EB0B034FF045
:105DC800000B45460A4607E0F02D2CBF351DF51C93
:105DD800AE1B013AB34416D09D4215D02E4615F994
:105DE800014BB4F1FF3FF3DCE5B2E02DECD2B51C7A
:105DF800EEE704464046594604F032F9014620468B
:105E080003E04FF0000B0022891A828991420BD2DD
:105E1800531AC9F341716FF35F590026DFE801F0A7
:105E280011020F111E460CE0D0E900015A46CB685A
:105E3800414601B0BDE8000FBDE8F040184799B2EF
:105E48004E08D0E9005A00240093B0B2A1B28142B2
:105E58000DD2DAF810202846494690470134002828
:105E6800F3D00126304601B0BDE8000FF0BDDAF8E6
:105E78000C30284641465A46984728B101263046F4
:105E880001B0BDE8000FF0BD00980024801B1FFA88
:105E980080F8A0B240454FF0000638BF0126E1D295
:105EA800DAF8102028464946904701340028F0D0F7
:105EB800D8E74FF0000B0021A7E70023BCF1000F43
:105EC800A3D018F9032012F1410FC8BF0131BCF16A
:105ED800010F9AD0434493F9012012F1410FC8BF32
:105EE8000131BCF1020F3FF490AF93F9022012F197
:105EF800410FC8BF013188E72DE9F04F43688DB0E5
:105F080015468046029383789A0740F10D81002454
:105F18000E78002E00F00A81252E0BD04B1C03931F
:105F2800013441463046029B98470028C0F2F6806B
:105F38000399EDE74E788B1C252E0393F0D00027AC
:105F4800B946BB46BBF11F0F38D8A6F12003102B6A
:105F58000AD8DFE803F02A090930090909210909E3
:105F68000928092D09091F00A6F13003092B33D987
:105F78002A2E37D11BF0400F55F8043B40F08280A1
:105F8800002BA7BF4BF0200B9946C3F100094BF03B
:105F9800280B01E04BF0010B039B13F8016B0393F3
:105FA800002ECFD130E04BF0020B4BF0040BF3E79F
:105FB8004BF0080BF0E74BF0100BEDE7BBF17F0F50
:105FC80019D8A6F13003092BD2D81BF0400F03D003
:105FD8000A2101FB0737DFE70A214BF0200B01FB01
:105FE8000939D9E72E2E06D11BF0400F40F09E80CC
:105FF8004BF0400BD0E76C2E31D02BD8682E36D022
:106008006A2E3CD04C2E3AD0002F46F02003B8BF61
:106018002BF04002A3F16501BCBF00271FFA82FBE9
:10602800022901D9612B2FD107350727DFF8ACA248
:1060380025F0070508351BF0080F66D00AEB070B9B
:1060480056465E4563D1A4EB0A0AA9EB070906EB9D
:106058000A026FE1742E9FD07A2E9DD0D4E71BF0F0
:10606800800F18BF4BF4007B4BF0800B94E71BF4B8
:10607800807F18BF4BF4007B4BF4807B8CE74BF49C
:10608800207B89E71F4687E7A6F16301122900F202
:10609800F080DFE811F013004F00EE00EE00EE0094
:1060A800EE004F00EE00EE00EE00EE00EE00FE0007
:1060B800E900EE00EE001B00EE00AF0055F8043BCF
:1060C80001270DF1180A8DF81830B4E755F804AB1C
:1060D800834BBAF1000F08BF9A461BF0400F504699
:1060E80014BF39464FF0FF3105F002F80746A2E722
:1060F80041462020029B984700280FDB013EB7420B
:10610800F6D34C44B146A41B98E74E46F7E7414600
:1061180016F8010B029B9847002892DA98F802308B
:1061280043F0040388F802304FF0FF3420460DB0E6
:10613800BDE8F08F1BF0800F34D01BF4007F2CD00B
:10614800073525F00705AA4669685AF8080B2BF0A9
:1061580010050029ADB237DA404245F4806561EB9D
:1061680041010DF1180B0A235A4604F0CDFFA0EBAC
:106178000B0301936B0662D5019B25F001019F4239
:1061880089B240F3A180002E00F0998015F010022A
:1061980040F09C80BB460D4623E0AA465AF8040B03
