:020000040800F2
:10000000C04B0024093700084DCC0008F536000825
:10001000F5360008F5360008F53600080000000047
:10002000000000000000000000000000D1370008C0
:10003000F53600080000000071370008498E0008FE
:100040008939000889390008893900088939000888
:100050008939000889390008893900088939000878
:100060008939000889390008893900088939000868
:100070008939000889390008893900088939000858
:1002CC0003685A004CBF43F0004323F0004318442A
:1002DC0070472DE9F0470646174641B30139884669
:1002EC004FF0000909EB080404EBD474641006EB1E
:1002FC00C4052846FFF7E4FFA1424FEAC40A04D123
:10030C00B84204D82846BDE8F087B84204D9A145C4
:10031C000DD004F1FF38E5E70AF108003044FFF78F
:10032C00CFFF0138B842EDD204F10109DAE700251C
:10033C00E8E7012806D0022806D00028034818BF99
:10034C00002070470248704702487047590900085E
:10035C005D090008610900081F4B37B504468D1E66
:10036C004BB101A92846AFF3008048B900230920FE
:10037C00236103B030BD1948194B1B1ADB100193D4
:10038C0001992A46FFF7A5FF01460028EED0FFF79A
:10039C0097FF4B68A064012B1AD0002B01F10400CD
:1003AC0010DBFFF78DFF0023C4E913030368002B58
:1003BC000ADAC3F30360FFF7BCFF03460028D5D06D
:1003CC000020D5E70123EFE7FFF77AFF0346F7E7B5
:1003DC0000230520CCE700BF00000000883D010889
:1003EC00503E01080368DA0710B5044605D49B0794
:1003FC0000F1480018D500F0F9FB2368590703D425
:10040C0004F1D00000F0FAFB23681A0703D404F5BA
:10041C00A87000F0FBFB2368DB0608D404F5E87039
:10042C00BDE8104000F036BC00F0D8FBE5E710BD8D
:10043C00092070470346006800B1184470477047A4
:10044C0070B505460C46216C2846FFF785FF06461D
:10045C0008B103F035FD236C6B6122462B692946EC
:10046C00012098470828EED00728F2D13046216C9D
:10047C00FFF7E5FF201D00F0A5FB2DE9F0470C1D53
:10048C00D0F80C90D0F818A0074616460FCCADF556
:10049C00727D03AD0FC50FCC0FC50FCC0FC594E803
:1004AC000F000DF1080885E80F000025C8F8005072
:1004BC00D8F840103846FFF74FFF0936F6B204461D
:1004CC0068BBD8F840307B614FF4F07241467AA893
:1004DC0012F0BEFD3B697AAA394630469847889B94
:1004EC000546C8F844303A46CDE9008A3B463146C9
:1004FC000120C847C0B9C4B94FF4F0727AA940467C
:10050C0012F0A6FD082D2646D2D0072D0CD1204680
:10051C00D8F84010FFF793FF03A800F053FBD8F86E
:10052C00383046F01006DCE7092420460DF5727DC4
:10053C00BDE8F087406C7047F0B5CB6B0B640D1DBC
:10054C0006460F460FCDF9B001AC0FC40FCD0FC44A
:10055C000FCD0FC495E80F0084E80F004FF0FF3368
:10056C00009310993046FFF7F7FE78B933696A4665
:10057C003146984708280446F3D06846FFF732FF07
:10058C00062C03D139463046FFF75AFF092079B0C3
:10059C00F0BD10B48261DA6BC16010BC1A641946EC
:1005AC0000226AE770B5C66843690B6404460D46C1
:1005BC0026B10122FFF761FF03F082FC03690A46B2
:1005CC00014602209847072805D00828F4D129466F
:1005DC002046FFF735FF3046296CFFF730FF281D0A
:1005EC0000F0F0FAC26802B9A6E7CA6B0A640022EE
:1005FC0043E77047836801460BB1012018477047E9
:10060C00012910B50446084605D005D9C81E012895
:10061C008CBF0220012010BD43B90F2A06D804EB71
:10062C008204029A616811601846F4E70220F2E72E
:10063C001FB503AB009300230A461946FFF7E0FFF2
:10064C00039805B05DF804FB012910B50446084673
:10065C0005D005D9C81E01288CBF0220012010BD71
:10066C0043B90F2A06D8029904EB82040968616029
:10067C001846F4E70220F2E71FB503AB0093002302
:10068C0003920A461946FFF7DFFF05B05DF804FB3D
:10069C00F0B5D36B1364141D06460F460FCCADF5A5
:1006AC000F7D17AD0FC50FCC0FC50FCC0FC594E840
:1006BC000F0085E80F004FF0FF331693269968461C
:1006CC00FFF74AFE90B90C2116A86A46FFF7D4FF33
:1006DC00394616A8B04748B9049B16AA69460820A3
:1006EC0098470528044602D00928E7D1092416A802
:1006FC00FFF778FE20460DF50F7DF0BD2DE9F04F8C
:10070C00CD6C87B0174655F8042B04950C4600F0B9
:10071C0003099A463BBB12028DF815300392032352
:10072C008DF81430236DB9F1020F08BFA56B13F0CF
:10073C00010322D100F0080800932B6843BB03A9E6
:10074C00384600F044FB002840F0FB80009BDBB1F6
:10075C000F213846FFF76CFF0E2102463846FFF793
:10076C008BFF794A55E0130C8DF815301204DBB26F
:10077C0005EB830503920223D2E703A9384600F068
:10078C0026FB002840F0DD80082007B0BDE8F08F84
:10079C00BAF1020F0CBFD5F804B0B5F802B0A26CD8
:1007AC0018BF2B8801930CBF05F108062E1D0F21D5
:1007BC002BF0010538461544FFF73AFF8542019BA3
:1007CC0029D823F001022A44824294BF002201223C
:1007DC004FEA4B0000F0020003F0010340EA03056E
:1007EC00012D1AD0022D5ED0002D40F0AA80351DAF
:1007FC00B9F1000FA1D0002A9FD03046FFF760FD61
:10080C00A56306462046AFF30080002800F09980CF
:10081C0032460F213FE00022DAE7B9F1000F26D172
:10082C00002A3DD073683268991C4FEAD27200F0EE
:10083C00888004F158010133029109D0301DFFF773
:10084C00F9FD02AB01462046AFF30080054638B3F4
:10085C000D213846FFF7ECFE022D029B206202D1DF
:10086C00E36204F12C03C4E9093606208DE70D215F
:10087C003846FFF7DDFE256A854211D1A36A9E42F8
:10088C000ED13046FFF71CFD0F2102463846FFF70C
:10089C00F3FE224600213846FFF7EEFE072074E7F0
:1008AC0006F1080549E7356825F00045B9F1000F58
:1008BC002AD1A2B1B8F1000F19D085B9CB4617E0F7
:1008CC000BF1010B019B029306EB8B00FFF7B2FDC2
:1008DC000022014602AB2046AFF3008058B13368CA
:1008EC00002B00DA0436013506EB850525E7C346F7
:1008FC0004F158030193AB45E2D10D213846FFF7C3
:10090C0097FE029B2062AEE70D213846FFF790FE62
:10091C00D4F820B08345E2D1A36A9E42DFD14FF0D8
:10092C00000B0423C4E90BB3F318A56263633368AB
:10093C005B4503DA681C06EB8000A3E701230093F8
:10094C00D1E7092021E700BF000000000023D5E615
:10095C000123D3E60223D1E62DE9F0410546C2B0CE
:10096C0014461E46042925D8DFE811F005001C00AA
:10097C002400D6000401EEB9836B92B2012104303D
:10098C0001FA06F717421CBF53F8047B40F8267097
:10099C000136102EF4D1A60400D4AB63002042B073
:1009AC00BDE8F081012E4FEA124794B204D13B19F5
:1009BC00102B41D90220F2E7052EFBD107EB0408DE
:1009CC00B8F1200FF6D80F2F4DD9002CE6D00368C4
:1009DC005807A04608D5284623F0040340F8D03B1E
:1009EC0000F010F90F2F48D9684600F00BF9AB6BEB
:1009FC00102F3A4642A938BF102201EBC2024FEA2F
:100A0C004808A2F5C47208F1FF38101F4FEA88019C
:100A1C0002EB88021C4654F804CB40F804CF824207
:100A2C00F9D10A1D012E134417D00F2FAB636FD9C8
:100A3C00684600F0E3F8B1E7102FBBD00368DA0783
:100A4C0005D523F0030340F8483B00F0CBF820A871
:100A5C0000F0C8F8AB6B002C3FD10433AB6320A87B
:100A6C0000F0BCF89AE7B8F1100F03682DD9DC0739
:100A7C00A8F1100842D45807ADD420A800F0BAF859
:100A8C00C7F11004684600F0BDF8640020AAAB6BF7
:100A9C0002EBC702013C101FA10002EB84021C46B2
:100AAC0054F804CB40F804CF9042F9D10A1D1344FA
:100ABC00B8F1000F9CD1012ECFD00F2FAB633FF6B6
:100ACC006DAF20A800F092F868E7D9070DD420A8E4
:100ADC0000F090F8AB6B002CF3D0640020AA02EB72
:100AEC00C702013C4FF00008D5E723F0010343F0A7
:100AFC00020340F8483B00F07DF8E8E723F00103DF
:100B0C0043F0020340F8483B00F074F82B68B2E75E
:100B1C0020A800F06BF88BE7032E7FF44BAF97B255
:100B2C0007EB1244102C4FEA12463FF643AF036812
:100B3C00190706D523F00803036000F5A87000F030
:100B4C0087F820A800F084F8AA6B20AB03EBC6034F
:100B5C00F900D41A03EBC707BB4203EB040005D121
:100B6C000A44AA6320A800F051F817E7006843F87C
:100B7C00040BF1E7002E7FF41DAF102A3FF61AAFDD
:100B8C000368DA0606D523F01003036000F5E8705D
:100B9C0000F08AF820AE304600F086F8AB6B0022ED
:100BAC00012101FA02F020421CBF53F8040B46F855
:100BBC0022000132042AF4D1AB63304600F06AF80B
:100BCC00ECE600BF00F1340191E838009C46A646E3
:100BDC004CF8045D90E8FF0FE54600BD90EC210B4E
:100BEC00704700BF80EC210B704700BF90EC200BCE
:100BFC00704700BF80EC200B704700BFD0EC200B7F
:100C0C00704700BFC0EC200B704700BFF0EC020136
:100C1C00F0EC0211F0EC0221F0EC0231F0EC0241AC
:100C2C00F0EC0251F0EC0261F0EC0271F0EC02819C
:100C3C00F0EC0291F0EC02A1F0EC02B1F0EC02C18C
:100C4C00F0EC02D1F0EC02E1F0EC02F1704700BFE5
:100C5C00E0EC0201E0EC0211E0EC0221E0EC0231EC
:100C6C00E0EC0241E0EC0251E0EC0261E0EC0271DC
:100C7C00E0EC0281E0EC0291E0EC02A1E0EC02B1CC
:100C8C00E0EC02C1E0EC02D1E0EC02E1E0EC02F1BC
:100C9C00704700BFB0FC0181B0FC0191B0FC01A118
:100CAC00B0FC01B1704700BFA0FC0181A0FC019118
:100CBC00A0FC01A1A0FC01B1704700BFEC4600B53F
:100CCC002DE900502DE9FF1F4FF000032DE90C001A
:100CDC0001A9FFF731FCDDF840E012B0704700BF0E
:100CEC00EC4600B52DE900502DE9FF1F4FF0000335
:100CFC002DE90C0001A9FFF755FCDDF840E012B01E
:100D0C00704700BFEC4600B52DE900502DE9FF1FE0
:100D1C004FF000032DE90C0001A9FFF763FCDDF88F
:100D2C0040E012B0704700BFEC4600B52DE9005012
:100D3C002DE9FF1F4FF000032DE90C0001ABFFF76D
:100D4C0028FCDDF840E012B0704700BFEC4600B55F
:100D5C002DE900502DE9FF1F4FF000032DE90C0089
:100D6C0001AAFFF795FCDDF840E012B0704700BF18
:100D7C0010F8012B11F8013B012A28BF9A42F7D039
:100D8C00D01A7047027A03467AB9427A82B1013A94
:100D9C0042724268111D12680260416003221A728D
:100DAC001A68100E12021A607047013AD2B2F6E7B6
:100DBC00B02070471FB503AB009300230C221946DB
:100DCC00FFF71EFC039805B05DF804FBF2E72DE974
:100DDC00F043054685B00E464FF000083046FFF74D
:100DEC00D1FFB028044615D1B8F1000F0ED103ACD9
:100DFC0043460E22414600942846FFF701FC00941E
:100E0C0043460F2241462846FFF71EFC002005B042
:100E1C00BDE8F08302061DD4002303AF4FEA80091E
:100E2C00194600970D222846FFF7EAFB5FFA89F96D
:100E3C00039B09F1040914F0400F14BFA3EB090341
:100E4C004B440393009700230D2219462846FFF7C5
:100E5C00FBFBC3E700F0F003802B18D104023046F3
:100E6C00FFF790FF0443B4F5004F01D10920CEE702
:100E7C0024010023A2B219462846FFF76DFD002875
:100E8C00F4D114F4004F18BF4FF00108A6E7902BD3
:100E9C000DD100F00D030D2BE8D003AF002300F0B3
:100EAC000F02009719462846FFF7AAFBCAE7A02BAA
:100EBC0013D1C34303F007034FF47F621A410307B6
:100ECC0002F47F6201D542F4804200231946284681
:100EDC00FFF742FD002881D0C8E7B02B46D1B128DE
:100EEC0008D13046FFF74EFF431EDBB20E2B0246F5
:100EFC00EBD9BBE7B22820D1002303AC0D22194655
:100F0C0000942846FFF77CFB3046FFF73BFF022797
:100F1C0000F07F0110F08003039A01FA07F105D16C
:100F2C0002F501720A44039200948DE70A4430469C
:100F3C0003920737FFF726FFEAE7B3280BD13046B9
:100F4C00FFF720FF020300F00F0002F470220130C3
:100F5C0001230243BAE700F0FC03B42B86D000F067
:100F6C0007020132012342F40022AFE7C02B44D127
:100F7C00C6280AD13046FFF705FF020300F00F0028
:100F8C0002F4702201300323E3E7C7280BD130466B
:100F9C00FFF7F8FE431EDBB20E2B02463FF666AFA0
:100FAC000023042193E700F0F803C02B06D100F0D6
:100FBC000F020132032342F4202287E7C8280DD107
:100FCC003046FFF7DFFE00F0F00200F00F001032A9
:100FDC000130052340EA0232012178E7C9287FF469
:100FEC0045AF3046FFF7CEFE020300F00F0002F4CF
:100FFC007022013005230243EEE700F0F803D02BFA
:10100C007FF434AF00F007020132052342F40022D2
:10101C00E2E71FB503460846DA6C5368083219023A
:10102C00019102921B0E032201A98DF80C208DF860
:10103C000D30FFF7CCFE05B05DF804FB08B5FFF7EB
:10104C00C5FE806C08BD08B5FFF7C0FEC06CC37947
:10105C00023300EB830008BD00B587B04FF0FF32C0
:10106C004FF0FF33CDE90223144B0093144B154A78
:10107C0015490968154804F04BF8A8B10090802375
:10108C00134A012113480BF0D2FC07B05DF804FBA6
:10109C00198AD8680EF0D4FC059900200BF06AFF71
:1010AC000590059B002BF3D144F62062002305A983
:1010BC0006480CF080F80028F6DBF2E774490108CA
:1010CC006C49010864490108A8120024B00A0024E4
:1010DC00404801089047010808B5031E00DB08BD15
:1010EC00024A012102480BF097FCF8E7644801081A
:1010FC009047010810B58CB008F050F8354B1860CB
:10110C000DF06AFB00283AD0324B186840F26B3372
:10111C00314A09A905F044FC041E38DB2D4B186834
:10112C0009A90CF078FC041E38DB2A4B186883687C
:10113C00DB68042198470446002836D1254B1868F3
:10114C0083685B6898470446002835D10022002349
:10115C00CDE9062300230493022203920293019308
:10116C0000931E4B4FF480621D491E480DF0FCFD90
:10117C0048B31D490DF0E8FD20460CB010BD1B4ACC
:10118C0001211B480BF03EFC4FF0FF34F4E72346E3
:10119C00184A012116480BF03FFCEDE72346164A8E
:1011AC00012113480BF038FCE6E70346134A0121F2
:1011BC000F480BF031FCDFE70346114A01210C48C4
:1011CC000BF02AFCD8E70F4A012109480BF01AFC56
:1011DC00D2E700BFA812002420A107006510000868
:1011EC00802A002488090024344901087C4801081D
:1011FC00904701089C480108B8480108D4480108E8
:10120C00F44801081849010810B584B002460B4691
:10121C00002103910C4902910C4901910C49009158
:10122C000C4909680C480BF0D7FF044610B920464E
:10123C0004B010BD00904FF4C073084A0221084856
:10124C000BF0F5FBF3E700BFE51000086C49010853
:10125C0064490108A8120024080A00243C4901082A
:10126C00904701083F280CD8074B53F820301BB18E
:10127C001B880B800020704700230B806FF08500CB
:10128C0070476FF085007047AC1200243F2806D8D9
:10129C00064B53F820302BB11980002070476FF0AB
:1012AC00850070476FF08500704700BFAC120024BA
:1012BC0030B583B004F04EF804460F4A02F10C032B
:1012CC0093E803008DE803000ECA204604F058F89A
:1012DC0048B905462346094A032109480BF09CFBF3
:1012EC00284603B030BD2346064A012104480BF0C2
:1012FC0093FB4FF0FF35F3E7EC490108B8490108BF
:10130C00E8470108804901083F2904D8034B43F8FA
:10131C002100002070474FF0FF307047AC120024C2
:10132C00B0B582B000AF022869D0032800F0C980A4
:10133C00012802D00837BD46B0BD6C4600233B7176
:10134C0002237B7188B0EC461CF110022BD04FF0BD
:10135C000E0E131E18BF01237046BEF1040FD4BF2E
:10136C00002503F0010515B1894DCCF8145000256A
:10137C003D7002257D700828D4BF002303F00103C3
:10138C000BB1CCF818108AB10CF11C030021012907
:10139C000CD801F1080505EB070E1EF808EC03F854
:1013AC0001EB0131F3E76FF0004ED2E70D2823DD9E
:1013BC000E234AB10321397100217971B9710121D0
:1013CC00F9717868CCF8100000216FF300016FF30D
:1013DC0041016FF382016FF3C501012060F38811A5
:1013EC00C3F30A0363F353216FF31F5100236948BE
:1013FC0001F0D4F9A5469DE76FF01B03D9E76C46C5
:10140C0000233B7102237B7188B0EC461CF1100267
:10141C002BD04FF00E0E131E18BF01237046BEF1D9
:10142C00040FD4BF002503F0010515B1584DCCF8BD
:10143C00145000253D7002257D700828D4BF002370
:10144C0003F001030BB1CCF818108AB10CF11C039A
:10145C00002101290CD801F1080505EB070E1EF837
:10146C0008EC03F801EB0131F3E76FF0004ED2E723
:10147C000D2823DD0E234AB1032139710021797126
:10148C00B9710121F9717868CCF8100000216FF363
:10149C0000016FF341016FF382016FF3C50102206C
:1014AC0060F38811C3F30A0363F353216FF31F51E5
:1014BC000023384801F072F9A5463BE76FF01B0397
:1014CC00D9E76C4600233B7102237B7188B0EC4654
:1014DC001CF110022FD04FF00E0E131E18BF01235B
:1014EC007046BEF1040FD4BF002503F0010515B101
:1014FC00274DCCF814504FF0000E87F800E04FF059
:10150C00020E87F801E00828D4BF002303F0010382
:10151C000BB1CCF818108AB10CF11C030021012975
:10152C000CD801F1080505EB070E1EF808EC03F8C2
:10153C0001EB0131F3E76FF0004ECEE70D2823DD10
:10154C000E234AB10321397100217971B97101213E
:10155C00F9717868CCF8100000216FF300016FF37B
:10156C0041016FF382016FF3C501032060F3881111
:10157C00C3F30A0363F353216FF31F510023054890
:10158C0001F00CF9A546D5E66FF01B03D9E700BFB7
:10159C00104A01081048010838B5836805699C6930
:1015AC007CB112F4000F06D02D6801238B401D4234
:1015BC0001D082F0C062044B134002F01662A047C7
:1015CC0038BD6FF05700FBE7400000062DE9F04FE7
:1015DC0091B005920293134602F004020092C3F3F9
:1015EC00C20210F00303019340F0328280468A4617
:1015FC000132041D002858D0B8F1000F05D0A4EB1F
:10160C0008030433534500F22682029B5D1E019BA6
:10161C0004930693039300264FF0FF3B0427B9462F
:10162C00B8F1000F01D0029B2360531E0793002AD0
:10163C0040F367810122059B03F00203002B14BFCA
:10164C000123002302F0010118BF002141BBA4EBD0
:10165C0008008108B0F5007F34BF002303F00103BC
:10166C00002B40F0FE8103980F2800F2FD81B8F1A9
:10167C00000F00F05B81CBB200F14001694401F82E
:10168C00103C01F820BC002A00F04C8163F07F0371
:10169C0001F8103C049B01330493039B0133039327
:1016AC0004340022CC4640463DE001F0070A544485
:1016BC00CAF1080AA0E7002634E0002632E0002632
:1016CC0030E00827BC462DE025292BD10BF1010B6E
:1016DC0001260427BC4625E04729EED82A2914D335
:1016EC002A39C9B24FF0010E0EFA01F14FF6DA7E2B
:1016FC0011EA0E0F16D111F0625F40F0C18011F0AB
:10170C00010F40F08D8000260CE0252903D10BF150
:10171C00FF3B002606E001D9002603E0202901D07A
:10172C002329CCD11D466B1C6978002900F0178148
:10173C00002EC9D07A29BED84C29CDD34C392E29AC
:10174C0062D80FF2080E5EF821F000BF31170008C6
:10175C0015180008151800081518000815180008A9
:10176C001518000815180008151800081518000899
:10177C001518000815180008151800082518000879
:10178C001518000815180008151800081518000879
:10179C001518000815180008151800081518000869
:1017AC008D180008151800082518000825180008C1
:1017BC008D1800088D1800088D18000831170008C6
:1017CC0025180008CF160008151800083117000856
:1017DC0015180008E918000825180008E918000871
:1017EC001518000815180008F11800081F18000833
:1017FC0025180008151800081518000825180008E9
:10180C00151800081918000800268BE70427BC4699
:10181C0088E70427BC4685E729786C2924D0002664
:10182C003C44013CB4FBF7F407FB04F420B1211A4F
:10183C006144514500F21281002A58D1BCF1040FC9
:10184C0000F08580BCF1080F40F011811A99073126
:10185C0021F0070101F108051A95D1E9008908B1B9
:10186C00C4E9008908345DE713F8021C6C2903D025
:10187C0000260427BC46D3E700260827BC46CFE742
:10188C0029784C291AD01A99073121F0070101F156
:10189C0008061A96D1E90067073424F0070440B112
:1018AC00211A0831514513D829784C2913D0C4E991
:1018BC000067083400260827BC4633E71A9907311D
:1018CC0021F0070101F108061A96D1E90067E3E758
:1018DC006FF01B00B9E0C4E90067EAE700260427B3
:1018EC00BC469DE7324600260427BC4698E7E146F5
:1018FC0080461A9A111D1A9112680292079A1D4677
:10190C008EE6614B029A9A4204D3604B9A4205D3FD
:10191C00002300E000231BB900228CE60123FAE728
:10192C00012288E6069B01330693B6E612B10AF152
:10193C00010AB2E6009B13B10AF1020AADE6029865
:10194C0011F04EFA0AEB000303F1020AA5E61A990C
:10195C000D1D1A95096800B121600434E2E6804639
:10196C00231AB3F5806F80F0858090B1002202605D
:10197C009B080370009B83B1069BC370049B88F883
:10198C0002301BBB019DDDF80C90DDF810B0029FFE
:10199C003DE05344A3F1080057E0069B4370EDE78C
:1019AC0001339842EED903F140026A4412F8101C3C
:1019BC0012F9102C002AF3DA01F07F01A4EB0802D3
:1019CC000132524559D804F8011BE9E7019B0398F1
:1019DC00E7E7009B43B305F140036B4413F8203C4D
:1019EC0004F8013B019EA4EB080333440133534537
:1019FC0046D805F140036B4413F8103C04F8013B46
:101A0C0032463946204611F023FB34440135A945B2
:101A1C0019D9BBF1000FDCD005F140036B4413F96D
:101A2C00103C002BD5DAF1E705F140036B4413F8B9
:101A3C00103C58F82370002248F82320384611F047
:101A4C00CFF9461CCFE7A4EB080011B0BDE8F08F2E
:101A5C006FF00D00F9E76FF01B00F6E76FF01B005D
:101A6C00F3E76FF01500F0E76FF01500EDE76FF09E
:101A7C001500EAE76FF01500E7E76FF01B00E4E7ED
:101A8C006FF01B00E1E700BF503E0108D493010842
:101A9C002DE9F04F97B000AF8346BA617B61D7F860
:101AAC008030C3F3C0033B62396111B90AF04DFBBE
:101ABC0038619BF80260B14636B1D7F8803013F02C
:101ACC00010F0ED1002300E0002319469BF80320E0
:101ADC007A6242B1D7F8802012F0020F22D1002294
:101AEC0002E00123F1E7002213431DD09BF80050C4
:101AFC00AB00BB60DBF80430FB600BEB8505BB690E
:101B0C00F3B1002940F01781B9F1000F00F02281E8
:101B1C00D7F8803013F0040F40F020810020F861DA
:101B2C0006460CE10122DFE7BB691BB17A69396912
:101B3C00584698473C6920465C37BD46BDE8F08F57
:101B4C003C69E1B94D4400237B6123E00444013539
:101B5C0001364E451AD22A7800235BF8222019460A
:101B6C00B8690AF007FBD7F88830BAF1000F18BF34
:101B7C009845EBD22AF8180008F10108E6E7002690
:101B8C00C7F81C80B046D7F884A0E2E7C7F81480E9
:101B9C00D7F81C80D7F8803003F005033B614FF079
:101BAC00000AA146C7F81CB0AFE000253B6A93B908
:101BBC00002D00F08D80D7F8803013F0010F40F02D
:101BCC008C803B69002B40F081800223A9EB030938
:101BDC0098E00125EAE75946F8680AF011FB00285D
:101BEC00E6D06C46002387F82C30022387F82D3082
:101BFC008AB0694611F1100251D01225131E18BF7C
:101C0C0001232846042DD4BF4FF0000C03F0010C27
:101C1C00BCF1000F01D0B44D4D61002587F8285060
:101C2C00022587F829500828D4BF002503F00105A8
:101C3C000DB1FD688D610C28D4BF002303F00103A6
:101C4C000BB1C1F81CB06ABB11283CDD122362B188
:101C5C00042087F82C00002087F82D0087F82E0030
:101C6C00012087F82F00F86A08616FF300086FF302
:101C7C0041086FF382086FF3C508022161F38818DD
:101C8C00C3F30A0363F353286FF31F580023414631
:101C9C00964800F083FDA546A9F1020932E06FF0E9
:101CAC000045ABE701F12003002509E005F1300CFC
:101CBC0007F1280EF4441CF830CC03F801CB0135A5
:101CCC00012DF3D9C0E76FF01B03C0E701237DE7BB
:101CDC00D7F8803013F0020F14D000232246194697
:101CEC00B8690AF047FAD7F884207B69D7F88810CE
:101CFC00002A18BF8B4203D222F8130001337B61F8
:101D0C00013881440AF1010A35467B6A9A4510D2A2
:101D1C002E4616F802BB6B78FA6952F82340744BC6
:101D2C009C42FFF442AF734B9C42FFF452AF002530
:101D3C003CE74C46FFE607F144000023FB6118B179
:101D4C004A46294611F084F94D444FF00008C7F873
:101D5C0004901EE00020F8610646F0E7FE6107F1F2
:101D6C0034000026EBE700253B6A33BB002D3BD04B
:101D7C00D7F8803013F0010F26D0731C06F1300217
:101D8C0007F12801561806F8149CDEB208F1010878
:101D9C0025467B6A98454AD22C4614F802AB95F836
:101DAC0001905BF82930524A9342DCD3514A93425A
:101DBC0001D30025D8E70125D6E75146F8680AF08B
:101DCC001FFA0028D2D0E1E7D7F8803013F0040FC7
:101DDC00DCD0FA69531C303207F128010A4402F8AE
:101DEC00249CDBB2FB61D1E7D7F8803013F0020FF3
:101DFC0009D0731C06F1300207F12801561806F8B9
:101E0C00149CDEB2C2E7F869431C00F1300107F103
:101E1C0028028A1802F824AC02460232D2B2FA61C5
:101E2C0007F1580252FA83F303F8249CAEE7D7F873
:101E3C0004909BF8003087F854309BF80130334401
:101E4C0087F85530D7F8803013F0020F0ED1FB69AC
:101E5C00C3F3470387F85730D7F8803013F0010FDE
:101E6C0006D113F0040F3DD1002302E00023F1E76B
:101E7C00002387F85630DBF800003863786DCBF818
:101E8C000000D7F814804246B9685846D7F818A015
:101E9C00D047041EFFF64FAE386BCBF80000C7F8E6
:101EAC0014804246F96907F13400D047B0F10008BC
:101EBC0056DBA044B96849447B6A01EB4301D7F86F
:101ECC0014904A463B69591A2846D047041EFFF61F
:101EDC0032AEA04400257E62C7F820B05646D7F833
:101EEC0084B01DE0FB69C4E71C4A0108984701084F
:101EFC00503E0108D49301084FF0000A4A460121D4
:101F0C0007F12C00B04700282CDB804453462246B6
:101F1C00494630460AF02EF9002825DB804401356D
:101F2C007B6A9D4215D205F1300307F12802134458
:101F3C0013F8143C87F82C303A6A52F82340D7F83F
:101F4C008830BBF1000F18BF9D42D5D23BF815A0CD
:101F5C00D4E77A6900210846BB6998474446EAE50C
:101F6C004446E8E50446E6E50446E4E5014B186022
:101F7C00704700BFD402002470B506460D460024FD
:101F8C0004E0044B1B68305D98470134AC42F8D335
:101F9C0070BD00BFD402002480B505460E4617461E
:101FAC00984608F015FB034611F0D6FE0446DFF800
:101FBC00189049F80030424639463046A84754F844
:101FCC00090001F0B5FB00BF08000000054B5A6882
:101FDC0042F002025A605A6842F001025A60002034
:101FEC00704700BF0010005CEFF31182102383F3E5
:101FFC001288BFF36F8F0D4B1B686BB90C490B68C4
:10200C0043F480730B6000E033B9094B1B6813F485
:10201C008073F9D00123F7E704490B6801330B6097
:10202C0082F31188BFF36F8F704700BFB013002489
:10203C000048025810B5EFF31184102383F3128873
:10204C00BFF36F8F144B1B68A3B9144B0122BFF362
:10205C005B8F53E8001F002903D143E800200028C0
:10206C00F7D1BFF35B8F0BD10D4A02210D480AF05B
:10207C00C9FC05E0012B08D0074A1368013B13602B
:10208C0084F31188BFF36F8F10BD074A136823F4D4
:10209C0080731360F0E700BFB0130024AC1300246E
:1020AC00D44A0108204801080048025808B501F03C
:1020BC00D9FC01F073FC0D4B0D4A1A600D4AD36824
:1020CC0023F03F0343F00403D3600B4B1A6841F237
:1020DC000303B3EB124F00D008BD084AD2F8083105
:1020EC0043F00103C2F80831F6E700BF680800248A
:1020FC000090D003004802580010005C0080005192
:10210C0038B505460B4C00E010340B4B9C420FD2FB
:10211C0063685B79002BF7D0294620460AF0C6FB92
:10212C000028F1D023681B68294620469847EBE726
:10213C0038BD00BF304801084048010870B506465C
:10214C000D46084C04E02A46314620469847103488
:10215C00054B9C4204D223689B69002BF3D1F6E714
:10216C0070BD00BF304801084048010808B50CF0AC
:10217C00E1FF0022431819D213440D4AA2FB03CEEF
:10218C002EF0030C0CEB9E0CA3EB0C03C01A61F1AC
:10219C0000014FF0CC3300FB03F302FB0133A0FB37
:1021AC0002021344400840EAC37008BD0122E3E771
:1021BC00CDCCCCCC2DE9F041074605460AE007EA28
:1021CC000807144B03EB06135B68042219682046BE
:1021DC000AF0ACFBD5B195FAA5F6B6FA86F60D4C1D
:1021EC0004EB06140123B3406FEA030825EA030548
:1021FC00237B002BEED03301064AD3581B69002BEE
:10220C00DDD0204698470028E4D1D8E73846BDE811
:10221C00F08100BF304801082DE9F04180460F469F
:10222C001F4BBFF35B8F53E8005F6A1C43E8002130
:10223C000029F8D1BFF35B8F6DBB1A4C002607E069
:10224C0063680422196820460AF070FB01361034CA
:10225C00154B9C4211D2237B002BF7D020460AF061
:10226C0019FB23681B69002BEAD0204698470028ED
:10227C00E6D00123B3401D43E8E7B8F1000F0BD0C3
:10228C0055B12846FFF796FF0546002FF8D00A20D7
:10229C000AF00EFBF4E700252846BDE8F08100BFEC
:1022AC00C8130024304801084048010808B5064B03
:1022BC00186018B1054B1B68092B00DC08BD0448DD
:1022CC0007F060FBFAE700BFBC130024C413002422
:1022DC001809002408B5024807F054FB08BD00BFDC
:1022EC001809002430B589B000220F490F480CF0B2
:1022FC0090FF0F4D00220023CDE906230024049407
:10230C000E2303930294019400940A4B4FF44072F1
:10231C00094928460CF028FD084928460CF014FD04
:10232C00204609B030BD00BFE1220008D00F0024C8
:10233C00480B0024D1260008C02E0024904B010825
:10234C00014B53F820007047AC4B010848B108B55D
:10235C00054A1060054B1960084600F025FD002069
:10236C0008BD6FF015007047D8020024B813002484
:10237C0008B5054B1B781BB1034B01221A7008BD25
:10238C00024807F0FFFAF7E7582A0024180900243E
:10239C0008B5104BBFF35B8F53E8001F013143E8C6
:1023AC000012002AF8D1BFF35B8F30B90A480CF049
:1023BC003CFF0A4807F0E6FA08BD094BBFF35B8FF8
:1023CC0053E8001F013943E80012002AF8D1BFF38B
:1023DC005B8FEBE7C0130024D00F002418090024F6
:1023EC00C4130024064B00200146BFF35B8F53E857
:1023FC00000F43E80012002AF9D1BFF35B8F70473E
:10240C00C013002438B5FFF7EDFF0546094C00E07A
:10241C001034094B9C420BD263685B79002BF7D0CC
:10242C0023685B68002BF3D0294620469847EFE7DA
:10243C0038BD00BF3048010840480108034B1868FC
:10244C000028D4BF00200120704700BFC013002417
:10245C0010B5044C044920460AF066F8034B1C6086
:10246C0010BD00BFA4080024984B0108B41300242D
:10247C0008B500230C4A13700C4A13600C4A136005
:10248C004FF47A710B48FFF761FFFFF7E1FF0A4A3F
:10249C0006E0094BD31A1B11013351680B71103232
:1024AC00064B9A42F5D308BD592A0024C0130024C8
:1024BC00C413002479210008304801084048010861
:1024CC0008B5014601480AF003FA08BDA408002427
:1024DC0008B502480AF00BF908BD00BFA408002497
:1024EC0008B50146024B18680AF0F8F908BD00BFA0
:1024FC00B413002408B502480AF0F4F908BD00BF73
:10250C00A408002410B582B000220023CDE90023DA
:10251C002C4B187808B902B010BD68460AF0FAF9CD
:10252C00044680B1FFF7ECFD2046FFF7D9FF264BA0
:10253C00BFF35B8F53E8001F013943E80012002AF8
:10254C00F8D1BFF35B8FFFF779FF58B91F4A1368B7
:10255C00516813F57A7341F1000113605160FFF774
:10256C00C9FFD8E70CF0E6FD0022431827D213442C
:10257C00174AA2FB034C2CF0030404EB9C041B1B1A
:10258C00C01A61F100014FF0CC3300FB03F302FBE6
:10259C000133A0FB02021344400840EAC3705B08FD
:1025AC000A490A684968801A63EB010340F2E93270
:1025BC00904273F10003C9D3FFF724FFC6E7012251
:1025CC00D5E700BF582A0024C4130024C80F0024E8
:1025DC00CDCCCCCC0F4B1B7803B1704710B5002180
:1025EC000120FFF719FE0C4C00E010340B4B9C4201
:1025FC0008D263685B79002BF7D023689B68204670
:10260C009847F2E7FFF77EFF0028FBD1014B012230
:10261C001A7010BD592A002430480108404801089E
:10262C0010B582B01A4BBFF35B8F53E8002F511CCF
:10263C0043E800100028F8D1BFF35B8F154B1B78D3
:10264C0063B9154B1B68B3B1BAB1092A13D113483E
:10265C000CF0EBFD124807F095F90CE0EFF3118448
:10266C00102383F31288BFF36F8FFFF74BFF84F3B4
:10267C001188BFF36F8F02B010BD00220023CDE98B
:10268C00002342F210720023044808F0CFFAF2E75C
:10269C00C4130024592A0024BC130024D00F002496
:1026AC001809002410B50446044B1B689847A06019
:1026BC00214603480AF032F910BD00BFD8020024AD
:1026CC00A40800242DE9F04100210846FFF7A4FDE1
:1026DC00804650B14FF4FA76002711F03DFB154BB4
:1026EC001858FFF7E3FD002515E04FF0FF364FF0CB
:1026FC00FF37F2E74046FFF75DFD804670B94FF0BB
:10270C00FF364FF0FF3709E02C4632463B460A486D
:10271C0007F07EF92546B8F1000FEBD1FFF7F2FE7A
:10272C0004460028F6D1002DEED000210846FFF714
:10273C0005FDEAE708000000180900240248034BD5
:10274C00C01AC008704700BF30480108784701081C
:10275C0010B50C46FFF7F2FFA04203D9024B53F819
:10276C00340010BD0020FCE77847010800B589B0A3
:10277C00059206930023079362B1074A0C9B0293C0
:10278C000B9B01930A9B009305ABFFF781F909B0F2
:10279C005DF804FB0022F1E74FC900082DE9F04F6A
:1027AC008BB004AF05461E468846C1F34A24002C64
:1027BC0000F0988091460022FA603A617A61042315
:1027CC000293FB1801930A23009307F10C03214693
:1027DC004846FFF75DF9B0F5006F67D3D9F804C030
:1027EC006C4600233B7302237B738AB004AD15F156
:1027FC00100226D01221131E18BF012308460429EB
:10280C00D4BF002603F001060EB1404969610021D6
:10281C003970022179700828D4BF002103F001011E
:10282C0009B1C5F818C00C28D4BF002303F001036C
:10283C0013B140F2FF73EB6182B105F1200300216B
:10284C000AE06FF00041D6E701F118063E4416F895
:10285C00186C03F8016B01310129F5D9112822DD1F
:10286C00122342B10421397300217973B973012108
:10287C00F973F868286100216FF300016FF34101CF
:10288C006FF382016FF3C501022060F38811C3F36B
:10289C000A0363F353210023C1F313011C480AF00C
:1028AC00D3F8A5462DE06FF01B03DAE760F353284D
:1028BC00C0F30A0A0AEB1850173020F00700800802
:1028CC00FFF7FEFD8346B0B104230293FB1801937E
:1028DC000A230093534600F1100221464846FFF7A5
:1028EC0045FF08E004EB1154173424F00704A0084A
:1028FC00FFF7E6FD834633464246294658460AF022
:10290C0039F81C37BD46BDE8F08F00BFCC4B010831
:10291C00B04701082DE9F04F85B080460D461746AB
:10292C001E46DDF838A0DDF84090B9F1000F3CD020
:10293C00119B039300934B460F9A10210020FEF736
:10294C0045FEB0F5006F28D283460AEB000317331F
:10295C0023F0070300246FF300046FF341046FF3BB
:10296C00820468F3C50467F3881460F353246AF394
:10297C001F549808FFF7A4FD074600B1103000283B
:10298C0018BFB9F1000F12D13346224629463846FA
:10299C0009F0F0FF05B0BDE8F08F40F2FF73084A74
:1029AC00022108480AF038F8F4E70020CCE7119B24
:1029BC0000934B460F9A5946FEF708FEE4E700BF1A
:1029CC000C4C0108B0470108406820B1034BC01AF9
:1029DC0040F3CF0070474FF0FF3070477847010845
:1029EC000EB400B582B0014603AB53F8042B01932F
:1029FC00034801F037FA02B05DF804EB03B07047FE
:102A0C008BCA000810B584B011F0440F05D01A4BD6
:102A1C001B6833B9002004B010BD1849FFF7E0FF64
:102A2C00F9E717490968B2FBF1F2B2FBF3FC03FBBF
:102A3C001C224FF47A7E0EFB02F2B2FBF3F403FB82
:102A4C0014210EFB01F1B1FBF3F10E4AA2FB0C3287
:102A5C00D20A4FF4616303FB12CC0B4BA3FB0CE3C8
:102A6C005B0902910194C3EB0311ACEB8101009162
:102A7C000649FFF7B5FFCEE7D0130024444C0108FC
:102A8C00CC130024C5B3A29189888888504C0108C6
:102A9C0061B108B52AB1064A52F8232012B9054A89
:102AAC0000E0044A0449FFF79BFF08BD704700BFD4
:102ABC00F04C01086C4C0108104A01082DE9F0415A
:102ACC0080461746069D079EC1B900242DB12A46A3
:102ADC0010494046FFF784FF044466B1099B042B60
:102AEC0014BF002707F001078FB10B49324640464F
:102AFC00FFF776FF04442046BDE8F081074B099AA6
:102B0C0053F822200649FFF76BFF0446DEE7054920
:102B1C00ECE700BF884C0108744C0108044D010817
:102B2C00804C0108784C01082DE9F04F87B0054620
:102B3C000C46049205939DF84C7001F0020B01F0C9
:102B4C00010AC1F3C00801F4807909F0EDFE18B355
:102B5C00024616492846FFF743FF0646BBF1000F15
:102B6C001CD13A465146284609F0B4FFB9F1000F82
:102B7C0001D0002311930397129B0293119B019395
:102B8C00109B00930023049A41462846FFF796FFBA
:102B9C00304407B0BDE8F08F0026DFE7059A2146E8
:102BAC002846FFF72FFF0644DBE700BF8C4C0108DB
:102BBC0011F0100F0BD108B511F0200F03D0044900
:102BCC00FFF70EFF08BD0349FFF70AFFFAE770474E
:102BDC0014490108904C01082DE9F04105460F46B7
:102BEC00164698460699FFF7E3FF0024444505DA9C
:102BFC0024492846FFF7F4FE0134F7E7002409E0E6
:102C0C0020492846FFF7ECFE0BE01F492846FFF74A
:102C1C00E7FE01340F2C0CDC002C02DD14F0070F46
:102C2C00EED0B442F1D23A5D18492846FFF7D8FEEF
:102C3C00EFE717492846FFF7D3FE002409E01149B6
:102C4C002846FFF7CDFE0BE012492846FFF7C8FED9
:102C5C0001340F2C13DC002C02DD14F0070FEED026
:102C6C00B44207D23A5D0C4B9B5C13F0970FEBD13F
:102C7C002E22E9E703492846FFF7B2FEE8E7BDE854
:102C8C00F08100BF844C01089C4C0108944C010855
:102C9C00A04C0108A44C0108C29201082DE9F04196
:102CAC0084B004469DF82C500C9F0E9E95B9012BB8
:102CBC001ED019484FF0000827B13B462246174951
:102CCC0009F06EFAC6B905BB204609F0C1FE04B086
:102CDC00BDE8F08103950A980290019300920B468F
:102CEC0000220F992046FFF71FFF80460C48E3E7B0
:102CFC000B484FF00008DFE70F9B0093434632462A
:102D0C000D99204609F0FEFEDDE72A460F99204674
:102D1C0009F0ECFED8E700BFC3CA0008713E0008FA
:102D2C008BCA00082DE9F04383B00646056842F2D1
:102D3C000F738B4228BF0B46184A0521684608F0D2
:102D4C002BFB04467368D3F804900B27DFF85080F4
:102D5C0005E04A4639464046A8473F1A8044002FB2
:102D6C00F7D17368D3F804806F4605E042462146DC
:102D7C003846A847241A0744002CF7D173685F68BB
:102D8C001B24084E05E03A4621463046A847241A33
:102D9C000644002CF7D103B0BDE8F0833C4E01088B
:102DAC00C44C0108A84C0108074B01221A6004E02E
:102DBC004008054A13685B001360044B9842F7D82F
:102DCC00034B1860704700BFCC13002440420F0027
:102DDC00D013002470B506460D46002405E0315D85
:102DEC00044883685B6898470134AC42F7D32846A3
:102DFC0070BD00BFE8400108014B03600120704723
:102E0C007C4D010808B50348034A121A002109F049
:102E1C0009FF08BD88090024602A002408B506486B
:102E2C00064A121A064909F001FF0648064A121A08
:102E3C00064909F0FBFE08BD0000002488090024A7
:102E4C00D49301080000002400000024D49301084E
:102E5C002DE9F04383B000AF0446D0F80090D0F8D1
:102E6C000480D0F808E06D468AB0694611F1100272
:102E7C0000F0B5801426131E18BF01233046042E13
:102E8C00D4BF4FF0000C03F0010CBCF1000F01D0CB
:102E9C00594E4E610828D4BF002603F001060EB12E
:102EAC00C1F818900C28D4BF002603F001060EB10F
:102EBC00C1F81C801028D4BF002303F001030BB110
:102ECC00C1F820E0132840F38D8014233AB105207B
:102EDC00387100207871B871F87178680861002138
:102EEC006FF300016FF341016FF382016FF3C501C2
:102EFC00012060F38811C3F30A0363F353216FF3CA
:102F0C001F5100233D48FFF749FCAD46D4F80C9007
:102F1C00D4F81080D4F814E06D468AB0694611F1EB
:102F2C00100262D01426131E18BF01233046042E43
:102F3C00D4BF4FF0000C03F0010CBCF1000F01D01A
:102F4C002F4E4E610828D4BF002603F001060EB1A7
:102F5C00C1F818900C28D4BF002603F001060EB15E
:102F6C00C1F81C801028D4BF002303F001030BB15F
:102F7C00C1F820E013283BDD14233AB10520387149
:102F8C0000207871B871F8717868086100216FF3CE
:102F9C0000016FF341016FF382016FF3C5014FF034
:102FAC00010868F38811C3F30A0363F353216FF329
:102FBC001F51124E00233046FFF7F0FBAD46E3697C
:102FCC00104A4146304609F027FDA3690E4A414696
:102FDC00304609F021FD0C37BD46BDE8F0836FF09B
:102FEC00004648E76FF01B0370E76FF000469AE766
:102FFC006FF01B03C1E700BF8C4D010808480108A6
:10300C00BC4D0108EC4D0108FC4D010838B50446D7
:10301C000D4611B10846FFF71BFF012C04D02946C1
:10302C00204606F01FF938BDEFF30583103B034A29
:10303C000121034809F0F0FCF1E700BF2C4E010818
:10304C000848010830BFFFF7FDBF00BF38B5044684
:10305C00054D2A4605490FF0FBFF054A0021601972
:10306C000FF023FF38BD00BF0000000040480108EE
:10307C000800000070B50646054D064B1D444C1B60
:10308C002046FFF7E3FF083C746705F1080070BDAC
:10309C000000000008000000054B5A699B689A422A
:1030AC0004D0044A536843F080535360704700BF08
:1030BC00B018002400ED00E081690D4B5A6942F410
:1030CC0080725A61BFF34F8FBFF36F8F31F8021CC0
:1030DC005A6922F480725A61BFF34F8FBFF36F8F1E
:1030EC004DF60273994201D00020704701207047C1
:1030FC0000ED00E04FF0000C83F800C002F07F4CB4
:10310C00BCF17F4F14D102F00C0CBCF1080F04D0B1
:10311C0012F0080F09D00846704708B5054A01217E
:10312C00054809F06FFC002008BD01221A70704799
:10313C0000207047404E01080848010808B52A4A8B
:10314C0001212A4809F05EFC294B9B6A13F0007F91
:10315C001FD11D20264B9B6A13F0807F20D1244B5E
:10316C009B6A13F4002F22D1214B9B6A13F4802FFE
:10317C0024D11F4B9B6A13F4003F26D11C4B9B6A36
:10318C0013F4803F28D11A4A916A1A4B0B4393626D
:10319C0008BD194A0121154809F034FC1E20D9E755
:1031AC00164A0121114809F02DFC1F20D7E7144ABB
:1031BC0001210E4809F026FC2120D5E7114A0121F6
:1031CC000A4809F01FFC2220D3E70F4A01210748C7
:1031DC0009F018FC2320D1E70C4A0121034809F01F
:1031EC0011FC2420CFE700BF6C4E010808480108F1
:1031FC0000ED00E00000FFFF844E0108984E01082E
:10320C00B44E0108D44E0108FC4E0108184F0108B9
:10321C0008B500230B70034A0121034809F0F2FBA7
:10322C0008BD00BF444F010808480108B0B582B082
:10323C0000AF0F2933DC374D103900233B710223CB
:10324C007B718AB0EC461CF110022AD04FF0120EA2
:10325C00131E18BF01237046BEF1040FD4BF002407
:10326C0003F0010414B12C4CCCF8144000243C7035
:10327C0002247C700828D4BF002403F001040CB194
:10328C00CCF818500C28D4BF002303F001030BB169
:10329C00CCF81C109AB10CF1200300210DE01F4D4D
:1032AC00CAE76FF0004ED3E701F1080404EB070EF8
:1032BC001EF808EC03F801EB01310129F4D91128AF
:1032CC0024DD12234AB10421397100217971B971BD
:1032DC000121F9717868CCF8100000216FF300011E
:1032EC006FF341016FF382016FF3C501012060F3AD
:1032FC008811C3F30A0363F353216FF31F510023A7
:10330C000748FFF74BFA0837BD46B0BD6FF01B03FB
:10331C00D8E700BF684F01089C4F0108804F010897
:10332C0008480108F8B505460F461446374A0121EE
:10333C00374809F067FB374B9B6A13F4805F25D144
:10334C001626344B9B6A13F4006F26D1314B9B6AC3
:10335C0013F4007F28D12F4B9B6A13F4806F3FD15D
:10336C002C4B9B6A13F4807F41D12A4B9B6A13F43C
:10337C00005F43D1274A936A43F47F439362012150
:10338C00284609F063FC20703046F8BD224A012122
:10339C001F4809F037FB1726D3E7204A01211C48A8
:1033AC0009F030FB1826D1E71D4A0121184809F015
:1033BC0029FB184A936B926A12F4004F01D119261B
:1033CC00C9E7184A0121124809F026FB37B1114A06
:1033DC00936A23F4004393621926BCE71926BAE7D3
:1033EC00114A01210A4809F00DFB1A26B8E70F4AC9
:1033FC000121074809F006FB1B26BBE70C4A0121FB
:10340C00034809F0FFFA1C26B4E700BFB04F0108CF
:10341C000848010800ED00E0C84F0108DC4F010826
:10342C00F04F01080C5001082450010840500108CD
:10343C00585001082DE9F04104460F461546464AFE
:10344C000121464809F0DEFA454B9B6A13F0100F38
:10345C003CD11026424B9B6A13F0080F3DD1404BD8
:10346C009B6A13F0020F3FD16FF015083C4B9B6A1F
:10347C0013F0010F58D13A4B9B6A13F0200F5AD11D
:10348C00374B9B6A13F0100F04D1354B9B6A13F02A
:10349C00020F04D0324B5B6813F4006F52D1304BE7
:1034AC009B6A13F0200F04D02D4A536A23F4005367
:1034BC0053622B4A936A43F0FF0393620121204627
:1034CC0009F0C4FB28703046BDE8F081254A012183
:1034DC00224809F097FA1126BCE7234A01211F481C
:1034EC0009F090FA1226BAE7204A01211B4809F08C
:1034FC0089FA1B4BD3F834809B6A13F0800F03D1ED
:10350C006FF015081326B1E74346194A01211348F9
:10351C0009F082FA37B1124A936A23F0800393625E
:10352C001326A3E71326A1E7124A01210B4809F041
:10353C0069FA14269FE7104A0121084809F062FA3B
:10354C0015269DE72146404600F0BAF90028A6D082
:10355C0080F309880226A2E7885001080848010870
:10356C0000ED00E0A0500108DC4F0108D450010828
:10357C00EC500108045101085850010870B506467A
:10358C000D462B4A01212B4809F03CFA00232B70E5
:10359C00294BDC6A14F002040AD1274BDB6A002B9E
:1035AC000DDB254BDC6A14F080440ED1204670BD37
:1035BC00224A01211F4809F025FA0024F6E7204A87
:1035CC0001211C4809F01EFAF0E71E4A0121194896
:1035DC0009F018FA3046FFF76FFD98B9164B9B6A45
:1035EC0013F0FF0F16D1144B9C6A14F47F4418D1BE
:1035FC00114B9B6AB3F5803FD8D33046FFF79EFD45
:10360C000446D3E73368104A01210A4809F004FA4A
:10361C003468CBE72A4601213046FFF70BFF0446FE
:10362C00C4E72A4601213046FFF77CFE0446BDE77D
:10363C00245101080848010800ED00E03C51010844
:10364C0060510108705101089051010830B58BB0E0
:10365C001D4B5D68C5F30805002383F31188BFF388
:10366C006F8F0DF12603FFF745FD04460DF1270280
:10367C00294609F0EDFA9DF827300BB10BB030BD9F
:10368C0005460DF1040C20686168A268E368ACE89B
:10369C000F0020696169A269E369ACE80F009DF82D
:1036AC00263043B1089BC3F3080242B940F2FF1223
:1036BC001A43089203E0054B089A1340089301A99A
:1036CC002846FFF7A3FCD9E700ED00E000FEFFFF62
:1036DC00044B5A6942F010025A615A6922F00802EE
:1036EC005A61704700ED00E0EFF30880EFF30981B9
:1036FC0001B57246FFF7AAFF01BD00BF0A4880F36F
:10370C000888102080F3118808484FF40461401891
:10371C0080F30988EFF314800221084380F31488A6
:10372C00BFF36F8F00F08EF8C04B002400320024E2
:10373C0008B50A4B9B68834202D006F04FFF08BDC8
:10374C00EFF30583002BF8D0054B5A6842F08052FA
:10375C005A605A6A22F400425A62EEE7B01800240A
:10376C0000ED00E014498A684FF030001044EFF38C
:10377C00098C80E8F01F102080F31288BFF36F8F44
:10378C000E4F4FF000664A698A603E60506F0C4CD9
:10379C002060906F0023936780F3118804B5104666
:1037AC0000F08AF9BDE8044002F1300090E8F01F07
:1037BC008CF3098870470000B018002404ED00E079
:1037CC00041400241EF0040F0CBFEFF30880EFF379
:1037DC000980816911F8021C0229FFD001B57246DB
:1037EC0009F028FA01BD00BF002807DB00F01F021A
:1037FC00400901239340024A42F82030704700BF31
:10380C0000E100E0002804DB0901C9B2044B1954A3
:10381C00704700F00F000901C9B2024B19547047F0
:10382C0000E400E014ED00E0044B23F07F03044AB5
:10383C009360BFF34F8FBFF36F8F7047000000088A
:10384C0000ED00E008B5FFF7EFFF0C4AD2F8883026
:10385C0023F47003C2F88830EFF3148323F00403CD
:10386C0083F31488BFF36F8FFFF7CCFAFFF7D6FA08
:10387C0000F06AF809F039FA05F016FF00ED00E0E7
:10388C0010B4A2F120040D4942F8081C21F00101EA
:10389C0042F8081C42F8203C019B42F81C3C029B5D
:1038AC0042F8183C039B42F8143C4FF0807342F8EA
:1038BC00043C04650023836710BC7047A51F0008F7
:1038CC000E4B9B68A3B110F1160F0AD05A6EA2F1E1
:1038DC00400C84450ED882420ED98A4206D800206C
:1038EC0070475A6E8A4201D800207047586E704754
:1038FC00002070470020704700207047B01800244B
:10390C0008B50E4615460B4A9060426F0A4B1A607A
:10391C0000F0D2F82C4686F309880020034B984718
:10392C002046002100220023014C2047CFCC000868
:10393C00A51F0008B018002404140024014B102209
:10394C001A61704700ED00E0002306E002F00F0260
:10395C000849114410220A760133A22B08DC1AB252
:10396C00002AF3DB04491144102281F80023F3E709
:10397C00704700BFFCEC00E000E100E008B5EFF39D
:10398C000583103B044A02EBC301496852F833002B
:10399C008847FFF781FB08BD68410108184B5B693C
:1039AC0013F4803F2AD110B4154B0022C3F88420A5
:1039BC00BFF34F8FD3F88040C4F34E3000E018466D
:1039CC00C4F3C90243F6E07303EA401343EA82737B
:1039DC000B49C1F860321346013A002BF2D1431E59
:1039EC000028ECD1BFF34F8F4B6943F480334B610C
:1039FC00BFF34F8FBFF36F8F10BC7047704700BF82
:103A0C0000ED00E0002910DD034600F01F0001442A
:103A1C00BFF34F8F064AC2F8683220332039002991
:103A2C00F8DCBFF34F8FBFF36F8F0020704700BFE0
:103A3C0000ED00E0002910DD034600F01F000144FA
:103A4C00BFF34F8F064AC2F85C322033203900296D
:103A5C00F8DCBFF34F8FBFF36F8F0020704700BFB0
:103A6C0000ED00E00C4B5B6913F4003F13D1BFF386
:103A7C004F8FBFF36F8F084B0022C3F85022BFF358
:103A8C004F8FBFF36F8F5A6942F400325A61BFF304
:103A9C004F8FBFF36F8F704700ED00E008B5034BFD
:103AAC00034A0121034809F051F908BD000005241F
:103ABC0000000024AC51010808B5436E403B05489A
:103ACC00036040234360044B8360012109F042F9F9
:103ADC0008BD00BF0814002400000B15084AC2F8EA
:103AEC0098000B6823F01F03034343F01003C2F844
:103AFC009C308B6843F00103C2F8A030704700BFC4
:103B0C0000ED00E010B504460A4BD3F89030C3F337
:103B1C000723013B984203D8FFF7E0FF204610BD76
:103B2C000346054A0121054808F076FF6FF01500A1
:103B3C00F5E700BF00ED00E0BC510108F0470108BB
:103B4C002DE9F04780460F469A461646002409E0B8
:103B5C002946F0B209F0DBF8064610F1160F1AD020
:103B6C0001360134BC4216DA04EB440508EB85053A
:103B7C006A68002AF5D0BAF1000FE9D0284609F09E
:103B8C00B5F80028E4D12346044A0121044808F082
:103B9C0043FF6FF015063046BDE8F087E45101088D
:103BAC00F047010810B5034C01232278FFF7C8FF3A
:103BBC00207010BD5A2A002408B500230B4A127835
:103BCC00FFF7BEFF10F1160F0FD0024606E0084BB0
:103BDC00C3F898200021C3F8A0100132044BD3F88D
:103BEC009030C3F307239342F1DC08BD5A2A00241A
:103BFC0000ED00E070B584B0054603A8FFF7FCF8B3
:103C0C000646002423E0B3F5801F1FD1506851F8FD
:103C1C000C109368202B63D9B3F1004F62D8013B91
:103C2C00B3FA83F3C3F11F035B0003F03E035E4A58
:103C3C001A4300900191029269462878FFF762FFBF
:103C4C000028C0F2AA802B7801332B700134B442C7
:103C5C0080F0A6804FEA041C039901EB0412D06893
:103C6C00524B0340B3F5000F5DD01CD8B3F5001FC9
:103C7C003AD0B3F5800FC6D1506851F80C10936848
:103C8C00202B4CD9B3F1004F4BD8013BB3FA83F343
:103C9C00C3F11F035B0003F03E03454A1A43009037
:103CAC0001910292C8E7B3F1807F57D0B3F1007F46
:103CBC00CCD1506851F80C109368202B69D9B3F112
:103CCC00004F68D8013BB3FA83F3C3F11F035B00C9
:103CDC0003F03E0343F48023009001910293ABE781
:103CEC000823A4E73E23A2E7506851F80C10936810
:103CFC00202B10D9B3F1004F0FD8013BB3FA83F34B
:103D0C00C3F11F035B0003F03E032A4A1A430090E1
:103D1C000191029290E70823F7E73E23F5E7082389
:103D2C00BBE73E23B9E7506851F80C109368202B81
:103D3C0010D9B3F1004F0FD8013BB3FA83F3C3F1A1
:103D4C001F035B0003F03E0343F08273009001916C
:103D5C00029371E70823F7E73E23F5E7506851F823
:103D6C000C109368202B10D9B3F1004F0FD8013BE6
:103D7C00B3FA83F3C3F11F035B0003F03E0343F07C
:103D8C00887300900191029356E70823F7E73E23CE
:103D9C00F5E708239EE73E239CE76FF0150000E053
:103DAC00002004B070BD00BF00000B110000F0FF3C
:103DBC000000020600000811044B0522C3F89420F1
:103DCC00BFF34F8FBFF36F8F704700BF00ED00E064
:103DDC00BFF35F8F024B0022C3F89420704700BFE3
:103DEC0000ED00E038B51C4B1D681C4BD3F890302F
:103DFC00C3F307239D422BD8FFF7EAFF002409E009
:103E0C00154B5B6804EB440103EB81012046FFF783
:103E1C0065FE0134A542F3D811480570FFF7EAFEA0
:103E2C0010F1160F13D00E4B1A780C4BD3F89030B0
:103E3C00C3F307239A4207DA084BC3F898200021F2
:103E4C00C3F8A0100132F0E7FFF7B6FF002038BD31
:103E5C004FF0FF30FBE700BF144B010800ED00E012
:103E6C005A2A002430B587B00D4611460024009420
:103E7C000194029403940494059402228DF8022078
:103E8C00044A0192049005951A46684607F0AEFA6A
:103E9C0007B030BD69CD000808B5024B1B689847C8
:103EAC00002008BD14140024034B1860034A9378B7
:103EBC0043F002039370704714140024E4020024AE
:103ECC0008B5054808F0C9F9002383F31188BFF33E
:103EDC006F8F0423184602DF0852010808B54FF013
:103EEC00FF324FF0FF33024808F043FF08BD00BF1C
:103EFC00F402002408B5054921F00701044A521ABE
:103F0C00044808F096F8002008BD00BFAF5C002400
:103F1C00000005241814002438B50446FFF7DEFF12
:103F2C00224608210A4807F0F7FF0546B0FA80F050
:103F3C004009002C08BF002020B10FF00DFF054BED
:103F4C000C221A50044805F08DFC284638BD00BFE1
:103F5C00181400240C000000F402002410B50446D0
:103F6C00FFF7BCFF2146034807F080FF024805F02D
:103F7C0079FC10BD18140024F4020024034BC01A61
:103F8C008010034B03FB00F0704700BF3009002486
:103F9C00A38B2EBA2C22024B02FB0030704700BFC1
:103FAC003009002481F08003702B8CBF0023012387
:103FBC00FA2988BF43F001035BB9F0290FD88A0FA7
:103FCC008B005B1842F10002DB1852410360426027
:103FDC00704740F2F6420023C0E90023704700B559
:103FEC00F039642303FB01F163312CBF4FF0010C5A
:103FFC004FF0000CC1F313030A0D42EA0C321A44C1
:10400C000E4BA3FB02E3DB0803EB830303EB8303FD
:10401C00D31AC91A6CF1000C094A0A4B01FB03F3C1
:10402C0002FB0C33A1FB02121344890841EA837191
:10403C009B08016043605DF804FB00BF1F85EB51DA
:10404C00295C8FC2F5285C8F10B509F040F8054B40
:10405C001C6804E004F10C0005F040FE2468002C00
:10406C00F8D110BD2414002410B509F030F8054B1C
:10407C009C6804E004F10C0005F030FE2468002C70
:10408C00F8D110BD24140024F8B5044600220023F6
:10409C00104808F03DFF0746C8B13F2C17D93F3CEC
:1040AC000646A4B1002200230A4808F031FF054659
:1040BC0048B10146304608F052FF3F2C38BF3F2430
:1040CC003F3C2E46EDE7384608F028FF2F46384691
:1040DC00F8BD00BF3009002401B9704710B5144673
:1040EC000B46084A0121084808F096FC072384F87F
:1040FC0092306FF00803E36104F1200005F0EEFD4F
:10410C0010BD00BF38520108A847010810B582B095
:10411C00044690F89230013B072B4DD8DFE803F0B2
:10412C00041B2F3A4C6894A890F88610C1F3C00178
:10413C00806808F0E4FFA061A36800229A61A1687E
:10414C0004F168000AF022FD082384F8923020461E
:10415C00FFF7DCFF30E0806808F0E4FFA061A168A5
:10416C000B8AC31AA36194F890200AB9FC2B25D8AA
:10417C00AABBFF2384F89430032384F8923004F113
:10418C0030000BF052F8204600F0F8F8A0B90423E8
:10419C0084F892300021204600F09AF804F13000A7
:1041AC0000220023CDE9002342F21072002306F016
:1041BC003DFD052384F8923002B010BDFC22009224
:1041CC003D4A01213D4808F032FC072384F8923027
:1041DC006FF00703E3612046FFF798FFECE784F8E4
:1041EC0093208B61A16804F168000AF0CFFCC0E752
:1041FC0090F894300133DBB280F89430092B11D84D
:10420C00012100F065F804F1300000220023CDE913
:10421C00002342F22832002306F008FD032384F821
:10422C009230C9E700F11401254808F00AFF94F810
:10423C009430244A0121214808F0EEFB072384F82E
:10424C0092306FF00703E36104F130000AF0EDFFE8
:10425C00E36913F1080F1BD004F168000AF05BFC52
:10426C00A06808F05BFE0023A360082384F892305A
:10427C0000220023144808F04BFEA06068B104F142
:10428C001401124808F0DDFE002384F8923093E705
:10429C000221204600F01CF8DEE704F11403002292
:1042AC006261074AD2681AB11360054AD36083E78A
:1042BC00034AD36093607FE754520108A847010872
:1042CC0024140024845201085C0900242C140024BA
:1042DC0010B594B00446D0F88830C3F31C03029395
:1042EC0090F88E00C0F38003420802F0040C43EAFD
:1042FC000C0302F0080213438DF80D3010F0010F7F
:10430C0024D094F88C308DF810300DF1110341F05D
:10431C003001197094F890205A70D81C94F89120A0
:10432C009A7004ABC01AC0B208F09BFE8DF80C005A
:10433C00606801940E4B009342F21072002302A9A4
:10434C0002F074F9034618B914B010BD04ABDEE7E3
:10435C00084A0121084808F05FFB072384F89230D3
:10436C004FF0FF33E3612046FFF7D0FEECE700BFD0
:10437C00E5400008B0520108A847010830B583B0E9
:10438C00044690F8900088B9A069FFF77DFE0546B9
:10439C00CDB194F89230032B3ED094F89030002B92
:1043AC0047D0A560E560002003B030BD94F885309F
:1043BC00013B03FB00F0A369984228BF1846FFF7A6
:1043CC0063FE0546E4E704F1300000220023CDE94A
:1043DC00002342F22832002306F028FC94F8943093
:1043EC00FF2B10D1002284F8942004F11403626195
:1043FC00124A52681AB11360104A536009E00F4A0E
:10440C005360136005E0062384F892302046FFF7D2
:10441C007DFE4FF0FF30C7E704F130000AF005FFD6
:10442C00FF2384F8943004F11401044808F009FEC9
:10443C00B3E72946A06808F092FDB3E724140024E2
:10444C0010B584B0044690F8863013F0020F05D1F5
:10445C0013F0040F19D06FF0604100E01149D4F84B
:10446C008020C2F31C0201920291C3F380038DF8E9
:10447C000C3001AB22460C49606802F0BDF920609B
:10448C00002805DB002004B010BD40F2FF71E6E708
:10449C000346064A0121064808F0BEFA6FF00900EF
:1044AC00F1E700BF00FFFF035D480008C45201089C
:1044BC00A847010810B584B0044690F89A3013F060
:1044CC00040F17D06FF06041D4F89420C2F31C0293
:1044DC0001920291C3F380038DF80C3001AB22469C
:1044EC000A49A06802F088F92060002805DB00204A
:1044FC0004B010BD40F2FF71E6E70346044A012107
:10450C00044808F089FA6FF00900F1E74D4D0008F6
:10451C00E0520108A847010810B5044690F8623033
:10452C00032B12D0052B0BD10A4A01210A4808F0A3
:10453C0069FA072384F862306FF0020344F8143CE4
:10454C00A4F1100005F0CAFB10BD062380F8623000
:10455C00F6E700BFFC520108A847010838B50B79F3
:10456C000F2B28BF0F23454A12F803E090F886C0A2
:10457C001CF0010F06D00A7A90F884309A4249D187
:10458C00012200E000221CF0020F24D00C68D0F8AD
:10459C00803064F31C03C0F880300D68D0F888308C
:1045AC00374C1C4064F31C03C0F888302D02ADB2AC
:1045BC002C4364F31C03C0F8883024F07C4464F36F
:1045CC001C03C0F888300D6805F0E0552C4364F3EB
:1045DC001C03C0F888308B181B7A13F0F00420D021
:1045EC00102C45D1BEF1070F15D9022380F892305B
:1045FC0080F885E090F89530012464F3030380F88B
:10460C009530806802F10803AEEB020219440C30BD
:10461C0008F0C2FC38BD1B4A03211B4808F0F2F914
:10462C00F8E703F00F031CF0080F11D0BEF1080FD0
:10463C000ED93BB9531C0B441B7A1344DBB2023327
:10464C00DBB208E0114A03210F4808F0DBF9E1E77F
:10465C0013440133DBB29E4504D3012480F892400D
:10466C009E46CEE70A4A0321074808F0CBF9D1E76A
:10467C00084A0321044808F0C5F9CBE79C5501080A
:10468C00FF00FF1F1C530108A84701083453010801
:10469C004C53010868530108F8B504460F461646FA
:1046AC00C0680C3008F0B1FC864210D90546E068B1
:1046BC002A4639460C3008F06FFCE3685868E06015
:1046CC0060B1721B79190C3008F066FCF8BDE0681B
:1046DC00324639460C3008F05FFCF7E7054A0121F9
:1046EC00054808F08FF9072384F892306FF0070320
:1046FC00E361EBE788530108A84701082DE9F04175
:10470C0082B004460D4687680B790F2B28BF0F2308
:10471C004B4A12F8038090F8863013F0010F06D044
:10472C000A7A90F884309A4212D1012600E00026D1
:10473C00AB191B7A03F0F003202B0CD0072384F861
:10474C0092306FF00503E36104F1200005F0C6FA26
:10475C0002B0BDE8F08104F1300000220023CDE965
:10476C00002342F21072002306F060FA711C2E44F2
:10477C00327A94F8953003F00F00461C66F303036D
:10478C0084F8953002F00F03834232D194F88530CF
:10479C00434504D0A269A8EB01039A4239D8A8EB8F
:1047AC000108A369984528BF984608314246294418
:1047BC002046FFF771FFA369A3EB0803A361002B4D
:1047CC0033D094F890100029C2D094F89320013A79
:1047DC00D2B284F89320002ABAD184F89310BB612A
:1047EC00A16804F168000AF0D1F9032384F892302F
:1047FC00AEE7144A0121144808F004F9072384F8A1
:10480C0092306FF00303E36104F1200005F066FAC7
:10481C009EE70E4A01210C4808F0F4F8072384F8AF
:10482C0092306FF00803E36192E7082384F892302A
:10483C000023BB61A16804F168000AF0A7F987E7BF
:10484C009C550108A8530108A8470108C453010846
:10485C0010B5144692F89230052B10D0082B16D0B8
:10486C002BB1114A0321114808F0CCF802E0104694
:10487C00FFF774FE04F1200005F030FA10BD10466D
:10488C00FFF73CFF94F89230052BF3D1F6E7084A7A
:10489C000121064808F0B6F8072384F892306FF02F
:1048AC000703E361E6E700BF04540108A8470108C9
:1048BC00D453010810B5044690F85230042B04D19F
:1048CC00A4F1140005F00AFA10BD082380F8523048
:1048DC006FF0010340F8243C024A0121024808F021
:1048EC0091F8EDE734540108A8470108F0B595B0EC
:1048FC00044608F0D2FB0646D4F89C30C3F31C03E4
:10490C00029394F8A250C5F380036A0802F00401E4
:10491C000B4302F0080213438DF80D3094F8A1708C
:10492C00384608F09EFB8DF80C0015F0010F50D0A6
:10493C0094F8A0308DF810300122B6F5805F4AD380
:10494C0002F150016944102001F8400C02F15103AE
:10495C006B44002003F8400C300E02F15201694404
:10496C0001F8400C300C02F153036B4403F8400C7B
:10497C00300A02F15401694401F8400C951D02F112
:10498C0055036B4403F8406C94F8A630012262F393
:10499C00030384F8A630204608F08FFB0646791BEB
:1049AC00204608F0D7FB05F1080094F8A120521B13
:1049BC00314602AB18440EF04BFBA06801940D4B32
:1049CC00009342F21072002302A901F02FFE15B0E1
:1049DC00F0BD0022B1E7310A41F0100102F15000A4
:1049EC00684400F8401C951C02F151036B4403F819
:1049FC00406CC9E785D100082DE9F04194B004461C
:104A0C00D0F89C30C3F31C03029390F8A210C1F3AE
:104A1C0080034A0802F00400034302F00802134327
:104A2C008DF80D3011F0010F42D094F8A0308DF8B4
:104A3C001030012694F8A63003F00F03771C43F0D6
:104A4C00200306F150026A4402F8403C204608F06C
:104A5C0024FB94F8A150ED1B8542A8BF0546A0EBA2
:104A6C000508204608F029FB014606F109002A46F4
:104A7C0002AB18440EF0ECFA94F8A23013F0080FC5
:104A8C0002D07E19082E15DCE819C0B208F0E9FA3C
:104A9C008DF80C00A06801941E4B009342F210722A
:104AAC00002302A901F0C2FDD8B114B0BDE8F08119
:104ABC000026BFE73046082EB8BF0820C0B208F069
:104ACC00D0FA8DF80C0008360F2828BF0F20124B97
:104ADC001A5C521BD21BCC2102AB98190EF0E5F9D3
:104AEC00D8E794F8A63003F00F02013262F3030307
:104AFC0084F8A6302946204608F02CFB94F8A53003
:104B0C00013B84F8A53094F87B30013384F87B307A
:104B1C004046CAE785D100089C550108F0B595B010
:104B2C00044608F0BAFA0546D4F89C30C3F31C03CB
:104B3C00029394F8A230C3F380025B0803F00401E3
:104B4C000A4303F0080313438DF80D30204608F098
:104B5C00B4FA07462946204608F0FCFA94F8A2203D
:104B6C0012F0010F05D094F8A0308DF8103001230D
:104B7C0000E0002312F0080F0FD0C3F10702AA4285
:104B8C000BD203F150016944002001F8400C9E1C2B
:104B9C0051336B4403F8405C04E05E1C50336B44AF
:104BAC0003F8405C94F8A1309B1BAB4224D306F174
:104BBC0008002A46394602AB18440EF049FA94F81C
:104BCC00A23013F0080F02D07719082F1CD8A8199F
:104BDC00C0B208F046FA8DF80C00012384F87A3044
:104BEC00A0680194144B009342F21072002302A9A6
:104BFC0001F01CFD15B0F0BD104A0121104807F062
:104C0C0001FF6FF01B00F5E73846082F38BF08206E
:104C1C00C0B208F026FA8DF80C0008370F2828BF10
:104C2C000F20084B1A5C521B921BCC2102ABD819DB
:104C3C000EF03BF9D1E700BF85D1000858540108AC
:104C4C00A84701089C55010830B583B0044601F112
:104C5C00080590F89A3013F0010F06D090F89820C0
:104C6C0001F109050B7A9A421DD12B7803F0F00261
:104C7C00302A0DD103F00F03012B2BD0022B4AD07D
:104C8C009BB1082384F87A306FF0040363600AE068
:104C9C00274A0121274807F0B5FE082384F87A300B
:104CAC006FF00503636003B030BD042384F87A30E1
:104CBC00002384F8A43084F87B3004F17C0004F0E9
:104CCC00CFFE6B7884F87830AA7884F8792084F851
:104CDC00A530E8E704F1280000220023CDE90023E9
:104CEC0042F21072002305F0A1FF94F8A430092BB6
:104CFC0005D894F8A430013384F8A430D3E70E4AD5
:104D0C0003210C4807F07EFE082384F87A306FF0FC
:104D1C0006036360EDE7094A0121064807F072FEBD
:104D2C00082384F87A306FF007036360BBE700BF99
:104D3C0070540108A847010890540108A8540108B0
:104D4C0038B5144692F87A30032B0FD00C4A012157
:104D5C000C4807F057FE082384F87A306FF00503EF
:104D6C00636004F1140004F0B9FF38BD0D4602F184
:104D7C0028000AF05AFA29462046FFF765FFF0E7AB
:104D8C00C0540108A847010810B50446036893F8FD
:104D9C00A62012F0100F06D1216891F8A63013F05E
:104DAC00200F07D110BDD86808F0B8F8236800228E
:104DBC00DA60F1E7014809F068FDF3E7E808002440
:104DCC002DE9F04184B001900F4615461E46DDF8E2
:104DDC0028809B7913F0080F03D1937913F0080FF7
:104DEC000AD0BB681B6803A938469847002845D1F0
:104DFC00039B13F0040F41D0B8F1000F46D0019B78
:104E0C00C3F860800B9A5A6693F8A62042F04002D1
:104E1C0083F8A62001987C300122002109F0CDFEF8
:104E2C00019CA76004F19C0395E8030083E8030050
:104E3C0004F1940396E8030083E8030000266660FF
:104E4C0084F8A460564904F1140009F02FFF32468F
:104E5C005449019828300AF0DCF9019C94F8A130EF
:104E6C00202B34D8082B1FD24BBB94F8A23013F054
:104E7C00080F52D1082384F8A13031E04A4A0121AD
:104E8C004A4807F0BFFD6FF008046AE001986030F3
:104E9C000122002109F091FE019B93F8A6206FF3EB
:104EAC00861283F8A620B5E7A3F10801C9B2012246
:104EBC008A403F49114071B912F0010F10D13D4A9F
:104ECC0001213A4807F0A8FD6FF0080449E0302BA7
:104EDC0001D0402BF3D194F8A23013F0080F20D05E
:104EEC00204608F0DAF894F8A120AB7913F0010F02
:104EFC001FD00223D31A082A88BF013B984224D919
:104F0C002046FFF7D7FA0446A8B90198022380F887
:104F1C007A30143004F0E2FE1FE0402384F8A13014
:104F2C00DEE7254A0121214807F06CFD6FF00804EB
:104F3C0017E00123DEE70346204A01211B4807F056
:104F4C006BFD01A8FFF720FF0BE04FF0FF33236050
:104F5C000198FFF7E3FD044638B9B8F1000F10D003
:104F6C000024204604B0BDE8F08101A8FFF70CFF37
:104F7C0014F10B0F02D06FF00804F2E74FF0FF347E
:104F8C00EFE7019860304FF0FF324FF0FF3304F041
:104F9C003FFD019B5C6801A8FFF7F6FEE1E700BF4F
:104FAC00B9D10008C1480008D4540108A847010829
:104FBC001011010124550108FC5401083855010851
:104FCC0010B586B0059090F87A30013B072B16D8B7
:104FDC00DFE803F07804151763157878FFF786FC83
:104FEC000598283000220023CDE9002342F21072EC
:104FFC00002305F01BFE059B032283F87A2006B0E4
:10500C0010BD28300AF011F923E0059B062283F825
:10501C007A20F4E73C4A01213C4807F0F3FC059B5D
:10502C0014F10B0F06D06FF00802082183F87A10E8
:10503C005A60E4E74FF0FF32F7E790F8793043BB62
:10504C007C304FF0FF324FF0FF3304F0E1FC002CCA
:10505C00D5DD0598FFF7D0FC04460028D5D00028F4
:10506C00D8DB059890F87830002BE6D090F8A53076
:10507C00002BE2D1283000220023CDE9002342F29C
:10508C001072002305F0D2FD059B032283F87A20D1
:10509C00B5E7052380F87A30B1E700F1280490F8E1
:1050AC00791002A8FEF77EFFDDE902230020002123
:1050BC00CDE90001204605F0B9FD059B042283F8DB
:1050CC007A209CE70168002903DB80688368DB6930
:1050DC009847059828300AF0A8F8059890F8A6305B
:1050EC0013F0400F0BD0036E416E4068984705A833
:1050FC00FFF74AFE059B002283F87A207FE7603099
:10510C0004F040FCF6E700BF50550108A847010821
:10511C00F0B583B004460E4615461F46416000F1BB
:10512C008003D2E9000183E8030004F1880397E8C7
:10513C00030083E8030004F1680009F0E0FC089B1D
:10514C001B88A4F89030002384F89230AB7913F0CC
:10515C00080F03D1BB7913F0080F09D0B3681B6893
:10516C0001A930469847E8B9019B13F0040F19D0F8
:10517C00DDE90A23194807F0CBFEA060D0B1204628
:10518C00FFF75EF90546E8B9154904F1200009F06E
:10519C008DFD0022134904F130000AF03AF828463C
:1051AC0003B0F0BD104A0121104807F02BFC6FF042
:1051BC000805F4E70E4A01210C4807F023FC6FF0B8
:1051CC000A05ECE70B4A0121084807F01BFCA06814
:1051DC0007F0A4FE0023A360E1E700BF5C090024F4
:1051EC0057D1000825450008D4540108A8470108E8
:1051FC00645501087C550108F8B50446012828D8E7
:10520C0000EB80061A4800EBC61604EB8403DB01A6
:10521C0018330021184408F005F810BBA50004EB66
:10522C008400C0011830124F3844043009F0AEFB32
:10523C002819C001303038440122002109F0BDFC8E
:10524C002819C00148300B49384409F02FFD30466D
:10525C00F8BD0346084A0121084807F0DDFB00268B
:10526C00F5E7074A0121054807F0CCFB0026EEE7DD
:10527C0008030024CD520008DC550108C84701087A
:10528C00F855010808B5037B012B02D9022B0AD172
:10529C0008BD08F072F90028FAD0064A0121064828
:1052AC0007F0B0FBF4E7054A0121034807F0AAFB1D
:1052BC00EEE700BF10560108C84701083056010838
:1052CC0070B50446A0F1480510F83C3C012B09D9F7
:1052DC00022B10D114F83B3C9BB1A4F1180004F044
:1052EC0051FB0DE0284608F040F9284600F0E8F99B
:1052FC00C4F81C02EEE70C4A01210C4807F082FBB3
:10530C0070BD284608F06DF9064648B914F83C3CC7
:10531C00012BF5D8002EF3D1284608F02AF9EFE737
:10532C002846FFF7AFFFF1E730560108C8470108E0
:10533C0001460020012808D800EB8002044B03EB47
:10534C00C2138B4203D00130F4E76FF012007047A8
:10535C000803002438B505460024012C0AD804EBB8
:10536C008403DB01054AD1582846FBF701FD18B12F
:10537C000134F2E76FF01204204638BD0803002414
:10538C0084B070B582B007AC84E80E001AB3164630
:10539C00C0B2FFF731FF044600285AD000234373F4
:1053AC000AAB93E803008DE8030007AB0ECB204655
:1053BC0007F02CFF0546B0B99DF81C30012B1AD90B
:1053CC00022B2CD19DF8243084F87C326661204667
:1053DC0008F0FBF837E0204A0121204807F012FBC7
:1053EC006FF015052FE01E4A01211C4807F00AFB3F
:1053FC006FF015051AE00AAB93E803008DE8030083
:10540C0007AB0ECB204600F079F90028DAD0154A0C
:10541C000121124807F0F6FA6FF0150506E0124A62
:10542C0001210E4807F0EEFA6FF085051834BFF332
:10543C005B8F54E8003F23F0010344E80032002A5C
:10544C00F7D1BFF35B8F284602B0BDE8704004B0C3
:10545C0070476FF01505F6E744560108C847010878
:10546C00685601089C5601083056010870B544680E
:10547C00B4F85030043B9BB2FC2B33D8054694F85F
:10548C00523080F85E3094F8533080F85F30B4F8C6
:10549C005020043A92B2A0F85C20B4F85060023E5E
:1054AC00B6B204F1540160300DF0D2FD06F1500398
:1054BC002344DA78264496F8523043EA0223A5F8BE
:1054CC005C31B4F85030023B04F152024FF6FF71DC
:1054DC004AF2010008F0FFF8B5F85C31834209D1BB
:1054EC00002070BD074A0221074807F08BFA6FF0C5
:1054FC007900F6E7054A0221034807F083FA6FF0BA
:10550C000400EEE7DC560108E0470108F0560108FC
:10551C0010B582B04468002300930193CB680093CC
:10552C00037B012B14D003238DF806300A7C9AB12F
:10553C00531EDBB2012B1DD88DF8042001238DF8EE
:10554C0005306946206807F0E4FE58B902B010BD7A
:10555C0002238DF80630E9E78DF8042003238DF83B
:10556C000530EEE7054A0121054807F04BFA6FF0CC
:10557C001500EBE76FF01500E8E700BF1C570108BA
:10558C00E047010808B5406B18B1483004F0A6FBA1
:10559C0008BD034A0121034807F034FAF8E700BFBD
:1055AC0038570108E0470108F0B583B00546446858
:1055BC000121183007F0A3FF002844D0B4F8503074
:1055CC00B3F5807F43D004F11800626863322CBFBE
:1055DC0001250025C2F31303110D41EA05311944CD
:1055EC001E4BA3FB0163DB0803EB830303EB830379
:1055FC00CB1AD21A65F1000519491A4B02FB03F3B9
:10560C0001FB0533A2FB01210B44920842EA837291
:10561C009B0800260027CDE9006705F007FB2068F2
:10562C00A168B4F85020C2F5807283689B6993B16D
:10563C009847A3680344A360B4F850300344A4F81B
:10564C00503003B0F0BD284607F0B0FEF9E728460D
:10565C0007F08BFFF5E76FF05700EAE71F85EB517A
:10566C00295C8FC2F5285C8F38B529B104460D46EC
:10567C0007F079FE30B938BD0F4A01210F4807F009
:10568C00C1F9F8E7204607F065FE0028F3D0A368BF
:10569C005B6B13B12046984710B12846FFF784FF87
:1056AC00A3685B6A1BB1204698470028E3D02846C4
:1056BC0007F0C3FEDFE700BF58570108E0470108B9
:1056CC0010B54468037B4BB1012B10D0094A012162
:1056DC00094807F097F96FF085000AE0FFF7C6FE5E
:1056EC000023A4F8503004F15203A36001E06FF0E2
:1056FC00850010BD84570108E047010884B0F0B55F
:10570C0083B000AF044607F1240080E80E00656802
:10571C0097F82430012B00F2B3802373286809F02A
:10572C005BF870B307F124012046FFF7F1FE002867
:10573C0040F0A9803B6B002B00F08580B3F5164F31
:10574C0000F28980534AB2FBF3F36B60204607F0FA
:10575C00E3FE002840F09A800023A5F8503005F1B4
:10576C005203AB6022464C49286807F0C4FD06463C
:10577C00002874D030460C37BD46BDE8F04004B06C
:10578C0070472B68D3F800C06D4600233B71022391
:10579C007B7188B06C4614F110021DD00E21131EC3
:1057AC0018BF012308460429D4BF002603F00106C4
:1057BC000EB13A49616100213970022179700828D3
:1057CC00D4BF002303F001030BB1C4F818C082B19D
:1057DC0004F11C0300210AE06FF00041DFE701F146
:1057EC0008063E4416F8086C03F8016B01310129D8
:1057FC00F5D90D2824DD0E2342B103213971002186
:10580C007971B9710121F9717868206100216FF308
:10581C0000016FF341016FF382016FF3C5010120A9
:10582C0060F38811C3F30A0363F353216FF31F5121
:10583C0000231B48FCF7B2FFAD466FF0120699E748
:10584C006FF01B03D8E7174A0121154807F0DAF867
:10585C006FF015068EE740F2EA336B6076E70022B4
:10586C00114905F1180009F0D4FCEC64204607F04E
:10587C00C9FD6B680D4A0321094807F0CDF879E79B
:10588C006FF0850676E76FF0150673E76FF0040688
:10589C0070E700BFA0764B02755600089C570108B4
:1058AC00E0470108B857010891550008C85701088E
:1058BC0030B583B004460D4690F85F3000910A4A2B
:1058CC0003210A4807F0B3F8204607F06CFE94F861
:1058DC00653163F07F0384F8653184F866510123E8
:1058EC00A4F8623103B030BDEC570108D847010869
:1058FC002DE9F04383B0B0F85C30042B2AD1054677
:10590C0043691B687BB390F8603090F8614044EABF
:10591C00032490F8623090F8639049EA032909F166
:10592C00FF339BB2B3F5FA6F22D2B9F101032AD43B
:10593C00C3F3CF035A1C0233A5F8623185F86621F4
:10594C0005F2671892B2002140460DF0AEFA00261F
:10595C00012727E0234A0121234807F053F80020B0
:10596C0003B0BDE8F0830121FFF7A2FF0120F7E7A8
:10597C001E4A01211C4807F045F803212846FFF771
:10598C0097FF0120ECE70733D2E7194A03211648A9
:10599C0007F038F802212846FFF78AFF0120DFE7DD
:1059AC007F00FFB24E451AD26B691B680DF10701DF
:1059BC00204698470028E8D19DF8073023B198F885
:1059CC0000303B4388F800300134A4B2731C9EB203
:1059DC0013F0070FE4D108F101080127E2E70120D9
:1059EC00BEE700BF04580108D84701081C5801083D
:1059FC003C5801082DE9F04383B0B0F85C30042B1F
:105A0C0024D1054643699B684BB390F8603090F8FD
:105A1C00614044EA032490F8623090F8637047EADE
:105A2C0003277B1E9BB2B3F5FA6F1DD27B1E26D4C7
:105A3C00C3F3CF035A1C90B20233A5F8623185F838
:105A4C00662105F26716334600221FE02A4A01211F
:105A5C002A4806F0D7FF002003B0BDE8F0830121EF
:105A6C00FFF726FF0120F7E7254A0121234806F01E
:105A7C00C9FF03212846FFF71BFF0120ECE7073382
:105A8C00D6E7002103F8011B013292B28242F8D30F
:105A9C004FF000084FF001090EE01A4A0321174895
:105AAC0006F0B0FF02212846FFF702FF0120D3E7E2
:105ABC004FEA49095FFA89F9B8451BD26B699B68B3
:105ACC000DF10701204698470028E6D19DF80730D4
:105ADC001BB1337849EA030333700134A4B208F1E3
:105AEC0001031FFA83F813F0070FE1D101364FF0D1
:105AFC000109E1E70120AFE704580108D847010884
:105B0C005858010878580108F0B585B0B0F85C30E9
:105B1C00042B22D1064690F8603090F8614044EA9C
:105B2C00032490F8623090F8635045EA03252BB2B9
:105B3C006A1E92B27C2A18D85B00DBB241F2873223
:105B4C00944225D842695269EAB15A1CA6F86221DE
:105B5C0086F8663106F267172FE0344A0121344883
:105B6C0006F050FF002005B0F0BD7D2300932B46BE
:105B7C00304A01212E4806F05AFF03213046FFF728
:105B8C0097FE0120EFE70121FFF792FE0120EAE7E3
:105B9C004269D2693AB113F0020FD6D00121FFF756
:105BAC0087FE0120DFE70121FFF782FE0120DAE703
:105BBC000134A4B2013DADB253BB002D33D041F240
:105BCC0087339C420ED873695B6903A920469847BA
:105BDC0083B2002BECD1BDF80C20110A39707A700D
:105BEC000237E5E77369DB6903A92046984783B25E
:105BFC004BB9039A110C100E38707970C2F307214F
:105C0C00B970FA7004370234A4B2023DADB2D3E7D6
:105C1C00094A0321064806F0F5FE02213046FFF73B
:105C2C0047FE01209FE701209DE700BF04580108B3
:105C3C00D8470108A0580108CC580108F0B585B028
:105C4C00B0F85C30042B22D1064690F8603090F806
:105C5C00614044EA032490F8623090F8635045EABE
:105C6C0003252BB26A1E92B27C2A18D85B00DBB2D9
:105C7C0041F28732944225D84269D268EAB15A1C63
:105C8C00A6F8622186F8663106F267172FE0344ACF
:105C9C000121344806F0B6FE002005B0F0BD7D238E
:105CAC0000932B46304A01212E4806F0C0FE0321FA
:105CBC003046FFF7FDFD0120EFE70121FFF7F8FD6E
:105CCC000120EAE7426912693AB113F0020FD6D00B
:105CDC000121FFF7EDFD0120DFE70121FFF7E8FDD2
:105CEC000120DAE70134A4B2013DADB253BB002D63
:105CFC0033D041F287339C420ED87369DB6803A919
:105D0C002046984703460028ECD1BDF80C20110A18
:105D1C0039707A700237E5E773691B6903A920466D
